{
  "abi": [
    {
      "type": "constructor",
      "inputs": [],
      "stateMutability": "nonpayable"
    },
    {
      "type": "fallback",
      "stateMutability": "payable"
    },
    {
      "type": "receive",
      "stateMutability": "payable"
    },
    {
      "type": "function",
      "name": "DEFAULT_ADMIN_ROLE",
      "inputs": [],
      "outputs": [
        {
          "name": "",
          "type": "bytes32",
          "internalType": "bytes32"
        }
      ],
      "stateMutability": "view"
    },
    {
      "type": "function",
      "name": "DOMAIN_SEPARATOR",
      "inputs": [],
      "outputs": [
        {
          "name": "",
          "type": "bytes32",
          "internalType": "bytes32"
        }
      ],
      "stateMutability": "view"
    },
    {
      "type": "function",
      "name": "WITHDRAWAL_UNLOCKER_ROLE",
      "inputs": [],
      "outputs": [
        {
          "name": "",
          "type": "bytes32",
          "internalType": "bytes32"
        }
      ],
      "stateMutability": "view"
    },
    {
      "type": "function",
      "name": "_MAX_PERCENTAGE",
      "inputs": [],
      "outputs": [
        {
          "name": "",
          "type": "uint256",
          "internalType": "uint256"
        }
      ],
      "stateMutability": "view"
    },
    {
      "type": "function",
      "name": "checkHighTierVoteWeightThreshold",
      "inputs": [
        {
          "name": "_voteWeight",
          "type": "uint256",
          "internalType": "uint256"
        }
      ],
      "outputs": [
        {
          "name": "",
          "type": "bool",
          "internalType": "bool"
        }
      ],
      "stateMutability": "view"
    },
    {
      "type": "function",
      "name": "checkThreshold",
      "inputs": [
        {
          "name": "_voteWeight",
          "type": "uint256",
          "internalType": "uint256"
        }
      ],
      "outputs": [
        {
          "name": "",
          "type": "bool",
          "internalType": "bool"
        }
      ],
      "stateMutability": "view"
    },
    {
      "type": "function",
      "name": "dailyWithdrawalLimit",
      "inputs": [
        {
          "name": "",
          "type": "address",
          "internalType": "address"
        }
      ],
      "outputs": [
        {
          "name": "",
          "type": "uint256",
          "internalType": "uint256"
        }
      ],
      "stateMutability": "view"
    },
    {
      "type": "function",
      "name": "depositCount",
      "inputs": [],
      "outputs": [
        {
          "name": "",
          "type": "uint256",
          "internalType": "uint256"
        }
      ],
      "stateMutability": "view"
    },
    {
      "type": "function",
      "name": "emergencyPauser",
      "inputs": [],
      "outputs": [
        {
          "name": "",
          "type": "address",
          "internalType": "address"
        }
      ],
      "stateMutability": "view"
    },
    {
      "type": "function",
      "name": "getContract",
      "inputs": [
        {
          "name": "contractType",
          "type": "uint8",
          "internalType": "enum ContractType"
        }
      ],
      "outputs": [
        {
          "name": "contract_",
          "type": "address",
          "internalType": "address"
        }
      ],
      "stateMutability": "view"
    },
    {
      "type": "function",
      "name": "getHighTierVoteWeightThreshold",
      "inputs": [],
      "outputs": [
        {
          "name": "",
          "type": "uint256",
          "internalType": "uint256"
        },
        {
          "name": "",
          "type": "uint256",
          "internalType": "uint256"
        }
      ],
      "stateMutability": "view"
    },
    {
      "type": "function",
      "name": "getRoleAdmin",
      "inputs": [
        {
          "name": "role",
          "type": "bytes32",
          "internalType": "bytes32"
        }
      ],
      "outputs": [
        {
          "name": "",
          "type": "bytes32",
          "internalType": "bytes32"
        }
      ],
      "stateMutability": "view"
    },
    {
      "type": "function",
      "name": "getRoleMember",
      "inputs": [
        {
          "name": "role",
          "type": "bytes32",
          "internalType": "bytes32"
        },
        {
          "name": "index",
          "type": "uint256",
          "internalType": "uint256"
        }
      ],
      "outputs": [
        {
          "name": "",
          "type": "address",
          "internalType": "address"
        }
      ],
      "stateMutability": "view"
    },
    {
      "type": "function",
      "name": "getRoleMemberCount",
      "inputs": [
        {
          "name": "role",
          "type": "bytes32",
          "internalType": "bytes32"
        }
      ],
      "outputs": [
        {
          "name": "",
          "type": "uint256",
          "internalType": "uint256"
        }
      ],
      "stateMutability": "view"
    },
    {
      "type": "function",
      "name": "getRoninToken",
      "inputs": [
        {
          "name": "mainchainToken",
          "type": "address",
          "internalType": "address"
        }
      ],
      "outputs": [
        {
          "name": "token",
          "type": "tuple",
          "internalType": "struct MappedTokenConsumer.MappedToken",
          "components": [
            {
              "name": "erc",
              "type": "uint8",
              "internalType": "enum TokenStandard"
            },
            {
              "name": "tokenAddr",
              "type": "address",
              "internalType": "address"
            }
          ]
        }
      ],
      "stateMutability": "view"
    },
    {
      "type": "function",
      "name": "getThreshold",
      "inputs": [],
      "outputs": [
        {
          "name": "num_",
          "type": "uint256",
          "internalType": "uint256"
        },
        {
          "name": "denom_",
          "type": "uint256",
          "internalType": "uint256"
        }
      ],
      "stateMutability": "view"
    },
    {
      "type": "function",
      "name": "grantRole",
      "inputs": [
        {
          "name": "role",
          "type": "bytes32",
          "internalType": "bytes32"
        },
        {
          "name": "account",
          "type": "address",
          "internalType": "address"
        }
      ],
      "outputs": [],
      "stateMutability": "nonpayable"
    },
    {
      "type": "function",
      "name": "hasRole",
      "inputs": [
        {
          "name": "role",
          "type": "bytes32",
          "internalType": "bytes32"
        },
        {
          "name": "account",
          "type": "address",
          "internalType": "address"
        }
      ],
      "outputs": [
        {
          "name": "",
          "type": "bool",
          "internalType": "bool"
        }
      ],
      "stateMutability": "view"
    },
    {
      "type": "function",
      "name": "highTierThreshold",
      "inputs": [
        {
          "name": "",
          "type": "address",
          "internalType": "address"
        }
      ],
      "outputs": [
        {
          "name": "",
          "type": "uint256",
          "internalType": "uint256"
        }
      ],
      "stateMutability": "view"
    },
    {
      "type": "function",
      "name": "initialize",
      "inputs": [
        {
          "name": "_roleSetter",
          "type": "address",
          "internalType": "address"
        },
        {
          "name": "_wrappedToken",
          "type": "address",
          "internalType": "contract IWETH"
        },
        {
          "name": "_roninChainId",
          "type": "uint256",
          "internalType": "uint256"
        },
        {
          "name": "_numerator",
          "type": "uint256",
          "internalType": "uint256"
        },
        {
          "name": "_highTierVWNumerator",
          "type": "uint256",
          "internalType": "uint256"
        },
        {
          "name": "_denominator",
          "type": "uint256",
          "internalType": "uint256"
        },
        {
          "name": "_addresses",
          "type": "address[][3]",
          "internalType": "address[][3]"
        },
        {
          "name": "_thresholds",
          "type": "uint256[][4]",
          "internalType": "uint256[][4]"
        },
        {
          "name": "_standards",
          "type": "uint8[]",
          "internalType": "enum TokenStandard[]"
        }
      ],
      "outputs": [],
      "stateMutability": "payable"
    },
    {
      "type": "function",
      "name": "initializeV2",
      "inputs": [
        {
          "name": "bridgeManagerContract",
          "type": "address",
          "internalType": "address"
        }
      ],
      "outputs": [],
      "stateMutability": "nonpayable"
    },
    {
      "type": "function",
      "name": "initializeV3",
      "inputs": [],
      "outputs": [],
      "stateMutability": "nonpayable"
    },
    {
      "type": "function",
      "name": "initializeV4",
      "inputs": [
        {
          "name": "wethUnwrapper_",
          "type": "address",
          "internalType": "address payable"
        }
      ],
      "outputs": [],
      "stateMutability": "nonpayable"
    },
    {
      "type": "function",
      "name": "lastDateSynced",
      "inputs": [
        {
          "name": "",
          "type": "address",
          "internalType": "address"
        }
      ],
      "outputs": [
        {
          "name": "",
          "type": "uint256",
          "internalType": "uint256"
        }
      ],
      "stateMutability": "view"
    },
    {
      "type": "function",
      "name": "lastSyncedWithdrawal",
      "inputs": [
        {
          "name": "",
          "type": "address",
          "internalType": "address"
        }
      ],
      "outputs": [
        {
          "name": "",
          "type": "uint256",
          "internalType": "uint256"
        }
      ],
      "stateMutability": "view"
    },
    {
      "type": "function",
      "name": "lockedThreshold",
      "inputs": [
        {
          "name": "",
          "type": "address",
          "internalType": "address"
        }
      ],
      "outputs": [
        {
          "name": "",
          "type": "uint256",
          "internalType": "uint256"
        }
      ],
      "stateMutability": "view"
    },
    {
      "type": "function",
      "name": "mapTokens",
      "inputs": [
        {
          "name": "_mainchainTokens",
          "type": "address[]",
          "internalType": "address[]"
        },
        {
          "name": "_roninTokens",
          "type": "address[]",
          "internalType": "address[]"
        },
        {
          "name": "_standards",
          "type": "uint8[]",
          "internalType": "enum TokenStandard[]"
        }
      ],
      "outputs": [],
      "stateMutability": "nonpayable"
    },
    {
      "type": "function",
      "name": "mapTokensAndThresholds",
      "inputs": [
        {
          "name": "_mainchainTokens",
          "type": "address[]",
          "internalType": "address[]"
        },
        {
          "name": "_roninTokens",
          "type": "address[]",
          "internalType": "address[]"
        },
        {
          "name": "_standards",
          "type": "uint8[]",
          "internalType": "enum TokenStandard[]"
        },
        {
          "name": "_thresholds",
          "type": "uint256[][4]",
          "internalType": "uint256[][4]"
        }
      ],
      "outputs": [],
      "stateMutability": "nonpayable"
    },
    {
      "type": "function",
      "name": "minimumVoteWeight",
      "inputs": [],
      "outputs": [
        {
          "name": "",
          "type": "uint256",
          "internalType": "uint256"
        }
      ],
      "stateMutability": "view"
    },
    {
      "type": "function",
      "name": "nonce",
      "inputs": [],
      "outputs": [
        {
          "name": "",
          "type": "uint256",
          "internalType": "uint256"
        }
      ],
      "stateMutability": "view"
    },
    {
      "type": "function",
      "name": "onBridgeOperatorsAdded",
      "inputs": [
        {
          "name": "operators",
          "type": "address[]",
          "internalType": "address[]"
        },
        {
          "name": "weights",
          "type": "uint96[]",
          "internalType": "uint96[]"
        },
        {
          "name": "addeds",
          "type": "bool[]",
          "internalType": "bool[]"
        }
      ],
      "outputs": [
        {
          "name": "",
          "type": "bytes4",
          "internalType": "bytes4"
        }
      ],
      "stateMutability": "nonpayable"
    },
    {
      "type": "function",
      "name": "onBridgeOperatorsRemoved",
      "inputs": [
        {
          "name": "operators",
          "type": "address[]",
          "internalType": "address[]"
        },
        {
          "name": "removeds",
          "type": "bool[]",
          "internalType": "bool[]"
        }
      ],
      "outputs": [
        {
          "name": "",
          "type": "bytes4",
          "internalType": "bytes4"
        }
      ],
      "stateMutability": "nonpayable"
    },
    {
      "type": "function",
      "name": "onERC1155BatchReceived",
      "inputs": [
        {
          "name": "",
          "type": "address",
          "internalType": "address"
        },
        {
          "name": "",
          "type": "address",
          "internalType": "address"
        },
        {
          "name": "",
          "type": "uint256[]",
          "internalType": "uint256[]"
        },
        {
          "name": "",
          "type": "uint256[]",
          "internalType": "uint256[]"
        },
        {
          "name": "",
          "type": "bytes",
          "internalType": "bytes"
        }
      ],
      "outputs": [
        {
          "name": "",
          "type": "bytes4",
          "internalType": "bytes4"
        }
      ],
      "stateMutability": "nonpayable"
    },
    {
      "type": "function",
      "name": "onERC1155Received",
      "inputs": [
        {
          "name": "",
          "type": "address",
          "internalType": "address"
        },
        {
          "name": "",
          "type": "address",
          "internalType": "address"
        },
        {
          "name": "",
          "type": "uint256",
          "internalType": "uint256"
        },
        {
          "name": "",
          "type": "uint256",
          "internalType": "uint256"
        },
        {
          "name": "",
          "type": "bytes",
          "internalType": "bytes"
        }
      ],
      "outputs": [
        {
          "name": "",
          "type": "bytes4",
          "internalType": "bytes4"
        }
      ],
      "stateMutability": "nonpayable"
    },
    {
      "type": "function",
      "name": "pause",
      "inputs": [],
      "outputs": [],
      "stateMutability": "nonpayable"
    },
    {
      "type": "function",
      "name": "paused",
      "inputs": [],
      "outputs": [
        {
          "name": "",
          "type": "bool",
          "internalType": "bool"
        }
      ],
      "stateMutability": "view"
    },
    {
      "type": "function",
      "name": "reachedWithdrawalLimit",
      "inputs": [
        {
          "name": "_token",
          "type": "address",
          "internalType": "address"
        },
        {
          "name": "_quantity",
          "type": "uint256",
          "internalType": "uint256"
        }
      ],
      "outputs": [
        {
          "name": "",
          "type": "bool",
          "internalType": "bool"
        }
      ],
      "stateMutability": "view"
    },
    {
      "type": "function",
      "name": "receiveEther",
      "inputs": [],
      "outputs": [],
      "stateMutability": "payable"
    },
    {
      "type": "function",
      "name": "renounceRole",
      "inputs": [
        {
          "name": "role",
          "type": "bytes32",
          "internalType": "bytes32"
        },
        {
          "name": "account",
          "type": "address",
          "internalType": "address"
        }
      ],
      "outputs": [],
      "stateMutability": "nonpayable"
    },
    {
      "type": "function",
      "name": "requestDepositFor",
      "inputs": [
        {
          "name": "_request",
          "type": "tuple",
          "internalType": "struct Transfer.Request",
          "components": [
            {
              "name": "recipientAddr",
              "type": "address",
              "internalType": "address"
            },
            {
              "name": "tokenAddr",
              "type": "address",
              "internalType": "address"
            },
            {
              "name": "info",
              "type": "tuple",
              "internalType": "struct TokenInfo",
              "components": [
                {
                  "name": "erc",
                  "type": "uint8",
                  "internalType": "enum TokenStandard"
                },
                {
                  "name": "id",
                  "type": "uint256",
                  "internalType": "uint256"
                },
                {
                  "name": "quantity",
                  "type": "uint256",
                  "internalType": "uint256"
                }
              ]
            }
          ]
        }
      ],
      "outputs": [],
      "stateMutability": "payable"
    },
    {
      "type": "function",
      "name": "revokeRole",
      "inputs": [
        {
          "name": "role",
          "type": "bytes32",
          "internalType": "bytes32"
        },
        {
          "name": "account",
          "type": "address",
          "internalType": "address"
        }
      ],
      "outputs": [],
      "stateMutability": "nonpayable"
    },
    {
      "type": "function",
      "name": "roninChainId",
      "inputs": [],
      "outputs": [
        {
          "name": "",
          "type": "uint256",
          "internalType": "uint256"
        }
      ],
      "stateMutability": "view"
    },
    {
      "type": "function",
      "name": "setContract",
      "inputs": [
        {
          "name": "contractType",
          "type": "uint8",
          "internalType": "enum ContractType"
        },
        {
          "name": "addr",
          "type": "address",
          "internalType": "address"
        }
      ],
      "outputs": [],
      "stateMutability": "nonpayable"
    },
    {
      "type": "function",
      "name": "setDailyWithdrawalLimits",
      "inputs": [
        {
          "name": "_tokens",
          "type": "address[]",
          "internalType": "address[]"
        },
        {
          "name": "_limits",
          "type": "uint256[]",
          "internalType": "uint256[]"
        }
      ],
      "outputs": [],
      "stateMutability": "nonpayable"
    },
    {
      "type": "function",
      "name": "setEmergencyPauser",
      "inputs": [
        {
          "name": "_addr",
          "type": "address",
          "internalType": "address"
        }
      ],
      "outputs": [],
      "stateMutability": "nonpayable"
    },
    {
      "type": "function",
      "name": "setHighTierThresholds",
      "inputs": [
        {
          "name": "_tokens",
          "type": "address[]",
          "internalType": "address[]"
        },
        {
          "name": "_thresholds",
          "type": "uint256[]",
          "internalType": "uint256[]"
        }
      ],
      "outputs": [],
      "stateMutability": "nonpayable"
    },
    {
      "type": "function",
      "name": "setHighTierVoteWeightThreshold",
      "inputs": [
        {
          "name": "_numerator",
          "type": "uint256",
          "internalType": "uint256"
        },
        {
          "name": "_denominator",
          "type": "uint256",
          "internalType": "uint256"
        }
      ],
      "outputs": [
        {
          "name": "_previousNum",
          "type": "uint256",
          "internalType": "uint256"
        },
        {
          "name": "_previousDenom",
          "type": "uint256",
          "internalType": "uint256"
        }
      ],
      "stateMutability": "nonpayable"
    },
    {
      "type": "function",
      "name": "setLockedThresholds",
      "inputs": [
        {
          "name": "_tokens",
          "type": "address[]",
          "internalType": "address[]"
        },
        {
          "name": "_thresholds",
          "type": "uint256[]",
          "internalType": "uint256[]"
        }
      ],
      "outputs": [],
      "stateMutability": "nonpayable"
    },
    {
      "type": "function",
      "name": "setThreshold",
      "inputs": [
        {
          "name": "num",
          "type": "uint256",
          "internalType": "uint256"
        },
        {
          "name": "denom",
          "type": "uint256",
          "internalType": "uint256"
        }
      ],
      "outputs": [],
      "stateMutability": "nonpayable"
    },
    {
      "type": "function",
      "name": "setUnlockFeePercentages",
      "inputs": [
        {
          "name": "_tokens",
          "type": "address[]",
          "internalType": "address[]"
        },
        {
          "name": "_percentages",
          "type": "uint256[]",
          "internalType": "uint256[]"
        }
      ],
      "outputs": [],
      "stateMutability": "nonpayable"
    },
    {
      "type": "function",
      "name": "setWrappedNativeTokenContract",
      "inputs": [
        {
          "name": "_wrappedToken",
          "type": "address",
          "internalType": "contract IWETH"
        }
      ],
      "outputs": [],
      "stateMutability": "nonpayable"
    },
    {
      "type": "function",
      "name": "submitWithdrawal",
      "inputs": [
        {
          "name": "_receipt",
          "type": "tuple",
          "internalType": "struct Transfer.Receipt",
          "components": [
            {
              "name": "id",
              "type": "uint256",
              "internalType": "uint256"
            },
            {
              "name": "kind",
              "type": "uint8",
              "internalType": "enum Transfer.Kind"
            },
            {
              "name": "mainchain",
              "type": "tuple",
              "internalType": "struct TokenOwner",
              "components": [
                {
                  "name": "addr",
                  "type": "address",
                  "internalType": "address"
                },
                {
                  "name": "tokenAddr",
                  "type": "address",
                  "internalType": "address"
                },
                {
                  "name": "chainId",
                  "type": "uint256",
                  "internalType": "uint256"
                }
              ]
            },
            {
              "name": "ronin",
              "type": "tuple",
              "internalType": "struct TokenOwner",
              "components": [
                {
                  "name": "addr",
                  "type": "address",
                  "internalType": "address"
                },
                {
                  "name": "tokenAddr",
                  "type": "address",
                  "internalType": "address"
                },
                {
                  "name": "chainId",
                  "type": "uint256",
                  "internalType": "uint256"
                }
              ]
            },
            {
              "name": "info",
              "type": "tuple",
              "internalType": "struct TokenInfo",
              "components": [
                {
                  "name": "erc",
                  "type": "uint8",
                  "internalType": "enum TokenStandard"
                },
                {
                  "name": "id",
                  "type": "uint256",
                  "internalType": "uint256"
                },
                {
                  "name": "quantity",
                  "type": "uint256",
                  "internalType": "uint256"
                }
              ]
            }
          ]
        },
        {
          "name": "_signatures",
          "type": "tuple[]",
          "internalType": "struct SignatureConsumer.Signature[]",
          "components": [
            {
              "name": "v",
              "type": "uint8",
              "internalType": "uint8"
            },
            {
              "name": "r",
              "type": "bytes32",
              "internalType": "bytes32"
            },
            {
              "name": "s",
              "type": "bytes32",
              "internalType": "bytes32"
            }
          ]
        }
      ],
      "outputs": [
        {
          "name": "_locked",
          "type": "bool",
          "internalType": "bool"
        }
      ],
      "stateMutability": "nonpayable"
    },
    {
      "type": "function",
      "name": "supportsInterface",
      "inputs": [
        {
          "name": "interfaceId",
          "type": "bytes4",
          "internalType": "bytes4"
        }
      ],
      "outputs": [
        {
          "name": "",
          "type": "bool",
          "internalType": "bool"
        }
      ],
      "stateMutability": "view"
    },
    {
      "type": "function",
      "name": "unlockFeePercentages",
      "inputs": [
        {
          "name": "",
          "type": "address",
          "internalType": "address"
        }
      ],
      "outputs": [
        {
          "name": "",
          "type": "uint256",
          "internalType": "uint256"
        }
      ],
      "stateMutability": "view"
    },
    {
      "type": "function",
      "name": "unlockWithdrawal",
      "inputs": [
        {
          "name": "receipt",
          "type": "tuple",
          "internalType": "struct Transfer.Receipt",
          "components": [
            {
              "name": "id",
              "type": "uint256",
              "internalType": "uint256"
            },
            {
              "name": "kind",
              "type": "uint8",
              "internalType": "enum Transfer.Kind"
            },
            {
              "name": "mainchain",
              "type": "tuple",
              "internalType": "struct TokenOwner",
              "components": [
                {
                  "name": "addr",
                  "type": "address",
                  "internalType": "address"
                },
                {
                  "name": "tokenAddr",
                  "type": "address",
                  "internalType": "address"
                },
                {
                  "name": "chainId",
                  "type": "uint256",
                  "internalType": "uint256"
                }
              ]
            },
            {
              "name": "ronin",
              "type": "tuple",
              "internalType": "struct TokenOwner",
              "components": [
                {
                  "name": "addr",
                  "type": "address",
                  "internalType": "address"
                },
                {
                  "name": "tokenAddr",
                  "type": "address",
                  "internalType": "address"
                },
                {
                  "name": "chainId",
                  "type": "uint256",
                  "internalType": "uint256"
                }
              ]
            },
            {
              "name": "info",
              "type": "tuple",
              "internalType": "struct TokenInfo",
              "components": [
                {
                  "name": "erc",
                  "type": "uint8",
                  "internalType": "enum TokenStandard"
                },
                {
                  "name": "id",
                  "type": "uint256",
                  "internalType": "uint256"
                },
                {
                  "name": "quantity",
                  "type": "uint256",
                  "internalType": "uint256"
                }
              ]
            }
          ]
        }
      ],
      "outputs": [],
      "stateMutability": "nonpayable"
    },
    {
      "type": "function",
      "name": "unpause",
      "inputs": [],
      "outputs": [],
      "stateMutability": "nonpayable"
    },
    {
      "type": "function",
      "name": "wethUnwrapper",
      "inputs": [],
      "outputs": [
        {
          "name": "",
          "type": "address",
          "internalType": "contract WethUnwrapper"
        }
      ],
      "stateMutability": "view"
    },
    {
      "type": "function",
      "name": "withdrawalHash",
      "inputs": [
        {
          "name": "",
          "type": "uint256",
          "internalType": "uint256"
        }
      ],
      "outputs": [
        {
          "name": "",
          "type": "bytes32",
          "internalType": "bytes32"
        }
      ],
      "stateMutability": "view"
    },
    {
      "type": "function",
      "name": "withdrawalLocked",
      "inputs": [
        {
          "name": "",
          "type": "uint256",
          "internalType": "uint256"
        }
      ],
      "outputs": [
        {
          "name": "",
          "type": "bool",
          "internalType": "bool"
        }
      ],
      "stateMutability": "view"
    },
    {
      "type": "function",
      "name": "wrappedNativeToken",
      "inputs": [],
      "outputs": [
        {
          "name": "",
          "type": "address",
          "internalType": "contract IWETH"
        }
      ],
      "stateMutability": "view"
    },
    {
      "type": "event",
      "name": "ContractUpdated",
      "inputs": [
        {
          "name": "contractType",
          "type": "uint8",
          "indexed": true,
          "internalType": "enum ContractType"
        },
        {
          "name": "addr",
          "type": "address",
          "indexed": true,
          "internalType": "address"
        }
      ],
      "anonymous": false
    },
    {
      "type": "event",
      "name": "DailyWithdrawalLimitsUpdated",
      "inputs": [
        {
          "name": "tokens",
          "type": "address[]",
          "indexed": false,
          "internalType": "address[]"
        },
        {
          "name": "limits",
          "type": "uint256[]",
          "indexed": false,
          "internalType": "uint256[]"
        }
      ],
      "anonymous": false
    },
    {
      "type": "event",
      "name": "DepositRequested",
      "inputs": [
        {
          "name": "receiptHash",
          "type": "bytes32",
          "indexed": false,
          "internalType": "bytes32"
        },
        {
          "name": "receipt",
          "type": "tuple",
          "indexed": false,
          "internalType": "struct Transfer.Receipt",
          "components": [
            {
              "name": "id",
              "type": "uint256",
              "internalType": "uint256"
            },
            {
              "name": "kind",
              "type": "uint8",
              "internalType": "enum Transfer.Kind"
            },
            {
              "name": "mainchain",
              "type": "tuple",
              "internalType": "struct TokenOwner",
              "components": [
                {
                  "name": "addr",
                  "type": "address",
                  "internalType": "address"
                },
                {
                  "name": "tokenAddr",
                  "type": "address",
                  "internalType": "address"
                },
                {
                  "name": "chainId",
                  "type": "uint256",
                  "internalType": "uint256"
                }
              ]
            },
            {
              "name": "ronin",
              "type": "tuple",
              "internalType": "struct TokenOwner",
              "components": [
                {
                  "name": "addr",
                  "type": "address",
                  "internalType": "address"
                },
                {
                  "name": "tokenAddr",
                  "type": "address",
                  "internalType": "address"
                },
                {
                  "name": "chainId",
                  "type": "uint256",
                  "internalType": "uint256"
                }
              ]
            },
            {
              "name": "info",
              "type": "tuple",
              "internalType": "struct TokenInfo",
              "components": [
                {
                  "name": "erc",
                  "type": "uint8",
                  "internalType": "enum TokenStandard"
                },
                {
                  "name": "id",
                  "type": "uint256",
                  "internalType": "uint256"
                },
                {
                  "name": "quantity",
                  "type": "uint256",
                  "internalType": "uint256"
                }
              ]
            }
          ]
        }
      ],
      "anonymous": false
    },
    {
      "type": "event",
      "name": "HighTierThresholdsUpdated",
      "inputs": [
        {
          "name": "tokens",
          "type": "address[]",
          "indexed": false,
          "internalType": "address[]"
        },
        {
          "name": "thresholds",
          "type": "uint256[]",
          "indexed": false,
          "internalType": "uint256[]"
        }
      ],
      "anonymous": false
    },
    {
      "type": "event",
      "name": "HighTierVoteWeightThresholdUpdated",
      "inputs": [
        {
          "name": "nonce",
          "type": "uint256",
          "indexed": true,
          "internalType": "uint256"
        },
        {
          "name": "numerator",
          "type": "uint256",
          "indexed": true,
          "internalType": "uint256"
        },
        {
          "name": "denominator",
          "type": "uint256",
          "indexed": true,
          "internalType": "uint256"
        },
        {
          "name": "previousNumerator",
          "type": "uint256",
          "indexed": false,
          "internalType": "uint256"
        },
        {
          "name": "previousDenominator",
          "type": "uint256",
          "indexed": false,
          "internalType": "uint256"
        }
      ],
      "anonymous": false
    },
    {
      "type": "event",
      "name": "Initialized",
      "inputs": [
        {
          "name": "version",
          "type": "uint8",
          "indexed": false,
          "internalType": "uint8"
        }
      ],
      "anonymous": false
    },
    {
      "type": "event",
      "name": "LockedThresholdsUpdated",
      "inputs": [
        {
          "name": "tokens",
          "type": "address[]",
          "indexed": false,
          "internalType": "address[]"
        },
        {
          "name": "thresholds",
          "type": "uint256[]",
          "indexed": false,
          "internalType": "uint256[]"
        }
      ],
      "anonymous": false
    },
    {
      "type": "event",
      "name": "Paused",
      "inputs": [
        {
          "name": "account",
          "type": "address",
          "indexed": false,
          "internalType": "address"
        }
      ],
      "anonymous": false
    },
    {
      "type": "event",
      "name": "RoleAdminChanged",
      "inputs": [
        {
          "name": "role",
          "type": "bytes32",
          "indexed": true,
          "internalType": "bytes32"
        },
        {
          "name": "previousAdminRole",
          "type": "bytes32",
          "indexed": true,
          "internalType": "bytes32"
        },
        {
          "name": "newAdminRole",
          "type": "bytes32",
          "indexed": true,
          "internalType": "bytes32"
        }
      ],
      "anonymous": false
    },
    {
      "type": "event",
      "name": "RoleGranted",
      "inputs": [
        {
          "name": "role",
          "type": "bytes32",
          "indexed": true,
          "internalType": "bytes32"
        },
        {
          "name": "account",
          "type": "address",
          "indexed": true,
          "internalType": "address"
        },
        {
          "name": "sender",
          "type": "address",
          "indexed": true,
          "internalType": "address"
        }
      ],
      "anonymous": false
    },
    {
      "type": "event",
      "name": "RoleRevoked",
      "inputs": [
        {
          "name": "role",
          "type": "bytes32",
          "indexed": true,
          "internalType": "bytes32"
        },
        {
          "name": "account",
          "type": "address",
          "indexed": true,
          "internalType": "address"
        },
        {
          "name": "sender",
          "type": "address",
          "indexed": true,
          "internalType": "address"
        }
      ],
      "anonymous": false
    },
    {
      "type": "event",
      "name": "ThresholdUpdated",
      "inputs": [
        {
          "name": "nonce",
          "type": "uint256",
          "indexed": true,
          "internalType": "uint256"
        },
        {
          "name": "numerator",
          "type": "uint256",
          "indexed": true,
          "internalType": "uint256"
        },
        {
          "name": "denominator",
          "type": "uint256",
          "indexed": true,
          "internalType": "uint256"
        },
        {
          "name": "previousNumerator",
          "type": "uint256",
          "indexed": false,
          "internalType": "uint256"
        },
        {
          "name": "previousDenominator",
          "type": "uint256",
          "indexed": false,
          "internalType": "uint256"
        }
      ],
      "anonymous": false
    },
    {
      "type": "event",
      "name": "TokenMapped",
      "inputs": [
        {
          "name": "mainchainTokens",
          "type": "address[]",
          "indexed": false,
          "internalType": "address[]"
        },
        {
          "name": "roninTokens",
          "type": "address[]",
          "indexed": false,
          "internalType": "address[]"
        },
        {
          "name": "standards",
          "type": "uint8[]",
          "indexed": false,
          "internalType": "enum TokenStandard[]"
        }
      ],
      "anonymous": false
    },
    {
      "type": "event",
      "name": "UnlockFeePercentagesUpdated",
      "inputs": [
        {
          "name": "tokens",
          "type": "address[]",
          "indexed": false,
          "internalType": "address[]"
        },
        {
          "name": "percentages",
          "type": "uint256[]",
          "indexed": false,
          "internalType": "uint256[]"
        }
      ],
      "anonymous": false
    },
    {
      "type": "event",
      "name": "Unpaused",
      "inputs": [
        {
          "name": "account",
          "type": "address",
          "indexed": false,
          "internalType": "address"
        }
      ],
      "anonymous": false
    },
    {
      "type": "event",
      "name": "WithdrawalLocked",
      "inputs": [
        {
          "name": "receiptHash",
          "type": "bytes32",
          "indexed": false,
          "internalType": "bytes32"
        },
        {
          "name": "receipt",
          "type": "tuple",
          "indexed": false,
          "internalType": "struct Transfer.Receipt",
          "components": [
            {
              "name": "id",
              "type": "uint256",
              "internalType": "uint256"
            },
            {
              "name": "kind",
              "type": "uint8",
              "internalType": "enum Transfer.Kind"
            },
            {
              "name": "mainchain",
              "type": "tuple",
              "internalType": "struct TokenOwner",
              "components": [
                {
                  "name": "addr",
                  "type": "address",
                  "internalType": "address"
                },
                {
                  "name": "tokenAddr",
                  "type": "address",
                  "internalType": "address"
                },
                {
                  "name": "chainId",
                  "type": "uint256",
                  "internalType": "uint256"
                }
              ]
            },
            {
              "name": "ronin",
              "type": "tuple",
              "internalType": "struct TokenOwner",
              "components": [
                {
                  "name": "addr",
                  "type": "address",
                  "internalType": "address"
                },
                {
                  "name": "tokenAddr",
                  "type": "address",
                  "internalType": "address"
                },
                {
                  "name": "chainId",
                  "type": "uint256",
                  "internalType": "uint256"
                }
              ]
            },
            {
              "name": "info",
              "type": "tuple",
              "internalType": "struct TokenInfo",
              "components": [
                {
                  "name": "erc",
                  "type": "uint8",
                  "internalType": "enum TokenStandard"
                },
                {
                  "name": "id",
                  "type": "uint256",
                  "internalType": "uint256"
                },
                {
                  "name": "quantity",
                  "type": "uint256",
                  "internalType": "uint256"
                }
              ]
            }
          ]
        }
      ],
      "anonymous": false
    },
    {
      "type": "event",
      "name": "WithdrawalUnlocked",
      "inputs": [
        {
          "name": "receiptHash",
          "type": "bytes32",
          "indexed": false,
          "internalType": "bytes32"
        },
        {
          "name": "receipt",
          "type": "tuple",
          "indexed": false,
          "internalType": "struct Transfer.Receipt",
          "components": [
            {
              "name": "id",
              "type": "uint256",
              "internalType": "uint256"
            },
            {
              "name": "kind",
              "type": "uint8",
              "internalType": "enum Transfer.Kind"
            },
            {
              "name": "mainchain",
              "type": "tuple",
              "internalType": "struct TokenOwner",
              "components": [
                {
                  "name": "addr",
                  "type": "address",
                  "internalType": "address"
                },
                {
                  "name": "tokenAddr",
                  "type": "address",
                  "internalType": "address"
                },
                {
                  "name": "chainId",
                  "type": "uint256",
                  "internalType": "uint256"
                }
              ]
            },
            {
              "name": "ronin",
              "type": "tuple",
              "internalType": "struct TokenOwner",
              "components": [
                {
                  "name": "addr",
                  "type": "address",
                  "internalType": "address"
                },
                {
                  "name": "tokenAddr",
                  "type": "address",
                  "internalType": "address"
                },
                {
                  "name": "chainId",
                  "type": "uint256",
                  "internalType": "uint256"
                }
              ]
            },
            {
              "name": "info",
              "type": "tuple",
              "internalType": "struct TokenInfo",
              "components": [
                {
                  "name": "erc",
                  "type": "uint8",
                  "internalType": "enum TokenStandard"
                },
                {
                  "name": "id",
                  "type": "uint256",
                  "internalType": "uint256"
                },
                {
                  "name": "quantity",
                  "type": "uint256",
                  "internalType": "uint256"
                }
              ]
            }
          ]
        }
      ],
      "anonymous": false
    },
    {
      "type": "event",
      "name": "Withdrew",
      "inputs": [
        {
          "name": "receiptHash",
          "type": "bytes32",
          "indexed": false,
          "internalType": "bytes32"
        },
        {
          "name": "receipt",
          "type": "tuple",
          "indexed": false,
          "internalType": "struct Transfer.Receipt",
          "components": [
            {
              "name": "id",
              "type": "uint256",
              "internalType": "uint256"
            },
            {
              "name": "kind",
              "type": "uint8",
              "internalType": "enum Transfer.Kind"
            },
            {
              "name": "mainchain",
              "type": "tuple",
              "internalType": "struct TokenOwner",
              "components": [
                {
                  "name": "addr",
                  "type": "address",
                  "internalType": "address"
                },
                {
                  "name": "tokenAddr",
                  "type": "address",
                  "internalType": "address"
                },
                {
                  "name": "chainId",
                  "type": "uint256",
                  "internalType": "uint256"
                }
              ]
            },
            {
              "name": "ronin",
              "type": "tuple",
              "internalType": "struct TokenOwner",
              "components": [
                {
                  "name": "addr",
                  "type": "address",
                  "internalType": "address"
                },
                {
                  "name": "tokenAddr",
                  "type": "address",
                  "internalType": "address"
                },
                {
                  "name": "chainId",
                  "type": "uint256",
                  "internalType": "uint256"
                }
              ]
            },
            {
              "name": "info",
              "type": "tuple",
              "internalType": "struct TokenInfo",
              "components": [
                {
                  "name": "erc",
                  "type": "uint8",
                  "internalType": "enum TokenStandard"
                },
                {
                  "name": "id",
                  "type": "uint256",
                  "internalType": "uint256"
                },
                {
                  "name": "quantity",
                  "type": "uint256",
                  "internalType": "uint256"
                }
              ]
            }
          ]
        }
      ],
      "anonymous": false
    },
    {
      "type": "event",
      "name": "WrappedNativeTokenContractUpdated",
      "inputs": [
        {
          "name": "weth",
          "type": "address",
          "indexed": false,
          "internalType": "contract IWETH"
        }
      ],
      "anonymous": false
    },
    {
      "type": "error",
      "name": "ErrContractTypeNotFound",
      "inputs": [
        {
          "name": "contractType",
          "type": "uint8",
          "internalType": "enum ContractType"
        }
      ]
    },
    {
      "type": "error",
      "name": "ErrERC1155MintingFailed",
      "inputs": []
    },
    {
      "type": "error",
      "name": "ErrERC20MintingFailed",
      "inputs": []
    },
    {
      "type": "error",
      "name": "ErrERC721MintingFailed",
      "inputs": []
    },
    {
      "type": "error",
      "name": "ErrEmptyArray",
      "inputs": []
    },
    {
      "type": "error",
      "name": "ErrInvalidChainId",
      "inputs": [
        {
          "name": "msgSig",
          "type": "bytes4",
          "internalType": "bytes4"
        },
        {
          "name": "actual",
          "type": "uint256",
          "internalType": "uint256"
        },
        {
          "name": "expected",
          "type": "uint256",
          "internalType": "uint256"
        }
      ]
    },
    {
      "type": "error",
      "name": "ErrInvalidInfo",
      "inputs": []
    },
    {
      "type": "error",
      "name": "ErrInvalidOrder",
      "inputs": [
        {
          "name": "msgSig",
          "type": "bytes4",
          "internalType": "bytes4"
        }
      ]
    },
    {
      "type": "error",
      "name": "ErrInvalidPercentage",
      "inputs": []
    },
    {
      "type": "error",
      "name": "ErrInvalidReceipt",
      "inputs": []
    },
    {
      "type": "error",
      "name": "ErrInvalidReceiptKind",
      "inputs": []
    },
    {
      "type": "error",
      "name": "ErrInvalidRequest",
      "inputs": []
    },
    {
      "type": "error",
      "name": "ErrInvalidThreshold",
      "inputs": [
        {
          "name": "msgSig",
          "type": "bytes4",
          "internalType": "bytes4"
        }
      ]
    },
    {
      "type": "error",
      "name": "ErrInvalidTokenStandard",
      "inputs": []
    },
    {
      "type": "error",
      "name": "ErrLengthMismatch",
      "inputs": [
        {
          "name": "msgSig",
          "type": "bytes4",
          "internalType": "bytes4"
        }
      ]
    },
    {
      "type": "error",
      "name": "ErrQueryForApprovedWithdrawal",
      "inputs": []
    },
    {
      "type": "error",
      "name": "ErrQueryForInsufficientVoteWeight",
      "inputs": []
    },
    {
      "type": "error",
      "name": "ErrQueryForProcessedWithdrawal",
      "inputs": []
    },
    {
      "type": "error",
      "name": "ErrReachedDailyWithdrawalLimit",
      "inputs": []
    },
    {
      "type": "error",
      "name": "ErrTokenCouldNotTransfer",
      "inputs": [
        {
          "name": "tokenInfo",
          "type": "tuple",
          "internalType": "struct TokenInfo",
          "components": [
            {
              "name": "erc",
              "type": "uint8",
              "internalType": "enum TokenStandard"
            },
            {
              "name": "id",
              "type": "uint256",
              "internalType": "uint256"
            },
            {
              "name": "quantity",
              "type": "uint256",
              "internalType": "uint256"
            }
          ]
        },
        {
          "name": "to",
          "type": "address",
          "internalType": "address"
        },
        {
          "name": "token",
          "type": "address",
          "internalType": "address"
        }
      ]
    },
    {
      "type": "error",
      "name": "ErrTokenCouldNotTransferFrom",
      "inputs": [
        {
          "name": "tokenInfo",
          "type": "tuple",
          "internalType": "struct TokenInfo",
          "components": [
            {
              "name": "erc",
              "type": "uint8",
              "internalType": "enum TokenStandard"
            },
            {
              "name": "id",
              "type": "uint256",
              "internalType": "uint256"
            },
            {
              "name": "quantity",
              "type": "uint256",
              "internalType": "uint256"
            }
          ]
        },
        {
          "name": "from",
          "type": "address",
          "internalType": "address"
        },
        {
          "name": "to",
          "type": "address",
          "internalType": "address"
        },
        {
          "name": "token",
          "type": "address",
          "internalType": "address"
        }
      ]
    },
    {
      "type": "error",
      "name": "ErrUnauthorized",
      "inputs": [
        {
          "name": "msgSig",
          "type": "bytes4",
          "internalType": "bytes4"
        },
        {
          "name": "expectedRole",
          "type": "uint8",
          "internalType": "enum RoleAccess"
        }
      ]
    },
    {
      "type": "error",
      "name": "ErrUnexpectedInternalCall",
      "inputs": [
        {
          "name": "msgSig",
          "type": "bytes4",
          "internalType": "bytes4"
        },
        {
          "name": "expectedContractType",
          "type": "uint8",
          "internalType": "enum ContractType"
        },
        {
          "name": "actual",
          "type": "address",
          "internalType": "address"
        }
      ]
    },
    {
      "type": "error",
      "name": "ErrUnsupportedStandard",
      "inputs": []
    },
    {
      "type": "error",
      "name": "ErrUnsupportedToken",
      "inputs": []
    },
    {
      "type": "error",
      "name": "ErrZeroCodeContract",
      "inputs": [
        {
          "name": "addr",
          "type": "address",
          "internalType": "address"
        }
      ]
    }
  ],
  "address": "0x82f5483623D636BC3deBA8Ae67E1751b6CF2Bad2",
  "args": "0x",
  "blockNumber": 5709352,
  "bytecode": "0x60806040523480156200001157600080fd5b506000805460ff19169055620000266200002c565b620000ee565b607154610100900460ff1615620000995760405162461bcd60e51b815260206004820152602760248201527f496e697469616c697a61626c653a20636f6e747261637420697320696e697469604482015266616c697a696e6760c81b606482015260840160405180910390fd5b60715460ff9081161015620000ec576071805460ff191660ff9081179091556040519081527f7f26b83ff96e1f2b6a682f133852f6798a09c465da95921460cefb38474024989060200160405180910390a15b565b61556180620000fe6000396000f3fe60806040526004361061039b5760003560e01c80638f34e347116101dc578063b9c3620911610102578063d55ed103116100a0578063dff525e11161006f578063dff525e114610b04578063e400327c14610b24578063e75235b814610b44578063f23a6e6114610b5c576103aa565b8063d55ed10314610a77578063d64af2a614610aa4578063dafae40814610ac4578063de981f1b14610ae4576103aa565b8063ca15c873116100dc578063ca15c873146109f2578063cdb6744414610a12578063d19773d214610a2a578063d547741f14610a57576103aa565b8063b9c3620914610986578063bc197c81146109a6578063c48549de146109d2576103aa565b8063a217fddf1161017a578063affed0e011610149578063affed0e0146108f6578063b1a2567e1461090c578063b1d08a031461092c578063b297579414610959576103aa565b8063a217fddf14610894578063a3912ec8146103a8578063ab796566146108a9578063ac78dfe8146108d6576103aa565b80639157921c116101b65780639157921c146107ff57806391d148541461081f57806393c5678f1461083f5780639dcc4da31461085f576103aa565b80638f34e3471461077e5780638f851d8a146107b25780639010d07c146107df576103aa565b806338e454b1116102c1578063504af48c1161025f5780636c1ce6701161022e5780636c1ce670146107145780637de5dedd146107345780638456cb5914610749578063865e6fd31461075e576103aa565b8063504af48c1461068f57806359122f6b146106a25780635c975abb146106cf5780636932be98146106e7576103aa565b80634b14557e1161029b5780634b14557e1461060c5780634d0d66731461061f5780634d493f4e1461063f5780634f4247a11461066f576103aa565b806338e454b1146105c25780633e70838b146105d75780633f4ba83a146105f7576103aa565b80631d4a7210116103395780632f2ff15d116103085780632f2ff15d14610556578063302d12db146105765780633644e5151461058d57806336568abe146105a2576103aa565b80631d4a7210146104c3578063248a9ca3146104f057806329b6eca9146105205780632dfdf0b514610540576103aa565b806317ce2dd41161037557806317ce2dd41461043f57806317fcb39b146104635780631a8e55b0146104835780631b6e7594146104a3576103aa565b806301ffc9a7146103b2578063065b3adf146103e7578063110a83081461041f576103aa565b366103aa576103a8610b88565b005b6103a8610b88565b3480156103be57600080fd5b506103d26103cd36600461416e565b610bbc565b60405190151581526020015b60405180910390f35b3480156103f357600080fd5b50600554610407906001600160a01b031681565b6040516001600160a01b0390911681526020016103de565b34801561042b57600080fd5b506103a861043a3660046141ad565b610c01565b34801561044b57600080fd5b5061045560755481565b6040519081526020016103de565b34801561046f57600080fd5b50607454610407906001600160a01b031681565b34801561048f57600080fd5b506103a861049e36600461420e565b610ca6565b3480156104af57600080fd5b506103a86104be366004614279565b610ce2565b3480156104cf57600080fd5b506104556104de3660046141ad565b603e6020526000908152604090205481565b3480156104fc57600080fd5b5061045561050b36600461431d565b60009081526072602052604090206001015490565b34801561052c57600080fd5b506103a861053b3660046141ad565b610d22565b34801561054c57600080fd5b5061045560765481565b34801561056257600080fd5b506103a8610571366004614336565b610dab565b34801561058257600080fd5b50610455620f424081565b34801561059957600080fd5b50607754610455565b3480156105ae57600080fd5b506103a86105bd366004614336565b610dd5565b3480156105ce57600080fd5b506103a8610e53565b3480156105e357600080fd5b506103a86105f23660046141ad565b611030565b34801561060357600080fd5b506103a861105a565b6103a861061a366004614366565b61106a565b34801561062b57600080fd5b506103d261063a366004614391565b61108d565b34801561064b57600080fd5b506103d261065a36600461431d565b607a6020526000908152604090205460ff1681565b34801561067b57600080fd5b50607f54610407906001600160a01b031681565b6103a861069d36600461443b565b6110fd565b3480156106ae57600080fd5b506104556106bd3660046141ad565b603a6020526000908152604090205481565b3480156106db57600080fd5b5060005460ff166103d2565b3480156106f357600080fd5b5061045561070236600461431d565b60796020526000908152604090205481565b34801561072057600080fd5b506103d261072f366004614515565b6113c3565b34801561074057600080fd5b506104556113cf565b34801561075557600080fd5b506103a86113f0565b34801561076a57600080fd5b506103a8610779366004614550565b611400565b34801561078a57600080fd5b506104557f5e5712e902fff5e704bc4d506ad976718319e019e9d2a872528a01a85db433e481565b3480156107be57600080fd5b506107d26107cd36600461461b565b61141b565b6040516103de9190614712565b3480156107eb57600080fd5b506104076107fa366004614727565b61159d565b34801561080b57600080fd5b506103a861081a366004614749565b6115b5565b34801561082b57600080fd5b506103d261083a366004614336565b611839565b34801561084b57600080fd5b506103a861085a36600461420e565b611864565b34801561086b57600080fd5b5061087f61087a366004614727565b61189a565b604080519283526020830191909152016103de565b3480156108a057600080fd5b50610455600081565b3480156108b557600080fd5b506104556108c43660046141ad565b603c6020526000908152604090205481565b3480156108e257600080fd5b506103d26108f136600461431d565b6118c3565b34801561090257600080fd5b5061045560045481565b34801561091857600080fd5b506103a861092736600461420e565b6118f9565b34801561093857600080fd5b506104556109473660046141ad565b60396020526000908152604090205481565b34801561096557600080fd5b506109796109743660046141ad565b61192f565b6040516103de9190614790565b34801561099257600080fd5b506103a86109a1366004614727565b6119d2565b3480156109b257600080fd5b506107d26109c1366004614893565b63bc197c8160e01b95945050505050565b3480156109de57600080fd5b506107d26109ed36600461420e565b6119ec565b3480156109fe57600080fd5b50610455610a0d36600461431d565b611b80565b348015610a1e57600080fd5b5060375460385461087f565b348015610a3657600080fd5b50610455610a453660046141ad565b603b6020526000908152604090205481565b348015610a6357600080fd5b506103a8610a72366004614336565b611b97565b348015610a8357600080fd5b50610455610a923660046141ad565b603d6020526000908152604090205481565b348015610ab057600080fd5b506103a8610abf3660046141ad565b611bbc565b348015610ad057600080fd5b506103d2610adf36600461431d565b611bcd565b348015610af057600080fd5b50610407610aff366004614940565b611bfb565b348015610b1057600080fd5b506103a8610b1f36600461495b565b611c71565b348015610b3057600080fd5b506103a8610b3f36600461420e565b611ce6565b348015610b5057600080fd5b5060015460025461087f565b348015610b6857600080fd5b506107d2610b77366004614a18565b63f23a6e6160e01b95945050505050565b6074546001600160a01b0316331480610bab5750607f546001600160a01b031633145b15610bb257565b610bba611d1c565b565b60006001600160e01b031982166246560160e51b1480610bec57506001600160e01b031982166312c0151560e21b145b80610bfb5750610bfb82611d46565b92915050565b607154600490610100900460ff16158015610c23575060715460ff8083169116105b610c485760405162461bcd60e51b8152600401610c3f90614a80565b60405180910390fd5b60718054607f80546001600160a01b0319166001600160a01b03861617905561ff001961010060ff851661ffff199093168317171690915560405190815260008051602061550c833981519152906020015b60405180910390a15050565b610cae611d6b565b6000839003610cd0576040516316ee9d3b60e11b815260040160405180910390fd5b610cdc84848484611dc5565b50505050565b610cea611d6b565b6000859003610d0c576040516316ee9d3b60e11b815260040160405180910390fd5b610d1a868686868686611e9a565b505050505050565b607154600290610100900460ff16158015610d44575060715460ff8083169116105b610d605760405162461bcd60e51b8152600401610c3f90614a80565b6071805461ffff191660ff831617610100179055610d7f600b83612042565b6071805461ff001916905560405160ff8216815260008051602061550c83398151915290602001610c9a565b600082815260726020526040902060010154610dc6816120e6565b610dd083836120f0565b505050565b6001600160a01b0381163314610e455760405162461bcd60e51b815260206004820152602f60248201527f416363657373436f6e74726f6c3a2063616e206f6e6c792072656e6f756e636560448201526e103937b632b9903337b91039b2b63360891b6064820152608401610c3f565b610e4f8282612112565b5050565b607154600390610100900460ff16158015610e75575060715460ff8083169116105b610e915760405162461bcd60e51b8152600401610c3f90614a80565b6071805461ffff191660ff8316176101001790556000610eb1600b611bfb565b9050600080826001600160a01b031663c441c4a86040518163ffffffff1660e01b8152600401600060405180830381865afa158015610ef4573d6000803e3d6000fd5b505050506040513d6000823e601f3d908101601f19168201604052610f1c9190810190614b4b565b92509250506000805b8351811015610fd957828181518110610f4057610f40614c31565b6020026020010151607e6000868481518110610f5e57610f5e614c31565b60200260200101516001600160a01b03166001600160a01b0316815260200190815260200160002060006101000a8154816001600160601b0302191690836001600160601b03160217905550828181518110610fbc57610fbc614c31565b602002602001015182610fcf9190614c5d565b9150600101610f25565b50607d80546001600160601b0319166001600160601b039290921691909117905550506071805461ff00191690555060405160ff8216815260008051602061550c833981519152906020015b60405180910390a150565b611038611d6b565b600580546001600160a01b0319166001600160a01b0392909216919091179055565b611062612134565b610bba6121a3565b6110726121f5565b61108a61108436839003830183614ccd565b3361223b565b50565b60006110976121f5565b6110f3848484808060200260200160405190810160405280939291908181526020016000905b828210156110e9576110da60608302860136819003810190614d20565b815260200190600101906110bd565b5050505050612516565b90505b9392505050565b607154610100900460ff161580801561111d5750607154600160ff909116105b806111375750303b158015611137575060715460ff166001145b6111535760405162461bcd60e51b8152600401610c3f90614a80565b6071805460ff191660011790558015611176576071805461ff0019166101001790555b61118160008c6129aa565b607589905561118f8a6129b4565b61121a6040517f8b73c3c69bb8fe3d512ecc4cf759cc79239f7b179b0ffacaa9a75d522b39400f81527f159f52c1e3a2b6a6aad3950adf713516211484e0516dad685ea662a094b7c43b60208201527fad7c5bef027816a800da1736444fb58a807ef4c9603b7848673f7e3a68eb14a5604082015246606082015230608082015260a0812060775550565b6112248887612a02565b61122e8787612a92565b5050611238612b29565b60006112448680614d6a565b905011156113055761126d6112598680614d6a565b6112666020890189614d6a565b8787611e9a565b61129361127a8680614d6a565b8660005b60200281019061128e9190614d6a565b612b76565b6112b96112a08680614d6a565b8660015b6020028101906112b49190614d6a565b611dc5565b6112df6112c68680614d6a565b8660025b6020028101906112da9190614d6a565b612c4b565b6113056112ec8680614d6a565b8660035b6020028101906113009190614d6a565b612d5c565b60005b6113156040870187614d6a565b9050811015611381576113797f5e5712e902fff5e704bc4d506ad976718319e019e9d2a872528a01a85db433e461134f6040890189614d6a565b8481811061135f5761135f614c31565b905060200201602081019061137491906141ad565b6120f0565b600101611308565b5080156113b6576071805461ff00191690556040516001815260008051602061550c8339815191529060200160405180910390a15b5050505050505050505050565b60006110f68383612e31565b60006113eb6113e6607d546001600160601b031690565b612efc565b905090565b6113f8612134565b610bba612f32565b611408611d6b565b61141181612f6f565b610e4f8282612042565b6000600b61142881612fa5565b825186908114158061143a5750808514155b15611466576000356001600160e01b0319166040516306b5667560e21b8152600401610c3f9190614712565b8060000361147e57506347c28ec560e11b9150611593565b60005b818110156115865784818151811061149b5761149b614c31565b60200260200101511561157e578686828181106114ba576114ba614c31565b90506020020160208101906114cf9190614db3565b607d80546001600160601b031981166001600160601b03918216939093011691909117905586868281811061150657611506614c31565b905060200201602081019061151b9190614db3565b607e60008b8b8581811061153157611531614c31565b905060200201602081019061154691906141ad565b6001600160a01b03168152602081019190915260400160002080546001600160601b0319166001600160601b03929092169190911790555b600101611481565b506347c28ec560e11b9250505b5095945050505050565b60008281526073602052604081206110f69083612ff1565b7f5e5712e902fff5e704bc4d506ad976718319e019e9d2a872528a01a85db433e46115df816120e6565b60006115f86115f336859003850185614e2d565b612ffd565b905061160c6115f336859003850185614e2d565b83356000908152607960205260409020541461163b5760405163f4b8742f60e01b815260040160405180910390fd5b82356000908152607a602052604090205460ff1661166c5760405163147bfe0760e01b815260040160405180910390fd5b82356000908152607a602052604090819020805460ff19169055517fd639511b37b3b002cca6cfe6bca0d833945a5af5a045578a0627fc43b79b2630906116b69083908690614f00565b60405180910390a160006116d060808501606086016141ad565b905060006116e661012086016101008701614f86565b60028111156116f7576116f7614766565b036117be5760006117113686900386016101008701614fa1565b6001600160a01b0383166000908152603b602052604090205490915061173d90610140870135906130c7565b604082015260006117573687900387016101008801614fa1565b604083015190915061176e90610140880135614fbd565b604082015260745461178e908390339086906001600160a01b03166130e1565b6117b76117a160608801604089016141ad565b60745483919086906001600160a01b03166130e1565b50506117fa565b6117fa6117d160608601604087016141ad565b60745483906001600160a01b03166117f23689900389016101008a01614fa1565b9291906130e1565b7f21e88e956aa3e086f6388e899965cef814688f99ad8bb29b08d396571016372d828560405161182b929190614f00565b60405180910390a150505050565b60009182526072602090815260408084206001600160a01b0393909316845291905290205460ff1690565b61186c611d6b565b600083900361188e576040516316ee9d3b60e11b815260040160405180910390fd5b610cdc84848484612b76565b6000806118a5611d6b565b6118af8484612a92565b90925090506118bc612b29565b9250929050565b60006118d7607d546001600160601b031690565b6037546118e49190614fd0565b6038546118f19084614fd0565b101592915050565b611901611d6b565b6000839003611923576040516316ee9d3b60e11b815260040160405180910390fd5b610cdc84848484612c4b565b60408051808201909152600080825260208201526001600160a01b0382166000908152607860205260409081902081518083019092528054829060ff16600281111561197d5761197d614766565b600281111561198e5761198e614766565b815290546001600160a01b03610100909104811660209283015290820151919250166119cd57604051631b79f53b60e21b815260040160405180910390fd5b919050565b6119da611d6b565b6119e48282612a02565b610e4f612b29565b6000600b6119f981612fa5565b84838114611a28576000356001600160e01b0319166040516306b5667560e21b8152600401610c3f9190614712565b80600003611a405750636242a4ef60e11b9150611b77565b6000805b82811015611b2757868682818110611a5e57611a5e614c31565b9050602002016020810190611a739190614fe7565b15611b1f57607e60008a8a84818110611a8e57611a8e614c31565b9050602002016020810190611aa391906141ad565b6001600160a01b0316815260208101919091526040016000908120546001600160601b03169290920191607e908a8a84818110611ae257611ae2614c31565b9050602002016020810190611af791906141ad565b6001600160a01b03168152602081019190915260400160002080546001600160601b03191690555b600101611a44565b50607d8054829190600090611b469084906001600160601b0316615004565b92506101000a8154816001600160601b0302191690836001600160601b0316021790555063c48549de60e01b935050505b50949350505050565b6000818152607360205260408120610bfb90613313565b600082815260726020526040902060010154611bb2816120e6565b610dd08383612112565b611bc4611d6b565b61108a816129b4565b6000611be1607d546001600160601b031690565b600154611bee9190614fd0565b6002546118f19084614fd0565b60007fdea3103d22025c269050bea94c0c84688877f12fa22b7e6d2d5d78a9a49aa1cb600083600f811115611c3257611c32614766565b60ff1681526020810191909152604001600020546001600160a01b03169050806119cd578160405163409140df60e11b8152600401610c3f9190615034565b611c79611d6b565b6000869003611c9b576040516316ee9d3b60e11b815260040160405180910390fd5b611ca9878787878787611e9a565b611cb6878783600061127e565b611cc387878360016112a4565b611cd087878360026112ca565b611cdd87878360036112f0565b50505050505050565b611cee611d6b565b6000839003611d10576040516316ee9d3b60e11b815260040160405180910390fd5b610cdc84848484612d5c565b611d246121f5565b611d2c61412d565b33815260408082015134910152805161108a90829061223b565b60006001600160e01b03198216630271189760e51b1480610bfb5750610bfb8261331d565b7fb53127684a568b3173ae13b9f8a6016e243e63b6e8ee1178d6a717850b5d6103546001600160a01b03163314610bba576000356001600160e01b0319166001604051620f948f60ea1b8152600401610c3f929190615042565b828114611df3576000356001600160e01b0319166040516306b5667560e21b8152600401610c3f9190614712565b60005b83811015611e6457828282818110611e1057611e10614c31565b90506020020135603a6000878785818110611e2d57611e2d614c31565b9050602002016020810190611e4291906141ad565b6001600160a01b03168152602081019190915260400160002055600101611df6565b507f64557254143204d91ba2d95acb9fda1e5fea55f77efd028685765bc1e94dd4b58484848460405161182b94939291906150b9565b8483148015611ea857508481145b611ed3576000356001600160e01b0319166040516306b5667560e21b8152600401610c3f9190614712565b60005b85811015611ff857848482818110611ef057611ef0614c31565b9050602002016020810190611f0591906141ad565b60786000898985818110611f1b57611f1b614c31565b9050602002016020810190611f3091906141ad565b6001600160a01b03908116825260208201929092526040016000208054610100600160a81b0319166101009390921692909202179055828282818110611f7857611f78614c31565b9050602002016020810190611f8d9190614f86565b60786000898985818110611fa357611fa3614c31565b9050602002016020810190611fb891906141ad565b6001600160a01b031681526020810191909152604001600020805460ff19166001836002811115611feb57611feb614766565b0217905550600101611ed6565b507fa4f03cc9c0e0aeb5b71b4ec800702753f65748c2cf3064695ba8e8b46be7044486868686868660405161203296959493929190615105565b60405180910390a1505050505050565b807fdea3103d22025c269050bea94c0c84688877f12fa22b7e6d2d5d78a9a49aa1cb600084600f81111561207857612078614766565b60ff168152602081019190915260400160002080546001600160a01b0319166001600160a01b03928316179055811682600f8111156120b9576120b9614766565b6040517f865d1c228a8ea13709cfe61f346f7ff67f1bbd4a18ff31ad3e7147350d317c5990600090a35050565b61108a8133613342565b6120fa82826133a6565b6000828152607360205260409020610dd0908261342c565b61211c8282613441565b6000828152607360205260409020610dd090826134a8565b7fb53127684a568b3173ae13b9f8a6016e243e63b6e8ee1178d6a717850b5d6103546001600160a01b031633148061217657506005546001600160a01b031633145b610bba576000356001600160e01b0319166001604051620f948f60ea1b8152600401610c3f929190615042565b6121ab6134bd565b6000805460ff191690557f5db9ee0a495bf2e6ff9c91a7834c1ba4fdd244a5e8aa4e537bd38aeae4b073aa335b6040516001600160a01b03909116815260200160405180910390a1565b60005460ff1615610bba5760405162461bcd60e51b815260206004820152601060248201526f14185d5cd8589b194e881c185d5cd95960821b6044820152606401610c3f565b604080518082018252600080825260208201526074549184015190916001600160a01b03169061226a90613506565b60208401516001600160a01b031661230b5734846040015160400151146122a45760405163129c2ce160e31b815260040160405180910390fd5b6122ad8161192f565b60408501515190925060028111156122c7576122c7614766565b825160028111156122da576122da614766565b146122f75760405162035e2b60ea1b815260040160405180910390fd5b6001600160a01b03811660208501526124a3565b341561232a5760405163129c2ce160e31b815260040160405180910390fd5b612337846020015161192f565b604085015151909250600281111561235157612351614766565b8251600281111561236457612364614766565b146123815760405162035e2b60ea1b815260040160405180910390fd5b6020840151604085015161239691859061354a565b83602001516001600160a01b0316816001600160a01b0316036124a357607454607f54604086810151810151905163095ea7b360e01b81526001600160a01b039283166004820152602481019190915291169063095ea7b3906044016020604051808303816000875af1158015612411573d6000803e3d6000fd5b505050506040513d601f19601f820116820180604052508101906124359190615176565b50607f546040808601518101519051636f074d1f60e11b81526001600160a01b039092169163de0e9a3e916124709160040190815260200190565b600060405180830381600087803b15801561248a57600080fd5b505af115801561249e573d6000803e3d6000fd5b505050505b60768054600091826124b483615193565b91905055905060006124db858386602001516075548a6136c390949392919063ffffffff16565b90507fd7b25068d9dc8d00765254cfb7f5070f98d263c8d68931d937c7362fa738048b61250782612ffd565b826040516120329291906151cc565b600082356101408401358261253160808701606088016141ad565b905061254e6125493688900388016101008901614fa1565b613506565b60016125606040880160208901615268565b600181111561257157612571614766565b1461258f5760405163182f3d8760e11b815260040160405180910390fd5b608086013546146125d15760405163092048d160e11b81526000356001600160e01b031916600482015260808701356024820152466044820152606401610c3f565b60006125e66109746080890160608a016141ad565b90506125fa61012088016101008901614f86565b600281111561260b5761260b614766565b8151600281111561261e5761261e614766565b14801561264f575061263660e0880160c089016141ad565b6001600160a01b031681602001516001600160a01b0316145b8015612660575060755460e0880135145b61267d5760405163f4b8742f60e01b815260040160405180910390fd5b600084815260796020526040902054156126aa57604051634f13df6160e01b815260040160405180910390fd5b60016126be61012089016101008a01614f86565b60028111156126cf576126cf614766565b14806126e257506126e08284612e31565b155b6126ff5760405163c51297b760e01b815260040160405180910390fd5b60006127136115f3368a90038a018a614e2d565b9050600061272360775483613798565b9050600061274361273c6101208c016101008d01614f86565b86886137d9565b60408051606081018252600080825260208201819052918101829052919a50919250819081906000805b8e51811015612881578e818151811061278857612788614c31565b6020908102919091018101518051818301516040808401518151600081529586018083528e905260ff9093169085015260608401526080830152935060019060a0016020604051602081039080840390855afa1580156127ec573d6000803e3d6000fd5b505050602060405103519450846001600160a01b0316846001600160a01b031610612838576000356001600160e01b031916604051635d3dcd3160e01b8152600401610c3f9190614712565b6001600160a01b0385166000908152607e60205260409020548594506001600160601b03166128679083615283565b91508682106128795760019550612881565b60010161276d565b50846128a057604051639e8f5f6360e01b815260040160405180910390fd5b50505060008981526079602052604090208590555050871561291b576000878152607a602052604090819020805460ff19166001179055517f89e52969465b1f1866fc5d46fd62de953962e9cb33552443cd999eba05bd20dc906129079085908d90614f00565b60405180910390a150505050505050610bfb565b6129258587613869565b61296461293860608c0160408d016141ad565b86607460009054906101000a90046001600160a01b03168d610100018036038101906117f29190614fa1565b7f21e88e956aa3e086f6388e899965cef814688f99ad8bb29b08d396571016372d838b604051612995929190614f00565b60405180910390a15050505050505092915050565b610e4f82826120f0565b607480546001600160a01b0319166001600160a01b0383169081179091556040519081527f9d2334c23be647e994f27a72c5eee42a43d5bdcfe15bb88e939103c2b114cbaf90602001611025565b80821115612a31576000356001600160e01b0319166040516387f6f09560e01b8152600401610c3f9190614712565b6001805460028054858455908490556004805493840190556040805183815260208101839052929391928592879290917f976f8a9c5bdf8248dec172376d6e2b80a8e3df2f0328e381c6db8e1cf138c0f8910160405180910390a450505050565b60008082841115612ac4576000356001600160e01b0319166040516387f6f09560e01b8152600401610c3f9190614712565b5050603780546038805492859055839055600480546001810190915560408051838152602081018590529293928592879290917f31312c97b89cc751b832d98fd459b967a2c3eef3b49757d1cf5ebaa12bb6eee1910160405180910390a49250929050565b600254603754612b399190614fd0565b603854600154612b499190614fd0565b1115610bba576000356001600160e01b0319166040516387f6f09560e01b8152600401610c3f9190614712565b828114612ba4576000356001600160e01b0319166040516306b5667560e21b8152600401610c3f9190614712565b60005b83811015612c1557828282818110612bc157612bc1614c31565b9050602002013560396000878785818110612bde57612bde614c31565b9050602002016020810190612bf391906141ad565b6001600160a01b03168152602081019190915260400160002055600101612ba7565b507f80bc635c452ae67f12f9b6f12ad4daa6dbbc04eeb9ebb87d354ce10c0e210dc08484848460405161182b94939291906150b9565b828114612c79576000356001600160e01b0319166040516306b5667560e21b8152600401610c3f9190614712565b60005b83811015612d2657620f4240838383818110612c9a57612c9a614c31565b905060200201351115612cc05760405163572d3bd360e11b815260040160405180910390fd5b828282818110612cd257612cd2614c31565b90506020020135603b6000878785818110612cef57612cef614c31565b9050602002016020810190612d0491906141ad565b6001600160a01b03168152602081019190915260400160002055600101612c7c565b507fb05f5de88ae0294ebb6f67c5af2fcbbd593cc6bdfe543e2869794a4c8ce3ea508484848460405161182b94939291906150b9565b828114612d8a576000356001600160e01b0319166040516306b5667560e21b8152600401610c3f9190614712565b60005b83811015612dfb57828282818110612da757612da7614c31565b90506020020135603c6000878785818110612dc457612dc4614c31565b9050602002016020810190612dd991906141ad565b6001600160a01b03168152602081019190915260400160002055600101612d8d565b507fb5d2963614d72181b4df1f993d45b83edf42fa19710f0204217ba1b3e183bb738484848460405161182b94939291906150b9565b6001600160a01b0382166000908152603a60205260408120548210612e5857506000610bfb565b6000612e676201518042615296565b6001600160a01b0385166000908152603e6020526040902054909150811115612ead5750506001600160a01b0382166000908152603c6020526040902054811015610bfb565b6001600160a01b0384166000908152603d6020526040902054612ed1908490615283565b6001600160a01b0385166000908152603c602052604090205411159150610bfb9050565b5092915050565b6000600254600160025484600154612f149190614fd0565b612f1e9190615283565b612f289190614fbd565b610bfb9190615296565b612f3a6121f5565b6000805460ff191660011790557f62e78cea01bee320cd4e420270b5ea74000d11b0c9f74754ebdbfc544b05a2586121d83390565b806001600160a01b03163b60000361108a57604051630bfc64a360e21b81526001600160a01b0382166004820152602401610c3f565b612fae81611bfb565b6001600160a01b0316336001600160a01b03161461108a576000356001600160e01b03191681336040516320e0f98d60e21b8152600401610c3f939291906152b8565b60006110f683836138f9565b60008061300d8360400151613923565b9050600061301e8460600151613923565b905060006130728560800151604080517f1e2b74b2a792d5c0f0b6e59b037fa9d43d84fbb759337f0112fcc15ca414fc8d815282516020808301919091528301518183015291015160608201526080902090565b604080517fb9d1fe7c9deeec5dc90a2f47ff1684239519f2545b2228d3d91fb27df3189eea815287516020808301919091529097015190870152606086019390935250608084015260a08301525060c0902090565b6000620f42406130d78385614fd0565b6110f69190615296565b806001600160a01b0316826001600160a01b03160361318e5760408085015190516001600160a01b0385169180156108fc02916000818181858888f1935050505061318957806001600160a01b031663d0e30db085604001516040518263ffffffff1660e01b81526004016000604051808303818588803b15801561316557600080fd5b505af1158015613179573d6000803e3d6000fd5b505050505061318984848461396b565b610cdc565b6000845160028111156131a3576131a3614766565b03613269576040516370a0823160e01b81523060048201526000906001600160a01b038416906370a0823190602401602060405180830381865afa1580156131ef573d6000803e3d6000fd5b505050506040513d601f19601f8201168201806040525081019061321391906152ef565b905084604001518110156132585761323b83308388604001516132369190614fbd565b6139ea565b61325857604051632f739fff60e11b815260040160405180910390fd5b61326385858561396b565b50610cdc565b60018451600281111561327e5761327e614766565b036132af5761329282848660200151613a8f565b6131895760405163c8e3a09f60e01b815260040160405180910390fd5b6002845160028111156132c4576132c4614766565b036132fa576132dd828486602001518760400151613ab6565b613189576040516334b471a760e21b815260040160405180910390fd5b6040516361e411a760e11b815260040160405180910390fd5b6000610bfb825490565b60006001600160e01b03198216635a05180f60e01b1480610bfb5750610bfb82613ae3565b61334c8282611839565b610e4f57613364816001600160a01b03166014613b18565b61336f836020613b18565b60405160200161338092919061532c565b60408051601f198184030181529082905262461bcd60e51b8252610c3f916004016153cd565b6133b08282611839565b610e4f5760008281526072602090815260408083206001600160a01b03851684529091529020805460ff191660011790556133e83390565b6001600160a01b0316816001600160a01b0316837f2f8788117e7eff1d82e926ec794901d17c78024a50270940304540a733656f0d60405160405180910390a45050565b60006110f6836001600160a01b038416613cb3565b61344b8282611839565b15610e4f5760008281526072602090815260408083206001600160a01b0385168085529252808320805460ff1916905551339285917ff6391f5c32d9c69d2a47ea670b442974b53935d1edc7fd64eb21e047a839171b9190a45050565b60006110f6836001600160a01b038416613d02565b60005460ff16610bba5760405162461bcd60e51b815260206004820152601460248201527314185d5cd8589b194e881b9bdd081c185d5cd95960621b6044820152606401610c3f565b61350f81613df5565b8061351e575061351e81613e2c565b8061352d575061352d81613e54565b61108a5760405163034992a760e51b815260040160405180910390fd5b60006060818551600281111561356257613562614766565b0361363d5760408581015181516001600160a01b03878116602483015230604483015260648083019390935283518083039093018352608490910183526020820180516001600160e01b03166323b872dd60e01b1790529151918516916135c991906153e0565b6000604051808303816000865af19150503d8060008114613606576040519150601f19603f3d011682016040523d82523d6000602084013e61360b565b606091505b5090925090508180156136365750805115806136365750808060200190518101906136369190615176565b9150613696565b60018551600281111561365257613652614766565b03613667576136368385308860200151613e7d565b60028551600281111561367c5761367c614766565b036132fa5761363683853088602001518960400151613f2b565b816136bc5784843085604051639d2e4c6760e01b8152600401610c3f94939291906153fc565b5050505050565b6137336040805160a08101825260008082526020808301829052835160608082018652838252818301849052818601849052848601919091528451808201865283815280830184905280860184905281850152845190810185528281529081018290529283015290608082015290565b83815260006020820181905250604080820180516001600160a01b039788169052602080890151825190891690820152905146908301528751606084018051918916909152805195909716940193909352935182015292909201516080820152919050565b6040805161190160f01b60208083019190915260228201859052604280830185905283518084039091018152606290920190925280519101206000906110f6565b60008060006137f0607d546001600160601b031690565b90506137fb81612efc565b9250600086600281111561381157613811614766565b03613860576001600160a01b03851660009081526039602052604090205484106138415761383e81613fdf565b92505b6001600160a01b0385166000908152603a602052604090205484101591505b50935093915050565b60006138786201518042615296565b6001600160a01b0384166000908152603e60205260409020549091508111156138c7576001600160a01b03929092166000908152603e6020908152604080832094909455603d90529190912055565b6001600160a01b0383166000908152603d6020526040812080548492906138ef908490615283565b9091555050505050565b600082600001828154811061391057613910614c31565b9060005260206000200154905092915050565b604080517f353bdd8d69b9e3185b3972e08b03845c0c14a21a390215302776a7a34b0e8764815282516020808301919091528301518183015291015160608201526080902090565b6000808451600281111561398157613981614766565b0361399c5761399582848660400151613ff7565b90506139c6565b6001845160028111156139b1576139b1614766565b036132fa576139958230858760200151613e7d565b80610cdc578383836040516341bd7d9160e11b8152600401610c3f93929190615432565b604080516001600160a01b038481166024830152604480830185905283518084039091018152606490920183526020820180516001600160e01b03166340c10f1960e01b1790529151600092861691613a42916153e0565b6000604051808303816000865af19150503d8060008114613a7f576040519150601f19603f3d011682016040523d82523d6000602084013e613a84565b606091505b509095945050505050565b6000613a9d84308585613e7d565b9050806110f657613aaf8484846139ea565b90506110f6565b6000613ac58530868686613f2b565b905080613adb57613ad8858585856140ca565b90505b949350505050565b60006001600160e01b03198216637965db0b60e01b1480610bfb57506301ffc9a760e01b6001600160e01b0319831614610bfb565b60606000613b27836002614fd0565b613b32906002615283565b6001600160401b03811115613b4957613b4961457c565b6040519080825280601f01601f191660200182016040528015613b73576020820181803683370190505b509050600360fc1b81600081518110613b8e57613b8e614c31565b60200101906001600160f81b031916908160001a905350600f60fb1b81600181518110613bbd57613bbd614c31565b60200101906001600160f81b031916908160001a9053506000613be1846002614fd0565b613bec906001615283565b90505b6001811115613c64576f181899199a1a9b1b9c1cb0b131b232b360811b85600f1660108110613c2057613c20614c31565b1a60f81b828281518110613c3657613c36614c31565b60200101906001600160f81b031916908160001a90535060049490941c93613c5d81615462565b9050613bef565b5083156110f65760405162461bcd60e51b815260206004820181905260248201527f537472696e67733a20686578206c656e67746820696e73756666696369656e746044820152606401610c3f565b6000818152600183016020526040812054613cfa57508154600181810184556000848152602080822090930184905584548482528286019093526040902091909155610bfb565b506000610bfb565b60008181526001830160205260408120548015613deb576000613d26600183614fbd565b8554909150600090613d3a90600190614fbd565b9050818114613d9f576000866000018281548110613d5a57613d5a614c31565b9060005260206000200154905080876000018481548110613d7d57613d7d614c31565b6000918252602080832090910192909255918252600188019052604090208390555b8554869080613db057613db0615479565b600190038181906000526020600020016000905590558560010160008681526020019081526020016000206000905560019350505050610bfb565b6000915050610bfb565b60008082516002811115613e0b57613e0b614766565b148015613e1c575060008260400151115b8015610bfb575050602001511590565b6000600182516002811115613e4357613e43614766565b148015610bfb575050604001511590565b6000600282516002811115613e6b57613e6b614766565b148015610bfb57505060400151151590565b604080516001600160a01b0385811660248301528481166044830152606480830185905283518084039091018152608490920183526020820180516001600160e01b03166323b872dd60e01b1790529151600092871691613edd916153e0565b6000604051808303816000865af19150503d8060008114613f1a576040519150601f19603f3d011682016040523d82523d6000602084013e613f1f565b606091505b50909695505050505050565b604080516000808252602082019092526001600160a01b03871690613f5b9087908790879087906044810161548f565b60408051601f198184030181529181526020820180516001600160e01b0316637921219560e11b17905251613f9091906153e0565b6000604051808303816000865af19150503d8060008114613fcd576040519150601f19603f3d011682016040523d82523d6000602084013e613fd2565b606091505b5090979650505050505050565b6000603854600160385484603754612f149190614fd0565b604080516001600160a01b038481166024830152604480830185905283518084039091018152606490920183526020820180516001600160e01b031663a9059cbb60e01b17905291516000926060929087169161405491906153e0565b6000604051808303816000865af19150503d8060008114614091576040519150601f19603f3d011682016040523d82523d6000602084013e614096565b606091505b5090925090508180156140c15750805115806140c15750808060200190518101906140c19190615176565b95945050505050565b604080516000808252602082019092526001600160a01b038616906140f890869086908690604481016154d4565b60408051601f198184030181529181526020820180516001600160e01b031663731133e960e01b17905251613edd91906153e0565b60408051606081018252600080825260208201529081016141696040805160608101909152806000815260200160008152602001600081525090565b905290565b60006020828403121561418057600080fd5b81356001600160e01b0319811681146110f657600080fd5b6001600160a01b038116811461108a57600080fd5b6000602082840312156141bf57600080fd5b81356110f681614198565b60008083601f8401126141dc57600080fd5b5081356001600160401b038111156141f357600080fd5b6020830191508360208260051b85010111156118bc57600080fd5b6000806000806040858703121561422457600080fd5b84356001600160401b038082111561423b57600080fd5b614247888389016141ca565b9096509450602087013591508082111561426057600080fd5b5061426d878288016141ca565b95989497509550505050565b6000806000806000806060878903121561429257600080fd5b86356001600160401b03808211156142a957600080fd5b6142b58a838b016141ca565b909850965060208901359150808211156142ce57600080fd5b6142da8a838b016141ca565b909650945060408901359150808211156142f357600080fd5b5061430089828a016141ca565b979a9699509497509295939492505050565b80356119cd81614198565b60006020828403121561432f57600080fd5b5035919050565b6000806040838503121561434957600080fd5b82359150602083013561435b81614198565b809150509250929050565b600060a0828403121561437857600080fd5b50919050565b6000610160828403121561437857600080fd5b600080600061018084860312156143a757600080fd5b6143b1858561437e565b92506101608401356001600160401b03808211156143ce57600080fd5b818601915086601f8301126143e257600080fd5b8135818111156143f157600080fd5b87602060608302850101111561440657600080fd5b6020830194508093505050509250925092565b8060608101831015610bfb57600080fd5b8060808101831015610bfb57600080fd5b6000806000806000806000806000806101208b8d03121561445b57600080fd5b6144648b614312565b995061447260208c01614312565b985060408b0135975060608b0135965060808b0135955060a08b0135945060c08b01356001600160401b03808211156144aa57600080fd5b6144b68e838f01614419565b955060e08d01359150808211156144cc57600080fd5b6144d88e838f0161442a565b94506101008d01359150808211156144ef57600080fd5b506144fc8d828e016141ca565b915080935050809150509295989b9194979a5092959850565b6000806040838503121561452857600080fd5b823561453381614198565b946020939093013593505050565b8035601081106119cd57600080fd5b6000806040838503121561456357600080fd5b61456c83614541565b9150602083013561435b81614198565b634e487b7160e01b600052604160045260246000fd5b604051606081016001600160401b03811182821017156145b4576145b461457c565b60405290565b604051601f8201601f191681016001600160401b03811182821017156145e2576145e261457c565b604052919050565b60006001600160401b038211156146035761460361457c565b5060051b60200190565b801515811461108a57600080fd5b60008060008060006060868803121561463357600080fd5b85356001600160401b038082111561464a57600080fd5b61465689838a016141ca565b909750955060209150878201358181111561467057600080fd5b61467c8a828b016141ca565b90965094505060408801358181111561469457600080fd5b88019050601f810189136146a757600080fd5b80356146ba6146b5826145ea565b6145ba565b81815260059190911b8201830190838101908b8311156146d957600080fd5b928401925b828410156147005783356146f18161460d565b825292840192908401906146de565b80955050505050509295509295909350565b6001600160e01b031991909116815260200190565b6000806040838503121561473a57600080fd5b50508035926020909101359150565b6000610160828403121561475c57600080fd5b6110f6838361437e565b634e487b7160e01b600052602160045260246000fd5b6003811061478c5761478c614766565b9052565b60006040820190506147a382845161477c565b6020928301516001600160a01b0316919092015290565b600082601f8301126147cb57600080fd5b813560206147db6146b5836145ea565b8083825260208201915060208460051b8701019350868411156147fd57600080fd5b602086015b848110156148195780358352918301918301614802565b509695505050505050565b600082601f83011261483557600080fd5b81356001600160401b0381111561484e5761484e61457c565b614861601f8201601f19166020016145ba565b81815284602083860101111561487657600080fd5b816020850160208301376000918101602001919091529392505050565b600080600080600060a086880312156148ab57600080fd5b85356148b681614198565b945060208601356148c681614198565b935060408601356001600160401b03808211156148e257600080fd5b6148ee89838a016147ba565b9450606088013591508082111561490457600080fd5b61491089838a016147ba565b9350608088013591508082111561492657600080fd5b5061493388828901614824565b9150509295509295909350565b60006020828403121561495257600080fd5b6110f682614541565b60008060008060008060006080888a03121561497657600080fd5b87356001600160401b038082111561498d57600080fd5b6149998b838c016141ca565b909950975060208a01359150808211156149b257600080fd5b6149be8b838c016141ca565b909750955060408a01359150808211156149d757600080fd5b6149e38b838c016141ca565b909550935060608a01359150808211156149fc57600080fd5b50614a098a828b0161442a565b91505092959891949750929550565b600080600080600060a08688031215614a3057600080fd5b8535614a3b81614198565b94506020860135614a4b81614198565b9350604086013592506060860135915060808601356001600160401b03811115614a7457600080fd5b61493388828901614824565b6020808252602e908201527f496e697469616c697a61626c653a20636f6e747261637420697320616c72656160408201526d191e481a5b9a5d1a585b1a5e995960921b606082015260800190565b600082601f830112614adf57600080fd5b81516020614aef6146b5836145ea565b8083825260208201915060208460051b870101935086841115614b1157600080fd5b602086015b84811015614819578051614b2981614198565b8352918301918301614b16565b6001600160601b038116811461108a57600080fd5b600080600060608486031215614b6057600080fd5b83516001600160401b0380821115614b7757600080fd5b614b8387838801614ace565b9450602091508186015181811115614b9a57600080fd5b614ba688828901614ace565b945050604086015181811115614bbb57600080fd5b86019050601f81018713614bce57600080fd5b8051614bdc6146b5826145ea565b81815260059190911b82018301908381019089831115614bfb57600080fd5b928401925b82841015614c22578351614c1381614b36565b82529284019290840190614c00565b80955050505050509250925092565b634e487b7160e01b600052603260045260246000fd5b634e487b7160e01b600052601160045260246000fd5b6001600160601b03818116838216019080821115612ef557612ef5614c47565b8035600381106119cd57600080fd5b600060608284031215614c9e57600080fd5b614ca6614592565b9050614cb182614c7d565b8152602082013560208201526040820135604082015292915050565b600060a08284031215614cdf57600080fd5b614ce7614592565b8235614cf281614198565b81526020830135614d0281614198565b6020820152614d148460408501614c8c565b60408201529392505050565b600060608284031215614d3257600080fd5b614d3a614592565b823560ff81168114614d4b57600080fd5b8152602083810135908201526040928301359281019290925250919050565b6000808335601e19843603018112614d8157600080fd5b8301803591506001600160401b03821115614d9b57600080fd5b6020019150600581901b36038213156118bc57600080fd5b600060208284031215614dc557600080fd5b81356110f681614b36565b8035600281106119cd57600080fd5b600060608284031215614df157600080fd5b614df9614592565b90508135614e0681614198565b81526020820135614e1681614198565b806020830152506040820135604082015292915050565b60006101608284031215614e4057600080fd5b60405160a081018181106001600160401b0382111715614e6257614e6261457c565b60405282358152614e7560208401614dd0565b6020820152614e878460408501614ddf565b6040820152614e998460a08501614ddf565b6060820152614eac846101008501614c8c565b60808201529392505050565b6002811061478c5761478c614766565b8035614ed381614198565b6001600160a01b039081168352602082013590614eef82614198565b166020830152604090810135910152565b60006101808201905083825282356020830152614f1f60208401614dd0565b614f2c6040840182614eb8565b50614f3d6060830160408501614ec8565b614f4d60c0830160a08501614ec8565b610120614f68818401614f636101008701614c7d565b61477c565b61014081850135818501528085013561016085015250509392505050565b600060208284031215614f9857600080fd5b6110f682614c7d565b600060608284031215614fb357600080fd5b6110f68383614c8c565b81810381811115610bfb57610bfb614c47565b8082028115828204841417610bfb57610bfb614c47565b600060208284031215614ff957600080fd5b81356110f68161460d565b6001600160601b03828116828216039080821115612ef557612ef5614c47565b6010811061478c5761478c614766565b60208101610bfb8284615024565b6001600160e01b03198316815260408101600b831061506357615063614766565b8260208301529392505050565b8183526000602080850194508260005b858110156150ae57813561509381614198565b6001600160a01b031687529582019590820190600101615080565b509495945050505050565b6040815260006150cd604083018688615070565b82810360208401528381526001600160fb1b038411156150ec57600080fd5b8360051b80866020840137016020019695505050505050565b60608152600061511960608301888a615070565b6020838203602085015261512e82888a615070565b848103604086015285815286925060200160005b868110156151675761515782614f6386614c7d565b9282019290820190600101615142565b509a9950505050505050505050565b60006020828403121561518857600080fd5b81516110f68161460d565b6000600182016151a5576151a5614c47565b5060010190565b6151b782825161477c565b60208181015190830152604090810151910152565b6000610180820190508382528251602083015260208301516151f16040840182614eb8565b5060408381015180516001600160a01b03908116606086015260208201511660808501529081015160a084015250606083015180516001600160a01b0390811660c085015260208201511660e084015260408101516101008401525060808301516152606101208401826151ac565b509392505050565b60006020828403121561527a57600080fd5b6110f682614dd0565b80820180821115610bfb57610bfb614c47565b6000826152b357634e487b7160e01b600052601260045260246000fd5b500490565b6001600160e01b031984168152606081016152d66020830185615024565b6001600160a01b03929092166040919091015292915050565b60006020828403121561530157600080fd5b5051919050565b60005b8381101561532357818101518382015260200161530b565b50506000910152565b7f416363657373436f6e74726f6c3a206163636f756e7420000000000000000000815260008351615364816017850160208801615308565b7001034b99036b4b9b9b4b733903937b6329607d1b6017918401918201528351615395816028840160208801615308565b01602801949350505050565b600081518084526153b9816020860160208601615308565b601f01601f19169290920160200192915050565b6020815260006110f660208301846153a1565b600082516153f2818460208701615308565b9190910192915050565b60c0810161540a82876151ac565b6001600160a01b0394851660608301529284166080820152921660a090920191909152919050565b60a0810161544082866151ac565b6001600160a01b03938416606083015291909216608090920191909152919050565b60008161547157615471614c47565b506000190190565b634e487b7160e01b600052603160045260246000fd5b6001600160a01b03868116825285166020820152604081018490526060810183905260a0608082018190526000906154c9908301846153a1565b979650505050505050565b60018060a01b038516815283602082015282604082015260806060820152600061550160808301846153a1565b969550505050505056fe7f26b83ff96e1f2b6a682f133852f6798a09c465da95921460cefb3847402498a264697066735822122039bdd676fa56a806e2f91eb197d0a444b13ff0899114d328ae5983c28d58606164736f6c63430008170033",
  "chainId": 11155111,
  "contractAbsolutePath": "MainchainGatewayV3.sol",
  "deployer": "0x968D0Cd7343f711216817E617d3f92a23dC91c07",
  "devdoc": {
    "version": 1,
    "kind": "dev",
    "methods": {
      "DOMAIN_SEPARATOR()": {
        "details": "Returns the domain seperator."
      },
      "checkHighTierVoteWeightThreshold(uint256)": {
        "details": "Checks whether the `_voteWeight` passes the high-tier vote weight threshold."
      },
      "checkThreshold(uint256)": {
        "details": "Checks whether the `_voteWeight` passes the threshold."
      },
      "getContract(uint8)": {
        "details": "Returns the address of a contract with a specific role. Throws an error if no contract is set for the specified role.",
        "params": {
          "contractType": "The role of the contract to retrieve."
        },
        "returns": {
          "contract_": "The address of the contract with the specified role."
        }
      },
      "getHighTierVoteWeightThreshold()": {
        "details": "Returns the high-tier vote weight threshold."
      },
      "getRoleAdmin(bytes32)": {
        "details": "Returns the admin role that controls `role`. See {grantRole} and {revokeRole}. To change a role's admin, use {_setRoleAdmin}."
      },
      "getRoleMember(bytes32,uint256)": {
        "details": "Returns one of the accounts that have `role`. `index` must be a value between 0 and {getRoleMemberCount}, non-inclusive. Role bearers are not sorted in any particular way, and their ordering may change at any point. WARNING: When using {getRoleMember} and {getRoleMemberCount}, make sure you perform all queries on the same block. See the following https://forum.openzeppelin.com/t/iterating-over-elements-on-enumerableset-in-openzeppelin-contracts/2296[forum post] for more information."
      },
      "getRoleMemberCount(bytes32)": {
        "details": "Returns the number of accounts that have `role`. Can be used together with {getRoleMember} to enumerate all bearers of a role."
      },
      "getRoninToken(address)": {
        "details": "Returns token address on Ronin network. Note: Reverts for unsupported token."
      },
      "getThreshold()": {
        "details": "Returns the threshold."
      },
      "grantRole(bytes32,address)": {
        "details": "Grants `role` to `account`. If `account` had not been already granted `role`, emits a {RoleGranted} event. Requirements: - the caller must have ``role``'s admin role. May emit a {RoleGranted} event."
      },
      "hasRole(bytes32,address)": {
        "details": "Returns `true` if `account` has been granted `role`."
      },
      "initialize(address,address,uint256,uint256,uint256,uint256,address[][3],uint256[][4],uint8[])": {
        "details": "Initializes contract storage."
      },
      "mapTokens(address[],address[],uint8[])": {
        "details": "Maps mainchain tokens to Ronin network. Requirement: - The method caller is admin. - The arrays have the same length and its length larger than 0. Emits the `TokenMapped` event."
      },
      "mapTokensAndThresholds(address[],address[],uint8[],uint256[][4])": {
        "details": "Maps mainchain tokens to Ronin network and sets thresholds. Requirement: - The method caller is admin. - The arrays have the same length and its length larger than 0. Emits the `TokenMapped` event."
      },
      "minimumVoteWeight()": {
        "details": "Returns the minimum vote weight to pass the threshold."
      },
      "onBridgeOperatorsAdded(address[],uint96[],bool[])": {
        "details": "Handles the event when bridge operators are added.",
        "params": {
          "addeds": "The corresponding boolean values indicating whether the operators were added or not.",
          "bridgeOperators": "The addresses of the bridge operators."
        },
        "returns": {
          "_0": "The selector of the function being called."
        }
      },
      "onBridgeOperatorsRemoved(address[],bool[])": {
        "details": "Handles the event when bridge operators are removed.",
        "params": {
          "bridgeOperators": "The addresses of the bridge operators.",
          "removeds": "The corresponding boolean values indicating whether the operators were removed or not."
        },
        "returns": {
          "_0": "The selector of the function being called."
        }
      },
      "pause()": {
        "details": "Triggers paused state."
      },
      "paused()": {
        "details": "Returns true if the contract is paused, and false otherwise."
      },
      "reachedWithdrawalLimit(address,uint256)": {
        "details": "Checks whether the withdrawal reaches the limitation."
      },
      "receiveEther()": {
        "details": "Receives ether without doing anything. Use this function to topup native token."
      },
      "renounceRole(bytes32,address)": {
        "details": "Revokes `role` from the calling account. Roles are often managed via {grantRole} and {revokeRole}: this function's purpose is to provide a mechanism for accounts to lose their privileges if they are compromised (such as when a trusted device is misplaced). If the calling account had been revoked `role`, emits a {RoleRevoked} event. Requirements: - the caller must be `account`. May emit a {RoleRevoked} event."
      },
      "requestDepositFor((address,address,(uint8,uint256,uint256)))": {
        "details": "Locks the assets and request deposit."
      },
      "revokeRole(bytes32,address)": {
        "details": "Revokes `role` from `account`. If `account` had been granted `role`, emits a {RoleRevoked} event. Requirements: - the caller must have ``role``'s admin role. May emit a {RoleRevoked} event."
      },
      "setContract(uint8,address)": {
        "details": "Sets the address of a contract with a specific role. Emits the event {ContractUpdated}.",
        "params": {
          "addr": "The address of the contract to set.",
          "contractType": "The role of the contract to set."
        }
      },
      "setDailyWithdrawalLimits(address[],uint256[])": {
        "details": "Sets daily limit amounts for the withdrawals. Requirements: - The method caller is admin. - The arrays have the same length and its length larger than 0. Emits the `DailyWithdrawalLimitsUpdated` event."
      },
      "setEmergencyPauser(address)": {
        "details": "Grant emergency pauser role for `_addr`."
      },
      "setHighTierThresholds(address[],uint256[])": {
        "details": "Sets the thresholds for high-tier withdrawals that requires high-tier vote weights. Requirements: - The method caller is admin. - The arrays have the same length and its length larger than 0. Emits the `HighTierThresholdsUpdated` event."
      },
      "setHighTierVoteWeightThreshold(uint256,uint256)": {
        "details": "Sets high-tier vote weight threshold and returns the old one. Requirements: - The method caller is admin. - The high-tier vote weight threshold must equal to or larger than the normal threshold. Emits the `HighTierVoteWeightThresholdUpdated` event."
      },
      "setLockedThresholds(address[],uint256[])": {
        "details": "Sets the amount thresholds to lock withdrawal. Requirements: - The method caller is admin. - The arrays have the same length and its length larger than 0. Emits the `LockedThresholdsUpdated` event."
      },
      "setThreshold(uint256,uint256)": {
        "details": "Override `GatewayV3-setThreshold`. Requirements: - The high-tier vote weight threshold must equal to or larger than the normal threshold."
      },
      "setUnlockFeePercentages(address[],uint256[])": {
        "details": "Sets fee percentages to unlock withdrawal. Requirements: - The method caller is admin. - The arrays have the same length and its length larger than 0. Emits the `UnlockFeePercentagesUpdated` event."
      },
      "setWrappedNativeTokenContract(address)": {
        "details": "Sets the wrapped native token contract. Requirements: - The method caller is admin. Emits the `WrappedNativeTokenContractUpdated` event."
      },
      "submitWithdrawal((uint256,uint8,(address,address,uint256),(address,address,uint256),(uint8,uint256,uint256)),(uint8,bytes32,bytes32)[])": {
        "details": "Withdraws based on the receipt and the validator signatures. Returns whether the withdrawal is locked. Emits the `Withdrew` once the assets are released."
      },
      "unlockWithdrawal((uint256,uint8,(address,address,uint256),(address,address,uint256),(uint8,uint256,uint256)))": {
        "details": "Approves a specific withdrawal. Requirements: - The method caller is a validator. Emits the `Withdrew` once the assets are released."
      },
      "unpause()": {
        "details": "Triggers unpaused state."
      }
    },
    "events": {
      "ContractUpdated(uint8,address)": {
        "details": "Emitted when a contract is updated."
      },
      "DailyWithdrawalLimitsUpdated(address[],uint256[])": {
        "details": "Emitted when the daily limit thresholds are updated"
      },
      "DepositRequested(bytes32,(uint256,uint8,(address,address,uint256),(address,address,uint256),(uint8,uint256,uint256)))": {
        "details": "Emitted when the deposit is requested"
      },
      "HighTierThresholdsUpdated(address[],uint256[])": {
        "details": "Emitted when the thresholds for high-tier withdrawals that requires high-tier vote weights are updated"
      },
      "HighTierVoteWeightThresholdUpdated(uint256,uint256,uint256,uint256,uint256)": {
        "details": "Emitted when the high-tier vote weight threshold is updated"
      },
      "Initialized(uint8)": {
        "details": "Triggered when the contract has been initialized or reinitialized."
      },
      "LockedThresholdsUpdated(address[],uint256[])": {
        "details": "Emitted when the thresholds for locked withdrawals are updated"
      },
      "Paused(address)": {
        "details": "Emitted when the pause is triggered by `account`."
      },
      "RoleAdminChanged(bytes32,bytes32,bytes32)": {
        "details": "Emitted when `newAdminRole` is set as ``role``'s admin role, replacing `previousAdminRole` `DEFAULT_ADMIN_ROLE` is the starting admin for all roles, despite {RoleAdminChanged} not being emitted signaling this. _Available since v3.1._"
      },
      "RoleGranted(bytes32,address,address)": {
        "details": "Emitted when `account` is granted `role`. `sender` is the account that originated the contract call, an admin role bearer except when using {AccessControl-_setupRole}."
      },
      "RoleRevoked(bytes32,address,address)": {
        "details": "Emitted when `account` is revoked `role`. `sender` is the account that originated the contract call:   - if using `revokeRole`, it is the admin role bearer   - if using `renounceRole`, it is the role bearer (i.e. `account`)"
      },
      "ThresholdUpdated(uint256,uint256,uint256,uint256,uint256)": {
        "details": "Emitted when the threshold is updated"
      },
      "TokenMapped(address[],address[],uint8[])": {
        "details": "Emitted when the tokens are mapped"
      },
      "UnlockFeePercentagesUpdated(address[],uint256[])": {
        "details": "Emitted when the fee percentages to unlock withdraw are updated"
      },
      "Unpaused(address)": {
        "details": "Emitted when the pause is lifted by `account`."
      },
      "WithdrawalLocked(bytes32,(uint256,uint8,(address,address,uint256),(address,address,uint256),(uint8,uint256,uint256)))": {
        "details": "Emitted when the withdrawal is locked"
      },
      "WithdrawalUnlocked(bytes32,(uint256,uint8,(address,address,uint256),(address,address,uint256),(uint8,uint256,uint256)))": {
        "details": "Emitted when the withdrawal is unlocked"
      },
      "Withdrew(bytes32,(uint256,uint8,(address,address,uint256),(address,address,uint256),(uint8,uint256,uint256)))": {
        "details": "Emitted when the assets are withdrawn"
      },
      "WrappedNativeTokenContractUpdated(address)": {
        "details": "Emitted when the wrapped native token contract is updated"
      }
    },
    "errors": {
      "ErrContractTypeNotFound(uint8)": [
        {
          "details": "Error of invalid role."
        }
      ],
      "ErrERC1155MintingFailed()": [
        {
          "details": "Error indicating that the mint of ERC1155 tokens has failed."
        }
      ],
      "ErrERC20MintingFailed()": [
        {
          "details": "Error indicating that the minting of ERC20 tokens has failed."
        }
      ],
      "ErrERC721MintingFailed()": [
        {
          "details": "Error indicating that the minting of ERC721 tokens has failed."
        }
      ],
      "ErrEmptyArray()": [
        {
          "details": "Error indicating that an array is empty when it should contain elements."
        }
      ],
      "ErrInvalidChainId(bytes4,uint256,uint256)": [
        {
          "details": "Error indicating that the chain ID is invalid.",
          "params": {
            "actual": "Current chain ID that executing function.",
            "expected": "Expected chain ID required for the tx to success.",
            "msgSig": "The function signature (bytes4) of the operation that encountered an invalid chain ID."
          }
        }
      ],
      "ErrInvalidInfo()": [
        {
          "details": "Error indicating that the provided information is invalid."
        }
      ],
      "ErrInvalidOrder(bytes4)": [
        {
          "details": "Error indicating that an order is invalid.",
          "params": {
            "msgSig": "The function signature (bytes4) of the operation that encountered an invalid order."
          }
        }
      ],
      "ErrInvalidPercentage()": [
        {
          "details": "Error of invalid percentage."
        }
      ],
      "ErrInvalidReceipt()": [
        {
          "details": "Error indicating that a receipt is invalid."
        }
      ],
      "ErrInvalidReceiptKind()": [
        {
          "details": "Error indicating that a receipt kind is invalid."
        }
      ],
      "ErrInvalidRequest()": [
        {
          "details": "Error indicating that a request is invalid."
        }
      ],
      "ErrInvalidThreshold(bytes4)": [
        {
          "details": "Error indicating that the provided threshold is invalid for a specific function signature.",
          "params": {
            "msgSig": "The function signature (bytes4) that the invalid threshold applies to."
          }
        }
      ],
      "ErrInvalidTokenStandard()": [
        {
          "details": "Error indicating that a token standard is invalid."
        }
      ],
      "ErrLengthMismatch(bytes4)": [
        {
          "details": "Error indicating a mismatch in the length of input parameters or arrays for a specific function.",
          "params": {
            "msgSig": "The function signature (bytes4) that has a length mismatch."
          }
        }
      ],
      "ErrQueryForApprovedWithdrawal()": [
        {
          "details": "Error indicating that a query was made for an approved withdrawal."
        }
      ],
      "ErrQueryForInsufficientVoteWeight()": [
        {
          "details": "Error indicating that a query was made for insufficient vote weight."
        }
      ],
      "ErrQueryForProcessedWithdrawal()": [
        {
          "details": "Error indicating that a query was made for a processed withdrawal."
        }
      ],
      "ErrReachedDailyWithdrawalLimit()": [
        {
          "details": "Error indicating that the daily withdrawal limit has been reached."
        }
      ],
      "ErrTokenCouldNotTransfer((uint8,uint256,uint256),address,address)": [
        {
          "details": "Error indicating that the `transfer` has failed.",
          "params": {
            "to": "Receiver of the token value.",
            "token": "Address of the token.",
            "tokenInfo": "Info of the token including ERC standard, id or quantity."
          }
        }
      ],
      "ErrTokenCouldNotTransferFrom((uint8,uint256,uint256),address,address,address)": [
        {
          "details": "Error indicating that the `handleAssetIn` has failed.",
          "params": {
            "from": "Owner of the token value.",
            "to": "Receiver of the token value.",
            "token": "Address of the token.",
            "tokenInfo": "Info of the token including ERC standard, id or quantity."
          }
        }
      ],
      "ErrUnauthorized(bytes4,uint8)": [
        {
          "details": "Error indicating that the caller is unauthorized to perform a specific function.",
          "params": {
            "expectedRole": "The role required to perform the function.",
            "msgSig": "The function signature (bytes4) that the caller is unauthorized to perform."
          }
        }
      ],
      "ErrUnexpectedInternalCall(bytes4,uint8,address)": [
        {
          "details": "Error indicating that the caller is unauthorized to perform a specific function.",
          "params": {
            "actual": "The actual address that called to the function.",
            "expectedContractType": "The contract type required to perform the function.",
            "msgSig": "The function signature (bytes4)."
          }
        }
      ],
      "ErrUnsupportedStandard()": [
        {
          "details": "Error indicating that an unsupported standard is encountered."
        }
      ],
      "ErrUnsupportedToken()": [
        {
          "details": "Error indicating that a token is not supported."
        }
      ],
      "ErrZeroCodeContract(address)": [
        {
          "details": "Error of set to non-contract."
        }
      ]
    }
  },
  "isFoundry": true,
  "nonce": 28,
  "numDeployments": 2,
  "storageLayout": {
    "storage": [
      {
        "astId": 58352,
        "contract": "src/mainchain/MainchainGatewayV3.sol:MainchainGatewayV3",
        "label": "_paused",
        "offset": 0,
        "slot": "0",
        "type": "t_bool"
      },
      {
        "astId": 103479,
        "contract": "src/mainchain/MainchainGatewayV3.sol:MainchainGatewayV3",
        "label": "_num",
        "offset": 0,
        "slot": "1",
        "type": "t_uint256"
      },
      {
        "astId": 103481,
        "contract": "src/mainchain/MainchainGatewayV3.sol:MainchainGatewayV3",
        "label": "_denom",
        "offset": 0,
        "slot": "2",
        "type": "t_uint256"
      },
      {
        "astId": 103483,
        "contract": "src/mainchain/MainchainGatewayV3.sol:MainchainGatewayV3",
        "label": "______deprecated",
        "offset": 0,
        "slot": "3",
        "type": "t_address"
      },
      {
        "astId": 103485,
        "contract": "src/mainchain/MainchainGatewayV3.sol:MainchainGatewayV3",
        "label": "nonce",
        "offset": 0,
        "slot": "4",
        "type": "t_uint256"
      },
      {
        "astId": 103487,
        "contract": "src/mainchain/MainchainGatewayV3.sol:MainchainGatewayV3",
        "label": "emergencyPauser",
        "offset": 0,
        "slot": "5",
        "type": "t_address"
      },
      {
        "astId": 103492,
        "contract": "src/mainchain/MainchainGatewayV3.sol:MainchainGatewayV3",
        "label": "______gap",
        "offset": 0,
        "slot": "6",
        "type": "t_array(t_uint256)49_storage"
      },
      {
        "astId": 104214,
        "contract": "src/mainchain/MainchainGatewayV3.sol:MainchainGatewayV3",
        "label": "_highTierVWNum",
        "offset": 0,
        "slot": "55",
        "type": "t_uint256"
      },
      {
        "astId": 104216,
        "contract": "src/mainchain/MainchainGatewayV3.sol:MainchainGatewayV3",
        "label": "_highTierVWDenom",
        "offset": 0,
        "slot": "56",
        "type": "t_uint256"
      },
      {
        "astId": 104221,
        "contract": "src/mainchain/MainchainGatewayV3.sol:MainchainGatewayV3",
        "label": "highTierThreshold",
        "offset": 0,
        "slot": "57",
        "type": "t_mapping(t_address,t_uint256)"
      },
      {
        "astId": 104226,
        "contract": "src/mainchain/MainchainGatewayV3.sol:MainchainGatewayV3",
        "label": "lockedThreshold",
        "offset": 0,
        "slot": "58",
        "type": "t_mapping(t_address,t_uint256)"
      },
      {
        "astId": 104231,
        "contract": "src/mainchain/MainchainGatewayV3.sol:MainchainGatewayV3",
        "label": "unlockFeePercentages",
        "offset": 0,
        "slot": "59",
        "type": "t_mapping(t_address,t_uint256)"
      },
      {
        "astId": 104236,
        "contract": "src/mainchain/MainchainGatewayV3.sol:MainchainGatewayV3",
        "label": "dailyWithdrawalLimit",
        "offset": 0,
        "slot": "60",
        "type": "t_mapping(t_address,t_uint256)"
      },
      {
        "astId": 104241,
        "contract": "src/mainchain/MainchainGatewayV3.sol:MainchainGatewayV3",
        "label": "lastSyncedWithdrawal",
        "offset": 0,
        "slot": "61",
        "type": "t_mapping(t_address,t_uint256)"
      },
      {
        "astId": 104246,
        "contract": "src/mainchain/MainchainGatewayV3.sol:MainchainGatewayV3",
        "label": "lastDateSynced",
        "offset": 0,
        "slot": "62",
        "type": "t_mapping(t_address,t_uint256)"
      },
      {
        "astId": 104251,
        "contract": "src/mainchain/MainchainGatewayV3.sol:MainchainGatewayV3",
        "label": "______gap",
        "offset": 0,
        "slot": "63",
        "type": "t_array(t_uint256)50_storage"
      },
      {
        "astId": 58190,
        "contract": "src/mainchain/MainchainGatewayV3.sol:MainchainGatewayV3",
        "label": "_initialized",
        "offset": 0,
        "slot": "113",
        "type": "t_uint8"
      },
      {
        "astId": 58193,
        "contract": "src/mainchain/MainchainGatewayV3.sol:MainchainGatewayV3",
        "label": "_initializing",
        "offset": 1,
        "slot": "113",
        "type": "t_bool"
      },
      {
        "astId": 56841,
        "contract": "src/mainchain/MainchainGatewayV3.sol:MainchainGatewayV3",
        "label": "_roles",
        "offset": 0,
        "slot": "114",
        "type": "t_mapping(t_bytes32,t_struct(RoleData)56836_storage)"
      },
      {
        "astId": 57155,
        "contract": "src/mainchain/MainchainGatewayV3.sol:MainchainGatewayV3",
        "label": "_roleMembers",
        "offset": 0,
        "slot": "115",
        "type": "t_mapping(t_bytes32,t_struct(AddressSet)63339_storage)"
      },
      {
        "astId": 114774,
        "contract": "src/mainchain/MainchainGatewayV3.sol:MainchainGatewayV3",
        "label": "wrappedNativeToken",
        "offset": 0,
        "slot": "116",
        "type": "t_contract(IWETH)109972"
      },
      {
        "astId": 114777,
        "contract": "src/mainchain/MainchainGatewayV3.sol:MainchainGatewayV3",
        "label": "roninChainId",
        "offset": 0,
        "slot": "117",
        "type": "t_uint256"
      },
      {
        "astId": 114780,
        "contract": "src/mainchain/MainchainGatewayV3.sol:MainchainGatewayV3",
        "label": "depositCount",
        "offset": 0,
        "slot": "118",
        "type": "t_uint256"
      },
      {
        "astId": 114783,
        "contract": "src/mainchain/MainchainGatewayV3.sol:MainchainGatewayV3",
        "label": "_domainSeparator",
        "offset": 0,
        "slot": "119",
        "type": "t_bytes32"
      },
      {
        "astId": 114789,
        "contract": "src/mainchain/MainchainGatewayV3.sol:MainchainGatewayV3",
        "label": "_roninToken",
        "offset": 0,
        "slot": "120",
        "type": "t_mapping(t_address,t_struct(MappedToken)110662_storage)"
      },
      {
        "astId": 114794,
        "contract": "src/mainchain/MainchainGatewayV3.sol:MainchainGatewayV3",
        "label": "withdrawalHash",
        "offset": 0,
        "slot": "121",
        "type": "t_mapping(t_uint256,t_bytes32)"
      },
      {
        "astId": 114799,
        "contract": "src/mainchain/MainchainGatewayV3.sol:MainchainGatewayV3",
        "label": "withdrawalLocked",
        "offset": 0,
        "slot": "122",
        "type": "t_mapping(t_uint256,t_bool)"
      },
      {
        "astId": 114802,
        "contract": "src/mainchain/MainchainGatewayV3.sol:MainchainGatewayV3",
        "label": "______deprecatedBridgeOperatorAddedBlock",
        "offset": 0,
        "slot": "123",
        "type": "t_uint256"
      },
      {
        "astId": 114805,
        "contract": "src/mainchain/MainchainGatewayV3.sol:MainchainGatewayV3",
        "label": "______deprecatedBridgeOperators",
        "offset": 0,
        "slot": "124",
        "type": "t_uint256"
      },
      {
        "astId": 114807,
        "contract": "src/mainchain/MainchainGatewayV3.sol:MainchainGatewayV3",
        "label": "_totalOperatorWeight",
        "offset": 0,
        "slot": "125",
        "type": "t_uint96"
      },
      {
        "astId": 114811,
        "contract": "src/mainchain/MainchainGatewayV3.sol:MainchainGatewayV3",
        "label": "_operatorWeight",
        "offset": 0,
        "slot": "126",
        "type": "t_mapping(t_address,t_uint96)"
      },
      {
        "astId": 114814,
        "contract": "src/mainchain/MainchainGatewayV3.sol:MainchainGatewayV3",
        "label": "wethUnwrapper",
        "offset": 0,
        "slot": "127",
        "type": "t_contract(WethUnwrapper)104152"
      }
    ],
    "types": {
      "t_address": {
        "encoding": "inplace",
        "label": "address",
        "numberOfBytes": "20"
      },
      "t_array(t_bytes32)dyn_storage": {
        "encoding": "dynamic_array",
        "label": "bytes32[]",
        "numberOfBytes": "32",
        "base": "t_bytes32"
      },
      "t_array(t_uint256)49_storage": {
        "encoding": "inplace",
        "label": "uint256[49]",
        "numberOfBytes": "1568",
        "base": "t_uint256"
      },
      "t_array(t_uint256)50_storage": {
        "encoding": "inplace",
        "label": "uint256[50]",
        "numberOfBytes": "1600",
        "base": "t_uint256"
      },
      "t_bool": {
        "encoding": "inplace",
        "label": "bool",
        "numberOfBytes": "1"
      },
      "t_bytes32": {
        "encoding": "inplace",
        "label": "bytes32",
        "numberOfBytes": "32"
      },
      "t_contract(IWETH)109972": {
        "encoding": "inplace",
        "label": "contract IWETH",
        "numberOfBytes": "20"
      },
      "t_contract(WethUnwrapper)104152": {
        "encoding": "inplace",
        "label": "contract WethUnwrapper",
        "numberOfBytes": "20"
      },
      "t_enum(TokenStandard)112266": {
        "encoding": "inplace",
        "label": "enum TokenStandard",
        "numberOfBytes": "1"
      },
      "t_mapping(t_address,t_bool)": {
        "encoding": "mapping",
        "key": "t_address",
        "label": "mapping(address => bool)",
        "numberOfBytes": "32",
        "value": "t_bool"
      },
      "t_mapping(t_address,t_struct(MappedToken)110662_storage)": {
        "encoding": "mapping",
        "key": "t_address",
        "label": "mapping(address => struct MappedTokenConsumer.MappedToken)",
        "numberOfBytes": "32",
        "value": "t_struct(MappedToken)110662_storage"
      },
      "t_mapping(t_address,t_uint256)": {
        "encoding": "mapping",
        "key": "t_address",
        "label": "mapping(address => uint256)",
        "numberOfBytes": "32",
        "value": "t_uint256"
      },
      "t_mapping(t_address,t_uint96)": {
        "encoding": "mapping",
        "key": "t_address",
        "label": "mapping(address => uint96)",
        "numberOfBytes": "32",
        "value": "t_uint96"
      },
      "t_mapping(t_bytes32,t_struct(AddressSet)63339_storage)": {
        "encoding": "mapping",
        "key": "t_bytes32",
        "label": "mapping(bytes32 => struct EnumerableSet.AddressSet)",
        "numberOfBytes": "32",
        "value": "t_struct(AddressSet)63339_storage"
      },
      "t_mapping(t_bytes32,t_struct(RoleData)56836_storage)": {
        "encoding": "mapping",
        "key": "t_bytes32",
        "label": "mapping(bytes32 => struct AccessControl.RoleData)",
        "numberOfBytes": "32",
        "value": "t_struct(RoleData)56836_storage"
      },
      "t_mapping(t_bytes32,t_uint256)": {
        "encoding": "mapping",
        "key": "t_bytes32",
        "label": "mapping(bytes32 => uint256)",
        "numberOfBytes": "32",
        "value": "t_uint256"
      },
      "t_mapping(t_uint256,t_bool)": {
        "encoding": "mapping",
        "key": "t_uint256",
        "label": "mapping(uint256 => bool)",
        "numberOfBytes": "32",
        "value": "t_bool"
      },
      "t_mapping(t_uint256,t_bytes32)": {
        "encoding": "mapping",
        "key": "t_uint256",
        "label": "mapping(uint256 => bytes32)",
        "numberOfBytes": "32",
        "value": "t_bytes32"
      },
      "t_struct(AddressSet)63339_storage": {
        "encoding": "inplace",
        "label": "struct EnumerableSet.AddressSet",
        "numberOfBytes": "64",
        "members": [
          {
            "astId": 63338,
            "contract": "src/mainchain/MainchainGatewayV3.sol:MainchainGatewayV3",
            "label": "_inner",
            "offset": 0,
            "slot": "0",
            "type": "t_struct(Set)63038_storage"
          }
        ]
      },
      "t_struct(MappedToken)110662_storage": {
        "encoding": "inplace",
        "label": "struct MappedTokenConsumer.MappedToken",
        "numberOfBytes": "32",
        "members": [
          {
            "astId": 110659,
            "contract": "src/mainchain/MainchainGatewayV3.sol:MainchainGatewayV3",
            "label": "erc",
            "offset": 0,
            "slot": "0",
            "type": "t_enum(TokenStandard)112266"
          },
          {
            "astId": 110661,
            "contract": "src/mainchain/MainchainGatewayV3.sol:MainchainGatewayV3",
            "label": "tokenAddr",
            "offset": 1,
            "slot": "0",
            "type": "t_address"
          }
        ]
      },
      "t_struct(RoleData)56836_storage": {
        "encoding": "inplace",
        "label": "struct AccessControl.RoleData",
        "numberOfBytes": "64",
        "members": [
          {
            "astId": 56833,
            "contract": "src/mainchain/MainchainGatewayV3.sol:MainchainGatewayV3",
            "label": "members",
            "offset": 0,
            "slot": "0",
            "type": "t_mapping(t_address,t_bool)"
          },
          {
            "astId": 56835,
            "contract": "src/mainchain/MainchainGatewayV3.sol:MainchainGatewayV3",
            "label": "adminRole",
            "offset": 0,
            "slot": "1",
            "type": "t_bytes32"
          }
        ]
      },
      "t_struct(Set)63038_storage": {
        "encoding": "inplace",
        "label": "struct EnumerableSet.Set",
        "numberOfBytes": "64",
        "members": [
          {
            "astId": 63033,
            "contract": "src/mainchain/MainchainGatewayV3.sol:MainchainGatewayV3",
            "label": "_values",
            "offset": 0,
            "slot": "0",
            "type": "t_array(t_bytes32)dyn_storage"
          },
          {
            "astId": 63037,
            "contract": "src/mainchain/MainchainGatewayV3.sol:MainchainGatewayV3",
            "label": "_indexes",
            "offset": 0,
            "slot": "1",
            "type": "t_mapping(t_bytes32,t_uint256)"
          }
        ]
      },
      "t_uint256": {
        "encoding": "inplace",
        "label": "uint256",
        "numberOfBytes": "32"
      },
      "t_uint8": {
        "encoding": "inplace",
        "label": "uint8",
        "numberOfBytes": "1"
      },
      "t_uint96": {
        "encoding": "inplace",
        "label": "uint96",
        "numberOfBytes": "12"
      }
    }
  },
  "timestamp": 1713254676,
  "userdoc": {
    "version": 1,
    "kind": "user",
    "methods": {
      "unlockFeePercentages(address)": {
        "notice": "Values 0-1,000,000 map to 0%-100%"
      }
    }
  }
}