{
  "abi": [
    {
      "type": "constructor",
      "inputs": [
        {
          "name": "_logic",
          "type": "address",
          "internalType": "address"
        },
        {
          "name": "admin_",
          "type": "address",
          "internalType": "address"
        },
        {
          "name": "_data",
          "type": "bytes",
          "internalType": "bytes"
        }
      ],
      "stateMutability": "payable"
    },
    {
      "type": "fallback",
      "stateMutability": "payable"
    },
    {
      "type": "receive",
      "stateMutability": "payable"
    },
    {
      "type": "function",
      "name": "admin",
      "inputs": [],
      "outputs": [
        {
          "name": "admin_",
          "type": "address",
          "internalType": "address"
        }
      ],
      "stateMutability": "nonpayable"
    },
    {
      "type": "function",
      "name": "changeAdmin",
      "inputs": [
        {
          "name": "newAdmin",
          "type": "address",
          "internalType": "address"
        }
      ],
      "outputs": [],
      "stateMutability": "nonpayable"
    },
    {
      "type": "function",
      "name": "functionDelegateCall",
      "inputs": [
        {
          "name": "_data",
          "type": "bytes",
          "internalType": "bytes"
        }
      ],
      "outputs": [],
      "stateMutability": "payable"
    },
    {
      "type": "function",
      "name": "implementation",
      "inputs": [],
      "outputs": [
        {
          "name": "implementation_",
          "type": "address",
          "internalType": "address"
        }
      ],
      "stateMutability": "nonpayable"
    },
    {
      "type": "function",
      "name": "upgradeTo",
      "inputs": [
        {
          "name": "newImplementation",
          "type": "address",
          "internalType": "address"
        }
      ],
      "outputs": [],
      "stateMutability": "nonpayable"
    },
    {
      "type": "function",
      "name": "upgradeToAndCall",
      "inputs": [
        {
          "name": "newImplementation",
          "type": "address",
          "internalType": "address"
        },
        {
          "name": "data",
          "type": "bytes",
          "internalType": "bytes"
        }
      ],
      "outputs": [],
      "stateMutability": "payable"
    },
    {
      "type": "event",
      "name": "AdminChanged",
      "inputs": [
        {
          "name": "previousAdmin",
          "type": "address",
          "indexed": false,
          "internalType": "address"
        },
        {
          "name": "newAdmin",
          "type": "address",
          "indexed": false,
          "internalType": "address"
        }
      ],
      "anonymous": false
    },
    {
      "type": "event",
      "name": "BeaconUpgraded",
      "inputs": [
        {
          "name": "beacon",
          "type": "address",
          "indexed": true,
          "internalType": "address"
        }
      ],
      "anonymous": false
    },
    {
      "type": "event",
      "name": "Upgraded",
      "inputs": [
        {
          "name": "implementation",
          "type": "address",
          "indexed": true,
          "internalType": "address"
        }
      ],
      "anonymous": false
    }
  ],
  "address": "0x06855f31dF1d3D25cE486CF09dB49bDa535D2a9e",
  "args": "0x",
  "blockNumber": 5632711,
  "bytecode": "0x608060405260405162000edd38038062000edd83398101604081905262000026916200041a565b8282828281620000398282600062000053565b506200004790508262000085565b5050505050506200054d565b6200005e83620000f7565b6000825111806200006c5750805b1562000080576200007e838362000139565b505b505050565b7f7e644d79422f17c01e4894b5f4f588d331ebfa28653d42ae832dc59e38c9798f620000c760008051602062000e96833981519152546001600160a01b031690565b604080516001600160a01b03928316815291841660208301520160405180910390a1620000f48162000168565b50565b620001028162000206565b6040516001600160a01b038216907fbc7cd75a20ee27fd9adebab32041f755214dbc6bffa90cc0225b39da2e5c2d3b90600090a250565b606062000161838360405180606001604052806027815260200162000eb6602791396200029d565b9392505050565b6001600160a01b038116620001d35760405162461bcd60e51b815260206004820152602660248201527f455243313936373a206e65772061646d696e20697320746865207a65726f206160448201526564647265737360d01b60648201526084015b60405180910390fd5b8060008051602062000e968339815191525b80546001600160a01b0319166001600160a01b039290921691909117905550565b6001600160a01b0381163b620002755760405162461bcd60e51b815260206004820152602d60248201527f455243313936373a206e657720696d706c656d656e746174696f6e206973206e60448201526c1bdd08184818dbdb9d1c9858dd609a1b6064820152608401620001ca565b807f360894a13ba1a3210667c828492db98dca3e2076cc3735a920a3ca505d382bbc620001e5565b60606001600160a01b0384163b620003075760405162461bcd60e51b815260206004820152602660248201527f416464726573733a2064656c65676174652063616c6c20746f206e6f6e2d636f6044820152651b9d1c9858dd60d21b6064820152608401620001ca565b600080856001600160a01b031685604051620003249190620004fa565b600060405180830381855af49150503d806000811462000361576040519150601f19603f3d011682016040523d82523d6000602084013e62000366565b606091505b5090925090506200037982828662000383565b9695505050505050565b606083156200039457508162000161565b825115620003a55782518084602001fd5b8160405162461bcd60e51b8152600401620001ca919062000518565b80516001600160a01b0381168114620003d957600080fd5b919050565b634e487b7160e01b600052604160045260246000fd5b60005b8381101562000411578181015183820152602001620003f7565b50506000910152565b6000806000606084860312156200043057600080fd5b6200043b84620003c1565b92506200044b60208501620003c1565b60408501519092506001600160401b03808211156200046957600080fd5b818601915086601f8301126200047e57600080fd5b815181811115620004935762000493620003de565b604051601f8201601f19908116603f01168101908382118183101715620004be57620004be620003de565b81604052828152896020848701011115620004d857600080fd5b620004eb836020830160208801620003f4565b80955050505050509250925092565b600082516200050e818460208701620003f4565b9190910192915050565b602081526000825180602084015262000539816040850160208701620003f4565b601f01601f19169190910160400192915050565b610939806200055d6000396000f3fe6080604052600436106100595760003560e01c80633659cfe6146100705780634bb5274a146100905780634f1ef286146100a35780635c60da1b146100b65780638f283970146100e7578063f851a4401461010757610068565b366100685761006661011c565b005b61006661011c565b34801561007c57600080fd5b5061006661008b366004610704565b610136565b61006661009e366004610735565b610173565b6100666100b13660046107e6565b6101b8565b3480156100c257600080fd5b506100cb61021f565b6040516001600160a01b03909116815260200160405180910390f35b3480156100f357600080fd5b50610066610102366004610704565b610250565b34801561011357600080fd5b506100cb610270565b610124610291565b61013461012f610326565b610330565b565b61013e61034f565b6001600160a01b0316330361016b5761016881604051806020016040528060008152506000610382565b50565b61016861011c565b61017b61034f565b6001600160a01b0316330361016b576000610194610326565b9050600080835160208501845af43d6000803e8080156101b3573d6000f35b3d6000fd5b6101c061034f565b6001600160a01b03163303610217576102128383838080601f01602080910402602001604051908101604052809392919081815260200183838082843760009201919091525060019250610382915050565b505050565b61021261011c565b600061022961034f565b6001600160a01b0316330361024557610240610326565b905090565b61024d61011c565b90565b61025861034f565b6001600160a01b0316330361016b57610168816103ad565b600061027a61034f565b6001600160a01b031633036102455761024061034f565b61029961034f565b6001600160a01b031633036101345760405162461bcd60e51b815260206004820152604260248201527f5472616e73706172656e745570677261646561626c6550726f78793a2061646d60448201527f696e2063616e6e6f742066616c6c6261636b20746f2070726f78792074617267606482015261195d60f21b608482015260a4015b60405180910390fd5b6000610240610401565b3660008037600080366000845af43d6000803e8080156101b3573d6000f35b60007fb53127684a568b3173ae13b9f8a6016e243e63b6e8ee1178d6a717850b5d61035b546001600160a01b0316919050565b61038b83610429565b6000825111806103985750805b15610212576103a78383610469565b50505050565b7f7e644d79422f17c01e4894b5f4f588d331ebfa28653d42ae832dc59e38c9798f6103d661034f565b604080516001600160a01b03928316815291841660208301520160405180910390a161016881610495565b60007f360894a13ba1a3210667c828492db98dca3e2076cc3735a920a3ca505d382bbc610373565b6104328161053e565b6040516001600160a01b038216907fbc7cd75a20ee27fd9adebab32041f755214dbc6bffa90cc0225b39da2e5c2d3b90600090a250565b606061048e83836040518060600160405280602781526020016108dd602791396105d2565b9392505050565b6001600160a01b0381166104fa5760405162461bcd60e51b815260206004820152602660248201527f455243313936373a206e65772061646d696e20697320746865207a65726f206160448201526564647265737360d01b606482015260840161031d565b807fb53127684a568b3173ae13b9f8a6016e243e63b6e8ee1178d6a717850b5d61035b80546001600160a01b0319166001600160a01b039290921691909117905550565b6001600160a01b0381163b6105ab5760405162461bcd60e51b815260206004820152602d60248201527f455243313936373a206e657720696d706c656d656e746174696f6e206973206e60448201526c1bdd08184818dbdb9d1c9858dd609a1b606482015260840161031d565b807f360894a13ba1a3210667c828492db98dca3e2076cc3735a920a3ca505d382bbc61051d565b60606001600160a01b0384163b61063a5760405162461bcd60e51b815260206004820152602660248201527f416464726573733a2064656c65676174652063616c6c20746f206e6f6e2d636f6044820152651b9d1c9858dd60d21b606482015260840161031d565b600080856001600160a01b031685604051610655919061088d565b600060405180830381855af49150503d8060008114610690576040519150601f19603f3d011682016040523d82523d6000602084013e610695565b606091505b50915091506106a58282866106af565b9695505050505050565b606083156106be57508161048e565b8251156106ce5782518084602001fd5b8160405162461bcd60e51b815260040161031d91906108a9565b80356001600160a01b03811681146106ff57600080fd5b919050565b60006020828403121561071657600080fd5b61048e826106e8565b634e487b7160e01b600052604160045260246000fd5b60006020828403121561074757600080fd5b813567ffffffffffffffff8082111561075f57600080fd5b818401915084601f83011261077357600080fd5b8135818111156107855761078561071f565b604051601f8201601f19908116603f011681019083821181831017156107ad576107ad61071f565b816040528281528760208487010111156107c657600080fd5b826020860160208301376000928101602001929092525095945050505050565b6000806000604084860312156107fb57600080fd5b610804846106e8565b9250602084013567ffffffffffffffff8082111561082157600080fd5b818601915086601f83011261083557600080fd5b81358181111561084457600080fd5b87602082850101111561085657600080fd5b6020830194508093505050509250925092565b60005b8381101561088457818101518382015260200161086c565b50506000910152565b6000825161089f818460208701610869565b9190910192915050565b60208152600082518060208401526108c8816040850160208701610869565b601f01601f1916919091016040019291505056fe416464726573733a206c6f772d6c6576656c2064656c65676174652063616c6c206661696c6564a26469706673582212207368c3c0a1d867bfaee9f126ffe6aed624c9697b9bf746f1d154567963f4a84164736f6c63430008170033b53127684a568b3173ae13b9f8a6016e243e63b6e8ee1178d6a717850b5d6103416464726573733a206c6f772d6c6576656c2064656c65676174652063616c6c206661696c6564",
  "chainId": 11155111,
  "contractAbsolutePath": "TransparentUpgradeableProxyV2.sol:TransparentUpgradeableProxyV2",
  "deployer": "0x31762cdd4Aa65CD6f5F09D7a05a56211720A1168",
  "devdoc": {
    "version": 1,
    "kind": "dev",
    "methods": {
      "admin()": {
        "details": "Returns the current admin. NOTE: Only the admin can call this function. See {ProxyAdmin-getProxyAdmin}. TIP: To get this value clients can read directly from the storage slot shown below (specified by EIP1967) using the https://eth.wiki/json-rpc/API#eth_getstorageat[`eth_getStorageAt`] RPC call. `0xb53127684a568b3173ae13b9f8a6016e243e63b6e8ee1178d6a717850b5d6103`"
      },
      "changeAdmin(address)": {
        "details": "Changes the admin of the proxy. Emits an {AdminChanged} event. NOTE: Only the admin can call this function. See {ProxyAdmin-changeProxyAdmin}."
      },
      "functionDelegateCall(bytes)": {
        "details": "Calls a function from the current implementation as specified by `_data`, which should be an encoded function call. Requirements: - Only the admin can call this function. Note: The proxy admin is not allowed to interact with the proxy logic through the fallback function to avoid triggering some unexpected logic. This is to allow the administrator to explicitly call the proxy, please consider reviewing the encoded data `_data` and the method which is called before using this."
      },
      "implementation()": {
        "details": "Returns the current implementation. NOTE: Only the admin can call this function. See {ProxyAdmin-getProxyImplementation}. TIP: To get this value clients can read directly from the storage slot shown below (specified by EIP1967) using the https://eth.wiki/json-rpc/API#eth_getstorageat[`eth_getStorageAt`] RPC call. `0x360894a13ba1a3210667c828492db98dca3e2076cc3735a920a3ca505d382bbc`"
      },
      "upgradeTo(address)": {
        "details": "Upgrade the implementation of the proxy. NOTE: Only the admin can call this function. See {ProxyAdmin-upgrade}."
      },
      "upgradeToAndCall(address,bytes)": {
        "details": "Upgrade the implementation of the proxy, and then call a function from the new implementation as specified by `data`, which should be an encoded function call. This is useful to initialize new storage variables in the proxied contract. NOTE: Only the admin can call this function. See {ProxyAdmin-upgradeAndCall}."
      }
    },
    "events": {
      "AdminChanged(address,address)": {
        "details": "Emitted when the admin account has changed."
      },
      "BeaconUpgraded(address)": {
        "details": "Emitted when the beacon is upgraded."
      },
      "Upgraded(address)": {
        "details": "Emitted when the implementation is upgraded."
      }
    }
  },
  "isFoundry": true,
  "nonce": 3,
  "numDeployments": 1,
  "storageLayout": {
    "storage": [],
    "types": {}
  },
  "timestamp": 1712300364,
  "userdoc": {
    "version": 1,
    "kind": "user"
  }
}