{
  "abi": [
    {
      "type": "constructor",
      "inputs": [],
      "stateMutability": "nonpayable"
    },
    {
      "type": "function",
      "name": "initialize",
      "inputs": [
        {
          "name": "gateway",
          "type": "address",
          "internalType": "contract MainchainGatewayV3"
        }
      ],
      "outputs": [],
      "stateMutability": "nonpayable"
    },
    {
      "type": "function",
      "name": "onERC1155BatchReceived",
      "inputs": [
        {
          "name": "",
          "type": "address",
          "internalType": "address"
        },
        {
          "name": "",
          "type": "address",
          "internalType": "address"
        },
        {
          "name": "",
          "type": "uint256[]",
          "internalType": "uint256[]"
        },
        {
          "name": "",
          "type": "uint256[]",
          "internalType": "uint256[]"
        },
        {
          "name": "",
          "type": "bytes",
          "internalType": "bytes"
        }
      ],
      "outputs": [
        {
          "name": "",
          "type": "bytes4",
          "internalType": "bytes4"
        }
      ],
      "stateMutability": "nonpayable"
    },
    {
      "type": "function",
      "name": "onERC1155Received",
      "inputs": [
        {
          "name": "",
          "type": "address",
          "internalType": "address"
        },
        {
          "name": "",
          "type": "address",
          "internalType": "address"
        },
        {
          "name": "",
          "type": "uint256",
          "internalType": "uint256"
        },
        {
          "name": "",
          "type": "uint256",
          "internalType": "uint256"
        },
        {
          "name": "",
          "type": "bytes",
          "internalType": "bytes"
        }
      ],
      "outputs": [
        {
          "name": "",
          "type": "bytes4",
          "internalType": "bytes4"
        }
      ],
      "stateMutability": "nonpayable"
    },
    {
      "type": "function",
      "name": "requestDepositForBatch",
      "inputs": [
        {
          "name": "request",
          "type": "tuple",
          "internalType": "struct RequestBatch",
          "components": [
            {
              "name": "recipient",
              "type": "address",
              "internalType": "address"
            },
            {
              "name": "tokenAddr",
              "type": "address",
              "internalType": "address"
            },
            {
              "name": "info",
              "type": "tuple",
              "internalType": "struct TokenInfoBatch",
              "components": [
                {
                  "name": "erc",
                  "type": "uint8",
                  "internalType": "enum TokenStandard"
                },
                {
                  "name": "ids",
                  "type": "uint256[]",
                  "internalType": "uint256[]"
                },
                {
                  "name": "quantities",
                  "type": "uint256[]",
                  "internalType": "uint256[]"
                }
              ]
            }
          ]
        }
      ],
      "outputs": [],
      "stateMutability": "nonpayable"
    },
    {
      "type": "function",
      "name": "supportsInterface",
      "inputs": [
        {
          "name": "interfaceId",
          "type": "bytes4",
          "internalType": "bytes4"
        }
      ],
      "outputs": [
        {
          "name": "",
          "type": "bool",
          "internalType": "bool"
        }
      ],
      "stateMutability": "view"
    },
    {
      "type": "event",
      "name": "BatchDepositRequested",
      "inputs": [
        {
          "name": "requested",
          "type": "address",
          "indexed": true,
          "internalType": "address"
        }
      ],
      "anonymous": false
    },
    {
      "type": "event",
      "name": "Initialized",
      "inputs": [
        {
          "name": "version",
          "type": "uint8",
          "indexed": false,
          "internalType": "uint8"
        }
      ],
      "anonymous": false
    },
    {
      "type": "error",
      "name": "ErrInvalidInfoWithStandard",
      "inputs": [
        {
          "name": "",
          "type": "uint8",
          "internalType": "enum TokenStandard"
        }
      ]
    },
    {
      "type": "error",
      "name": "ErrTokenBatchCouldNotTransferFrom",
      "inputs": [
        {
          "name": "tokenInfo",
          "type": "tuple",
          "internalType": "struct TokenInfoBatch",
          "components": [
            {
              "name": "erc",
              "type": "uint8",
              "internalType": "enum TokenStandard"
            },
            {
              "name": "ids",
              "type": "uint256[]",
              "internalType": "uint256[]"
            },
            {
              "name": "quantities",
              "type": "uint256[]",
              "internalType": "uint256[]"
            }
          ]
        },
        {
          "name": "from",
          "type": "address",
          "internalType": "address"
        },
        {
          "name": "to",
          "type": "address",
          "internalType": "address"
        },
        {
          "name": "token",
          "type": "address",
          "internalType": "address"
        }
      ]
    },
    {
      "type": "error",
      "name": "ErrUnsupportedStandard",
      "inputs": []
    }
  ],
  "address": "0xc53CA32a20AC80A0E126F259a35B22d52B33EBe2",
  "args": "0x",
  "blockNumber": 6049806,
  "bytecode": "0x608060405234801561001057600080fd5b5061001961001e565b6100de565b600054610100900460ff161561008a5760405162461bcd60e51b815260206004820152602760248201527f496e697469616c697a61626c653a20636f6e747261637420697320696e697469604482015266616c697a696e6760c81b606482015260840160405180910390fd5b60005460ff90811610156100dc576000805460ff191660ff9081179091556040519081527f7f26b83ff96e1f2b6a682f133852f6798a09c465da95921460cefb38474024989060200160405180910390a15b565b61103e806100ed6000396000f3fe608060405234801561001057600080fd5b50600436106100575760003560e01c806301ffc9a71461005c5780634d7a06d614610084578063bc197c8114610099578063c4d66de8146100d1578063f23a6e61146100e4575b600080fd5b61006f61006a366004610997565b610103565b60405190151581526020015b60405180910390f35b6100976100923660046109c8565b61013a565b005b6100b86100a7366004610b7b565b63bc197c8160e01b95945050505050565b6040516001600160e01b0319909116815260200161007b565b6100976100df366004610c29565b610290565b6100b86100f2366004610c46565b63f23a6e6160e01b95945050505050565b60006001600160e01b03198216630271189760e51b148061013457506301ffc9a760e01b6001600160e01b03198316145b92915050565b61098d808061016261014f6040860186610caf565b61015d906020810190610ce3565b6103c1565b919450925090506101898361017a6040870187610caf565b61018390610d7e565b9061043e565b6101bc3361019d6040870160208801610c29565b846101ab6040890189610caf565b6101b490610d7e565b92919061046b565b6101cc6040850160208601610c29565b60005460405163a22cb46560e01b81526001600160a01b0362010000909204821660048201526001602482015291169063a22cb46590604401600060405180830381600087803b15801561021f57600080fd5b505af1158015610233573d6000803e3d6000fd5b5050505061025f8461024490610d8a565b6000546201000090046001600160a01b031663ffffffff8416565b60405133907f16046601be35ef10e1935f09b294d0542fcdcadc83acd3d60b4f9ae6d742025d90600090a250505050565b600054610100900460ff16158080156102b05750600054600160ff909116105b806102ca5750303b1580156102ca575060005460ff166001145b6103325760405162461bcd60e51b815260206004820152602e60248201527f496e697469616c697a61626c653a20636f6e747261637420697320616c72656160448201526d191e481a5b9a5d1a585b1a5e995960921b60648201526084015b60405180910390fd5b6000805460ff191660011790558015610355576000805461ff0019166101001790555b6000805462010000600160b01b031916620100006001600160a01b0385160217905580156103bd576000805461ff0019169055604051600181527f7f26b83ff96e1f2b6a682f133852f6798a09c465da95921460cefb38474024989060200160405180910390a15b5050565b61098d808060018460028111156103da576103da610dea565b036103f257506104a591506104de90506104f8610437565b600284600281111561040657610406610dea565b0361041e5750610600915061069890506106af610437565b6040516361e411a760e11b815260040160405180910390fd5b9193909250565b61044b828263ffffffff16565b6103bd5781516040516360ebe40360e11b81526103299190600401610e22565b61047a8484848463ffffffff16565b61049f578383308460405163e4e50f8960e01b81526004016103299493929190610e6c565b50505050565b60006001825160028111156104bc576104bc610dea565b1480156104cd575060208201515115155b801561013457505060400151511590565b60006104f082843087602001516107d7565b949350505050565b6040820151602001515160005b8181101561049f57826001600160a01b0316634b14557e604051806060016040528087600001516001600160a01b0316815260200187602001516001600160a01b031681526020016040518060600160405280896040015160000151600281111561057257610572610dea565b8152602001896040015160200151878151811061059157610591610ee1565b6020026020010151815260200160008152508152506040518263ffffffff1660e01b81526004016105c29190610ef7565b600060405180830381600087803b1580156105dc57600080fd5b505af11580156105f0573d6000803e3d6000fd5b5050600190920191506105059050565b60208101515160009060028351600281111561061e5761061e610dea565b14801561062f575060208301515115155b801561063f575082604001515181145b61064c5750600092915050565b60005b8181101561068e578360400151818151811061066d5761066d610ee1565b6020026020010151600003610686575060009392505050565b60010161064f565b5060019392505050565b60006104f08284308760200151886040015161082b565b6040820151602001515160005b8181101561049f57826001600160a01b0316634b14557e604051806060016040528087600001516001600160a01b0316815260200187602001516001600160a01b031681526020016040518060600160405280896040015160000151600281111561072957610729610dea565b8152602001896040015160200151878151811061074857610748610ee1565b60200260200101518152602001896040015160400151878151811061076f5761076f610ee1565b60200260200101518152508152506040518263ffffffff1660e01b81526004016107999190610ef7565b600060405180830381600087803b1580156107b357600080fd5b505af11580156107c7573d6000803e3d6000fd5b5050600190920191506106bc9050565b6000805b825181101561081f576108098686868685815181106107fc576107fc610ee1565b60200260200101516108df565b6108175760009150506104f0565b6001016107db565b50600195945050505050565b604080516000808252602082019092526001600160a01b0387169061085b90879087908790879060448101610f6c565b60408051601f198184030181529181526020820180516001600160e01b0316631759616b60e11b179052516108909190610fe0565b6000604051808303816000865af19150503d80600081146108cd576040519150601f19603f3d011682016040523d82523d6000602084013e6108d2565b606091505b5090979650505050505050565b604080516001600160a01b0385811660248301528481166044830152606480830185905283518084039091018152608490920183526020820180516001600160e01b03166323b872dd60e01b179052915160009287169161093f91610fe0565b6000604051808303816000865af19150503d806000811461097c576040519150601f19603f3d011682016040523d82523d6000602084013e610981565b606091505b50909695505050505050565b610995610ff2565b565b6000602082840312156109a957600080fd5b81356001600160e01b0319811681146109c157600080fd5b9392505050565b6000602082840312156109da57600080fd5b813567ffffffffffffffff8111156109f157600080fd5b8201606081850312156109c157600080fd5b6001600160a01b0381168114610a1857600080fd5b50565b634e487b7160e01b600052604160045260246000fd5b6040516060810167ffffffffffffffff81118282101715610a5457610a54610a1b565b60405290565b604051601f8201601f1916810167ffffffffffffffff81118282101715610a8357610a83610a1b565b604052919050565b600082601f830112610a9c57600080fd5b8135602067ffffffffffffffff821115610ab857610ab8610a1b565b8160051b610ac7828201610a5a565b9283528481018201928281019087851115610ae157600080fd5b83870192505b84831015610b0057823582529183019190830190610ae7565b979650505050505050565b600082601f830112610b1c57600080fd5b813567ffffffffffffffff811115610b3657610b36610a1b565b610b49601f8201601f1916602001610a5a565b818152846020838601011115610b5e57600080fd5b816020850160208301376000918101602001919091529392505050565b600080600080600060a08688031215610b9357600080fd5b8535610b9e81610a03565b94506020860135610bae81610a03565b9350604086013567ffffffffffffffff80821115610bcb57600080fd5b610bd789838a01610a8b565b94506060880135915080821115610bed57600080fd5b610bf989838a01610a8b565b93506080880135915080821115610c0f57600080fd5b50610c1c88828901610b0b565b9150509295509295909350565b600060208284031215610c3b57600080fd5b81356109c181610a03565b600080600080600060a08688031215610c5e57600080fd5b8535610c6981610a03565b94506020860135610c7981610a03565b93506040860135925060608601359150608086013567ffffffffffffffff811115610ca357600080fd5b610c1c88828901610b0b565b60008235605e19833603018112610cc557600080fd5b9190910192915050565b803560038110610cde57600080fd5b919050565b600060208284031215610cf557600080fd5b6109c182610ccf565b600060608284031215610d1057600080fd5b610d18610a31565b9050610d2382610ccf565b8152602082013567ffffffffffffffff80821115610d4057600080fd5b610d4c85838601610a8b565b60208401526040840135915080821115610d6557600080fd5b50610d7284828501610a8b565b60408301525092915050565b60006101343683610cfe565b600060608236031215610d9c57600080fd5b610da4610a31565b8235610daf81610a03565b81526020830135610dbf81610a03565b6020820152604083013567ffffffffffffffff811115610dde57600080fd5b610d7236828601610cfe565b634e487b7160e01b600052602160045260246000fd5b60038110610e1e57634e487b7160e01b600052602160045260246000fd5b9052565b602081016101348284610e00565b60008151808452602080850194506020840160005b83811015610e6157815187529582019590820190600101610e45565b509495945050505050565b60808152610e7e608082018651610e00565b60006020860151606060a0840152610e9960e0840182610e30565b90506040870151607f198483030160c0850152610eb68282610e30565b6001600160a01b03978816602086015295871660408501525050509216606090920191909152919050565b634e487b7160e01b600052603260045260246000fd5b81516001600160a01b03908116825260208084015190911690820152604080830151805160a0840192610f2d9190850190610e00565b60208101516060840152604081015160808401525092915050565b60005b83811015610f63578181015183820152602001610f4b565b50506000910152565b6001600160a01b0386811682528516602082015260a060408201819052600090610f9890830186610e30565b8281036060840152610faa8186610e30565b905082810360808401528351808252610fca816020840160208801610f48565b601f01601f191601602001979650505050505050565b60008251610cc5818460208701610f48565b634e487b7160e01b600052605160045260246000fdfea26469706673582212200ea1fe4a27c6d631e36cdb5363ee42b4f64c93de46b14c7b937b05ac32a7740864736f6c63430008170033",
  "chainId": 11155111,
  "contractAbsolutePath": "MainchainGatewayBatcher.sol",
  "deployer": "0x968D0Cd7343f711216817E617d3f92a23dC91c07",
  "devdoc": {
    "version": 1,
    "kind": "dev",
    "methods": {
      "requestDepositForBatch((address,address,(uint8,uint256[],uint256[])))": {
        "details": "This method is a workaround that mostly reduce UX for user when deposit token in batch, meanwhile require zero change on the current Gateway code. Logic: - Validate the RequestBatch - `transferFrom` all tokens to this Batcher from user - `requestDepositFor` in the loop for each token, in which:    - each token will be `transferFrom` this Batcher to the Gateway    - `requester` field in the `Request` struct is this Batcher Requirement: - User must `approveAll` tokens for this Batcher - Emit an event that include information of the {RequestBatch}"
      },
      "supportsInterface(bytes4)": {
        "details": "See {IERC165-supportsInterface}."
      }
    },
    "events": {
      "Initialized(uint8)": {
        "details": "Triggered when the contract has been initialized or reinitialized."
      }
    },
    "errors": {
      "ErrTokenBatchCouldNotTransferFrom((uint8,uint256[],uint256[]),address,address,address)": [
        {
          "details": "Error indicating that the `handleAssetIn` has failed.",
          "params": {
            "from": "Owner of the token value.",
            "to": "Receiver of the token value.",
            "token": "Address of the token.",
            "tokenInfo": "Info of the token including ERC standard, id or quantity."
          }
        }
      ],
      "ErrUnsupportedStandard()": [
        {
          "details": "Error indicating that an unsupported standard is encountered."
        }
      ]
    }
  },
  "isFoundry": true,
  "nonce": 30,
  "numDeployments": 2,
  "storageLayout": {
    "storage": [
      {
        "astId": 58190,
        "contract": "src/mainchain/MainchainGatewayBatcher.sol:MainchainGatewayBatcher",
        "label": "_initialized",
        "offset": 0,
        "slot": "0",
        "type": "t_uint8"
      },
      {
        "astId": 58193,
        "contract": "src/mainchain/MainchainGatewayBatcher.sol:MainchainGatewayBatcher",
        "label": "_initializing",
        "offset": 1,
        "slot": "0",
        "type": "t_bool"
      },
      {
        "astId": 116066,
        "contract": "src/mainchain/MainchainGatewayBatcher.sol:MainchainGatewayBatcher",
        "label": "_mainchainGateway",
        "offset": 2,
        "slot": "0",
        "type": "t_contract(MainchainGatewayV3)117809"
      }
    ],
    "types": {
      "t_bool": {
        "encoding": "inplace",
        "label": "bool",
        "numberOfBytes": "1"
      },
      "t_contract(MainchainGatewayV3)117809": {
        "encoding": "inplace",
        "label": "contract MainchainGatewayV3",
        "numberOfBytes": "20"
      },
      "t_uint8": {
        "encoding": "inplace",
        "label": "uint8",
        "numberOfBytes": "1"
      }
    }
  },
  "timestamp": 1717659816,
  "userdoc": {
    "version": 1,
    "kind": "user",
    "methods": {
      "requestDepositForBatch((address,address,(uint8,uint256[],uint256[])))": {
        "notice": "Batch transfer token from user to this Batcher, then sequentially request deposit for to gateway on behalf of user."
      }
    }
  }
}