{
  "abi": [
    {
      "type": "function",
      "name": "DOMAIN_SEPARATOR",
      "inputs": [],
      "outputs": [
        {
          "name": "",
          "type": "bytes32",
          "internalType": "bytes32"
        }
      ],
      "stateMutability": "view"
    },
    {
      "type": "function",
      "name": "addBridgeOperators",
      "inputs": [
        {
          "name": "voteWeights",
          "type": "uint96[]",
          "internalType": "uint96[]"
        },
        {
          "name": "governors",
          "type": "address[]",
          "internalType": "address[]"
        },
        {
          "name": "bridgeOperators",
          "type": "address[]",
          "internalType": "address[]"
        }
      ],
      "outputs": [],
      "stateMutability": "nonpayable"
    },
    {
      "type": "function",
      "name": "checkThreshold",
      "inputs": [
        {
          "name": "voteWeight",
          "type": "uint256",
          "internalType": "uint256"
        }
      ],
      "outputs": [
        {
          "name": "",
          "type": "bool",
          "internalType": "bool"
        }
      ],
      "stateMutability": "view"
    },
    {
      "type": "function",
      "name": "getBridgeOperatorWeight",
      "inputs": [
        {
          "name": "bridgeOperator",
          "type": "address",
          "internalType": "address"
        }
      ],
      "outputs": [
        {
          "name": "weight",
          "type": "uint96",
          "internalType": "uint96"
        }
      ],
      "stateMutability": "view"
    },
    {
      "type": "function",
      "name": "getBridgeOperators",
      "inputs": [],
      "outputs": [
        {
          "name": "",
          "type": "address[]",
          "internalType": "address[]"
        }
      ],
      "stateMutability": "view"
    },
    {
      "type": "function",
      "name": "getCallbackRegisters",
      "inputs": [],
      "outputs": [
        {
          "name": "registers",
          "type": "address[]",
          "internalType": "address[]"
        }
      ],
      "stateMutability": "view"
    },
    {
      "type": "function",
      "name": "getContract",
      "inputs": [
        {
          "name": "contractType",
          "type": "uint8",
          "internalType": "enum ContractType"
        }
      ],
      "outputs": [
        {
          "name": "contract_",
          "type": "address",
          "internalType": "address"
        }
      ],
      "stateMutability": "view"
    },
    {
      "type": "function",
      "name": "getFullBridgeOperatorInfos",
      "inputs": [],
      "outputs": [
        {
          "name": "governors",
          "type": "address[]",
          "internalType": "address[]"
        },
        {
          "name": "bridgeOperators",
          "type": "address[]",
          "internalType": "address[]"
        },
        {
          "name": "weights",
          "type": "uint96[]",
          "internalType": "uint96[]"
        }
      ],
      "stateMutability": "view"
    },
    {
      "type": "function",
      "name": "getGovernorOf",
      "inputs": [
        {
          "name": "operator",
          "type": "address",
          "internalType": "address"
        }
      ],
      "outputs": [
        {
          "name": "governor",
          "type": "address",
          "internalType": "address"
        }
      ],
      "stateMutability": "view"
    },
    {
      "type": "function",
      "name": "getGovernorWeight",
      "inputs": [
        {
          "name": "governor",
          "type": "address",
          "internalType": "address"
        }
      ],
      "outputs": [
        {
          "name": "weight",
          "type": "uint96",
          "internalType": "uint96"
        }
      ],
      "stateMutability": "view"
    },
    {
      "type": "function",
      "name": "getGovernorWeights",
      "inputs": [
        {
          "name": "governors",
          "type": "address[]",
          "internalType": "address[]"
        }
      ],
      "outputs": [
        {
          "name": "weights",
          "type": "uint96[]",
          "internalType": "uint96[]"
        }
      ],
      "stateMutability": "view"
    },
    {
      "type": "function",
      "name": "getGovernors",
      "inputs": [],
      "outputs": [
        {
          "name": "",
          "type": "address[]",
          "internalType": "address[]"
        }
      ],
      "stateMutability": "view"
    },
    {
      "type": "function",
      "name": "getOperatorOf",
      "inputs": [
        {
          "name": "governor",
          "type": "address",
          "internalType": "address"
        }
      ],
      "outputs": [
        {
          "name": "operator",
          "type": "address",
          "internalType": "address"
        }
      ],
      "stateMutability": "view"
    },
    {
      "type": "function",
      "name": "getProposalExpiryDuration",
      "inputs": [],
      "outputs": [
        {
          "name": "",
          "type": "uint256",
          "internalType": "uint256"
        }
      ],
      "stateMutability": "view"
    },
    {
      "type": "function",
      "name": "getThreshold",
      "inputs": [],
      "outputs": [
        {
          "name": "num",
          "type": "uint256",
          "internalType": "uint256"
        },
        {
          "name": "denom",
          "type": "uint256",
          "internalType": "uint256"
        }
      ],
      "stateMutability": "view"
    },
    {
      "type": "function",
      "name": "getTotalWeight",
      "inputs": [],
      "outputs": [
        {
          "name": "",
          "type": "uint256",
          "internalType": "uint256"
        }
      ],
      "stateMutability": "view"
    },
    {
      "type": "function",
      "name": "globalProposalRelayed",
      "inputs": [
        {
          "name": "_round",
          "type": "uint256",
          "internalType": "uint256"
        }
      ],
      "outputs": [
        {
          "name": "",
          "type": "bool",
          "internalType": "bool"
        }
      ],
      "stateMutability": "view"
    },
    {
      "type": "function",
      "name": "initialize",
      "inputs": [
        {
          "name": "num",
          "type": "uint256",
          "internalType": "uint256"
        },
        {
          "name": "denom",
          "type": "uint256",
          "internalType": "uint256"
        },
        {
          "name": "roninChainId",
          "type": "uint256",
          "internalType": "uint256"
        },
        {
          "name": "bridgeContract",
          "type": "address",
          "internalType": "address"
        },
        {
          "name": "callbackRegisters",
          "type": "address[]",
          "internalType": "address[]"
        },
        {
          "name": "bridgeOperators",
          "type": "address[]",
          "internalType": "address[]"
        },
        {
          "name": "governors",
          "type": "address[]",
          "internalType": "address[]"
        },
        {
          "name": "voteWeights",
          "type": "uint96[]",
          "internalType": "uint96[]"
        },
        {
          "name": "targetOptions",
          "type": "uint8[]",
          "internalType": "enum GlobalProposal.TargetOption[]"
        },
        {
          "name": "targets",
          "type": "address[]",
          "internalType": "address[]"
        }
      ],
      "outputs": [],
      "stateMutability": "nonpayable"
    },
    {
      "type": "function",
      "name": "isBridgeOperator",
      "inputs": [
        {
          "name": "addr",
          "type": "address",
          "internalType": "address"
        }
      ],
      "outputs": [
        {
          "name": "",
          "type": "bool",
          "internalType": "bool"
        }
      ],
      "stateMutability": "view"
    },
    {
      "type": "function",
      "name": "minimumVoteWeight",
      "inputs": [],
      "outputs": [
        {
          "name": "",
          "type": "uint256",
          "internalType": "uint256"
        }
      ],
      "stateMutability": "view"
    },
    {
      "type": "function",
      "name": "registerCallbacks",
      "inputs": [
        {
          "name": "registers",
          "type": "address[]",
          "internalType": "address[]"
        }
      ],
      "outputs": [],
      "stateMutability": "nonpayable"
    },
    {
      "type": "function",
      "name": "relayGlobalProposal",
      "inputs": [
        {
          "name": "globalProposal",
          "type": "tuple",
          "internalType": "struct GlobalProposal.GlobalProposalDetail",
          "components": [
            {
              "name": "nonce",
              "type": "uint256",
              "internalType": "uint256"
            },
            {
              "name": "expiryTimestamp",
              "type": "uint256",
              "internalType": "uint256"
            },
            {
              "name": "executor",
              "type": "address",
              "internalType": "address"
            },
            {
              "name": "targetOptions",
              "type": "uint8[]",
              "internalType": "enum GlobalProposal.TargetOption[]"
            },
            {
              "name": "values",
              "type": "uint256[]",
              "internalType": "uint256[]"
            },
            {
              "name": "calldatas",
              "type": "bytes[]",
              "internalType": "bytes[]"
            },
            {
              "name": "gasAmounts",
              "type": "uint256[]",
              "internalType": "uint256[]"
            }
          ]
        },
        {
          "name": "supports_",
          "type": "uint8[]",
          "internalType": "enum Ballot.VoteType[]"
        },
        {
          "name": "signatures",
          "type": "tuple[]",
          "internalType": "struct SignatureConsumer.Signature[]",
          "components": [
            {
              "name": "v",
              "type": "uint8",
              "internalType": "uint8"
            },
            {
              "name": "r",
              "type": "bytes32",
              "internalType": "bytes32"
            },
            {
              "name": "s",
              "type": "bytes32",
              "internalType": "bytes32"
            }
          ]
        }
      ],
      "outputs": [],
      "stateMutability": "nonpayable"
    },
    {
      "type": "function",
      "name": "relayProposal",
      "inputs": [
        {
          "name": "proposal",
          "type": "tuple",
          "internalType": "struct Proposal.ProposalDetail",
          "components": [
            {
              "name": "nonce",
              "type": "uint256",
              "internalType": "uint256"
            },
            {
              "name": "chainId",
              "type": "uint256",
              "internalType": "uint256"
            },
            {
              "name": "expiryTimestamp",
              "type": "uint256",
              "internalType": "uint256"
            },
            {
              "name": "executor",
              "type": "address",
              "internalType": "address"
            },
            {
              "name": "targets",
              "type": "address[]",
              "internalType": "address[]"
            },
            {
              "name": "values",
              "type": "uint256[]",
              "internalType": "uint256[]"
            },
            {
              "name": "calldatas",
              "type": "bytes[]",
              "internalType": "bytes[]"
            },
            {
              "name": "gasAmounts",
              "type": "uint256[]",
              "internalType": "uint256[]"
            }
          ]
        },
        {
          "name": "supports_",
          "type": "uint8[]",
          "internalType": "enum Ballot.VoteType[]"
        },
        {
          "name": "signatures",
          "type": "tuple[]",
          "internalType": "struct SignatureConsumer.Signature[]",
          "components": [
            {
              "name": "v",
              "type": "uint8",
              "internalType": "uint8"
            },
            {
              "name": "r",
              "type": "bytes32",
              "internalType": "bytes32"
            },
            {
              "name": "s",
              "type": "bytes32",
              "internalType": "bytes32"
            }
          ]
        }
      ],
      "outputs": [],
      "stateMutability": "nonpayable"
    },
    {
      "type": "function",
      "name": "removeBridgeOperators",
      "inputs": [
        {
          "name": "bridgeOperators",
          "type": "address[]",
          "internalType": "address[]"
        }
      ],
      "outputs": [],
      "stateMutability": "nonpayable"
    },
    {
      "type": "function",
      "name": "resolveTargets",
      "inputs": [
        {
          "name": "targetOptions",
          "type": "uint8[]",
          "internalType": "enum GlobalProposal.TargetOption[]"
        }
      ],
      "outputs": [
        {
          "name": "targets",
          "type": "address[]",
          "internalType": "address[]"
        }
      ],
      "stateMutability": "view"
    },
    {
      "type": "function",
      "name": "round",
      "inputs": [
        {
          "name": "",
          "type": "uint256",
          "internalType": "uint256"
        }
      ],
      "outputs": [
        {
          "name": "",
          "type": "uint256",
          "internalType": "uint256"
        }
      ],
      "stateMutability": "view"
    },
    {
      "type": "function",
      "name": "setContract",
      "inputs": [
        {
          "name": "contractType",
          "type": "uint8",
          "internalType": "enum ContractType"
        },
        {
          "name": "addr",
          "type": "address",
          "internalType": "address"
        }
      ],
      "outputs": [],
      "stateMutability": "nonpayable"
    },
    {
      "type": "function",
      "name": "setMinRequiredGovernor",
      "inputs": [
        {
          "name": "min",
          "type": "uint256",
          "internalType": "uint256"
        }
      ],
      "outputs": [],
      "stateMutability": "nonpayable"
    },
    {
      "type": "function",
      "name": "setThreshold",
      "inputs": [
        {
          "name": "num",
          "type": "uint256",
          "internalType": "uint256"
        },
        {
          "name": "denom",
          "type": "uint256",
          "internalType": "uint256"
        }
      ],
      "outputs": [],
      "stateMutability": "nonpayable"
    },
    {
      "type": "function",
      "name": "sumGovernorsWeight",
      "inputs": [
        {
          "name": "governors",
          "type": "address[]",
          "internalType": "address[]"
        }
      ],
      "outputs": [
        {
          "name": "sum",
          "type": "uint256",
          "internalType": "uint256"
        }
      ],
      "stateMutability": "view"
    },
    {
      "type": "function",
      "name": "totalBridgeOperator",
      "inputs": [],
      "outputs": [
        {
          "name": "",
          "type": "uint256",
          "internalType": "uint256"
        }
      ],
      "stateMutability": "view"
    },
    {
      "type": "function",
      "name": "unregisterCallbacks",
      "inputs": [
        {
          "name": "registers",
          "type": "address[]",
          "internalType": "address[]"
        }
      ],
      "outputs": [],
      "stateMutability": "nonpayable"
    },
    {
      "type": "function",
      "name": "updateManyTargetOption",
      "inputs": [
        {
          "name": "targetOptions",
          "type": "uint8[]",
          "internalType": "enum GlobalProposal.TargetOption[]"
        },
        {
          "name": "targets",
          "type": "address[]",
          "internalType": "address[]"
        }
      ],
      "outputs": [],
      "stateMutability": "nonpayable"
    },
    {
      "type": "function",
      "name": "vote",
      "inputs": [
        {
          "name": "",
          "type": "uint256",
          "internalType": "uint256"
        },
        {
          "name": "",
          "type": "uint256",
          "internalType": "uint256"
        }
      ],
      "outputs": [
        {
          "name": "status",
          "type": "uint8",
          "internalType": "enum VoteStatusConsumer.VoteStatus"
        },
        {
          "name": "hash",
          "type": "bytes32",
          "internalType": "bytes32"
        },
        {
          "name": "againstVoteWeight",
          "type": "uint256",
          "internalType": "uint256"
        },
        {
          "name": "forVoteWeight",
          "type": "uint256",
          "internalType": "uint256"
        },
        {
          "name": "expiryTimestamp",
          "type": "uint256",
          "internalType": "uint256"
        }
      ],
      "stateMutability": "view"
    },
    {
      "type": "event",
      "name": "BridgeOperatorAddingFailed",
      "inputs": [
        {
          "name": "operator",
          "type": "address",
          "indexed": true,
          "internalType": "address"
        }
      ],
      "anonymous": false
    },
    {
      "type": "event",
      "name": "BridgeOperatorRemovingFailed",
      "inputs": [
        {
          "name": "operator",
          "type": "address",
          "indexed": true,
          "internalType": "address"
        }
      ],
      "anonymous": false
    },
    {
      "type": "event",
      "name": "BridgeOperatorUpdated",
      "inputs": [
        {
          "name": "governor",
          "type": "address",
          "indexed": true,
          "internalType": "address"
        },
        {
          "name": "fromBridgeOperator",
          "type": "address",
          "indexed": true,
          "internalType": "address"
        },
        {
          "name": "toBridgeOperator",
          "type": "address",
          "indexed": true,
          "internalType": "address"
        }
      ],
      "anonymous": false
    },
    {
      "type": "event",
      "name": "BridgeOperatorsAdded",
      "inputs": [
        {
          "name": "statuses",
          "type": "bool[]",
          "indexed": false,
          "internalType": "bool[]"
        },
        {
          "name": "voteWeights",
          "type": "uint96[]",
          "indexed": false,
          "internalType": "uint96[]"
        },
        {
          "name": "governors",
          "type": "address[]",
          "indexed": false,
          "internalType": "address[]"
        },
        {
          "name": "bridgeOperators",
          "type": "address[]",
          "indexed": false,
          "internalType": "address[]"
        }
      ],
      "anonymous": false
    },
    {
      "type": "event",
      "name": "BridgeOperatorsRemoved",
      "inputs": [
        {
          "name": "statuses",
          "type": "bool[]",
          "indexed": false,
          "internalType": "bool[]"
        },
        {
          "name": "bridgeOperators",
          "type": "address[]",
          "indexed": false,
          "internalType": "address[]"
        }
      ],
      "anonymous": false
    },
    {
      "type": "event",
      "name": "CallbackRegistered",
      "inputs": [
        {
          "name": "",
          "type": "address",
          "indexed": false,
          "internalType": "address"
        },
        {
          "name": "",
          "type": "bool",
          "indexed": false,
          "internalType": "bool"
        }
      ],
      "anonymous": false
    },
    {
      "type": "event",
      "name": "ContractUpdated",
      "inputs": [
        {
          "name": "contractType",
          "type": "uint8",
          "indexed": true,
          "internalType": "enum ContractType"
        },
        {
          "name": "addr",
          "type": "address",
          "indexed": true,
          "internalType": "address"
        }
      ],
      "anonymous": false
    },
    {
      "type": "event",
      "name": "GlobalProposalCreated",
      "inputs": [
        {
          "name": "round",
          "type": "uint256",
          "indexed": true,
          "internalType": "uint256"
        },
        {
          "name": "proposalHash",
          "type": "bytes32",
          "indexed": true,
          "internalType": "bytes32"
        },
        {
          "name": "proposal",
          "type": "tuple",
          "indexed": false,
          "internalType": "struct Proposal.ProposalDetail",
          "components": [
            {
              "name": "nonce",
              "type": "uint256",
              "internalType": "uint256"
            },
            {
              "name": "chainId",
              "type": "uint256",
              "internalType": "uint256"
            },
            {
              "name": "expiryTimestamp",
              "type": "uint256",
              "internalType": "uint256"
            },
            {
              "name": "executor",
              "type": "address",
              "internalType": "address"
            },
            {
              "name": "targets",
              "type": "address[]",
              "internalType": "address[]"
            },
            {
              "name": "values",
              "type": "uint256[]",
              "internalType": "uint256[]"
            },
            {
              "name": "calldatas",
              "type": "bytes[]",
              "internalType": "bytes[]"
            },
            {
              "name": "gasAmounts",
              "type": "uint256[]",
              "internalType": "uint256[]"
            }
          ]
        },
        {
          "name": "globalProposalHash",
          "type": "bytes32",
          "indexed": false,
          "internalType": "bytes32"
        },
        {
          "name": "globalProposal",
          "type": "tuple",
          "indexed": false,
          "internalType": "struct GlobalProposal.GlobalProposalDetail",
          "components": [
            {
              "name": "nonce",
              "type": "uint256",
              "internalType": "uint256"
            },
            {
              "name": "expiryTimestamp",
              "type": "uint256",
              "internalType": "uint256"
            },
            {
              "name": "executor",
              "type": "address",
              "internalType": "address"
            },
            {
              "name": "targetOptions",
              "type": "uint8[]",
              "internalType": "enum GlobalProposal.TargetOption[]"
            },
            {
              "name": "values",
              "type": "uint256[]",
              "internalType": "uint256[]"
            },
            {
              "name": "calldatas",
              "type": "bytes[]",
              "internalType": "bytes[]"
            },
            {
              "name": "gasAmounts",
              "type": "uint256[]",
              "internalType": "uint256[]"
            }
          ]
        },
        {
          "name": "creator",
          "type": "address",
          "indexed": false,
          "internalType": "address"
        }
      ],
      "anonymous": false
    },
    {
      "type": "event",
      "name": "Initialized",
      "inputs": [
        {
          "name": "version",
          "type": "uint8",
          "indexed": false,
          "internalType": "uint8"
        }
      ],
      "anonymous": false
    },
    {
      "type": "event",
      "name": "MinRequiredGovernorUpdated",
      "inputs": [
        {
          "name": "min",
          "type": "uint256",
          "indexed": false,
          "internalType": "uint256"
        }
      ],
      "anonymous": false
    },
    {
      "type": "event",
      "name": "Notified",
      "inputs": [
        {
          "name": "callData",
          "type": "bytes",
          "indexed": false,
          "internalType": "bytes"
        },
        {
          "name": "registers",
          "type": "address[]",
          "indexed": false,
          "internalType": "address[]"
        },
        {
          "name": "statuses",
          "type": "bool[]",
          "indexed": false,
          "internalType": "bool[]"
        },
        {
          "name": "returnDatas",
          "type": "bytes[]",
          "indexed": false,
          "internalType": "bytes[]"
        }
      ],
      "anonymous": false
    },
    {
      "type": "event",
      "name": "ProposalApproved",
      "inputs": [
        {
          "name": "proposalHash",
          "type": "bytes32",
          "indexed": true,
          "internalType": "bytes32"
        }
      ],
      "anonymous": false
    },
    {
      "type": "event",
      "name": "ProposalCreated",
      "inputs": [
        {
          "name": "chainId",
          "type": "uint256",
          "indexed": true,
          "internalType": "uint256"
        },
        {
          "name": "round",
          "type": "uint256",
          "indexed": true,
          "internalType": "uint256"
        },
        {
          "name": "proposalHash",
          "type": "bytes32",
          "indexed": true,
          "internalType": "bytes32"
        },
        {
          "name": "proposal",
          "type": "tuple",
          "indexed": false,
          "internalType": "struct Proposal.ProposalDetail",
          "components": [
            {
              "name": "nonce",
              "type": "uint256",
              "internalType": "uint256"
            },
            {
              "name": "chainId",
              "type": "uint256",
              "internalType": "uint256"
            },
            {
              "name": "expiryTimestamp",
              "type": "uint256",
              "internalType": "uint256"
            },
            {
              "name": "executor",
              "type": "address",
              "internalType": "address"
            },
            {
              "name": "targets",
              "type": "address[]",
              "internalType": "address[]"
            },
            {
              "name": "values",
              "type": "uint256[]",
              "internalType": "uint256[]"
            },
            {
              "name": "calldatas",
              "type": "bytes[]",
              "internalType": "bytes[]"
            },
            {
              "name": "gasAmounts",
              "type": "uint256[]",
              "internalType": "uint256[]"
            }
          ]
        },
        {
          "name": "creator",
          "type": "address",
          "indexed": false,
          "internalType": "address"
        }
      ],
      "anonymous": false
    },
    {
      "type": "event",
      "name": "ProposalExecuted",
      "inputs": [
        {
          "name": "proposalHash",
          "type": "bytes32",
          "indexed": true,
          "internalType": "bytes32"
        },
        {
          "name": "successCalls",
          "type": "bool[]",
          "indexed": false,
          "internalType": "bool[]"
        },
        {
          "name": "returnDatas",
          "type": "bytes[]",
          "indexed": false,
          "internalType": "bytes[]"
        }
      ],
      "anonymous": false
    },
    {
      "type": "event",
      "name": "ProposalExpired",
      "inputs": [
        {
          "name": "proposalHash",
          "type": "bytes32",
          "indexed": true,
          "internalType": "bytes32"
        }
      ],
      "anonymous": false
    },
    {
      "type": "event",
      "name": "ProposalExpiryDurationChanged",
      "inputs": [
        {
          "name": "duration",
          "type": "uint256",
          "indexed": true,
          "internalType": "uint256"
        }
      ],
      "anonymous": false
    },
    {
      "type": "event",
      "name": "ProposalRejected",
      "inputs": [
        {
          "name": "proposalHash",
          "type": "bytes32",
          "indexed": true,
          "internalType": "bytes32"
        }
      ],
      "anonymous": false
    },
    {
      "type": "event",
      "name": "ProposalVoted",
      "inputs": [
        {
          "name": "proposalHash",
          "type": "bytes32",
          "indexed": true,
          "internalType": "bytes32"
        },
        {
          "name": "voter",
          "type": "address",
          "indexed": true,
          "internalType": "address"
        },
        {
          "name": "support",
          "type": "uint8",
          "indexed": false,
          "internalType": "enum Ballot.VoteType"
        },
        {
          "name": "weight",
          "type": "uint256",
          "indexed": false,
          "internalType": "uint256"
        }
      ],
      "anonymous": false
    },
    {
      "type": "event",
      "name": "TargetOptionUpdated",
      "inputs": [
        {
          "name": "targetOption",
          "type": "uint8",
          "indexed": true,
          "internalType": "enum GlobalProposal.TargetOption"
        },
        {
          "name": "addr",
          "type": "address",
          "indexed": true,
          "internalType": "address"
        }
      ],
      "anonymous": false
    },
    {
      "type": "event",
      "name": "ThresholdUpdated",
      "inputs": [
        {
          "name": "nonce",
          "type": "uint256",
          "indexed": true,
          "internalType": "uint256"
        },
        {
          "name": "numerator",
          "type": "uint256",
          "indexed": true,
          "internalType": "uint256"
        },
        {
          "name": "denominator",
          "type": "uint256",
          "indexed": true,
          "internalType": "uint256"
        },
        {
          "name": "previousNumerator",
          "type": "uint256",
          "indexed": false,
          "internalType": "uint256"
        },
        {
          "name": "previousDenominator",
          "type": "uint256",
          "indexed": false,
          "internalType": "uint256"
        }
      ],
      "anonymous": false
    },
    {
      "type": "error",
      "name": "ErrBelowMinRequiredGovernors",
      "inputs": []
    },
    {
      "type": "error",
      "name": "ErrContractTypeNotFound",
      "inputs": [
        {
          "name": "contractType",
          "type": "uint8",
          "internalType": "enum ContractType"
        }
      ]
    },
    {
      "type": "error",
      "name": "ErrCurrentProposalIsNotCompleted",
      "inputs": []
    },
    {
      "type": "error",
      "name": "ErrDuplicated",
      "inputs": [
        {
          "name": "msgSig",
          "type": "bytes4",
          "internalType": "bytes4"
        }
      ]
    },
    {
      "type": "error",
      "name": "ErrExistOneInternalCallFailed",
      "inputs": [
        {
          "name": "sender",
          "type": "address",
          "internalType": "address"
        },
        {
          "name": "msgSig",
          "type": "bytes4",
          "internalType": "bytes4"
        },
        {
          "name": "callData",
          "type": "bytes",
          "internalType": "bytes"
        }
      ]
    },
    {
      "type": "error",
      "name": "ErrGovernorNotFound",
      "inputs": [
        {
          "name": "governor",
          "type": "address",
          "internalType": "address"
        }
      ]
    },
    {
      "type": "error",
      "name": "ErrGovernorNotMatch",
      "inputs": [
        {
          "name": "required",
          "type": "address",
          "internalType": "address"
        },
        {
          "name": "sender",
          "type": "address",
          "internalType": "address"
        }
      ]
    },
    {
      "type": "error",
      "name": "ErrInsufficientGas",
      "inputs": [
        {
          "name": "proposalHash",
          "type": "bytes32",
          "internalType": "bytes32"
        }
      ]
    },
    {
      "type": "error",
      "name": "ErrInvalidArguments",
      "inputs": [
        {
          "name": "msgSig",
          "type": "bytes4",
          "internalType": "bytes4"
        }
      ]
    },
    {
      "type": "error",
      "name": "ErrInvalidChainId",
      "inputs": [
        {
          "name": "msgSig",
          "type": "bytes4",
          "internalType": "bytes4"
        },
        {
          "name": "actual",
          "type": "uint256",
          "internalType": "uint256"
        },
        {
          "name": "expected",
          "type": "uint256",
          "internalType": "uint256"
        }
      ]
    },
    {
      "type": "error",
      "name": "ErrInvalidExpiryTimestamp",
      "inputs": []
    },
    {
      "type": "error",
      "name": "ErrInvalidInput",
      "inputs": []
    },
    {
      "type": "error",
      "name": "ErrInvalidOrder",
      "inputs": [
        {
          "name": "msgSig",
          "type": "bytes4",
          "internalType": "bytes4"
        }
      ]
    },
    {
      "type": "error",
      "name": "ErrInvalidProposalNonce",
      "inputs": [
        {
          "name": "msgSig",
          "type": "bytes4",
          "internalType": "bytes4"
        }
      ]
    },
    {
      "type": "error",
      "name": "ErrInvalidThreshold",
      "inputs": [
        {
          "name": "msgSig",
          "type": "bytes4",
          "internalType": "bytes4"
        }
      ]
    },
    {
      "type": "error",
      "name": "ErrInvalidVoteWeight",
      "inputs": [
        {
          "name": "msgSig",
          "type": "bytes4",
          "internalType": "bytes4"
        }
      ]
    },
    {
      "type": "error",
      "name": "ErrLengthMismatch",
      "inputs": [
        {
          "name": "msgSig",
          "type": "bytes4",
          "internalType": "bytes4"
        }
      ]
    },
    {
      "type": "error",
      "name": "ErrLooseProposalInternallyRevert",
      "inputs": [
        {
          "name": "callIndex",
          "type": "uint256",
          "internalType": "uint256"
        },
        {
          "name": "revertMsg",
          "type": "bytes",
          "internalType": "bytes"
        }
      ]
    },
    {
      "type": "error",
      "name": "ErrNonExecutorCannotRelay",
      "inputs": [
        {
          "name": "executor",
          "type": "address",
          "internalType": "address"
        },
        {
          "name": "caller",
          "type": "address",
          "internalType": "address"
        }
      ]
    },
    {
      "type": "error",
      "name": "ErrOnlySelfCall",
      "inputs": [
        {
          "name": "msgSig",
          "type": "bytes4",
          "internalType": "bytes4"
        }
      ]
    },
    {
      "type": "error",
      "name": "ErrOperatorNotFound",
      "inputs": [
        {
          "name": "operator",
          "type": "address",
          "internalType": "address"
        }
      ]
    },
    {
      "type": "error",
      "name": "ErrRelayFailed",
      "inputs": [
        {
          "name": "msgSig",
          "type": "bytes4",
          "internalType": "bytes4"
        }
      ]
    },
    {
      "type": "error",
      "name": "ErrUnauthorized",
      "inputs": [
        {
          "name": "msgSig",
          "type": "bytes4",
          "internalType": "bytes4"
        },
        {
          "name": "expectedRole",
          "type": "uint8",
          "internalType": "enum RoleAccess"
        }
      ]
    },
    {
      "type": "error",
      "name": "ErrUnsupportedInterface",
      "inputs": [
        {
          "name": "interfaceId",
          "type": "bytes4",
          "internalType": "bytes4"
        },
        {
          "name": "addr",
          "type": "address",
          "internalType": "address"
        }
      ]
    },
    {
      "type": "error",
      "name": "ErrUnsupportedVoteType",
      "inputs": [
        {
          "name": "msgSig",
          "type": "bytes4",
          "internalType": "bytes4"
        }
      ]
    },
    {
      "type": "error",
      "name": "ErrVoteIsFinalized",
      "inputs": []
    },
    {
      "type": "error",
      "name": "ErrZeroAddress",
      "inputs": [
        {
          "name": "msgSig",
          "type": "bytes4",
          "internalType": "bytes4"
        }
      ]
    },
    {
      "type": "error",
      "name": "ErrZeroCodeContract",
      "inputs": [
        {
          "name": "addr",
          "type": "address",
          "internalType": "address"
        }
      ]
    }
  ],
  "address": "0x8A6e09c0E369086B3AC219aB66F990b0A7d3E1Da",
  "args": "0x",
  "blockNumber": 5709370,
  "bytecode": "0x60806040523480156200001157600080fd5b506200001c62000022565b620000e4565b600054610100900460ff16156200008f5760405162461bcd60e51b815260206004820152602760248201527f496e697469616c697a61626c653a20636f6e747261637420697320696e697469604482015266616c697a696e6760c81b606482015260840160405180910390fd5b60005460ff9081161015620000e2576000805460ff191660ff9081179091556040519081527f7f26b83ff96e1f2b6a682f133852f6798a09c465da95921460cefb38474024989060200160405180910390a15b565b61519e80620000f46000396000f3fe608060405234801561001057600080fd5b50600436106102065760003560e01c80639b19dbfd1161011a578063cc7e6b3b116100ad578063de981f1b1161007c578063de981f1b146104ae578063e75235b8146104c1578063e9c03498146104de578063f80b5352146104f1578063f896f070146104f957600080fd5b8063cc7e6b3b14610460578063d0a50db014610480578063d78392f814610488578063dafae4081461049b57600080fd5b8063b405aaf2116100e9578063b405aaf21461041b578063b9c362091461042e578063bc96180b14610441578063c441c4a81461044957600080fd5b80639b19dbfd14610392578063a64a83801461039a578063aee1767f146103ad578063b384abef146103c057600080fd5b80633644e5151161019d5780637f7fe0581161016c5780637f7fe05814610303578063800eaab31461032e578063865e6fd3146103415780638dc0dbc614610354578063901979d51461036757600080fd5b80633644e515146102bc57806362077409146102c5578063776fb1ec146102d85780637de5dedd146102fb57600080fd5b80631f425338116101d95780631f425338146102635780632d6d7d731461027657806334d5f37b1461028957806335da8121146102a957600080fd5b806301a5f43f1461020b57806306aba0e1146102205780630a44fa431461023b5780630f7c31891461024e575b600080fd5b61021e610219366004613fd0565b61050c565b005b6102286105bb565b6040519081526020015b60405180910390f35b610228610249366004614069565b6105ca565b61025661064f565b60405161023291906140ef565b61021e610271366004614069565b610668565b610256610284366004614069565b61070a565b610228610297366004614102565b60026020526000908152604090205481565b61021e6102b7366004614069565b610751565b61022860015481565b61021e6102d336600461415f565b610799565b6102eb6102e6366004614102565b6107c9565b6040519015158152602001610232565b610228610816565b610316610311366004614212565b61086c565b6040516001600160a01b039091168152602001610232565b61021e61033c3660046143c4565b6108ed565b61021e61034f366004614436565b610925565b61021e610362366004614469565b610940565b61037a610375366004614212565b61096a565b6040516001600160601b039091168152602001610232565b6102566109a0565b61021e6103a8366004614102565b610a0b565b6103166103bb366004614212565b610a1f565b61040a6103ce3660046144ad565b600360208181526000938452604080852090915291835291208054600182015460028301549383015460069093015460ff909216939092909185565b6040516102329594939291906144e5565b6102eb610429366004614212565b610a31565b61021e61043c3660046144ad565b610a69565b600454610228565b610451610a7b565b60405161023293929190614554565b61047361046e366004614069565b610b55565b6040516102329190614597565b610228610b93565b61037a610496366004614212565b610ba6565b6102eb6104a9366004614102565b610bb1565b6103166104bc3660046145aa565b610c03565b6104c9610c7e565b60408051928352602083019190915201610232565b61021e6104ec366004614069565b610cc6565b610256610d0f565b61021e61050736600461463a565b610d72565b610514610eac565b6105b286868080602002602001604051908101604052809392919081815260200183836020028082843760009201919091525050604080516020808a0282810182019093528982529093508992508891829185019084908082843760009201919091525050604080516020808902828101820190935288825290935088925087918291850190849080828437600092019190915250610f0892505050565b50505050505050565b60006105c561126a565b905090565b600082828080602002602001604051908101604052809392919081815260200183836020028082843760009201919091525061060b925083915061127d9050565b6106478484808060200260200160405190810160405280939291908181526020018383602002808284376000920191909152506112b292505050565b949350505050565b60606105c5600080516020615149833981519152611337565b610670610eac565b8181808060200260200160405190810160405280939291908181526020018383602002808284376000920191909152506106af925083915061127d9050565b60008051602061514983398151915260005b83811015610703576106fa8585838181106106de576106de61475f565b90506020020160208101906106f39190614212565b839061134b565b506001016106c1565b5050505050565b606061074883838080602002602001604051908101604052809392919081815260200183836020028082843760009201829052509250611360915050565b90505b92915050565b610759610eac565b6107958282808060200260200160405190810160405280939291908181526020018383602002808284376000920191909152506114b392505050565b5050565b6107a233611570565b6107bb6107b56060870160408801614212565b336115b2565b61070385858585853361160d565b60008060008381527f3617319a054d772f909f7c479a2cebe5066e836a939412e32403c99029b92eff602052604090205460ff16600481111561080e5761080e6144cf565b141592915050565b600080610821611641565b905060008061082e610c7e565b9150915080600182856004015485610846919061478b565b61085091906147a2565b61085a91906147b5565b61086491906147c8565b935050505090565b600080600061088261087c611641565b85611665565b91509150816108b45760405163141e2e1f60e11b81526001600160a01b03851660048201526024015b60405180910390fd5b6108bc611641565b60010181815481106108d0576108d061475f565b6000918252602090912001546001600160a01b0316949350505050565b33301461091b576000356001600160e01b0319166040516307337e1960e41b81526004016108ab91906147ea565b61079582826116ca565b61092d610eac565b61093681611773565b61079582826117a9565b61094933611570565b61095c6107b56080870160608801614212565b61070385858585853361184d565b600080610975611641565b6001600160a01b0390931660009081526003909301602052505060409020546001600160601b031690565b60606109aa611641565b600101805480602002602001604051908101604052809291908181526020018280548015610a0157602002820191906000526020600020905b81546001600160a01b031681526001909101906020018083116109e3575b5050505050905090565b610a13610eac565b610a1c81611881565b50565b6000610a2a826118ee565b5092915050565b600080610a3c611641565b6001600160a01b0390931660009081526003909301602052505060409020546001600160601b0316151590565b610a71610eac565b610795828261196e565b60608060606000610a8a611641565b805460408051602080840282018101909252828152929350839190830182828015610ade57602002820191906000526020600020905b81546001600160a01b03168152600190910190602001808311610ac0575b5050505050935080600101805480602002602001604051908101604052809291908181526020018280548015610b3d57602002820191906000526020600020905b81546001600160a01b03168152600190910190602001808311610b1f575b50505050509250610b4d84611a70565b915050909192565b6060610748838380806020026020016040519081016040528093929190818152602001838360200280828437600092019190915250611a7092505050565b6000610b9d611641565b60010154919050565b600061074b82611b5c565b60007ff3019750f3837257cd40d215c9cc111e92586d2855a1e7e25d959613ed013f00610bdc61126a565b8160010154610beb919061478b565b6002820154610bfa908561478b565b10159392505050565b60007fdea3103d22025c269050bea94c0c84688877f12fa22b7e6d2d5d78a9a49aa1cb600083600f811115610c3a57610c3a6144cf565b60ff1681526020810191909152604001600020546001600160a01b0316905080610c79578160405163409140df60e11b81526004016108ab91906147ff565b919050565b7ff3019750f3837257cd40d215c9cc111e92586d2855a1e7e25d959613ed013f01547ff3019750f3837257cd40d215c9cc111e92586d2855a1e7e25d959613ed013f02549091565b610cce610eac565b610d0a828280806020026020016040519081016040528093929190818152602001838360200280828437600092019190915250611b9192505050565b505050565b6060610d19611641565b805460408051602080840282018101909252828152929190830182828015610a01576020028201919060005260206000209081546001600160a01b031681526001909101906020018083116109e3575050505050905090565b600054610100900460ff1615808015610d925750600054600160ff909116105b80610dac5750303b158015610dac575060005460ff166001145b610e0f5760405162461bcd60e51b815260206004820152602e60248201527f496e697469616c697a61626c653a20636f6e747261637420697320616c72656160448201526d191e481a5b9a5d1a585b1a5e995960921b60648201526084016108ab565b6000805460ff191660011790558015610e32576000805461ff0019166101001790555b610e3f600160ff1b611f77565b610e498383611fa7565b610e598b8b8b8b8b8b8b8b611fd8565b8015610e9f576000805461ff0019169055604051600181527f7f26b83ff96e1f2b6a682f133852f6798a09c465da95921460cefb38474024989060200160405180910390a15b5050505050505050505050565b7fb53127684a568b3173ae13b9f8a6016e243e63b6e8ee1178d6a717850b5d6103546001600160a01b03163314610f06576000356001600160e01b0319166001604051620f948f60ea1b81526004016108ab929190614819565b565b6060610f148383612029565b610f1d8161127d565b6000610f27611641565b845187519192509081148015610f3d5750855181145b610f68576000356001600160e01b0319166040516306b5667560e21b81526004016108ab91906147ea565b806001600160401b03811115610f8057610f8061422d565b604051908082528060200260200182016040528015610fa9578160200160208202803683370190505b50935080600003610fbb575050611262565b60008060008060005b858110156111ce578a8181518110610fde57610fde61475f565b60200260200101519450898181518110610ffa57610ffa61475f565b602002602001015193508b81815181106110165761101661475f565b6020026020010151925061102985612133565b61103284612133565b826001600160601b031660000361106a576000356001600160e01b031916604051637f11b8a360e11b81526004016108ab91906147ea565b6001600160a01b03808616600081815260038a01602090815260408083205494891683528083205460028d0190925280832054938352909120546001600160601b0393841693918216926110c2929081169116614847565b6110cc9190614847565b6110d69190614847565b6001600160601b03166000148982815181106110f4576110f461475f565b6020026020010190151590811515815250508881815181106111185761111861475f565b6020026020010151156111c6578654600181810189556000898152602080822090930180546001600160a01b03808b166001600160a01b0319928316811790935591835260028c018552604080842080546001600160601b038b166001600160601b03199182168117909255868f018054978801815586528786209096018054948c1694909316841790925591835260038c0190945290208054909116821790556111c390836147a2565b91505b600101610fc4565b50808660040160008282546111e391906147a2565b909155505060405161121e906347c28ec560e11b9061120a908c908f908d9060200161489a565b604051602081830303815290604052612168565b7f897810999654e525e272b5909785c4d0ceaee1bbf9c87d9091a37558b0423b78888c8c8c60405161125394939291906148d3565b60405180910390a15050505050505b509392505050565b6000611274611641565b60040154905090565b61128681612195565b15610a1c576000356001600160e01b031916604051630d697db160e11b81526004016108ab91906147ea565b6000816112be8161127d565b60006112c8611641565b905060005b845181101561132f578160020160008683815181106112ee576112ee61475f565b6020908102919091018101516001600160a01b0316825281019190915260400160002054611325906001600160601b0316856147a2565b93506001016112cd565b505050919050565b6060600061134483612234565b9392505050565b6000610748836001600160a01b038416612290565b606082516001600160401b0381111561137b5761137b61422d565b6040519080825280602002602001820160405280156113a4578160200160208202803683370190505b50905060005b8351811015610a2a57600560008583815181106113c9576113c961475f565b602002602001015160058111156113e2576113e26144cf565b60058111156113f3576113f36144cf565b815260200190815260200160002060009054906101000a90046001600160a01b03168282815181106114275761142761475f565b60200260200101906001600160a01b031690816001600160a01b03168152505082801561147f575060006001600160a01b031682828151811061146c5761146c61475f565b60200260200101516001600160a01b0316145b156114ab576000356001600160e01b03191660405163053265f160e01b81526004016108ab91906147ea565b6001016113aa565b806114bd8161127d565b600080516020615149833981519152600080805b8551811015611568578581815181106114ec576114ec61475f565b602002602001015192506114ff83611773565b611510836312c0151560e21b612383565b61151a8484612516565b604080516001600160a01b038616815282151560208201529193507fb85c58eeff9fe423669ae0841666f4c8499e8731b8275eb462e4fa1720ec420e910160405180910390a16001016114d1565b505050505050565b61157981611b5c565b6001600160601b0316600003610a1c576000356001600160e01b0319166003604051620f948f60ea1b81526004016108ab929190614819565b6001600160a01b038216158015906115dc5750816001600160a01b0316816001600160a01b031614155b15610795576040516301df97c360e51b81526001600160a01b038084166004830152821660248201526044016108ab565b600061162161161b88614a6e565b8361252b565b90506105b2818787878761163c6116378e614a6e565b61263d565b61277c565b7fc648703095712c0419b6431ae642c061f0a105ac2d7c3d9604061ef4ebc3830090565b60008060005b84548110156116b8578481815481106116865761168661475f565b6000918252602090912001546001600160a01b03908116908516036116b0576001925090506116c3565b60010161166b565b506000600019915091505b9250929050565b60005b8251811015610d0a57306001600160a01b03168282815181106116f2576116f261475f565b60200260200101516001600160a01b03160361172f576000356001600160e01b03191660405163053265f160e01b81526004016108ab91906147ea565b61176b8382815181106117445761174461475f565b602002602001015183838151811061175e5761175e61475f565b6020026020010151612c48565b6001016116cd565b806001600160a01b03163b600003610a1c57604051630bfc64a360e21b81526001600160a01b03821660048201526024016108ab565b807fdea3103d22025c269050bea94c0c84688877f12fa22b7e6d2d5d78a9a49aa1cb600084600f8111156117df576117df6144cf565b60ff168152602081019190915260400160002080546001600160a01b0319166001600160a01b03928316179055811682600f811115611820576118206144cf565b6040517f865d1c228a8ea13709cfe61f346f7ff67f1bbd4a18ff31ad3e7147350d317c5990600090a35050565b61185f61185987614b49565b82612cdb565b5061156861186c87614b49565b8686868661163c61187c8d614b49565b612de2565b60038110156118a3576040516305f4dee960e31b815260040160405180910390fd5b60006118ad611641565b600581018390556040518381529091507f22d5bb5059ffe2949a098666fc198587200c8118483074120d3ca7050c7753f19060200160405180910390a15050565b6000806000806119086118ff611641565b60010186611665565b9150915081611935576040516326527e1760e01b81526001600160a01b03861660048201526024016108ab565b61193d611641565b80548290811061194f5761194f61475f565b6000918252602090912001546001600160a01b03169590945092505050565b8082118061197d575060018111155b156119a9576000356001600160e01b0319166040516387f6f09560e01b81526004016108ab91906147ea565b7ff3019750f3837257cd40d215c9cc111e92586d2855a1e7e25d959613ed013f0180547ff3019750f3837257cd40d215c9cc111e92586d2855a1e7e25d959613ed013f028054928590558390557ff3019750f3837257cd40d215c9cc111e92586d2855a1e7e25d959613ed013f00805490929084908690856000611a2c83614c2f565b9091555060408051868152602081018690527f976f8a9c5bdf8248dec172376d6e2b80a8e3df2f0328e381c6db8e1cf138c0f8910160405180910390a45050505050565b60606000611a7c611641565b905082516001600160401b03811115611a9757611a9761422d565b604051908082528060200260200182016040528015611ac0578160200160208202803683370190505b50915060005b8351811015611b5557816002016000858381518110611ae757611ae761475f565b60200260200101516001600160a01b03166001600160a01b0316815260200190815260200160002060009054906101000a90046001600160601b0316838281518110611b3557611b3561475f565b6001600160601b0390921660209283029190910190910152600101611ac6565b5050919050565b6000611b66611641565b6001600160a01b0390921660009081526002929092016020525060409020546001600160601b031690565b606081611b9d8161127d565b6000611ba7611641565b8451909150806001600160401b03811115611bc457611bc461422d565b604051908082528060200260200182016040528015611bed578160200160208202803683370190505b50935080600003611bff575050611f71565b60058201548254611c119083906147b5565b1015611c305760405163b2e765cb60e01b815260040160405180910390fd5b60008060008060005b85811015611ef757898181518110611c5357611c5361475f565b60200260200101519350611c66846118ee565b9095509150611c7485612133565b611c7d84612133565b6001600160a01b03851660009081526002880160205260409020546001600160601b031615801590611cd157506001600160a01b03841660009081526003880160205260409020546001600160601b031615155b898281518110611ce357611ce361475f565b602002602001019015159081151581525050888181518110611d0757611d0761475f565b602002602001015115611eef576001600160a01b038516600090815260028801602052604081205488546001600160601b039091169190611d4a906001906147b5565b9050886000018181548110611d6157611d6161475f565b60009182526020909120015489546001600160a01b03909116908a9086908110611d8d57611d8d61475f565b600091825260209091200180546001600160a01b0319166001600160a01b03929092169190911790558854899080611dc757611dc7614c48565b60008281526020808220830160001990810180546001600160a01b03191690559092019092556001600160a01b038916825260028b0190526040902080546001600160601b031916905560018901805482908110611e2757611e2761475f565b60009182526020909120015460018a0180546001600160a01b039092169186908110611e5557611e5561475f565b9060005260206000200160006101000a8154816001600160a01b0302191690836001600160a01b0316021790555088600101805480611e9657611e96614c48565b60008281526020808220830160001990810180546001600160a01b03191690559092019092556001600160a01b038816825260038b0190526040902080546001600160601b0319169055611eea82866147a2565b945050505b600101611c39565b5081866004016000828254611f0c91906147b5565b9091555050604051611f3190636242a4ef60e11b9061120a908c908c90602001614c5e565b7fdf3dcd7987202f64648f3acdbf12401e3a2bb23e77e19f99826b5475cbb86369888a604051611f62929190614c8c565b60405180910390a15050505050505b50919050565b600054610100900460ff16611f9e5760405162461bcd60e51b81526004016108ab90614cb1565b610a1c81612f2c565b600054610100900460ff16611fce5760405162461bcd60e51b81526004016108ab90614cb1565b6107958282612f5c565b600054610100900460ff16611fff5760405162461bcd60e51b81526004016108ab90614cb1565b6120098888612f8e565b61201284612fe5565b61201f8686858585613015565b5050505050505050565b81518151606091908082016001600160401b0381111561204b5761204b61422d565b604051908082528060200260200182016040528015612074578160200160208202803683370190505b50925060005b828110156120ce578581815181106120945761209461475f565b60200260200101518482815181106120ae576120ae61475f565b6001600160a01b039092166020928302919091019091015260010161207a565b60005b82811015612129578581815181106120eb576120eb61475f565b60200260200101518583815181106121055761210561475f565b6001600160a01b0390921660209283029190910190910152600191820191016120d1565b5050505092915050565b6001600160a01b038116610a1c576000356001600160e01b03191660405163104c66df60e31b81526004016108ab91906147ea565b612172828261313f565b610795573382826040516319b5fdcb60e31b81526004016108ab93929190614d4c565b600081516000036121a857506000919050565b60005b600183510381101561222b57600181015b8351811015612222578381815181106121d7576121d761475f565b60200260200101516001600160a01b03168483815181106121fa576121fa61475f565b60200260200101516001600160a01b03160361221a575060019392505050565b6001016121bc565b506001016121ab565b50600092915050565b60608160000180548060200260200160405190810160405280929190818152602001828054801561228457602002820191906000526020600020905b815481526020019060010190808311612270575b50505050509050919050565b600081815260018301602052604081205480156123795760006122b46001836147b5565b85549091506000906122c8906001906147b5565b905081811461232d5760008660000182815481106122e8576122e861475f565b906000526020600020015490508087600001848154811061230b5761230b61475f565b6000918252602080832090910192909255918252600188019052604090208390555b855486908061233e5761233e614c48565b60019003818190600052602060002001600090559055856001016000868152602001908152602001600020600090556001935050505061074b565b600091505061074b565b60008160405160240161239691906147ea565b60408051601f198184030181529181526020820180516001600160e01b03166301ffc9a760e01b1790525190915060009081906001600160a01b038616906123df908590614d80565b600060405180830381855afa9150503d806000811461241a576040519150601f19603f3d011682016040523d82523d6000602084013e61241f565b606091505b5091509150816124e157846001600160a01b0316836040516024016124449190614d9c565b60408051601f198184030181529181526020820180516001600160e01b03166325da93a560e11b179052516124799190614d80565b600060405180830381855afa9150503d80600081146124b4576040519150601f19603f3d011682016040523d82523d6000602084013e6124b9565b606091505b509092509050816124e157838560405163069d427960e11b81526004016108ab929190614daf565b808060200190518101906124f59190614dd2565b61070357838560405163069d427960e11b81526004016108ab929190614daf565b6000610748836001600160a01b038416613471565b612533613f0c565b61254c61254584606001516001611360565b84906134c0565b9050612563600454826135c690919063ffffffff16565b600061256e82612de2565b9050600061257c6000613667565b60008181527f3617319a054d772f909f7c479a2cebe5066e836a939412e32403c99029b92eff6020908152604090912090870151600182018590556006909101559050825181146125ee576000356001600160e01b03191660405163d4cec26960e01b81526004016108ab91906147ea565b81817fe5af2d3fb7bcab8f865476bc675bf1bbb8b5a749c827ee1cd215dc9c2b8f92d78561261b8961263d565b898960405161262d9493929190614f5d565b60405180910390a3505092915050565b6080810151606082015160a083015151600092919083906001600160401b0381111561266b5761266b61422d565b604051908082528060200260200182016040528015612694578160200160208202803683370190505b5060c086015190915060005b82518110156126f3578660a0015181815181106126bf576126bf61475f565b6020026020010151805190602001208382815181106126e0576126e061475f565b60209081029190910101526001016126a0565b50604080517fde480f0c53a3651c08fbab1dffbc45fe574f31188827fe52cb9035da9fe57e4a8152875160208083019190915280890151828401529790910151606082015283518702938701939093206080840152835186029386019390932060a0830152805185029085012060c082015281518402919093012060e083015250610100902090565b831580159061278a57508382145b6127b5576000356001600160e01b0319166040516306b5667560e21b81526004016108ab91906147ea565b60006128426127c360015490565b612802846000604080517fd900570327c4c0df8dd6bdd522b7da7e39145dd049d2fd4602276adcd511e3c2815260208101939093528201526060902090565b60405161190160f01b6020820152602281018390526042810182905260009060620160405160208183030381529060405280519060200120905092915050565b9050600061289161285260015490565b612802856001604080517fd900570327c4c0df8dd6bdd522b7da7e39145dd049d2fd4602276adcd511e3c2815260208101939093528201526060902090565b90506000846001600160401b038111156128ad576128ad61422d565b6040519080825280602002602001820160405280156128d6578160200160208202803683370190505b5090506000856001600160401b038111156128f3576128f361422d565b60405190808252806020026020018201604052801561291c578160200160208202803683370190505b50905060008060008060003660005b8c811015612ab0578d8d828181106129455761294561475f565b90506060020191508f8f8281811061295f5761295f61475f565b9050602002016020810190612974919061501e565b9250600083600181111561298a5761298a6144cf565b036129f4576129af8b6129a0602085018561503f565b84602001358560400135613703565b94508489886129bd81614c2f565b9950815181106129cf576129cf61475f565b60200260200101906001600160a01b031690816001600160a01b031681525050612a65565b6001836001811115612a0857612a086144cf565b03612a3e57612a1e8a6129a0602085018561503f565b9450848887612a2c81614c2f565b9850815181106129cf576129cf61475f565b6000356001600160e01b031916604051630612418f60e11b81526004016108ab91906147ea565b846001600160a01b0316846001600160a01b031610612aa5576000356001600160e01b031916604051635d3dcd3160e01b81526004016108ab91906147ea565b84935060010161292b565b505050928552508252506020808b015160009081526003825260408082208d51835290925290812090612ae161372b565b90506000612aee85613735565b9050818110612b755780600003612b26576000356001600160e01b031916604051637f11b8a360e11b81526004016108ab91906147ea565b825460ff1916600190811784558301546040517f5c819725ea53655a3b898f3df59b66489761935454e9212ca1e5ebd759953d0b90600090a2612b69838e613740565b50505050505050611568565b600082612b806137ad565b612b8a91906147b5565b612b959060016147a2565b90506000612ba286613735565b9050818110612c215780600003612bda576000356001600160e01b031916604051637f11b8a360e11b81526004016108ab91906147ea565b845460ff1916600317855560018501546040517f55295d4ce992922fa2e5ffbf3a3dcdb367de0a15e125ace083456017fd22060f90600090a2505050505050505050611568565b6000356001600160e01b031916604051634ccfe64360e11b81526004016108ab91906147ea565b8060056000846005811115612c5f57612c5f6144cf565b6005811115612c7057612c706144cf565b8152602081019190915260400160002080546001600160a01b0319166001600160a01b039283161790558116826005811115612cae57612cae6144cf565b6040517f356c8c57e9e84b99b1cb58b13c985b2c979f78cbdf4d0fa70fe2a98bb09a099d90600090a35050565b6020820151600090808203612d1d5760405163092048d160e11b8152600080356001600160e01b031916600483015260248201524660448201526064016108ab565b600454612d2b9085906135c6565b6000612d3685612de2565b9050612d4182613667565b6000838152600360209081526040808320848452909152908190209087015160018201849055600690910155925084518314612d9e576000356001600160e01b03191660405163d4cec26960e01b81526004016108ab91906147ea565b8083837fd1221ffb98610024a29755d7db3c71692310f43a7cfcce7ee488a8c7e9e0bfa48888604051612dd2929190615062565b60405180910390a4505092915050565b60a0810151608082015160c083015151600092919083906001600160401b03811115612e1057612e1061422d565b604051908082528060200260200182016040528015612e39578160200160208202803683370190505b5060e086015190915060005b8251811015612e98578660c001518181518110612e6457612e6461475f565b602002602001015180519060200120838281518110612e8557612e8561475f565b6020908102919091010152600101612e45565b50604080517f1b59eeec7c321899dc1e7a5b3d876c9a445dffc6d2f96ba842d7489908fdee1281528751602080830191909152808901518284015291880151606080830191909152909701516080880152835181029381019390932060a0870152835183029383019390932060c0860152805182029082012060e08501528151810291012061010083015250610120902090565b600054610100900460ff16612f535760405162461bcd60e51b81526004016108ab90614cb1565b610a1c816137b7565b600054610100900460ff16612f835760405162461bcd60e51b81526004016108ab90614cb1565b61091b600030612c48565b600054610100900460ff16612fb55760405162461bcd60e51b81526004016108ab90614cb1565b60017ff3019750f3837257cd40d215c9cc111e92586d2855a1e7e25d959613ed013f00908155610d0a838361196e565b600054610100900460ff1661300c5760405162461bcd60e51b81526004016108ab90614cb1565b610a1c816114b3565b600054610100900460ff1661303c5760405162461bcd60e51b81526004016108ab90614cb1565b6130476002856117a9565b604080516020808201839052600e60608301526d212924a223a2afa6a0a720a3a2a960911b6080808401919091528284018990528351808403909101815260a0830184528051908201207f599a80fcaa47b95e2323ab4d34d34e0cc9feda4b843edafcc30c7bdf60ea15bf60c08401527fe4d2346818310a10fac5a6d073d3dce255578caf4aa81ddcbcc7c2b98405eef060e08401527f2a80e1ef1d7842f27f2e6be0972bb708b9a135c38860dbe73c27c3486c34f4de61010084015261012080840191909152835180840390910181526101409092019092528051910120600155613134818385610f08565b506107036003611881565b6001600061315a600080516020615149833981519152611337565b8051909150600081900361316f57505061074b565b6000816001600160401b038111156131895761318961422d565b6040519080825280602002602001820160405280156131b2578160200160208202803683370190505b5090506000826001600160401b038111156131cf576131cf61422d565b60405190808252806020026020018201604052801561320257816020015b60608152602001906001900390816131ed5790505b5090506000878760405160200161321a92919061508c565b604051602081830303815290604052905060008160405160240161323e9190614d9c565b60408051601f198184030181529190526020810180516001600160e01b03166325da93a560e11b179052905060005b85811015613427578681815181106132875761328761475f565b60200260200101516001600160a01b0316836040516132a69190614d80565b6000604051808303816000865af19150503d80600081146132e3576040519150601f19603f3d011682016040523d82523d6000602084013e6132e8565b606091505b508683815181106132fb576132fb61475f565b602002602001018684815181106133145761331461475f565b602002602001018290528215151515815250505084818151811061333a5761333a61475f565b602002602001015161341f578681815181106133585761335861475f565b60200260200101516001600160a01b0316826040516133779190614d80565b6000604051808303816000865af19150503d80600081146133b4576040519150601f19603f3d011682016040523d82523d6000602084013e6133b9565b606091505b508683815181106133cc576133cc61475f565b602002602001018684815181106133e5576133e561475f565b602002602001018290528215151515815250505087801561341c57508481815181106134135761341361475f565b60200260200101515b97505b60010161326d565b507fc0b07a27e66788f39cc91405f012f34066b16f31b4bda9438c52f2dae0cc5b638287868660405161345d94939291906150bd565b60405180910390a150505050505092915050565b60008181526001830160205260408120546134b85750815460018181018455600084815260208082209093018490558454848252828601909352604090209190915561074b565b50600061074b565b6134c8613f0c565b8251815260006020808301919091528301516040808301919091528301516001600160a01b0316606080830191909152830151516001600160401b038111156135135761351361422d565b60405190808252806020026020018201604052801561353c578160200160208202803683370190505b5060808083019190915283015160a08083019190915283015160c08083019190915283015160e082015260005b836060015151811015610a2a578281815181106135885761358861475f565b6020026020010151826080015182815181106135a6576135a661475f565b6001600160a01b0390921660209283029190910190910152600101613569565b60008260800151511180156135e457508160a0015151826080015151145b80156135f957508160c0015151826080015151145b801561360e57508160e0015151826080015151145b613639576000356001600160e01b0319166040516306b5667560e21b81526004016108ab91906147ea565b61364381426147a2565b826040015111156107955760405163ad89be9d60e01b815260040160405180910390fd5b600081815260026020526040812054908190036136965750600090815260026020526040902060019081905590565b60008281526003602090815260408083208484529091528120906000825460ff1660048111156136c8576136c86144cf565b036136e65760405163757a436360e01b815260040160405180910390fd5b505050600090815260026020526040902080546001019081905590565b60008060006137148787878761399c565b9150915061372181613a89565b5095945050505050565b60006105c5610816565b600061074b826112b2565b61374981613c3f565b1561079557815460ff1916600217825560008061376583613c59565b9150915083600101547fe134987599ae266ec90edeff1b26125b287dbb57b10822649432d1bb26537fba838360405161379f92919061510a565b60405180910390a250505050565b60006105c56105bb565b600481905560405181907fe5cd1c123a8cf63fa1b7229678db61fe8ae99dbbd27889370b6667c8cae97da190600090a250565b600483015481101561389d578260080160008460040183815481106138115761381161475f565b60009182526020808320909101546001600160a01b031683528201929092526040018120805460ff19169055600484018054600786019291908490811061385a5761385a61475f565b60009182526020808320909101546001600160a01b031683528201929092526040018120805460ff191681556001818101839055600290910191909155016137ea565b5060005b6005830154811015613954578260080160008460050183815481106138c8576138c861475f565b60009182526020808320909101546001600160a01b031683528201929092526040018120805460ff1916905560058401805460078601929190849081106139115761391161475f565b60009182526020808320909101546001600160a01b031683528201929092526040018120805460ff191681556001818101839055600290910191909155016138a1565b50815460ff191682556000600183018190556002830181905560038301819055613982906004840190613f5a565b613990600583016000613f5a565b60006006830155919050565b6000807f7fffffffffffffffffffffffffffffff5d576e7357a4501ddfe92f46681b20a08311156139d35750600090506003613a80565b8460ff16601b141580156139eb57508460ff16601c14155b156139fc5750600090506004613a80565b6040805160008082526020820180845289905260ff881692820192909252606081018690526080810185905260019060a0016020604051602081039080840390855afa158015613a50573d6000803e3d6000fd5b5050604051601f1901519150506001600160a01b038116613a7957600060019250925050613a80565b9150600090505b94509492505050565b6000816004811115613a9d57613a9d6144cf565b03613aa55750565b6001816004811115613ab957613ab96144cf565b03613b065760405162461bcd60e51b815260206004820152601860248201527f45434453413a20696e76616c6964207369676e6174757265000000000000000060448201526064016108ab565b6002816004811115613b1a57613b1a6144cf565b03613b675760405162461bcd60e51b815260206004820152601f60248201527f45434453413a20696e76616c6964207369676e6174757265206c656e6774680060448201526064016108ab565b6003816004811115613b7b57613b7b6144cf565b03613bd35760405162461bcd60e51b815260206004820152602260248201527f45434453413a20696e76616c6964207369676e6174757265202773272076616c604482015261756560f01b60648201526084016108ab565b6004816004811115613be757613be76144cf565b03610a1c5760405162461bcd60e51b815260206004820152602260248201527f45434453413a20696e76616c6964207369676e6174757265202776272076616c604482015261756560f01b60648201526084016108ab565b600081602001516000148061074b57505060200151461490565b606080613c6583613c3f565b613ca357602083015160405163092048d160e11b81526000356001600160e01b031916600482015260248101919091524660448201526064016108ab565b8260800151516001600160401b03811115613cc057613cc061422d565b604051908082528060200260200182016040528015613ce9578160200160208202803683370190505b5091508260800151516001600160401b03811115613d0957613d0961422d565b604051908082528060200260200182016040528015613d3c57816020015b6060815260200190600190039081613d275790505b50905060005b836080015151811015613f06578360e001518181518110613d6557613d6561475f565b60200260200101515a11613d9857613d7c84612de2565b6040516307aec4ab60e21b81526004016108ab91815260200190565b83608001518181518110613dae57613dae61475f565b60200260200101516001600160a01b03168460a001518281518110613dd557613dd561475f565b60200260200101518560e001518381518110613df357613df361475f565b6020026020010151908660c001518481518110613e1257613e1261475f565b6020026020010151604051613e279190614d80565b600060405180830381858888f193505050503d8060008114613e65576040519150601f19603f3d011682016040523d82523d6000602084013e613e6a565b606091505b50848381518110613e7d57613e7d61475f565b60200260200101848481518110613e9657613e9661475f565b6020026020010182905282151515158152505050828181518110613ebc57613ebc61475f565b6020026020010151613efe5780828281518110613edb57613edb61475f565b60200260200101516040516376df417560e11b81526004016108ab92919061512f565b600101613d42565b50915091565b60405180610100016040528060008152602001600081526020016000815260200160006001600160a01b03168152602001606081526020016060815260200160608152602001606081525090565b5080546000825590600052602060002090810190610a1c91905b80821115613f885760008155600101613f74565b5090565b60008083601f840112613f9e57600080fd5b5081356001600160401b03811115613fb557600080fd5b6020830191508360208260051b85010111156116c357600080fd5b60008060008060008060608789031215613fe957600080fd5b86356001600160401b038082111561400057600080fd5b61400c8a838b01613f8c565b9098509650602089013591508082111561402557600080fd5b6140318a838b01613f8c565b9096509450604089013591508082111561404a57600080fd5b5061405789828a01613f8c565b979a9699509497509295939492505050565b6000806020838503121561407c57600080fd5b82356001600160401b0381111561409257600080fd5b61409e85828601613f8c565b90969095509350505050565b60008151808452602080850194506020840160005b838110156140e45781516001600160a01b0316875295820195908201906001016140bf565b509495945050505050565b60208152600061074860208301846140aa565b60006020828403121561411457600080fd5b5035919050565b60008083601f84011261412d57600080fd5b5081356001600160401b0381111561414457600080fd5b6020830191508360206060830285010111156116c357600080fd5b60008060008060006060868803121561417757600080fd5b85356001600160401b038082111561418e57600080fd5b9087019060e0828a0312156141a257600080fd5b909550602087013590808211156141b857600080fd5b6141c489838a01613f8c565b909650945060408801359150808211156141dd57600080fd5b506141ea8882890161411b565b969995985093965092949392505050565b80356001600160a01b0381168114610c7957600080fd5b60006020828403121561422457600080fd5b610748826141fb565b634e487b7160e01b600052604160045260246000fd5b60405160e081016001600160401b03811182821017156142655761426561422d565b60405290565b60405161010081016001600160401b03811182821017156142655761426561422d565b604051601f8201601f191681016001600160401b03811182821017156142b6576142b661422d565b604052919050565b60006001600160401b038211156142d7576142d761422d565b5060051b60200190565b600082601f8301126142f257600080fd5b81356020614307614302836142be565b61428e565b8083825260208201915060208460051b87010193508684111561432957600080fd5b602086015b84811015614353578035600681106143465760008081fd5b835291830191830161432e565b509695505050505050565b600082601f83011261436f57600080fd5b8135602061437f614302836142be565b8083825260208201915060208460051b8701019350868411156143a157600080fd5b602086015b84811015614353576143b7816141fb565b83529183019183016143a6565b600080604083850312156143d757600080fd5b82356001600160401b03808211156143ee57600080fd5b6143fa868387016142e1565b9350602085013591508082111561441057600080fd5b5061441d8582860161435e565b9150509250929050565b803560108110610c7957600080fd5b6000806040838503121561444957600080fd5b61445283614427565b9150614460602084016141fb565b90509250929050565b60008060008060006060868803121561448157600080fd5b85356001600160401b038082111561449857600080fd5b90870190610100828a0312156141a257600080fd5b600080604083850312156144c057600080fd5b50508035926020909101359150565b634e487b7160e01b600052602160045260246000fd5b60a08101600587106144f9576144f96144cf565b95815260208101949094526040840192909252606083015260809091015290565b60008151808452602080850194506020840160005b838110156140e45781516001600160601b03168752958201959082019060010161452f565b60608152600061456760608301866140aa565b828103602084015261457981866140aa565b9050828103604084015261458d818561451a565b9695505050505050565b602081526000610748602083018461451a565b6000602082840312156145bc57600080fd5b61074882614427565b600082601f8301126145d657600080fd5b813560206145e6614302836142be565b8083825260208201915060208460051b87010193508684111561460857600080fd5b602086015b848110156143535780356001600160601b038116811461462d5760008081fd5b835291830191830161460d565b6000806000806000806000806000806101408b8d03121561465a57600080fd5b8a35995060208b0135985060408b0135975061467860608c016141fb565b965060808b01356001600160401b038082111561469457600080fd5b6146a08e838f0161435e565b975060a08d01359150808211156146b657600080fd5b6146c28e838f0161435e565b965060c08d01359150808211156146d857600080fd5b6146e48e838f0161435e565b955060e08d01359150808211156146fa57600080fd5b6147068e838f016145c5565b94506101008d013591508082111561471d57600080fd5b6147298e838f016142e1565b93506101208d013591508082111561474057600080fd5b5061474d8d828e0161435e565b9150509295989b9194979a5092959850565b634e487b7160e01b600052603260045260246000fd5b634e487b7160e01b600052601160045260246000fd5b808202811582820484141761074b5761074b614775565b8082018082111561074b5761074b614775565b8181038181111561074b5761074b614775565b6000826147e557634e487b7160e01b600052601260045260246000fd5b500490565b6001600160e01b031991909116815260200190565b6020810160108310614813576148136144cf565b91905290565b6001600160e01b03198316815260408101600b831061483a5761483a6144cf565b8260208301529392505050565b6001600160601b03818116838216019080821115610a2a57610a2a614775565b60008151808452602080850194506020840160005b838110156140e457815115158752958201959082019060010161487c565b6060815260006148ad60608301866140aa565b82810360208401526148bf818661451a565b9050828103604084015261458d8185614867565b6080815260006148e66080830187614867565b82810360208401526148f8818761451a565b9050828103604084015261490c81866140aa565b9050828103606084015261492081856140aa565b979650505050505050565b600082601f83011261493c57600080fd5b8135602061494c614302836142be565b8083825260208201915060208460051b87010193508684111561496e57600080fd5b602086015b848110156143535780358352918301918301614973565b6000601f83601f84011261499d57600080fd5b823560206149ad614302836142be565b82815260059290921b850181019181810190878411156149cc57600080fd5b8287015b84811015614a625780356001600160401b03808211156149f05760008081fd5b818a0191508a603f830112614a055760008081fd5b85820135604082821115614a1b57614a1b61422d565b614a2c828b01601f1916890161428e565b92508183528c81838601011115614a435760008081fd5b81818501898501375060009082018701528452509183019183016149d0565b50979650505050505050565b600060e08236031215614a8057600080fd5b614a88614243565b8235815260208301356020820152614aa2604084016141fb565b604082015260608301356001600160401b0380821115614ac157600080fd5b614acd368387016142e1565b60608401526080850135915080821115614ae657600080fd5b614af23683870161492b565b608084015260a0850135915080821115614b0b57600080fd5b614b173683870161498a565b60a084015260c0850135915080821115614b3057600080fd5b50614b3d3682860161492b565b60c08301525092915050565b60006101008236031215614b5c57600080fd5b614b6461426b565b823581526020830135602082015260408301356040820152614b88606084016141fb565b606082015260808301356001600160401b0380821115614ba757600080fd5b614bb33683870161435e565b608084015260a0850135915080821115614bcc57600080fd5b614bd83683870161492b565b60a084015260c0850135915080821115614bf157600080fd5b614bfd3683870161498a565b60c084015260e0850135915080821115614c1657600080fd5b50614c233682860161492b565b60e08301525092915050565b600060018201614c4157614c41614775565b5060010190565b634e487b7160e01b600052603160045260246000fd5b604081526000614c7160408301856140aa565b8281036020840152614c838185614867565b95945050505050565b604081526000614c9f6040830185614867565b8281036020840152614c8381856140aa565b6020808252602b908201527f496e697469616c697a61626c653a20636f6e7472616374206973206e6f74206960408201526a6e697469616c697a696e6760a81b606082015260800190565b60005b83811015614d17578181015183820152602001614cff565b50506000910152565b60008151808452614d38816020860160208601614cfc565b601f01601f19169290920160200192915050565b6001600160a01b03841681526001600160e01b031983166020820152606060408201819052600090614c8390830184614d20565b60008251614d92818460208701614cfc565b9190910192915050565b6020815260006107486020830184614d20565b6001600160e01b03199290921682526001600160a01b0316602082015260400190565b600060208284031215614de457600080fd5b8151801515811461134457600080fd5b60008151808452602080850194506020840160005b838110156140e457815187529582019590820190600101614e09565b60008282518085526020808601955060208260051b8401016020860160005b84811015614e7257601f19868403018952614e60838351614d20565b98840198925090830190600101614e44565b5090979650505050505050565b60006101008251845260208301516020850152604083015160408501526060830151614eb660608601826001600160a01b03169052565b506080830151816080860152614ece828601826140aa565b91505060a083015184820360a0860152614ee88282614df4565b91505060c083015184820360c0860152614f028282614e25565b91505060e083015184820360e0860152614c838282614df4565b60008151808452602080850194506020840160005b838110156140e457815160068110614f4b57614f4b6144cf565b87529582019590820190600101614f31565b608081526000614f706080830187614e7f565b8560208401528281036040840152845181526020850151602082015260018060a01b036040860151166040820152606085015160e06060830152614fb760e0830182614f1c565b905060808601518282036080840152614fd08282614df4565b91505060a086015182820360a0840152614fea8282614e25565b91505060c086015182820360c08401526150048282614df4565b9350505050614c8360608301846001600160a01b03169052565b60006020828403121561503057600080fd5b81356002811061134457600080fd5b60006020828403121561505157600080fd5b813560ff8116811461134457600080fd5b6040815260006150756040830185614e7f565b905060018060a01b03831660208301529392505050565b6001600160e01b03198316815281516000906150af816004850160208701614cfc565b919091016004019392505050565b6080815260006150d06080830187614d20565b82810360208401526150e281876140aa565b905082810360408401526150f68186614867565b905082810360608401526149208185614e25565b60408152600061511d6040830185614867565b8281036020840152614c838185614e25565b8281526040602082015260006106476040830184614d2056fe5da136eb38f8d8e354915fc8a767c0dc81d49de5fb65d5477122a82ddd976240a26469706673582212200bc26b64e43b490eeae165d45d8ba67887875e399107a0c8239224bc05fd68d764736f6c63430008170033",
  "chainId": 11155111,
  "contractAbsolutePath": "MainchainBridgeManager.sol",
  "deployer": "0x968D0Cd7343f711216817E617d3f92a23dC91c07",
  "devdoc": {
    "version": 1,
    "kind": "dev",
    "methods": {
      "addBridgeOperators(uint96[],address[],address[])": {
        "details": "Adds multiple bridge operators.",
        "params": {
          "bridgeOperators": "An array of addresses representing the bridge operators to add.",
          "governors": "An array of addresses of hot/cold wallets for bridge operator to update their node address."
        }
      },
      "checkThreshold(uint256)": {
        "details": "Checks whether the `_voteWeight` passes the threshold."
      },
      "getBridgeOperatorWeight(address)": {
        "details": "External function to retrieve the vote weight of a specific bridge operator.",
        "params": {
          "bridgeOperator": "The address of the bridge operator to get the vote weight for."
        },
        "returns": {
          "weight": "The vote weight of the specified bridge operator."
        }
      },
      "getBridgeOperators()": {
        "details": "Returns an array of all bridge operators.",
        "returns": {
          "_0": "An array containing the addresses of all bridge operators."
        }
      },
      "getCallbackRegisters()": {
        "details": "Retrieves the addresses of registered callbacks.",
        "returns": {
          "registers": "An array containing the addresses of registered callbacks."
        }
      },
      "getContract(uint8)": {
        "details": "Returns the address of a contract with a specific role. Throws an error if no contract is set for the specified role.",
        "params": {
          "contractType": "The role of the contract to retrieve."
        },
        "returns": {
          "contract_": "The address of the contract with the specified role."
        }
      },
      "getFullBridgeOperatorInfos()": {
        "details": "Retrieves the full information of all registered bridge operators. This external function allows external callers to obtain the full information of all the registered bridge operators. The returned arrays include the addresses of governors, bridge operators, and their corresponding vote weights.",
        "returns": {
          "bridgeOperators": "An array of addresses representing the registered bridge operators.",
          "governors": "An array of addresses representing the governors of each bridge operator.",
          "weights": "An array of uint256 values representing the vote weights of each bridge operator. Note: The length of each array will be the same, and the order of elements corresponds to the same bridge operator. Example Usage: ``` (address[] memory governors, address[] memory bridgeOperators, uint256[] memory weights) = getFullBridgeOperatorInfos(); for (uint256 i = 0; i < bridgeOperators.length; i++) {     // Access individual information for each bridge operator.     address governor = governors[i];     address bridgeOperator = bridgeOperators[i];     uint256 weight = weights[i];     // ... (Process or use the information as required) ... } ```"
        }
      },
      "getGovernorOf(address)": {
        "details": "Returns the corresponding `governor` of a `operator`."
      },
      "getGovernorWeight(address)": {
        "details": "External function to retrieve the vote weight of a specific governor.",
        "params": {
          "governor": "The address of the governor to get the vote weight for."
        },
        "returns": {
          "weight": "voteWeight The vote weight of the specified governor."
        }
      },
      "getGovernorWeights(address[])": {
        "details": "Returns the weights of a list of governor addresses."
      },
      "getGovernors()": {
        "details": "Returns an array of all governors.",
        "returns": {
          "_0": "An array containing the addresses of all governors."
        }
      },
      "getOperatorOf(address)": {
        "details": "Returns the corresponding `operator` of a `governor`."
      },
      "getProposalExpiryDuration()": {
        "details": "Returns the expiry duration for a new proposal."
      },
      "getThreshold()": {
        "details": "Returns the threshold."
      },
      "getTotalWeight()": {
        "details": "Returns total weights."
      },
      "globalProposalRelayed(uint256)": {
        "details": "Returns whether the voter `_voter` casted vote for the proposal."
      },
      "isBridgeOperator(address)": {
        "details": "Checks if the given address is a bridge operator.",
        "params": {
          "addr": "The address to check."
        },
        "returns": {
          "_0": "A boolean indicating whether the address is a bridge operator."
        }
      },
      "minimumVoteWeight()": {
        "details": "Returns the minimum vote weight to pass the threshold."
      },
      "registerCallbacks(address[])": {
        "details": "Registers multiple callbacks with the bridge.",
        "params": {
          "registers": "The array of callback addresses to register."
        }
      },
      "relayGlobalProposal((uint256,uint256,address,uint8[],uint256[],bytes[],uint256[]),uint8[],(uint8,bytes32,bytes32)[])": {
        "details": "See `GovernanceRelay-_relayGlobalProposal`.  Requirements: - The method caller is governor."
      },
      "relayProposal((uint256,uint256,uint256,address,address[],uint256[],bytes[],uint256[]),uint8[],(uint8,bytes32,bytes32)[])": {
        "details": "See `GovernanceRelay-_relayProposal`. Requirements: - The method caller is governor."
      },
      "removeBridgeOperators(address[])": {
        "details": "Removes multiple bridge operators.",
        "params": {
          "bridgeOperators": "An array of addresses representing the bridge operators to remove."
        }
      },
      "resolveTargets(uint8[])": {
        "details": "Returns corresponding address of target options. Return address(0) on non-existent target."
      },
      "setContract(uint8,address)": {
        "details": "Sets the address of a contract with a specific role. Emits the event {ContractUpdated}.",
        "params": {
          "addr": "The address of the contract to set.",
          "contractType": "The role of the contract to set."
        }
      },
      "setMinRequiredGovernor(uint256)": {
        "details": "Self-call to update the minimum required governor.",
        "params": {
          "min": "The minimum number, this must not less than 3."
        }
      },
      "setThreshold(uint256,uint256)": {
        "details": "Sets the threshold. Requirements: - The method caller is admin. Emits the `ThresholdUpdated` event."
      },
      "sumGovernorsWeight(address[])": {
        "details": "Returns total weights of the governor list."
      },
      "totalBridgeOperator()": {
        "details": "Returns the total number of bridge operators.",
        "returns": {
          "_0": "The total number of bridge operators."
        }
      },
      "unregisterCallbacks(address[])": {
        "details": "Unregisters multiple callbacks from the bridge.",
        "params": {
          "registers": "The array of callback addresses to unregister."
        }
      },
      "updateManyTargetOption(uint8[],address[])": {
        "details": "Updates list of `targetOptions` to `targets`. Requirement: - Only allow self-call through proposal."
      }
    },
    "events": {
      "BridgeOperatorAddingFailed(address)": {
        "details": "Emitted when a bridge operator is failed to add."
      },
      "BridgeOperatorRemovingFailed(address)": {
        "details": "Emitted when a bridge operator is failed to remove."
      },
      "BridgeOperatorUpdated(address,address,address)": {
        "details": "Emitted when a bridge operator is updated."
      },
      "BridgeOperatorsAdded(bool[],uint96[],address[],address[])": {
        "details": "Emitted when new bridge operators are added."
      },
      "BridgeOperatorsRemoved(bool[],address[])": {
        "details": "Emitted when bridge operators are removed."
      },
      "ContractUpdated(uint8,address)": {
        "details": "Emitted when a contract is updated."
      },
      "GlobalProposalCreated(uint256,bytes32,(uint256,uint256,uint256,address,address[],uint256[],bytes[],uint256[]),bytes32,(uint256,uint256,address,uint8[],uint256[],bytes[],uint256[]),address)": {
        "details": "Emitted when a proposal is created"
      },
      "Initialized(uint8)": {
        "details": "Triggered when the contract has been initialized or reinitialized."
      },
      "MinRequiredGovernorUpdated(uint256)": {
        "details": "Emitted when the minimum number of required governors is updated."
      },
      "Notified(bytes,address[],bool[],bytes[])": {
        "details": "Emitted when the contract notifies multiple registers with statuses and return data."
      },
      "ProposalApproved(bytes32)": {
        "details": "Emitted when the proposal is approved"
      },
      "ProposalCreated(uint256,uint256,bytes32,(uint256,uint256,uint256,address,address[],uint256[],bytes[],uint256[]),address)": {
        "details": "Emitted when a proposal is created"
      },
      "ProposalExecuted(bytes32,bool[],bytes[])": {
        "details": "Emitted when the proposal is executed"
      },
      "ProposalExpired(bytes32)": {
        "details": "Emitted when the vote is expired"
      },
      "ProposalExpiryDurationChanged(uint256)": {
        "details": "Emitted when the proposal expiry duration is changed."
      },
      "ProposalRejected(bytes32)": {
        "details": "Emitted when the vote is reject"
      },
      "ProposalVoted(bytes32,address,uint8,uint256)": {
        "details": "Emitted when the proposal is voted"
      },
      "TargetOptionUpdated(uint8,address)": {
        "details": "Emitted when the target options are updated"
      },
      "ThresholdUpdated(uint256,uint256,uint256,uint256,uint256)": {
        "details": "Emitted when the threshold is updated"
      }
    },
    "errors": {
      "ErrContractTypeNotFound(uint8)": [
        {
          "details": "Error of invalid role."
        }
      ],
      "ErrCurrentProposalIsNotCompleted()": [
        {
          "details": "Error thrown when the current proposal is not completed."
        }
      ],
      "ErrDuplicated(bytes4)": [
        {
          "details": "Error thrown when a duplicated element is detected in an array.",
          "params": {
            "msgSig": "The function signature that invoke the error."
          }
        }
      ],
      "ErrInsufficientGas(bytes32)": [
        {
          "details": "Error thrown when there is insufficient gas to execute a function."
        }
      ],
      "ErrInvalidArguments(bytes4)": [
        {
          "details": "Error indicating that arguments are invalid."
        }
      ],
      "ErrInvalidChainId(bytes4,uint256,uint256)": [
        {
          "details": "Error indicating that the chain ID is invalid.",
          "params": {
            "actual": "Current chain ID that executing function.",
            "expected": "Expected chain ID required for the tx to success.",
            "msgSig": "The function signature (bytes4) of the operation that encountered an invalid chain ID."
          }
        }
      ],
      "ErrInvalidExpiryTimestamp()": [
        {
          "details": "Error thrown when an invalid expiry timestamp is provided."
        }
      ],
      "ErrInvalidOrder(bytes4)": [
        {
          "details": "Error indicating that an order is invalid.",
          "params": {
            "msgSig": "The function signature (bytes4) of the operation that encountered an invalid order."
          }
        }
      ],
      "ErrInvalidProposalNonce(bytes4)": [
        {
          "details": "Error indicating that the proposal nonce is invalid.",
          "params": {
            "msgSig": "The function signature (bytes4) of the operation that encountered an invalid proposal nonce."
          }
        }
      ],
      "ErrInvalidThreshold(bytes4)": [
        {
          "details": "Error indicating that the provided threshold is invalid for a specific function signature.",
          "params": {
            "msgSig": "The function signature (bytes4) that the invalid threshold applies to."
          }
        }
      ],
      "ErrInvalidVoteWeight(bytes4)": [
        {
          "details": "Error indicating that a vote weight is invalid for a specific function signature.",
          "params": {
            "msgSig": "The function signature (bytes4) that encountered an invalid vote weight."
          }
        }
      ],
      "ErrLengthMismatch(bytes4)": [
        {
          "details": "Error indicating a mismatch in the length of input parameters or arrays for a specific function.",
          "params": {
            "msgSig": "The function signature (bytes4) that has a length mismatch."
          }
        }
      ],
      "ErrLooseProposalInternallyRevert(uint256,bytes)": [
        {
          "details": "Error thrown when the proposal reverts when execute the internal call no. `callIndex` with revert message is `revertMsg`."
        }
      ],
      "ErrNonExecutorCannotRelay(address,address)": [
        {
          "details": "Error of the `caller` to relay is not the specified `executor`."
        }
      ],
      "ErrOnlySelfCall(bytes4)": [
        {
          "details": "Error indicating that a function can only be called by the contract itself.",
          "params": {
            "msgSig": "The function signature (bytes4) that can only be called by the contract itself."
          }
        }
      ],
      "ErrRelayFailed(bytes4)": [
        {
          "details": "Error indicating that a relay call has failed.",
          "params": {
            "msgSig": "The function signature (bytes4) of the relay call that failed."
          }
        }
      ],
      "ErrUnauthorized(bytes4,uint8)": [
        {
          "details": "Error indicating that the caller is unauthorized to perform a specific function.",
          "params": {
            "expectedRole": "The role required to perform the function.",
            "msgSig": "The function signature (bytes4) that the caller is unauthorized to perform."
          }
        }
      ],
      "ErrUnsupportedInterface(bytes4,address)": [
        {
          "details": "The error indicating an unsupported interface.",
          "params": {
            "addr": "The address where the unsupported interface was encountered.",
            "interfaceId": "The bytes4 interface identifier that is not supported."
          }
        }
      ],
      "ErrUnsupportedVoteType(bytes4)": [
        {
          "details": "Error indicating that a vote type is not supported.",
          "params": {
            "msgSig": "The function signature (bytes4) of the operation that encountered an unsupported vote type."
          }
        }
      ],
      "ErrVoteIsFinalized()": [
        {
          "details": "Error thrown when attempting to interact with a finalized vote."
        }
      ],
      "ErrZeroAddress(bytes4)": [
        {
          "details": "Error indicating that given address is null when it should not."
        }
      ],
      "ErrZeroCodeContract(address)": [
        {
          "details": "Error of set to non-contract."
        }
      ]
    }
  },
  "isFoundry": true,
  "nonce": 21,
  "numDeployments": 2,
  "storageLayout": {
    "storage": [
      {
        "astId": 58190,
        "contract": "src/mainchain/MainchainBridgeManager.sol:MainchainBridgeManager",
        "label": "_initialized",
        "offset": 0,
        "slot": "0",
        "type": "t_uint8"
      },
      {
        "astId": 58193,
        "contract": "src/mainchain/MainchainBridgeManager.sol:MainchainBridgeManager",
        "label": "_initializing",
        "offset": 1,
        "slot": "0",
        "type": "t_bool"
      },
      {
        "astId": 104934,
        "contract": "src/mainchain/MainchainBridgeManager.sol:MainchainBridgeManager",
        "label": "DOMAIN_SEPARATOR",
        "offset": 0,
        "slot": "1",
        "type": "t_bytes32"
      },
      {
        "astId": 106983,
        "contract": "src/mainchain/MainchainBridgeManager.sol:MainchainBridgeManager",
        "label": "round",
        "offset": 0,
        "slot": "2",
        "type": "t_mapping(t_uint256,t_uint256)"
      },
      {
        "astId": 106991,
        "contract": "src/mainchain/MainchainBridgeManager.sol:MainchainBridgeManager",
        "label": "vote",
        "offset": 0,
        "slot": "3",
        "type": "t_mapping(t_uint256,t_mapping(t_uint256,t_struct(ProposalVote)106921_storage))"
      },
      {
        "astId": 106993,
        "contract": "src/mainchain/MainchainBridgeManager.sol:MainchainBridgeManager",
        "label": "_proposalExpiryDuration",
        "offset": 0,
        "slot": "4",
        "type": "t_uint256"
      },
      {
        "astId": 107715,
        "contract": "src/mainchain/MainchainBridgeManager.sol:MainchainBridgeManager",
        "label": "_targetOptionsMap",
        "offset": 0,
        "slot": "5",
        "type": "t_mapping(t_enum(TargetOption)111729,t_address)"
      }
    ],
    "types": {
      "t_address": {
        "encoding": "inplace",
        "label": "address",
        "numberOfBytes": "20"
      },
      "t_array(t_address)dyn_storage": {
        "encoding": "dynamic_array",
        "label": "address[]",
        "numberOfBytes": "32",
        "base": "t_address"
      },
      "t_bool": {
        "encoding": "inplace",
        "label": "bool",
        "numberOfBytes": "1"
      },
      "t_bytes32": {
        "encoding": "inplace",
        "label": "bytes32",
        "numberOfBytes": "32"
      },
      "t_enum(TargetOption)111729": {
        "encoding": "inplace",
        "label": "enum GlobalProposal.TargetOption",
        "numberOfBytes": "1"
      },
      "t_enum(VoteStatus)110681": {
        "encoding": "inplace",
        "label": "enum VoteStatusConsumer.VoteStatus",
        "numberOfBytes": "1"
      },
      "t_mapping(t_address,t_bool)": {
        "encoding": "mapping",
        "key": "t_address",
        "label": "mapping(address => bool)",
        "numberOfBytes": "32",
        "value": "t_bool"
      },
      "t_mapping(t_address,t_struct(Signature)110672_storage)": {
        "encoding": "mapping",
        "key": "t_address",
        "label": "mapping(address => struct SignatureConsumer.Signature)",
        "numberOfBytes": "32",
        "value": "t_struct(Signature)110672_storage"
      },
      "t_mapping(t_enum(TargetOption)111729,t_address)": {
        "encoding": "mapping",
        "key": "t_enum(TargetOption)111729",
        "label": "mapping(enum GlobalProposal.TargetOption => address)",
        "numberOfBytes": "32",
        "value": "t_address"
      },
      "t_mapping(t_uint256,t_mapping(t_uint256,t_struct(ProposalVote)106921_storage))": {
        "encoding": "mapping",
        "key": "t_uint256",
        "label": "mapping(uint256 => mapping(uint256 => struct CoreGovernance.ProposalVote))",
        "numberOfBytes": "32",
        "value": "t_mapping(t_uint256,t_struct(ProposalVote)106921_storage)"
      },
      "t_mapping(t_uint256,t_struct(ProposalVote)106921_storage)": {
        "encoding": "mapping",
        "key": "t_uint256",
        "label": "mapping(uint256 => struct CoreGovernance.ProposalVote)",
        "numberOfBytes": "32",
        "value": "t_struct(ProposalVote)106921_storage"
      },
      "t_mapping(t_uint256,t_uint256)": {
        "encoding": "mapping",
        "key": "t_uint256",
        "label": "mapping(uint256 => uint256)",
        "numberOfBytes": "32",
        "value": "t_uint256"
      },
      "t_struct(ProposalVote)106921_storage": {
        "encoding": "inplace",
        "label": "struct CoreGovernance.ProposalVote",
        "numberOfBytes": "288",
        "members": [
          {
            "astId": 106897,
            "contract": "src/mainchain/MainchainBridgeManager.sol:MainchainBridgeManager",
            "label": "status",
            "offset": 0,
            "slot": "0",
            "type": "t_enum(VoteStatus)110681"
          },
          {
            "astId": 106899,
            "contract": "src/mainchain/MainchainBridgeManager.sol:MainchainBridgeManager",
            "label": "hash",
            "offset": 0,
            "slot": "1",
            "type": "t_bytes32"
          },
          {
            "astId": 106901,
            "contract": "src/mainchain/MainchainBridgeManager.sol:MainchainBridgeManager",
            "label": "againstVoteWeight",
            "offset": 0,
            "slot": "2",
            "type": "t_uint256"
          },
          {
            "astId": 106903,
            "contract": "src/mainchain/MainchainBridgeManager.sol:MainchainBridgeManager",
            "label": "forVoteWeight",
            "offset": 0,
            "slot": "3",
            "type": "t_uint256"
          },
          {
            "astId": 106906,
            "contract": "src/mainchain/MainchainBridgeManager.sol:MainchainBridgeManager",
            "label": "forVoteds",
            "offset": 0,
            "slot": "4",
            "type": "t_array(t_address)dyn_storage"
          },
          {
            "astId": 106909,
            "contract": "src/mainchain/MainchainBridgeManager.sol:MainchainBridgeManager",
            "label": "againstVoteds",
            "offset": 0,
            "slot": "5",
            "type": "t_array(t_address)dyn_storage"
          },
          {
            "astId": 106911,
            "contract": "src/mainchain/MainchainBridgeManager.sol:MainchainBridgeManager",
            "label": "expiryTimestamp",
            "offset": 0,
            "slot": "6",
            "type": "t_uint256"
          },
          {
            "astId": 106916,
            "contract": "src/mainchain/MainchainBridgeManager.sol:MainchainBridgeManager",
            "label": "sig",
            "offset": 0,
            "slot": "7",
            "type": "t_mapping(t_address,t_struct(Signature)110672_storage)"
          },
          {
            "astId": 106920,
            "contract": "src/mainchain/MainchainBridgeManager.sol:MainchainBridgeManager",
            "label": "voted",
            "offset": 0,
            "slot": "8",
            "type": "t_mapping(t_address,t_bool)"
          }
        ]
      },
      "t_struct(Signature)110672_storage": {
        "encoding": "inplace",
        "label": "struct SignatureConsumer.Signature",
        "numberOfBytes": "96",
        "members": [
          {
            "astId": 110667,
            "contract": "src/mainchain/MainchainBridgeManager.sol:MainchainBridgeManager",
            "label": "v",
            "offset": 0,
            "slot": "0",
            "type": "t_uint8"
          },
          {
            "astId": 110669,
            "contract": "src/mainchain/MainchainBridgeManager.sol:MainchainBridgeManager",
            "label": "r",
            "offset": 0,
            "slot": "1",
            "type": "t_bytes32"
          },
          {
            "astId": 110671,
            "contract": "src/mainchain/MainchainBridgeManager.sol:MainchainBridgeManager",
            "label": "s",
            "offset": 0,
            "slot": "2",
            "type": "t_bytes32"
          }
        ]
      },
      "t_uint256": {
        "encoding": "inplace",
        "label": "uint256",
        "numberOfBytes": "32"
      },
      "t_uint8": {
        "encoding": "inplace",
        "label": "uint8",
        "numberOfBytes": "1"
      }
    }
  },
  "timestamp": 1713254892,
  "userdoc": {
    "version": 1,
    "kind": "user",
    "methods": {
      "round(uint256)": {
        "notice": "chain id = 0 for global proposal"
      }
    },
    "errors": {
      "ErrBelowMinRequiredGovernors()": [
        {
          "notice": "Error indicating that the governors list will go below minimum number of required governor."
        }
      ],
      "ErrGovernorNotFound(address)": [
        {
          "notice": "Error indicating that cannot find the querying governor"
        }
      ],
      "ErrGovernorNotMatch(address,address)": [
        {
          "notice": "Error indicating that the msg.sender is not match the required governor"
        }
      ],
      "ErrInvalidInput()": [
        {
          "notice": "Common invalid input error"
        }
      ],
      "ErrOperatorNotFound(address)": [
        {
          "notice": "Error indicating that cannot find the querying operator"
        }
      ]
    }
  }
}