{
  "abi": [
    {
      "type": "constructor",
      "inputs": [
        {
          "name": "defaultAdmin",
          "type": "address",
          "internalType": "address"
        },
        {
          "name": "uri",
          "type": "string",
          "internalType": "string"
        },
        {
          "name": "name",
          "type": "string",
          "internalType": "string"
        },
        {
          "name": "symbol",
          "type": "string",
          "internalType": "string"
        }
      ],
      "stateMutability": "nonpayable"
    },
    {
      "type": "function",
      "name": "BURNER_ROLE",
      "inputs": [],
      "outputs": [
        {
          "name": "",
          "type": "bytes32",
          "internalType": "bytes32"
        }
      ],
      "stateMutability": "view"
    },
    {
      "type": "function",
      "name": "DEFAULT_ADMIN_ROLE",
      "inputs": [],
      "outputs": [
        {
          "name": "",
          "type": "bytes32",
          "internalType": "bytes32"
        }
      ],
      "stateMutability": "view"
    },
    {
      "type": "function",
      "name": "MINTER_ROLE",
      "inputs": [],
      "outputs": [
        {
          "name": "",
          "type": "bytes32",
          "internalType": "bytes32"
        }
      ],
      "stateMutability": "view"
    },
    {
      "type": "function",
      "name": "balanceOf",
      "inputs": [
        {
          "name": "account",
          "type": "address",
          "internalType": "address"
        },
        {
          "name": "id",
          "type": "uint256",
          "internalType": "uint256"
        }
      ],
      "outputs": [
        {
          "name": "",
          "type": "uint256",
          "internalType": "uint256"
        }
      ],
      "stateMutability": "view"
    },
    {
      "type": "function",
      "name": "balanceOfBatch",
      "inputs": [
        {
          "name": "accounts",
          "type": "address[]",
          "internalType": "address[]"
        },
        {
          "name": "ids",
          "type": "uint256[]",
          "internalType": "uint256[]"
        }
      ],
      "outputs": [
        {
          "name": "",
          "type": "uint256[]",
          "internalType": "uint256[]"
        }
      ],
      "stateMutability": "view"
    },
    {
      "type": "function",
      "name": "burn",
      "inputs": [
        {
          "name": "from",
          "type": "address",
          "internalType": "address"
        },
        {
          "name": "id",
          "type": "uint256",
          "internalType": "uint256"
        },
        {
          "name": "value",
          "type": "uint256",
          "internalType": "uint256"
        }
      ],
      "outputs": [],
      "stateMutability": "nonpayable"
    },
    {
      "type": "function",
      "name": "burnBatch",
      "inputs": [
        {
          "name": "from",
          "type": "address",
          "internalType": "address"
        },
        {
          "name": "ids",
          "type": "uint256[]",
          "internalType": "uint256[]"
        },
        {
          "name": "amounts",
          "type": "uint256[]",
          "internalType": "uint256[]"
        }
      ],
      "outputs": [],
      "stateMutability": "nonpayable"
    },
    {
      "type": "function",
      "name": "getRoleAdmin",
      "inputs": [
        {
          "name": "role",
          "type": "bytes32",
          "internalType": "bytes32"
        }
      ],
      "outputs": [
        {
          "name": "",
          "type": "bytes32",
          "internalType": "bytes32"
        }
      ],
      "stateMutability": "view"
    },
    {
      "type": "function",
      "name": "grantRole",
      "inputs": [
        {
          "name": "role",
          "type": "bytes32",
          "internalType": "bytes32"
        },
        {
          "name": "account",
          "type": "address",
          "internalType": "address"
        }
      ],
      "outputs": [],
      "stateMutability": "nonpayable"
    },
    {
      "type": "function",
      "name": "hasRole",
      "inputs": [
        {
          "name": "role",
          "type": "bytes32",
          "internalType": "bytes32"
        },
        {
          "name": "account",
          "type": "address",
          "internalType": "address"
        }
      ],
      "outputs": [
        {
          "name": "",
          "type": "bool",
          "internalType": "bool"
        }
      ],
      "stateMutability": "view"
    },
    {
      "type": "function",
      "name": "isApprovedForAll",
      "inputs": [
        {
          "name": "account",
          "type": "address",
          "internalType": "address"
        },
        {
          "name": "operator",
          "type": "address",
          "internalType": "address"
        }
      ],
      "outputs": [
        {
          "name": "",
          "type": "bool",
          "internalType": "bool"
        }
      ],
      "stateMutability": "view"
    },
    {
      "type": "function",
      "name": "mint",
      "inputs": [
        {
          "name": "account",
          "type": "address",
          "internalType": "address"
        },
        {
          "name": "id",
          "type": "uint256",
          "internalType": "uint256"
        },
        {
          "name": "amount",
          "type": "uint256",
          "internalType": "uint256"
        },
        {
          "name": "data",
          "type": "bytes",
          "internalType": "bytes"
        }
      ],
      "outputs": [],
      "stateMutability": "nonpayable"
    },
    {
      "type": "function",
      "name": "mintBatch",
      "inputs": [
        {
          "name": "to",
          "type": "address",
          "internalType": "address"
        },
        {
          "name": "ids",
          "type": "uint256[]",
          "internalType": "uint256[]"
        },
        {
          "name": "amounts",
          "type": "uint256[]",
          "internalType": "uint256[]"
        },
        {
          "name": "data",
          "type": "bytes",
          "internalType": "bytes"
        }
      ],
      "outputs": [],
      "stateMutability": "nonpayable"
    },
    {
      "type": "function",
      "name": "name",
      "inputs": [],
      "outputs": [
        {
          "name": "",
          "type": "string",
          "internalType": "string"
        }
      ],
      "stateMutability": "view"
    },
    {
      "type": "function",
      "name": "renounceRole",
      "inputs": [
        {
          "name": "role",
          "type": "bytes32",
          "internalType": "bytes32"
        },
        {
          "name": "account",
          "type": "address",
          "internalType": "address"
        }
      ],
      "outputs": [],
      "stateMutability": "nonpayable"
    },
    {
      "type": "function",
      "name": "revokeRole",
      "inputs": [
        {
          "name": "role",
          "type": "bytes32",
          "internalType": "bytes32"
        },
        {
          "name": "account",
          "type": "address",
          "internalType": "address"
        }
      ],
      "outputs": [],
      "stateMutability": "nonpayable"
    },
    {
      "type": "function",
      "name": "safeBatchTransferFrom",
      "inputs": [
        {
          "name": "from",
          "type": "address",
          "internalType": "address"
        },
        {
          "name": "to",
          "type": "address",
          "internalType": "address"
        },
        {
          "name": "ids",
          "type": "uint256[]",
          "internalType": "uint256[]"
        },
        {
          "name": "amounts",
          "type": "uint256[]",
          "internalType": "uint256[]"
        },
        {
          "name": "data",
          "type": "bytes",
          "internalType": "bytes"
        }
      ],
      "outputs": [],
      "stateMutability": "nonpayable"
    },
    {
      "type": "function",
      "name": "safeTransferFrom",
      "inputs": [
        {
          "name": "from",
          "type": "address",
          "internalType": "address"
        },
        {
          "name": "to",
          "type": "address",
          "internalType": "address"
        },
        {
          "name": "id",
          "type": "uint256",
          "internalType": "uint256"
        },
        {
          "name": "amount",
          "type": "uint256",
          "internalType": "uint256"
        },
        {
          "name": "data",
          "type": "bytes",
          "internalType": "bytes"
        }
      ],
      "outputs": [],
      "stateMutability": "nonpayable"
    },
    {
      "type": "function",
      "name": "setApprovalForAll",
      "inputs": [
        {
          "name": "operator",
          "type": "address",
          "internalType": "address"
        },
        {
          "name": "approved",
          "type": "bool",
          "internalType": "bool"
        }
      ],
      "outputs": [],
      "stateMutability": "nonpayable"
    },
    {
      "type": "function",
      "name": "supportsInterface",
      "inputs": [
        {
          "name": "interfaceId",
          "type": "bytes4",
          "internalType": "bytes4"
        }
      ],
      "outputs": [
        {
          "name": "",
          "type": "bool",
          "internalType": "bool"
        }
      ],
      "stateMutability": "view"
    },
    {
      "type": "function",
      "name": "symbol",
      "inputs": [],
      "outputs": [
        {
          "name": "",
          "type": "string",
          "internalType": "string"
        }
      ],
      "stateMutability": "view"
    },
    {
      "type": "function",
      "name": "uri",
      "inputs": [
        {
          "name": "",
          "type": "uint256",
          "internalType": "uint256"
        }
      ],
      "outputs": [
        {
          "name": "",
          "type": "string",
          "internalType": "string"
        }
      ],
      "stateMutability": "view"
    },
    {
      "type": "event",
      "name": "ApprovalForAll",
      "inputs": [
        {
          "name": "account",
          "type": "address",
          "indexed": true,
          "internalType": "address"
        },
        {
          "name": "operator",
          "type": "address",
          "indexed": true,
          "internalType": "address"
        },
        {
          "name": "approved",
          "type": "bool",
          "indexed": false,
          "internalType": "bool"
        }
      ],
      "anonymous": false
    },
    {
      "type": "event",
      "name": "RoleAdminChanged",
      "inputs": [
        {
          "name": "role",
          "type": "bytes32",
          "indexed": true,
          "internalType": "bytes32"
        },
        {
          "name": "previousAdminRole",
          "type": "bytes32",
          "indexed": true,
          "internalType": "bytes32"
        },
        {
          "name": "newAdminRole",
          "type": "bytes32",
          "indexed": true,
          "internalType": "bytes32"
        }
      ],
      "anonymous": false
    },
    {
      "type": "event",
      "name": "RoleGranted",
      "inputs": [
        {
          "name": "role",
          "type": "bytes32",
          "indexed": true,
          "internalType": "bytes32"
        },
        {
          "name": "account",
          "type": "address",
          "indexed": true,
          "internalType": "address"
        },
        {
          "name": "sender",
          "type": "address",
          "indexed": true,
          "internalType": "address"
        }
      ],
      "anonymous": false
    },
    {
      "type": "event",
      "name": "RoleRevoked",
      "inputs": [
        {
          "name": "role",
          "type": "bytes32",
          "indexed": true,
          "internalType": "bytes32"
        },
        {
          "name": "account",
          "type": "address",
          "indexed": true,
          "internalType": "address"
        },
        {
          "name": "sender",
          "type": "address",
          "indexed": true,
          "internalType": "address"
        }
      ],
      "anonymous": false
    },
    {
      "type": "event",
      "name": "TransferBatch",
      "inputs": [
        {
          "name": "operator",
          "type": "address",
          "indexed": true,
          "internalType": "address"
        },
        {
          "name": "from",
          "type": "address",
          "indexed": true,
          "internalType": "address"
        },
        {
          "name": "to",
          "type": "address",
          "indexed": true,
          "internalType": "address"
        },
        {
          "name": "ids",
          "type": "uint256[]",
          "indexed": false,
          "internalType": "uint256[]"
        },
        {
          "name": "values",
          "type": "uint256[]",
          "indexed": false,
          "internalType": "uint256[]"
        }
      ],
      "anonymous": false
    },
    {
      "type": "event",
      "name": "TransferSingle",
      "inputs": [
        {
          "name": "operator",
          "type": "address",
          "indexed": true,
          "internalType": "address"
        },
        {
          "name": "from",
          "type": "address",
          "indexed": true,
          "internalType": "address"
        },
        {
          "name": "to",
          "type": "address",
          "indexed": true,
          "internalType": "address"
        },
        {
          "name": "id",
          "type": "uint256",
          "indexed": false,
          "internalType": "uint256"
        },
        {
          "name": "value",
          "type": "uint256",
          "indexed": false,
          "internalType": "uint256"
        }
      ],
      "anonymous": false
    },
    {
      "type": "event",
      "name": "URI",
      "inputs": [
        {
          "name": "value",
          "type": "string",
          "indexed": false,
          "internalType": "string"
        },
        {
          "name": "id",
          "type": "uint256",
          "indexed": true,
          "internalType": "uint256"
        }
      ],
      "anonymous": false
    }
  ],
  "address": "0xFBb71EEE2B420ea88e663B91722b41966E1C5F17",
  "args": "0x000000000000000000000000ef46169cd1e954ab10d5e4c280737d9b92d0a936000000000000000000000000000000000000000000000000000000000000008000000000000000000000000000000000000000000000000000000000000000a000000000000000000000000000000000000000000000000000000000000000e000000000000000000000000000000000000000000000000000000000000000000000000000000000000000000000000000000000000000000000000000000010526f6e696e4d6f636b45524331313535000000000000000000000000000000000000000000000000000000000000000000000000000000000000000000000007524d453131353500000000000000000000000000000000000000000000000000",
  "blockNumber": 6096577,
  "bytecode": "0x60806040523480156200001157600080fd5b50604051620026ba380380620026ba8339810160408190526200003491620001f4565b82620000408162000076565b5060046200004f838262000337565b5060056200005e828262000337565b506200006c60008562000088565b5050505062000403565b600262000084828262000337565b5050565b60008281526003602090815260408083206001600160a01b038516845290915290205460ff16620000845760008281526003602090815260408083206001600160a01b03851684529091529020805460ff19166001179055620000e83390565b6001600160a01b0316816001600160a01b0316837f2f8788117e7eff1d82e926ec794901d17c78024a50270940304540a733656f0d60405160405180910390a45050565b634e487b7160e01b600052604160045260246000fd5b600082601f8301126200015457600080fd5b81516001600160401b03808211156200017157620001716200012c565b604051601f8301601f19908116603f011681019082821181831017156200019c576200019c6200012c565b8160405283815260209250866020858801011115620001ba57600080fd5b600091505b83821015620001de5785820183015181830184015290820190620001bf565b6000602085830101528094505050505092915050565b600080600080608085870312156200020b57600080fd5b84516001600160a01b03811681146200022357600080fd5b60208601519094506001600160401b03808211156200024157600080fd5b6200024f8883890162000142565b945060408701519150808211156200026657600080fd5b620002748883890162000142565b935060608701519150808211156200028b57600080fd5b506200029a8782880162000142565b91505092959194509250565b600181811c90821680620002bb57607f821691505b602082108103620002dc57634e487b7160e01b600052602260045260246000fd5b50919050565b601f82111562000332576000816000526020600020601f850160051c810160208610156200030d5750805b601f850160051c820191505b818110156200032e5782815560010162000319565b5050505b505050565b81516001600160401b038111156200035357620003536200012c565b6200036b81620003648454620002a6565b84620002e2565b602080601f831160018114620003a357600084156200038a5750858301515b600019600386901b1c1916600185901b1785556200032e565b600085815260208120601f198616915b82811015620003d457888601518255948401946001909101908401620003b3565b5085821015620003f35787850151600019600388901b60f8161c191681555b5050505050600190811b01905550565b6122a780620004136000396000f3fe608060405234801561001057600080fd5b50600436106101415760003560e01c80636b20c454116100b8578063a22cb4651161007c578063a22cb465146102b8578063d5391393146102cb578063d547741f146102f2578063e985e9c514610305578063f242432a14610341578063f5298aca1461035457600080fd5b80636b20c4541461026f578063731133e91461028257806391d148541461029557806395d89b41146102a8578063a217fddf146102b057600080fd5b8063248a9ca31161010a578063248a9ca3146101cc578063282c51f3146101ef5780632eb2c2d6146102165780632f2ff15d1461022957806336568abe1461023c5780634e1273f41461024f57600080fd5b8062fdd58e1461014657806301ffc9a71461016c57806306fdde031461018f5780630e89341c146101a45780631f7fdffa146101b7575b600080fd5b610159610154366004611711565b610367565b6040519081526020015b60405180910390f35b61017f61017a366004611751565b610400565b6040519015158152602001610163565b61019761041a565b60405161016391906117be565b6101976101b23660046117d1565b6104ac565b6101ca6101c536600461193b565b610540565b005b6101596101da3660046117d1565b60009081526003602052604090206001015490565b6101597f3c11d16cbaffd01df69ce1c404f6340ee057498f5f00246190ea54220576a84881565b6101ca6102243660046119d4565b61057d565b6101ca610237366004611a7e565b6105c2565b6101ca61024a366004611a7e565b6105ec565b61026261025d366004611aaa565b61066a565b6040516101639190611bb1565b6101ca61027d366004611bc4565b61078c565b6101ca610290366004611c38565b6107c7565b61017f6102a3366004611a7e565b6107fd565b610197610828565b610159600081565b6101ca6102c6366004611c8d565b610837565b6101597f9f2df0fed2c77648de5860a4cc508cd0818c85b8b8a1ab4ceeef8d981c8956a681565b6101ca610300366004611a7e565b610842565b61017f610313366004611cc9565b6001600160a01b03918216600090815260016020908152604080832093909416825291909152205460ff1690565b6101ca61034f366004611cf3565b610867565b6101ca610362366004611d58565b6108ac565b60006001600160a01b0383166103d75760405162461bcd60e51b815260206004820152602a60248201527f455243313135353a2061646472657373207a65726f206973206e6f742061207660448201526930b634b21037bbb732b960b11b60648201526084015b60405180910390fd5b506000818152602081815260408083206001600160a01b03861684529091529020545b92915050565b600061040b826108e1565b806103fa57506103fa82610931565b60606004805461042990611d8b565b80601f016020809104026020016040519081016040528092919081815260200182805461045590611d8b565b80156104a25780601f10610477576101008083540402835291602001916104a2565b820191906000526020600020905b81548152906001019060200180831161048557829003601f168201915b5050505050905090565b6060600280546104bb90611d8b565b80601f01602080910402602001604051908101604052809291908181526020018280546104e790611d8b565b80156105345780601f1061050957610100808354040283529160200191610534565b820191906000526020600020905b81548152906001019060200180831161051757829003601f168201915b50505050509050919050565b7f9f2df0fed2c77648de5860a4cc508cd0818c85b8b8a1ab4ceeef8d981c8956a661056a81610956565b61057685858585610963565b5050505050565b6001600160a01b03851633148061059957506105998533610313565b6105b55760405162461bcd60e51b81526004016103ce90611dc5565b6105768585858585610aa3565b6000828152600360205260409020600101546105dd81610956565b6105e78383610c38565b505050565b6001600160a01b038116331461065c5760405162461bcd60e51b815260206004820152602f60248201527f416363657373436f6e74726f6c3a2063616e206f6e6c792072656e6f756e636560448201526e103937b632b9903337b91039b2b63360891b60648201526084016103ce565b6106668282610cbe565b5050565b606081518351146106cf5760405162461bcd60e51b815260206004820152602960248201527f455243313135353a206163636f756e747320616e6420696473206c656e677468604482015268040dad2e6dac2e8c6d60bb1b60648201526084016103ce565b6000835167ffffffffffffffff8111156106eb576106eb6117ea565b604051908082528060200260200182016040528015610714578160200160208202803683370190505b50905060005b84518110156107845761075f85828151811061073857610738611e14565b602002602001015185838151811061075257610752611e14565b6020026020010151610367565b82828151811061077157610771611e14565b602090810291909101015260010161071a565b509392505050565b7f3c11d16cbaffd01df69ce1c404f6340ee057498f5f00246190ea54220576a8486107b681610956565b6107c1848484610d25565b50505050565b7f9f2df0fed2c77648de5860a4cc508cd0818c85b8b8a1ab4ceeef8d981c8956a66107f181610956565b61057685858585610ea5565b60009182526003602090815260408084206001600160a01b0393909316845291905290205460ff1690565b60606005805461042990611d8b565b610666338383610f7f565b60008281526003602052604090206001015461085d81610956565b6105e78383610cbe565b6001600160a01b03851633148061088357506108838533610313565b61089f5760405162461bcd60e51b81526004016103ce90611dc5565b610576858585858561105f565b7f3c11d16cbaffd01df69ce1c404f6340ee057498f5f00246190ea54220576a8486108d681610956565b6107c1848484611189565b60006001600160e01b03198216636cdb3d1360e11b148061091257506001600160e01b031982166303a24d0760e21b145b806103fa57506301ffc9a760e01b6001600160e01b03198316146103fa565b60006001600160e01b03198216637965db0b60e01b14806103fa57506103fa826108e1565b610960813361128d565b50565b6001600160a01b0384166109895760405162461bcd60e51b81526004016103ce90611e2a565b81518351146109aa5760405162461bcd60e51b81526004016103ce90611e6b565b3360005b8451811015610a3b578381815181106109c9576109c9611e14565b60200260200101516000808784815181106109e6576109e6611e14565b602002602001015181526020019081526020016000206000886001600160a01b03166001600160a01b031681526020019081526020016000206000828254610a2e9190611ec9565b90915550506001016109ae565b50846001600160a01b031660006001600160a01b0316826001600160a01b03167f4a39dc06d4c0dbc64b70af90fd698a233a518aa5d07e595d983b8c0526c8f7fb8787604051610a8c929190611edc565b60405180910390a4610576816000878787876112f1565b8151835114610ac45760405162461bcd60e51b81526004016103ce90611e6b565b6001600160a01b038416610aea5760405162461bcd60e51b81526004016103ce90611f0a565b3360005b8451811015610bca576000858281518110610b0b57610b0b611e14565b602002602001015190506000858381518110610b2957610b29611e14565b602090810291909101810151600084815280835260408082206001600160a01b038e168352909352919091205490915081811015610b795760405162461bcd60e51b81526004016103ce90611f4f565b6000838152602081815260408083206001600160a01b038e8116855292528083208585039055908b16825281208054849290610bb6908490611ec9565b909155505060019093019250610aee915050565b50846001600160a01b0316866001600160a01b0316826001600160a01b03167f4a39dc06d4c0dbc64b70af90fd698a233a518aa5d07e595d983b8c0526c8f7fb8787604051610c1a929190611edc565b60405180910390a4610c308187878787876112f1565b505050505050565b610c4282826107fd565b6106665760008281526003602090815260408083206001600160a01b03851684529091529020805460ff19166001179055610c7a3390565b6001600160a01b0316816001600160a01b0316837f2f8788117e7eff1d82e926ec794901d17c78024a50270940304540a733656f0d60405160405180910390a45050565b610cc882826107fd565b156106665760008281526003602090815260408083206001600160a01b0385168085529252808320805460ff1916905551339285917ff6391f5c32d9c69d2a47ea670b442974b53935d1edc7fd64eb21e047a839171b9190a45050565b6001600160a01b038316610d4b5760405162461bcd60e51b81526004016103ce90611f99565b8051825114610d6c5760405162461bcd60e51b81526004016103ce90611e6b565b604080516020810190915260009081905233905b8351811015610e38576000848281518110610d9d57610d9d611e14565b602002602001015190506000848381518110610dbb57610dbb611e14565b602090810291909101810151600084815280835260408082206001600160a01b038c168352909352919091205490915081811015610e0b5760405162461bcd60e51b81526004016103ce90611fdc565b6000928352602083815260408085206001600160a01b038b16865290915290922091039055600101610d80565b5060006001600160a01b0316846001600160a01b0316826001600160a01b03167f4a39dc06d4c0dbc64b70af90fd698a233a518aa5d07e595d983b8c0526c8f7fb8686604051610e89929190611edc565b60405180910390a46040805160208101909152600090526107c1565b6001600160a01b038416610ecb5760405162461bcd60e51b81526004016103ce90611e2a565b336000610ed78561144c565b90506000610ee48561144c565b90506000868152602081815260408083206001600160a01b038b16845290915281208054879290610f16908490611ec9565b909155505060408051878152602081018790526001600160a01b03808a1692600092918716917fc3d58168c5ae7397731d063d5bbf3d657854427343f4c083240f7aacaa2d0f62910160405180910390a4610f7683600089898989611497565b50505050505050565b816001600160a01b0316836001600160a01b031603610ff25760405162461bcd60e51b815260206004820152602960248201527f455243313135353a2073657474696e6720617070726f76616c20737461747573604482015268103337b91039b2b63360b91b60648201526084016103ce565b6001600160a01b03838116600081815260016020908152604080832094871680845294825291829020805460ff191686151590811790915591519182527f17307eab39ab6107e8899845ad3d59bd9653f200f220920489ca2b5937696c31910160405180910390a3505050565b6001600160a01b0384166110855760405162461bcd60e51b81526004016103ce90611f0a565b3360006110918561144c565b9050600061109e8561144c565b90506000868152602081815260408083206001600160a01b038c168452909152902054858110156110e15760405162461bcd60e51b81526004016103ce90611f4f565b6000878152602081815260408083206001600160a01b038d8116855292528083208985039055908a1682528120805488929061111e908490611ec9565b909155505060408051888152602081018890526001600160a01b03808b16928c821692918816917fc3d58168c5ae7397731d063d5bbf3d657854427343f4c083240f7aacaa2d0f62910160405180910390a461117e848a8a8a8a8a611497565b505050505050505050565b6001600160a01b0383166111af5760405162461bcd60e51b81526004016103ce90611f99565b3360006111bb8461144c565b905060006111c88461144c565b60408051602080820183526000918290528882528181528282206001600160a01b038b16835290522054909150848110156112155760405162461bcd60e51b81526004016103ce90611fdc565b6000868152602081815260408083206001600160a01b038b81168086529184528285208a8703905582518b81529384018a90529092908816917fc3d58168c5ae7397731d063d5bbf3d657854427343f4c083240f7aacaa2d0f62910160405180910390a4604080516020810190915260009052610f76565b61129782826107fd565b610666576112af816001600160a01b03166014611552565b6112ba836020611552565b6040516020016112cb929190612020565b60408051601f198184030181529082905262461bcd60e51b82526103ce916004016117be565b6001600160a01b0384163b15610c305760405163bc197c8160e01b81526001600160a01b0385169063bc197c81906113359089908990889088908890600401612095565b6020604051808303816000875af1925050508015611370575060408051601f3d908101601f1916820190925261136d918101906120f3565b60015b61141c5761137c612110565b806308c379a0036113b5575061139061212c565b8061139b57506113b7565b8060405162461bcd60e51b81526004016103ce91906117be565b505b60405162461bcd60e51b815260206004820152603460248201527f455243313135353a207472616e7366657220746f206e6f6e20455243313135356044820152732932b1b2b4bb32b91034b6b83632b6b2b73a32b960611b60648201526084016103ce565b6001600160e01b0319811663bc197c8160e01b14610f765760405162461bcd60e51b81526004016103ce906121b6565b6040805160018082528183019092526060916000919060208083019080368337019050509050828160008151811061148657611486611e14565b602090810291909101015292915050565b6001600160a01b0384163b15610c305760405163f23a6e6160e01b81526001600160a01b0385169063f23a6e61906114db90899089908890889088906004016121fe565b6020604051808303816000875af1925050508015611516575060408051601f3d908101601f19168201909252611513918101906120f3565b60015b6115225761137c612110565b6001600160e01b0319811663f23a6e6160e01b14610f765760405162461bcd60e51b81526004016103ce906121b6565b60606000611561836002612243565b61156c906002611ec9565b67ffffffffffffffff811115611584576115846117ea565b6040519080825280601f01601f1916602001820160405280156115ae576020820181803683370190505b509050600360fc1b816000815181106115c9576115c9611e14565b60200101906001600160f81b031916908160001a905350600f60fb1b816001815181106115f8576115f8611e14565b60200101906001600160f81b031916908160001a905350600061161c846002612243565b611627906001611ec9565b90505b600181111561169f576f181899199a1a9b1b9c1cb0b131b232b360811b85600f166010811061165b5761165b611e14565b1a60f81b82828151811061167157611671611e14565b60200101906001600160f81b031916908160001a90535060049490941c936116988161225a565b905061162a565b5083156116ee5760405162461bcd60e51b815260206004820181905260248201527f537472696e67733a20686578206c656e67746820696e73756666696369656e7460448201526064016103ce565b9392505050565b80356001600160a01b038116811461170c57600080fd5b919050565b6000806040838503121561172457600080fd5b61172d836116f5565b946020939093013593505050565b6001600160e01b03198116811461096057600080fd5b60006020828403121561176357600080fd5b81356116ee8161173b565b60005b83811015611789578181015183820152602001611771565b50506000910152565b600081518084526117aa81602086016020860161176e565b601f01601f19169290920160200192915050565b6020815260006116ee6020830184611792565b6000602082840312156117e357600080fd5b5035919050565b634e487b7160e01b600052604160045260246000fd5b601f8201601f1916810167ffffffffffffffff81118282101715611826576118266117ea565b6040525050565b600067ffffffffffffffff821115611847576118476117ea565b5060051b60200190565b600082601f83011261186257600080fd5b8135602061186f8261182d565b60405161187c8282611800565b80915083815260208101915060208460051b8701019350868411156118a057600080fd5b602086015b848110156118bc57803583529183019183016118a5565b509695505050505050565b600082601f8301126118d857600080fd5b813567ffffffffffffffff8111156118f2576118f26117ea565b604051611909601f8301601f191660200182611800565b81815284602083860101111561191e57600080fd5b816020850160208301376000918101602001919091529392505050565b6000806000806080858703121561195157600080fd5b61195a856116f5565b9350602085013567ffffffffffffffff8082111561197757600080fd5b61198388838901611851565b9450604087013591508082111561199957600080fd5b6119a588838901611851565b935060608701359150808211156119bb57600080fd5b506119c8878288016118c7565b91505092959194509250565b600080600080600060a086880312156119ec57600080fd5b6119f5866116f5565b9450611a03602087016116f5565b9350604086013567ffffffffffffffff80821115611a2057600080fd5b611a2c89838a01611851565b94506060880135915080821115611a4257600080fd5b611a4e89838a01611851565b93506080880135915080821115611a6457600080fd5b50611a71888289016118c7565b9150509295509295909350565b60008060408385031215611a9157600080fd5b82359150611aa1602084016116f5565b90509250929050565b60008060408385031215611abd57600080fd5b823567ffffffffffffffff80821115611ad557600080fd5b818501915085601f830112611ae957600080fd5b81356020611af68261182d565b604051611b038282611800565b83815260059390931b8501820192828101915089841115611b2357600080fd5b948201945b83861015611b4857611b39866116f5565b82529482019490820190611b28565b96505086013592505080821115611b5e57600080fd5b50611b6b85828601611851565b9150509250929050565b60008151808452602080850194506020840160005b83811015611ba657815187529582019590820190600101611b8a565b509495945050505050565b6020815260006116ee6020830184611b75565b600080600060608486031215611bd957600080fd5b611be2846116f5565b9250602084013567ffffffffffffffff80821115611bff57600080fd5b611c0b87838801611851565b93506040860135915080821115611c2157600080fd5b50611c2e86828701611851565b9150509250925092565b60008060008060808587031215611c4e57600080fd5b611c57856116f5565b93506020850135925060408501359150606085013567ffffffffffffffff811115611c8157600080fd5b6119c8878288016118c7565b60008060408385031215611ca057600080fd5b611ca9836116f5565b915060208301358015158114611cbe57600080fd5b809150509250929050565b60008060408385031215611cdc57600080fd5b611ce5836116f5565b9150611aa1602084016116f5565b600080600080600060a08688031215611d0b57600080fd5b611d14866116f5565b9450611d22602087016116f5565b93506040860135925060608601359150608086013567ffffffffffffffff811115611d4c57600080fd5b611a71888289016118c7565b600080600060608486031215611d6d57600080fd5b611d76846116f5565b95602085013595506040909401359392505050565b600181811c90821680611d9f57607f821691505b602082108103611dbf57634e487b7160e01b600052602260045260246000fd5b50919050565b6020808252602f908201527f455243313135353a2063616c6c6572206973206e6f7420746f6b656e206f776e60408201526e195c881b9bdc88185c1c1c9bdd9959608a1b606082015260800190565b634e487b7160e01b600052603260045260246000fd5b60208082526021908201527f455243313135353a206d696e7420746f20746865207a65726f206164647265736040820152607360f81b606082015260800190565b60208082526028908201527f455243313135353a2069647320616e6420616d6f756e7473206c656e677468206040820152670dad2e6dac2e8c6d60c31b606082015260800190565b634e487b7160e01b600052601160045260246000fd5b808201808211156103fa576103fa611eb3565b604081526000611eef6040830185611b75565b8281036020840152611f018185611b75565b95945050505050565b60208082526025908201527f455243313135353a207472616e7366657220746f20746865207a65726f206164604082015264647265737360d81b606082015260800190565b6020808252602a908201527f455243313135353a20696e73756666696369656e742062616c616e636520666f60408201526939103a3930b739b332b960b11b606082015260800190565b60208082526023908201527f455243313135353a206275726e2066726f6d20746865207a65726f206164647260408201526265737360e81b606082015260800190565b60208082526024908201527f455243313135353a206275726e20616d6f756e7420657863656564732062616c604082015263616e636560e01b606082015260800190565b7f416363657373436f6e74726f6c3a206163636f756e742000000000000000000081526000835161205881601785016020880161176e565b7001034b99036b4b9b9b4b733903937b6329607d1b601791840191820152835161208981602884016020880161176e565b01602801949350505050565b6001600160a01b0386811682528516602082015260a0604082018190526000906120c190830186611b75565b82810360608401526120d38186611b75565b905082810360808401526120e78185611792565b98975050505050505050565b60006020828403121561210557600080fd5b81516116ee8161173b565b600060033d11156121295760046000803e5060005160e01c5b90565b600060443d101561213a5790565b6040516003193d81016004833e81513d67ffffffffffffffff816024840111818411171561216a57505050505090565b82850191508151818111156121825750505050505090565b843d870101602082850101111561219c5750505050505090565b6121ab60208286010187611800565b509095945050505050565b60208082526028908201527f455243313135353a204552433131353552656365697665722072656a656374656040820152676420746f6b656e7360c01b606082015260800190565b6001600160a01b03868116825285166020820152604081018490526060810183905260a06080820181905260009061223890830184611792565b979650505050505050565b80820281158282048414176103fa576103fa611eb3565b60008161226957612269611eb3565b50600019019056fea2646970667358221220c1922d923eac97be683dc6ff45b50a0f7dbad3c951fc4b097bedbbdfa7c1ac5164736f6c63430008170033",
  "chainId": 11155111,
  "contractAbsolutePath": "MockERC1155.sol",
  "deployer": "0xEf46169CD1e954aB10D5e4C280737D9b92d0a936",
  "devdoc": {
    "version": 1,
    "kind": "dev",
    "methods": {
      "balanceOf(address,uint256)": {
        "details": "See {IERC1155-balanceOf}. Requirements: - `account` cannot be the zero address."
      },
      "balanceOfBatch(address[],uint256[])": {
        "details": "See {IERC1155-balanceOfBatch}. Requirements: - `accounts` and `ids` must have the same length."
      },
      "getRoleAdmin(bytes32)": {
        "details": "Returns the admin role that controls `role`. See {grantRole} and {revokeRole}. To change a role's admin, use {_setRoleAdmin}."
      },
      "grantRole(bytes32,address)": {
        "details": "Grants `role` to `account`. If `account` had not been already granted `role`, emits a {RoleGranted} event. Requirements: - the caller must have ``role``'s admin role. May emit a {RoleGranted} event."
      },
      "hasRole(bytes32,address)": {
        "details": "Returns `true` if `account` has been granted `role`."
      },
      "isApprovedForAll(address,address)": {
        "details": "See {IERC1155-isApprovedForAll}."
      },
      "renounceRole(bytes32,address)": {
        "details": "Revokes `role` from the calling account. Roles are often managed via {grantRole} and {revokeRole}: this function's purpose is to provide a mechanism for accounts to lose their privileges if they are compromised (such as when a trusted device is misplaced). If the calling account had been revoked `role`, emits a {RoleRevoked} event. Requirements: - the caller must be `account`. May emit a {RoleRevoked} event."
      },
      "revokeRole(bytes32,address)": {
        "details": "Revokes `role` from `account`. If `account` had been granted `role`, emits a {RoleRevoked} event. Requirements: - the caller must have ``role``'s admin role. May emit a {RoleRevoked} event."
      },
      "safeBatchTransferFrom(address,address,uint256[],uint256[],bytes)": {
        "details": "See {IERC1155-safeBatchTransferFrom}."
      },
      "safeTransferFrom(address,address,uint256,uint256,bytes)": {
        "details": "See {IERC1155-safeTransferFrom}."
      },
      "setApprovalForAll(address,bool)": {
        "details": "See {IERC1155-setApprovalForAll}."
      },
      "uri(uint256)": {
        "details": "See {IERC1155MetadataURI-uri}. This implementation returns the same URI for *all* token types. It relies on the token type ID substitution mechanism https://eips.ethereum.org/EIPS/eip-1155#metadata[defined in the EIP]. Clients calling this function must replace the `\\{id\\}` substring with the actual token type ID."
      }
    },
    "events": {
      "ApprovalForAll(address,address,bool)": {
        "details": "Emitted when `account` grants or revokes permission to `operator` to transfer their tokens, according to `approved`."
      },
      "RoleAdminChanged(bytes32,bytes32,bytes32)": {
        "details": "Emitted when `newAdminRole` is set as ``role``'s admin role, replacing `previousAdminRole` `DEFAULT_ADMIN_ROLE` is the starting admin for all roles, despite {RoleAdminChanged} not being emitted signaling this. _Available since v3.1._"
      },
      "RoleGranted(bytes32,address,address)": {
        "details": "Emitted when `account` is granted `role`. `sender` is the account that originated the contract call, an admin role bearer except when using {AccessControl-_setupRole}."
      },
      "RoleRevoked(bytes32,address,address)": {
        "details": "Emitted when `account` is revoked `role`. `sender` is the account that originated the contract call:   - if using `revokeRole`, it is the admin role bearer   - if using `renounceRole`, it is the role bearer (i.e. `account`)"
      },
      "TransferBatch(address,address,address,uint256[],uint256[])": {
        "details": "Equivalent to multiple {TransferSingle} events, where `operator`, `from` and `to` are the same for all transfers."
      },
      "TransferSingle(address,address,address,uint256,uint256)": {
        "details": "Emitted when `value` tokens of token type `id` are transferred from `from` to `to` by `operator`."
      },
      "URI(string,uint256)": {
        "details": "Emitted when the URI for token type `id` changes to `value`, if it is a non-programmatic URI. If an {URI} event was emitted for `id`, the standard https://eips.ethereum.org/EIPS/eip-1155#metadata-extensions[guarantees] that `value` will equal the value returned by {IERC1155MetadataURI-uri}."
      }
    }
  },
  "isFoundry": true,
  "nonce": 104,
  "numDeployments": 1,
  "storageLayout": {
    "storage": [
      {
        "astId": 96748,
        "contract": "src/mocks/token/MockERC1155.sol:MockERC1155",
        "label": "_balances",
        "offset": 0,
        "slot": "0",
        "type": "t_mapping(t_uint256,t_mapping(t_address,t_uint256))"
      },
      {
        "astId": 96754,
        "contract": "src/mocks/token/MockERC1155.sol:MockERC1155",
        "label": "_operatorApprovals",
        "offset": 0,
        "slot": "1",
        "type": "t_mapping(t_address,t_mapping(t_address,t_bool))"
      },
      {
        "astId": 96756,
        "contract": "src/mocks/token/MockERC1155.sol:MockERC1155",
        "label": "_uri",
        "offset": 0,
        "slot": "2",
        "type": "t_string_storage"
      },
      {
        "astId": 95370,
        "contract": "src/mocks/token/MockERC1155.sol:MockERC1155",
        "label": "_roles",
        "offset": 0,
        "slot": "3",
        "type": "t_mapping(t_bytes32,t_struct(RoleData)95365_storage)"
      },
      {
        "astId": 138354,
        "contract": "src/mocks/token/MockERC1155.sol:MockERC1155",
        "label": "_name",
        "offset": 0,
        "slot": "4",
        "type": "t_string_storage"
      },
      {
        "astId": 138356,
        "contract": "src/mocks/token/MockERC1155.sol:MockERC1155",
        "label": "_symbol",
        "offset": 0,
        "slot": "5",
        "type": "t_string_storage"
      }
    ],
    "types": {
      "t_address": {
        "encoding": "inplace",
        "label": "address",
        "numberOfBytes": "20"
      },
      "t_bool": {
        "encoding": "inplace",
        "label": "bool",
        "numberOfBytes": "1"
      },
      "t_bytes32": {
        "encoding": "inplace",
        "label": "bytes32",
        "numberOfBytes": "32"
      },
      "t_mapping(t_address,t_bool)": {
        "encoding": "mapping",
        "key": "t_address",
        "label": "mapping(address => bool)",
        "numberOfBytes": "32",
        "value": "t_bool"
      },
      "t_mapping(t_address,t_mapping(t_address,t_bool))": {
        "encoding": "mapping",
        "key": "t_address",
        "label": "mapping(address => mapping(address => bool))",
        "numberOfBytes": "32",
        "value": "t_mapping(t_address,t_bool)"
      },
      "t_mapping(t_address,t_uint256)": {
        "encoding": "mapping",
        "key": "t_address",
        "label": "mapping(address => uint256)",
        "numberOfBytes": "32",
        "value": "t_uint256"
      },
      "t_mapping(t_bytes32,t_struct(RoleData)95365_storage)": {
        "encoding": "mapping",
        "key": "t_bytes32",
        "label": "mapping(bytes32 => struct AccessControl.RoleData)",
        "numberOfBytes": "32",
        "value": "t_struct(RoleData)95365_storage"
      },
      "t_mapping(t_uint256,t_mapping(t_address,t_uint256))": {
        "encoding": "mapping",
        "key": "t_uint256",
        "label": "mapping(uint256 => mapping(address => uint256))",
        "numberOfBytes": "32",
        "value": "t_mapping(t_address,t_uint256)"
      },
      "t_string_storage": {
        "encoding": "bytes",
        "label": "string",
        "numberOfBytes": "32"
      },
      "t_struct(RoleData)95365_storage": {
        "encoding": "inplace",
        "label": "struct AccessControl.RoleData",
        "numberOfBytes": "64",
        "members": [
          {
            "astId": 95362,
            "contract": "src/mocks/token/MockERC1155.sol:MockERC1155",
            "label": "members",
            "offset": 0,
            "slot": "0",
            "type": "t_mapping(t_address,t_bool)"
          },
          {
            "astId": 95364,
            "contract": "src/mocks/token/MockERC1155.sol:MockERC1155",
            "label": "adminRole",
            "offset": 0,
            "slot": "1",
            "type": "t_bytes32"
          }
        ]
      },
      "t_uint256": {
        "encoding": "inplace",
        "label": "uint256",
        "numberOfBytes": "32"
      }
    }
  },
  "timestamp": 1718248356,
  "userdoc": {
    "version": 1,
    "kind": "user"
  }
}