{
  "abi": [
    {
      "type": "constructor",
      "inputs": [
        {
          "name": "weth_",
          "type": "address",
          "internalType": "address"
        }
      ],
      "stateMutability": "nonpayable"
    },
    {
      "type": "fallback",
      "stateMutability": "payable"
    },
    {
      "type": "receive",
      "stateMutability": "payable"
    },
    {
      "type": "function",
      "name": "unwrap",
      "inputs": [
        {
          "name": "amount",
          "type": "uint256",
          "internalType": "uint256"
        }
      ],
      "outputs": [],
      "stateMutability": "nonpayable"
    },
    {
      "type": "function",
      "name": "unwrapTo",
      "inputs": [
        {
          "name": "amount",
          "type": "uint256",
          "internalType": "uint256"
        },
        {
          "name": "to",
          "type": "address",
          "internalType": "address payable"
        }
      ],
      "outputs": [],
      "stateMutability": "nonpayable"
    },
    {
      "type": "function",
      "name": "weth",
      "inputs": [],
      "outputs": [
        {
          "name": "",
          "type": "address",
          "internalType": "contract IWETH"
        }
      ],
      "stateMutability": "view"
    },
    {
      "type": "error",
      "name": "ErrCannotTransferFrom",
      "inputs": []
    },
    {
      "type": "error",
      "name": "ErrExternalCallFailed",
      "inputs": [
        {
          "name": "sender",
          "type": "address",
          "internalType": "address"
        },
        {
          "name": "sig",
          "type": "bytes4",
          "internalType": "bytes4"
        }
      ]
    },
    {
      "type": "error",
      "name": "ErrNotWrappedContract",
      "inputs": []
    }
  ],
  "address": "0xdbf1c9FB0cb61Ae76901e55c5C04e77d2BE131A1",
  "args": "0x0000000000000000000000001aa1bc6baefcf09d6fd0139b828b5e764d050f08",
  "blockNumber": 5709370,
  "bytecode": "0x60a060405234801561001057600080fd5b5060405161059138038061059183398101604081905261002f91610071565b600160009081556001600160a01b0382163b90036100605760405163155634d360e31b815260040160405180910390fd5b6001600160a01b03166080526100a1565b60006020828403121561008357600080fd5b81516001600160a01b038116811461009a57600080fd5b9392505050565b6080516104c26100cf6000396000818160610152818160ea01528181610237015261030a01526104c26000f3fe6080604052600436106100385760003560e01c80633fc8cef31461004f5780635dbd60591461009f578063de0e9a3e146100bf57610047565b36610047576100456100df565b005b6100456100df565b34801561005b57600080fd5b506100837f000000000000000000000000000000000000000000000000000000000000000081565b6040516001600160a01b03909116815260200160405180910390f35b3480156100ab57600080fd5b506100456100ba366004610408565b61012a565b3480156100cb57600080fd5b506100456100da366004610444565b6101a2565b336001600160a01b037f000000000000000000000000000000000000000000000000000000000000000016146101285760405163155634d360e31b815260040160405180910390fd5b565b6002600054036101815760405162461bcd60e51b815260206004820152601f60248201527f5265656e7472616e637947756172643a207265656e7472616e742063616c6c0060448201526064015b60405180910390fd5b600260005561018f82610214565b6101998183610372565b50506001600055565b6002600054036101f45760405162461bcd60e51b815260206004820152601f60248201527f5265656e7472616e637947756172643a207265656e7472616e742063616c6c006044820152606401610178565b600260005561020281610214565b61020c3382610372565b506001600055565b604051336024820152306044820152606481018290526000906001600160a01b037f0000000000000000000000000000000000000000000000000000000000000000169060840160408051601f198184030181529181526020820180516001600160e01b03166323b872dd60e01b17905251610290919061045d565b6000604051808303816000865af19150503d80600081146102cd576040519150601f19603f3d011682016040523d82523d6000602084013e6102d2565b606091505b50509050806102f4576040516302805e0360e11b815260040160405180910390fd5b604051632e1a7d4d60e01b8152600481018390527f00000000000000000000000000000000000000000000000000000000000000006001600160a01b031690632e1a7d4d90602401600060405180830381600087803b15801561035657600080fd5b505af115801561036a573d6000803e3d6000fd5b505050505050565b6000826001600160a01b03168260405160006040518083038185875af1925050503d80600081146103bf576040519150601f19603f3d011682016040523d82523d6000602084013e6103c4565b606091505b50509050806104035760405163094b984760e21b81526001600160a01b03841660048201526001600160e01b0319600035166024820152604401610178565b505050565b6000806040838503121561041b57600080fd5b8235915060208301356001600160a01b038116811461043957600080fd5b809150509250929050565b60006020828403121561045657600080fd5b5035919050565b6000825160005b8181101561047e5760208186018101518583015201610464565b50600092019182525091905056fea2646970667358221220aaebf21164f6d2f08d44be8bf09fb75965583264b715eb60df75d1b1d0f7cb9e64736f6c63430008170033",
  "chainId": 11155111,
  "contractAbsolutePath": "WethUnwrapper.sol",
  "deployer": "0x968D0Cd7343f711216817E617d3f92a23dC91c07",
  "devdoc": {
    "version": 1,
    "kind": "dev"
  },
  "isFoundry": true,
  "nonce": 24,
  "numDeployments": 2,
  "storageLayout": {
    "storage": [
      {
        "astId": 58453,
        "contract": "src/extensions/WethUnwrapper.sol:WethUnwrapper",
        "label": "_status",
        "offset": 0,
        "slot": "0",
        "type": "t_uint256"
      }
    ],
    "types": {
      "t_uint256": {
        "encoding": "inplace",
        "label": "uint256",
        "numberOfBytes": "32"
      }
    }
  },
  "timestamp": 1713254892,
  "userdoc": {
    "version": 1,
    "kind": "user"
  }
}