{
  "abi": [
    {
      "type": "constructor",
      "inputs": [],
      "stateMutability": "payable"
    },
    {
      "type": "function",
      "name": "execSyncRewardAuto",
      "inputs": [
        {
          "name": "currentPeriod",
          "type": "uint256",
          "internalType": "uint256"
        }
      ],
      "outputs": [],
      "stateMutability": "nonpayable"
    },
    {
      "type": "function",
      "name": "getContract",
      "inputs": [
        {
          "name": "contractType",
          "type": "uint8",
          "internalType": "enum ContractType"
        }
      ],
      "outputs": [
        {
          "name": "contract_",
          "type": "address",
          "internalType": "address"
        }
      ],
      "stateMutability": "view"
    },
    {
      "type": "function",
      "name": "getLatestRewardedPeriod",
      "inputs": [],
      "outputs": [
        {
          "name": "",
          "type": "uint256",
          "internalType": "uint256"
        }
      ],
      "stateMutability": "view"
    },
    {
      "type": "function",
      "name": "getRewardInfo",
      "inputs": [
        {
          "name": "operator",
          "type": "address",
          "internalType": "address"
        }
      ],
      "outputs": [
        {
          "name": "rewardInfo",
          "type": "tuple",
          "internalType": "struct IBridgeRewardEvents.BridgeRewardInfo",
          "components": [
            {
              "name": "claimed",
              "type": "uint256",
              "internalType": "uint256"
            },
            {
              "name": "slashed",
              "type": "uint256",
              "internalType": "uint256"
            }
          ]
        }
      ],
      "stateMutability": "view"
    },
    {
      "type": "function",
      "name": "getRewardPerPeriod",
      "inputs": [],
      "outputs": [
        {
          "name": "",
          "type": "uint256",
          "internalType": "uint256"
        }
      ],
      "stateMutability": "view"
    },
    {
      "type": "function",
      "name": "getTotalRewardScattered",
      "inputs": [],
      "outputs": [
        {
          "name": "",
          "type": "uint256",
          "internalType": "uint256"
        }
      ],
      "stateMutability": "view"
    },
    {
      "type": "function",
      "name": "getTotalRewardToppedUp",
      "inputs": [],
      "outputs": [
        {
          "name": "",
          "type": "uint256",
          "internalType": "uint256"
        }
      ],
      "stateMutability": "view"
    },
    {
      "type": "function",
      "name": "initialize",
      "inputs": [
        {
          "name": "bridgeManagerContract",
          "type": "address",
          "internalType": "address"
        },
        {
          "name": "bridgeTrackingContract",
          "type": "address",
          "internalType": "address"
        },
        {
          "name": "bridgeSlashContract",
          "type": "address",
          "internalType": "address"
        },
        {
          "name": "validatorSetContract",
          "type": "address",
          "internalType": "address"
        },
        {
          "name": "dposGA",
          "type": "address",
          "internalType": "address"
        },
        {
          "name": "rewardPerPeriod",
          "type": "uint256",
          "internalType": "uint256"
        }
      ],
      "outputs": [],
      "stateMutability": "payable"
    },
    {
      "type": "function",
      "name": "initializeREP2",
      "inputs": [],
      "outputs": [],
      "stateMutability": "nonpayable"
    },
    {
      "type": "function",
      "name": "initializeV2",
      "inputs": [],
      "outputs": [],
      "stateMutability": "nonpayable"
    },
    {
      "type": "function",
      "name": "receiveRON",
      "inputs": [],
      "outputs": [],
      "stateMutability": "payable"
    },
    {
      "type": "function",
      "name": "setContract",
      "inputs": [
        {
          "name": "contractType",
          "type": "uint8",
          "internalType": "enum ContractType"
        },
        {
          "name": "addr",
          "type": "address",
          "internalType": "address"
        }
      ],
      "outputs": [],
      "stateMutability": "nonpayable"
    },
    {
      "type": "function",
      "name": "setRewardPerPeriod",
      "inputs": [
        {
          "name": "rewardPerPeriod",
          "type": "uint256",
          "internalType": "uint256"
        }
      ],
      "outputs": [],
      "stateMutability": "nonpayable"
    },
    {
      "type": "function",
      "name": "syncRewardManual",
      "inputs": [
        {
          "name": "periodCount",
          "type": "uint256",
          "internalType": "uint256"
        }
      ],
      "outputs": [],
      "stateMutability": "nonpayable"
    },
    {
      "type": "event",
      "name": "BridgeRewardScatterFailed",
      "inputs": [
        {
          "name": "period",
          "type": "uint256",
          "indexed": true,
          "internalType": "uint256"
        },
        {
          "name": "operator",
          "type": "address",
          "indexed": false,
          "internalType": "address"
        },
        {
          "name": "amount",
          "type": "uint256",
          "indexed": false,
          "internalType": "uint256"
        }
      ],
      "anonymous": false
    },
    {
      "type": "event",
      "name": "BridgeRewardScattered",
      "inputs": [
        {
          "name": "period",
          "type": "uint256",
          "indexed": true,
          "internalType": "uint256"
        },
        {
          "name": "operator",
          "type": "address",
          "indexed": false,
          "internalType": "address"
        },
        {
          "name": "amount",
          "type": "uint256",
          "indexed": false,
          "internalType": "uint256"
        }
      ],
      "anonymous": false
    },
    {
      "type": "event",
      "name": "BridgeRewardSlashed",
      "inputs": [
        {
          "name": "period",
          "type": "uint256",
          "indexed": true,
          "internalType": "uint256"
        },
        {
          "name": "operator",
          "type": "address",
          "indexed": false,
          "internalType": "address"
        },
        {
          "name": "amount",
          "type": "uint256",
          "indexed": false,
          "internalType": "uint256"
        }
      ],
      "anonymous": false
    },
    {
      "type": "event",
      "name": "BridgeRewardSyncTooFarPeriod",
      "inputs": [
        {
          "name": "requestingPeriod",
          "type": "uint256",
          "indexed": false,
          "internalType": "uint256"
        },
        {
          "name": "latestPeriod",
          "type": "uint256",
          "indexed": false,
          "internalType": "uint256"
        }
      ],
      "anonymous": false
    },
    {
      "type": "event",
      "name": "BridgeTrackingIncorrectlyResponded",
      "inputs": [],
      "anonymous": false
    },
    {
      "type": "event",
      "name": "ContractUpdated",
      "inputs": [
        {
          "name": "contractType",
          "type": "uint8",
          "indexed": true,
          "internalType": "enum ContractType"
        },
        {
          "name": "addr",
          "type": "address",
          "indexed": true,
          "internalType": "address"
        }
      ],
      "anonymous": false
    },
    {
      "type": "event",
      "name": "Initialized",
      "inputs": [
        {
          "name": "version",
          "type": "uint8",
          "indexed": false,
          "internalType": "uint8"
        }
      ],
      "anonymous": false
    },
    {
      "type": "event",
      "name": "SafeReceived",
      "inputs": [
        {
          "name": "from",
          "type": "address",
          "indexed": true,
          "internalType": "address"
        },
        {
          "name": "balanceBefore",
          "type": "uint256",
          "indexed": false,
          "internalType": "uint256"
        },
        {
          "name": "amount",
          "type": "uint256",
          "indexed": false,
          "internalType": "uint256"
        }
      ],
      "anonymous": false
    },
    {
      "type": "event",
      "name": "UpdatedRewardPerPeriod",
      "inputs": [
        {
          "name": "newRewardPerPeriod",
          "type": "uint256",
          "indexed": false,
          "internalType": "uint256"
        }
      ],
      "anonymous": false
    },
    {
      "type": "error",
      "name": "ErrContractTypeNotFound",
      "inputs": [
        {
          "name": "contractType",
          "type": "uint8",
          "internalType": "enum ContractType"
        }
      ]
    },
    {
      "type": "error",
      "name": "ErrInsufficientBalance",
      "inputs": [
        {
          "name": "msgSig",
          "type": "bytes4",
          "internalType": "bytes4"
        },
        {
          "name": "currentBalance",
          "type": "uint256",
          "internalType": "uint256"
        },
        {
          "name": "sendAmount",
          "type": "uint256",
          "internalType": "uint256"
        }
      ]
    },
    {
      "type": "error",
      "name": "ErrLengthMismatch",
      "inputs": [
        {
          "name": "msgSig",
          "type": "bytes4",
          "internalType": "bytes4"
        }
      ]
    },
    {
      "type": "error",
      "name": "ErrPeriodAlreadyRewarded",
      "inputs": [
        {
          "name": "currentPeriod",
          "type": "uint256",
          "internalType": "uint256"
        },
        {
          "name": "latestRewardedPeriod",
          "type": "uint256",
          "internalType": "uint256"
        }
      ]
    },
    {
      "type": "error",
      "name": "ErrPeriodCountIsZero",
      "inputs": []
    },
    {
      "type": "error",
      "name": "ErrPeriodNotHappen",
      "inputs": [
        {
          "name": "currentPeriod",
          "type": "uint256",
          "internalType": "uint256"
        },
        {
          "name": "latestRewardedPeriod",
          "type": "uint256",
          "internalType": "uint256"
        },
        {
          "name": "periodCount",
          "type": "uint256",
          "internalType": "uint256"
        }
      ]
    },
    {
      "type": "error",
      "name": "ErrRecipientRevert",
      "inputs": [
        {
          "name": "msgSig",
          "type": "bytes4",
          "internalType": "bytes4"
        }
      ]
    },
    {
      "type": "error",
      "name": "ErrUnauthorized",
      "inputs": [
        {
          "name": "msgSig",
          "type": "bytes4",
          "internalType": "bytes4"
        },
        {
          "name": "expectedRole",
          "type": "uint8",
          "internalType": "enum RoleAccess"
        }
      ]
    },
    {
      "type": "error",
      "name": "ErrUnauthorizedCall",
      "inputs": [
        {
          "name": "msgSig",
          "type": "bytes4",
          "internalType": "bytes4"
        }
      ]
    },
    {
      "type": "error",
      "name": "ErrUnexpectedInternalCall",
      "inputs": [
        {
          "name": "msgSig",
          "type": "bytes4",
          "internalType": "bytes4"
        },
        {
          "name": "expectedContractType",
          "type": "uint8",
          "internalType": "enum ContractType"
        },
        {
          "name": "actual",
          "type": "address",
          "internalType": "address"
        }
      ]
    },
    {
      "type": "error",
      "name": "ErrZeroCodeContract",
      "inputs": [
        {
          "name": "addr",
          "type": "address",
          "internalType": "address"
        }
      ]
    }
  ],
  "address": "0x7bEB0f3fC4002C4542015cFa9023dEE1A9EC9400",
  "args": "0x",
  "blockNumber": 26515571,
  "bytecode": "0x60a060405230608052610010610015565b6100d5565b600054610100900460ff16156100815760405162461bcd60e51b815260206004820152602760248201527f496e697469616c697a61626c653a20636f6e747261637420697320696e697469604482015266616c697a696e6760c81b606482015260840160405180910390fd5b60005460ff90811610156100d3576000805460ff191660ff9081179091556040519081527f7f26b83ff96e1f2b6a682f133852f6798a09c465da95921460cefb38474024989060200160405180910390a15b565b6080516118666100f06000396000610bc701526118666000f3fe6080604052600436106100dd5760003560e01c80638f7c34a21161007f578063ad43663e11610059578063ad43663e14610261578063b77f2a4014610276578063de981f1b14610296578063f5dbc4ee146102ce57600080fd5b80638f7c34a21461021957806395b6ef0c1461022e578063a6bd67881461024157600080fd5b80633b154455116100bb5780633b154455146101c757806359f778df146101dc5780635cd8a76b146101e4578063865e6fd3146101f957600080fd5b806306032d74146100e257806333b3ea6c1461018257806334087952146101a4575b600080fd5b3480156100ee57600080fd5b506101626100fd366004611335565b604080518082018252600080825260209182018190526001600160a01b039390931683527f518cfd198acbffe95e740cfce1af28a3f7de51f0d784893d3d72c5cc59d7062a815291819020815180830190925280548252600101549181019190915290565b604080518251815260209283015192810192909252015b60405180910390f35b34801561018e57600080fd5b506101a261019d366004611352565b6102e3565b005b3480156101b057600080fd5b506101b9610399565b604051908152602001610179565b3480156101d357600080fd5b506101a26103c8565b6101a26104bb565b3480156101f057600080fd5b506101a26104c5565b34801561020557600080fd5b506101a261021436600461137a565b610593565b34801561022557600080fd5b506101b96105ae565b6101a261023c3660046113b1565b6105c6565b34801561024d57600080fd5b506101a261025c366004611352565b6106e9565b34801561026d57600080fd5b506101b96106fd565b34801561028257600080fd5b506101a2610291366004611352565b610727565b3480156102a257600080fd5b506102b66102b136600461142a565b61073d565b6040516001600160a01b039091168152602001610179565b3480156102da57600080fd5b506101b96107b8565b6102ec336107e2565b61031c57604051638f47e7e360e01b81526001600160e01b03196000351660048201526024015b60405180910390fd5b6000610328600861073d565b6001600160a01b031663060406186040518163ffffffff1660e01b8152600401602060405180830381865afa158015610365573d6000803e3d6000fd5b505050506040513d601f19601f820116820180604052508101906103899190611445565b90506103958183610860565b5050565b60006103c37f3663384f6436b31a97d9c9a02f64ab8b73ead575c5b6224fa0800a6bd57f62f45490565b905090565b60046103d381610acd565b6000196103de6105ae565b146104205760405162461bcd60e51b815260206004820152601260248201527130b63932b0b23c9034b734ba103932b8101960711b6044820152606401610313565b6104ac600161042f600861073d565b6001600160a01b031663060406186040518163ffffffff1660e01b8152600401602060405180830381865afa15801561046c573d6000803e3d6000fd5b505050506040513d601f19601f820116820180604052508101906104909190611445565b61049a9190611474565b60008051602061181183398151915255565b6104b860046000610b19565b50565b6104c3610bbd565b565b600054600290610100900460ff161580156104e7575060005460ff8083169116105b6105035760405162461bcd60e51b815260040161031390611487565b6000805461ffff191660ff8316176101001790556105417faf260ffaff563b9407c1c5fe4aec2be8632142d158c44bb0ce4d471cb4883b8c60059055565b61054e60016104906105ae565b6000805461ff001916905560405160ff821681527f7f26b83ff96e1f2b6a682f133852f6798a09c465da95921460cefb3847402498906020015b60405180910390a150565b61059b610c9e565b6105a481610cf8565b6103958282610b19565b60006103c36000805160206118118339815191525490565b600054610100900460ff16158080156105e65750600054600160ff909116105b806106005750303b158015610600575060005460ff166001145b61061c5760405162461bcd60e51b815260040161031390611487565b6000805460ff19166001179055801561063f576000805461ff0019166101001790555b61064a600b88610b19565b610655600387610b19565b610660600c86610b19565b61066b600885610b19565b610676600484610b19565b6000196000805160206118118339815191525561069282610d2e565b61069a610bbd565b80156106e0576000805461ff0019169055604051600181527f7f26b83ff96e1f2b6a682f133852f6798a09c465da95921460cefb38474024989060200160405180910390a15b50505050505050565b600b6106f481610acd565b61039582610d2e565b60006103c37f90f7d557245e5dd9485f463e58974fa7cdc93c0abbd0a1afebb8f9640ec739105490565b600361073281610acd565b610395826000610860565b60007fdea3103d22025c269050bea94c0c84688877f12fa22b7e6d2d5d78a9a49aa1cb600083600f811115610774576107746114d5565b60ff1681526020810191909152604001600020546001600160a01b03169050806107b3578160405163409140df60e11b815260040161031391906114ff565b919050565b60006103c37f9a8c9f129792436c37b7bd2d79c56132fc05bf26cc8070794648517c2a0c6c645490565b60006107ee600b61073d565b604051635a02d57960e11b81526001600160a01b038481166004830152919091169063b405aaf290602401602060405180830381865afa158015610836573d6000803e3d6000fd5b505050506040513d601f19601f8201168201806040525081019061085a919061150d565b92915050565b600061086a6105ae565b9050816000036108cc5760008184111561089757600161088a8386611474565b6108949190611474565b90505b6108c8816108c37faf260ffaff563b9407c1c5fe4aec2be8632142d158c44bb0ce4d471cb4883b8c5490565b610d87565b9250505b6108d7838383610d9f565b60006108e3600b61073d565b6001600160a01b0316639b19dbfd6040518163ffffffff1660e01b8152600401600060405180830381865afa158015610920573d6000803e3d6000fd5b505050506040513d6000823e601f3d908101601f19168201604052610948919081019061159a565b90506000610956600361073d565b905060005b84811015610ac55761096c84611639565b9350610abd83836001600160a01b031663f67e815287876040518363ffffffff1660e01b81526004016109a0929190611697565b600060405180830381865afa1580156109bd573d6000803e3d6000fd5b505050506040513d6000823e601f3d908101601f191682016040526109e591908101906116b0565b60405163692f6a6360e11b8152600481018890526001600160a01b0386169063d25ed4c690602401602060405180830381865afa158015610a2a573d6000803e3d6000fd5b505050506040513d601f19601f82011682018060405250810190610a4e9190611445565b604051637153af9b60e11b8152600481018990526001600160a01b0387169063e2a75f3690602401602060405180830381865afa158015610a93573d6000803e3d6000fd5b505050506040513d601f19601f82011682018060405250810190610ab79190611445565b88610e33565b60010161095b565b505050505050565b610ad68161073d565b6001600160a01b0316336001600160a01b0316146104b8576000356001600160e01b03191681336040516320e0f98d60e21b815260040161031393929190611736565b807fdea3103d22025c269050bea94c0c84688877f12fa22b7e6d2d5d78a9a49aa1cb600084600f811115610b4f57610b4f6114d5565b60ff168152602081019190915260400160002080546001600160a01b0319166001600160a01b03928316179055811682600f811115610b9057610b906114d5565b6040517f865d1c228a8ea13709cfe61f346f7ff67f1bbd4a18ff31ad3e7147350d317c5990600090a35050565b6001600160a01b037f0000000000000000000000000000000000000000000000000000000000000000163003610c1457604051638f47e7e360e01b81526001600160e01b0319600035166004820152602401610313565b337f7ae161a1f0ef2537f5ff1957021a50412e72abdc6a941a77d99361e91e7f3c3d610c5e7f9a8c9f129792436c37b7bd2d79c56132fc05bf26cc8070794648517c2a0c6c645490565b604080519182523460208301520160405180910390a26104b87f9a8c9f129792436c37b7bd2d79c56132fc05bf26cc8070794648517c2a0c6c6434610f8a565b7fb53127684a568b3173ae13b9f8a6016e243e63b6e8ee1178d6a717850b5d6103546001600160a01b031633146104c3576000356001600160e01b0319166001604051620f948f60ea1b815260040161031392919061176d565b806001600160a01b03163b6000036104b857604051630bfc64a360e21b81526001600160a01b0382166004820152602401610313565b610d577f90f7d557245e5dd9485f463e58974fa7cdc93c0abbd0a1afebb8f9640ec73910829055565b6040518181527f9b40b647582311cc8f5f7d27e7ce206d126605d1625b8299b7edaeefd869ef2590602001610588565b6000818310610d965781610d98565b825b9392505050565b81600003610dc05760405163799ffe0d60e01b815260040160405180910390fd5b610dcb81600161179b565b8311610df45760405163425a5b1f60e01b81526004810184905260248101829052604401610313565b610dfe828261179b565b8311610e2e57604051630931302b60e31b8152600481018490526024810182905260448101839052606401610313565b505050565b845184518114610e64576040516306b5667560e21b81526001600160e01b0319600035166004820152602401610313565b6000610e6e6106fd565b90506000610e7b88610fa1565b90506000610e8a87878a61101f565b90506000806000805b87811015610f3957610edc8589898f8581518110610eb357610eb36117ae565b60200260200101518f8e8c8881518110610ecf57610ecf6117ae565b6020026020010151611072565b80945081955050506000610f0b8a8f8481518110610efc57610efc6117ae565b60200260200101518787611093565b90508380610f17575080155b610f215784610f24565b60005b610f2e908461179b565b925050600101610e93565b50610f647f3663384f6436b31a97d9c9a02f64ab8b73ead575c5b6224fa0800a6bd57f62f482610f8a565b50610f7c600080516020611811833981519152899055565b505050505050505050505050565b600061085a83610f9a85856111f9565b9250829055565b6060610fad600c61073d565b6001600160a01b0316635311153b836040518263ffffffff1660e01b8152600401610fd891906117c4565b6000604051808303816000875af1158015610ff7573d6000803e3d6000fd5b505050506040513d6000823e601f3d908101601f1916820160405261085a91908101906116b0565b60008061102d858585611218565b90508061105e576040517f64ba7143ea5a17abea37667aa9ae137e3afba5033c5f504770c02829c128189c90600090a15b801580611069575084155b95945050505050565b6000828210156110858989898989611295565b915097509795505050505050565b6001600160a01b03831660009081527f518cfd198acbffe95e740cfce1af28a3f7de51f0d784893d3d72c5cc59d7062a60205260408120821561113857838160010160008282546110e4919061179b565b9091555050604080516001600160a01b03871681526020810186905287917fb3d061c3ef3991b0d4b09f4c8b551d137c3d1e014cf5326462d3d1f6a8dfb9c291015b60405180910390a260009150506111f1565b611144858560006112c0565b156111b0578381600001600082825461115d919061179b565b9091555050604080516001600160a01b03871681526020810186905287917fbab0baccb39371d4d5206b519fe58d21cae9cdd63a1d1b5146ecdf405fd93152910160405180910390a260019150506111f1565b604080516001600160a01b03871681526020810186905287917f74b217634c5a7790ce69770c5e35019970453d4da3973769e7d6cdb7ce6816a19101611126565b949350505050565b815481018181101561085a57634e487b7160005260116020526024601cfd5b8051600190600090815b8181101561127d578585828151811061123d5761123d6117ae565b60200260200101511115611254576000935061127d565b848181518110611266576112666117ae565b602002602001015183019250806001019050611222565b5082801561128b5750858211155b9695505050505050565b6000856112b657816112a784866117d7565b6112b191906117ee565b61128b565b61128b85856117ee565b6000836001600160a01b0316838390604051600060405180830381858888f193505050503d8060008114611310576040519150601f19603f3d011682016040523d82523d6000602084013e611315565b606091505b509095945050505050565b6001600160a01b03811681146104b857600080fd5b60006020828403121561134757600080fd5b8135610d9881611320565b60006020828403121561136457600080fd5b5035919050565b8035601081106107b357600080fd5b6000806040838503121561138d57600080fd5b6113968361136b565b915060208301356113a681611320565b809150509250929050565b60008060008060008060c087890312156113ca57600080fd5b86356113d581611320565b955060208701356113e581611320565b945060408701356113f581611320565b9350606087013561140581611320565b9250608087013561141581611320565b8092505060a087013590509295509295509295565b60006020828403121561143c57600080fd5b610d988261136b565b60006020828403121561145757600080fd5b5051919050565b634e487b7160e01b600052601160045260246000fd5b8181038181111561085a5761085a61145e565b6020808252602e908201527f496e697469616c697a61626c653a20636f6e747261637420697320616c72656160408201526d191e481a5b9a5d1a585b1a5e995960921b606082015260800190565b634e487b7160e01b600052602160045260246000fd5b601081106114fb576114fb6114d5565b9052565b6020810161085a82846114eb565b60006020828403121561151f57600080fd5b81518015158114610d9857600080fd5b634e487b7160e01b600052604160045260246000fd5b604051601f8201601f1916810167ffffffffffffffff8111828210171561156e5761156e61152f565b604052919050565b600067ffffffffffffffff8211156115905761159061152f565b5060051b60200190565b600060208083850312156115ad57600080fd5b825167ffffffffffffffff8111156115c457600080fd5b8301601f810185136115d557600080fd5b80516115e86115e382611576565b611545565b81815260059190911b8201830190838101908783111561160757600080fd5b928401925b8284101561162e57835161161f81611320565b8252928401929084019061160c565b979650505050505050565b60006001820161164b5761164b61145e565b5060010190565b60008151808452602080850194506020840160005b8381101561168c5781516001600160a01b031687529582019590820190600101611667565b509495945050505050565b8281526040602082015260006111f16040830184611652565b600060208083850312156116c357600080fd5b825167ffffffffffffffff8111156116da57600080fd5b8301601f810185136116eb57600080fd5b80516116f96115e382611576565b81815260059190911b8201830190838101908783111561171857600080fd5b928401925b8284101561162e5783518252928401929084019061171d565b6001600160e01b0319841681526060810161175460208301856114eb565b6001600160a01b03929092166040919091015292915050565b6001600160e01b03198316815260408101600b831061178e5761178e6114d5565b8260208301529392505050565b8082018082111561085a5761085a61145e565b634e487b7160e01b600052603260045260246000fd5b602081526000610d986020830184611652565b808202811582820484141761085a5761085a61145e565b60008261180b57634e487b7160e01b600052601260045260246000fd5b50049056fe2417f25874c1cdc139a787dd21df976d40d767090442b3a2496917ecfc93b619a2646970667358221220cd237faf10660b4bf88f4dcc843cf0b3d4cce585ad7f99199ed3924ea16b8dfd64736f6c63430008170033",
  "chainId": 2021,
  "contractAbsolutePath": "BridgeReward.sol",
  "deployer": "0x968D0Cd7343f711216817E617d3f92a23dC91c07",
  "devdoc": {
    "version": 1,
    "kind": "dev",
    "methods": {
      "execSyncRewardAuto(uint256)": {
        "details": "Invoke calculate and transfer reward to operators based on their performance. Requirements: - This method is only called once each period. - The caller must be the bridge tracking contract"
      },
      "getContract(uint8)": {
        "details": "Returns the address of a contract with a specific role. Throws an error if no contract is set for the specified role.",
        "params": {
          "contractType": "The role of the contract to retrieve."
        },
        "returns": {
          "contract_": "The address of the contract with the specified role."
        }
      },
      "getLatestRewardedPeriod()": {
        "details": "External function to retrieve the latest rewarded period in the contract."
      },
      "getRewardInfo(address)": {
        "details": "Returns the claimed and slashed reward amount of the `operator`."
      },
      "getRewardPerPeriod()": {
        "details": "Getter for all bridge operators per period."
      },
      "getTotalRewardScattered()": {
        "details": "Returns the total reward amount scattered to the operators, excluding the slashed reward and failed-to-transfer reward."
      },
      "getTotalRewardToppedUp()": {
        "details": "Returns the total amount of rewards that have been topped up in the contract."
      },
      "initializeREP2()": {
        "details": "Helper for running upgrade script, required to only revoked once by the DPoS's governance admin. The following must be assured after initializing REP2: ```     {BridgeTracking}._lastSyncPeriod     == {BridgeReward}.latestRewardedPeriod     == {RoninValidatorSet}.currentPeriod() ```"
      },
      "initializeV2()": {
        "details": "The following must be assured after initializing V2: ```     {BridgeTracking}._lastSyncPeriod     == {RoninValidatorSet}.currentPeriod()     == {BridgeReward}.latestRewardedPeriod + 1 ```"
      },
      "receiveRON()": {
        "details": "Receives RON from any address."
      },
      "setContract(uint8,address)": {
        "details": "Sets the address of a contract with a specific role. Emits the event {ContractUpdated}.",
        "params": {
          "addr": "The address of the contract to set.",
          "contractType": "The role of the contract to set."
        }
      },
      "setRewardPerPeriod(uint256)": {
        "details": "Setter for all bridge operators per period."
      },
      "syncRewardManual(uint256)": {
        "details": "This function allows bridge operators to manually synchronize the reward for a given period length.",
        "params": {
          "periodCount": "The length of the reward period for which synchronization is requested."
        }
      }
    },
    "events": {
      "BridgeRewardScatterFailed(uint256,address,uint256)": {
        "details": "Event emitted when the reward of the `operator` is scattered with `amount` but failed to transfer."
      },
      "BridgeRewardScattered(uint256,address,uint256)": {
        "details": "Event emitted when the reward of the `operator` is scattered with `amount`."
      },
      "BridgeRewardSlashed(uint256,address,uint256)": {
        "details": "Event emitted when the reward of the `operator` is slashed with `amount`."
      },
      "BridgeRewardSyncTooFarPeriod(uint256,uint256)": {
        "details": "Event emitted when the requesting period to sync  is too far."
      },
      "BridgeTrackingIncorrectlyResponded()": {
        "details": "Event emited when the bridge tracking contract tracks the invalid data, cause malform in sharing bridge reward."
      },
      "ContractUpdated(uint8,address)": {
        "details": "Emitted when a contract is updated."
      },
      "Initialized(uint8)": {
        "details": "Triggered when the contract has been initialized or reinitialized."
      },
      "SafeReceived(address,uint256,uint256)": {
        "details": "Emitted when RON are safely received as rewards in the contract.",
        "params": {
          "amount": "The amount of RON received.",
          "balanceBefore": "The balance of the contract before receiving the RON tokens.",
          "from": "The address of the sender who transferred RON tokens as rewards."
        }
      },
      "UpdatedRewardPerPeriod(uint256)": {
        "details": "Event emitted when the reward per period config is updated."
      }
    },
    "errors": {
      "ErrContractTypeNotFound(uint8)": [
        {
          "details": "Error of invalid role."
        }
      ],
      "ErrInsufficientBalance(bytes4,uint256,uint256)": [
        {
          "details": "Error of sender has insufficient balance."
        }
      ],
      "ErrLengthMismatch(bytes4)": [
        {
          "details": "Error indicating a mismatch in the length of input parameters or arrays for a specific function.",
          "params": {
            "msgSig": "The function signature (bytes4) that has a length mismatch."
          }
        }
      ],
      "ErrRecipientRevert(bytes4)": [
        {
          "details": "Error of recipient not accepting RON when transfer RON."
        }
      ],
      "ErrUnauthorized(bytes4,uint8)": [
        {
          "details": "Error indicating that the caller is unauthorized to perform a specific function.",
          "params": {
            "expectedRole": "The role required to perform the function.",
            "msgSig": "The function signature (bytes4) that the caller is unauthorized to perform."
          }
        }
      ],
      "ErrUnauthorizedCall(bytes4)": [
        {
          "details": "Error indicating that the caller is unauthorized to perform a specific function.",
          "params": {
            "msgSig": "The function signature (bytes4) that the caller is unauthorized to perform."
          }
        }
      ],
      "ErrUnexpectedInternalCall(bytes4,uint8,address)": [
        {
          "details": "Error indicating that the caller is unauthorized to perform a specific function.",
          "params": {
            "actual": "The actual address that called to the function.",
            "expectedContractType": "The contract type required to perform the function.",
            "msgSig": "The function signature (bytes4)."
          }
        }
      ],
      "ErrZeroCodeContract(address)": [
        {
          "details": "Error of set to non-contract."
        }
      ]
    }
  },
  "isFoundry": true,
  "nonce": 192808,
  "numDeployments": 3,
  "storageLayout": {
    "storage": [
      {
        "astId": 58190,
        "contract": "src/ronin/gateway/BridgeReward.sol:BridgeReward",
        "label": "_initialized",
        "offset": 0,
        "slot": "0",
        "type": "t_uint8"
      },
      {
        "astId": 58193,
        "contract": "src/ronin/gateway/BridgeReward.sol:BridgeReward",
        "label": "_initializing",
        "offset": 1,
        "slot": "0",
        "type": "t_bool"
      }
    ],
    "types": {
      "t_bool": {
        "encoding": "inplace",
        "label": "bool",
        "numberOfBytes": "1"
      },
      "t_uint8": {
        "encoding": "inplace",
        "label": "uint8",
        "numberOfBytes": "1"
      }
    }
  },
  "timestamp": 1713251844,
  "userdoc": {
    "version": 1,
    "kind": "user"
  }
}