{
  "abi": [
    {
      "type": "constructor",
      "inputs": [],
      "stateMutability": "nonpayable"
    },
    {
      "type": "fallback",
      "stateMutability": "payable"
    },
    {
      "type": "receive",
      "stateMutability": "payable"
    },
    {
      "type": "function",
      "name": "DEFAULT_ADMIN_ROLE",
      "inputs": [],
      "outputs": [
        {
          "name": "",
          "type": "bytes32",
          "internalType": "bytes32"
        }
      ],
      "stateMutability": "view"
    },
    {
      "type": "function",
      "name": "bulkRequestWithdrawalFor",
      "inputs": [
        {
          "name": "requests",
          "type": "tuple[]",
          "internalType": "struct Transfer.Request[]",
          "components": [
            {
              "name": "recipientAddr",
              "type": "address",
              "internalType": "address"
            },
            {
              "name": "tokenAddr",
              "type": "address",
              "internalType": "address"
            },
            {
              "name": "info",
              "type": "tuple",
              "internalType": "struct TokenInfo",
              "components": [
                {
                  "name": "erc",
                  "type": "uint8",
                  "internalType": "enum TokenStandard"
                },
                {
                  "name": "id",
                  "type": "uint256",
                  "internalType": "uint256"
                },
                {
                  "name": "quantity",
                  "type": "uint256",
                  "internalType": "uint256"
                }
              ]
            }
          ]
        },
        {
          "name": "chainId",
          "type": "uint256",
          "internalType": "uint256"
        }
      ],
      "outputs": [],
      "stateMutability": "nonpayable"
    },
    {
      "type": "function",
      "name": "bulkSubmitWithdrawalSignatures",
      "inputs": [
        {
          "name": "withdrawals",
          "type": "uint256[]",
          "internalType": "uint256[]"
        },
        {
          "name": "signatures",
          "type": "bytes[]",
          "internalType": "bytes[]"
        }
      ],
      "outputs": [],
      "stateMutability": "nonpayable"
    },
    {
      "type": "function",
      "name": "checkThreshold",
      "inputs": [
        {
          "name": "_voteWeight",
          "type": "uint256",
          "internalType": "uint256"
        }
      ],
      "outputs": [
        {
          "name": "",
          "type": "bool",
          "internalType": "bool"
        }
      ],
      "stateMutability": "view"
    },
    {
      "type": "function",
      "name": "depositFor",
      "inputs": [
        {
          "name": "_receipt",
          "type": "tuple",
          "internalType": "struct Transfer.Receipt",
          "components": [
            {
              "name": "id",
              "type": "uint256",
              "internalType": "uint256"
            },
            {
              "name": "kind",
              "type": "uint8",
              "internalType": "enum Transfer.Kind"
            },
            {
              "name": "mainchain",
              "type": "tuple",
              "internalType": "struct TokenOwner",
              "components": [
                {
                  "name": "addr",
                  "type": "address",
                  "internalType": "address"
                },
                {
                  "name": "tokenAddr",
                  "type": "address",
                  "internalType": "address"
                },
                {
                  "name": "chainId",
                  "type": "uint256",
                  "internalType": "uint256"
                }
              ]
            },
            {
              "name": "ronin",
              "type": "tuple",
              "internalType": "struct TokenOwner",
              "components": [
                {
                  "name": "addr",
                  "type": "address",
                  "internalType": "address"
                },
                {
                  "name": "tokenAddr",
                  "type": "address",
                  "internalType": "address"
                },
                {
                  "name": "chainId",
                  "type": "uint256",
                  "internalType": "uint256"
                }
              ]
            },
            {
              "name": "info",
              "type": "tuple",
              "internalType": "struct TokenInfo",
              "components": [
                {
                  "name": "erc",
                  "type": "uint8",
                  "internalType": "enum TokenStandard"
                },
                {
                  "name": "id",
                  "type": "uint256",
                  "internalType": "uint256"
                },
                {
                  "name": "quantity",
                  "type": "uint256",
                  "internalType": "uint256"
                }
              ]
            }
          ]
        }
      ],
      "outputs": [],
      "stateMutability": "nonpayable"
    },
    {
      "type": "function",
      "name": "depositVote",
      "inputs": [
        {
          "name": "",
          "type": "uint256",
          "internalType": "uint256"
        },
        {
          "name": "",
          "type": "uint256",
          "internalType": "uint256"
        }
      ],
      "outputs": [
        {
          "name": "status",
          "type": "uint8",
          "internalType": "enum VoteStatusConsumer.VoteStatus"
        },
        {
          "name": "finalHash",
          "type": "bytes32",
          "internalType": "bytes32"
        },
        {
          "name": "expiredAt",
          "type": "uint256",
          "internalType": "uint256"
        },
        {
          "name": "createdAt",
          "type": "uint256",
          "internalType": "uint256"
        }
      ],
      "stateMutability": "view"
    },
    {
      "type": "function",
      "name": "depositVoted",
      "inputs": [
        {
          "name": "_chainId",
          "type": "uint256",
          "internalType": "uint256"
        },
        {
          "name": "_depositId",
          "type": "uint256",
          "internalType": "uint256"
        },
        {
          "name": "_voter",
          "type": "address",
          "internalType": "address"
        }
      ],
      "outputs": [
        {
          "name": "",
          "type": "bool",
          "internalType": "bool"
        }
      ],
      "stateMutability": "view"
    },
    {
      "type": "function",
      "name": "emergencyPauser",
      "inputs": [],
      "outputs": [
        {
          "name": "",
          "type": "address",
          "internalType": "address"
        }
      ],
      "stateMutability": "view"
    },
    {
      "type": "function",
      "name": "getContract",
      "inputs": [
        {
          "name": "contractType",
          "type": "uint8",
          "internalType": "enum ContractType"
        }
      ],
      "outputs": [
        {
          "name": "contract_",
          "type": "address",
          "internalType": "address"
        }
      ],
      "stateMutability": "view"
    },
    {
      "type": "function",
      "name": "getMainchainToken",
      "inputs": [
        {
          "name": "_roninToken",
          "type": "address",
          "internalType": "address"
        },
        {
          "name": "_chainId",
          "type": "uint256",
          "internalType": "uint256"
        }
      ],
      "outputs": [
        {
          "name": "_token",
          "type": "tuple",
          "internalType": "struct MappedTokenConsumer.MappedToken",
          "components": [
            {
              "name": "erc",
              "type": "uint8",
              "internalType": "enum TokenStandard"
            },
            {
              "name": "tokenAddr",
              "type": "address",
              "internalType": "address"
            }
          ]
        }
      ],
      "stateMutability": "view"
    },
    {
      "type": "function",
      "name": "getRoleAdmin",
      "inputs": [
        {
          "name": "role",
          "type": "bytes32",
          "internalType": "bytes32"
        }
      ],
      "outputs": [
        {
          "name": "",
          "type": "bytes32",
          "internalType": "bytes32"
        }
      ],
      "stateMutability": "view"
    },
    {
      "type": "function",
      "name": "getRoleMember",
      "inputs": [
        {
          "name": "role",
          "type": "bytes32",
          "internalType": "bytes32"
        },
        {
          "name": "index",
          "type": "uint256",
          "internalType": "uint256"
        }
      ],
      "outputs": [
        {
          "name": "",
          "type": "address",
          "internalType": "address"
        }
      ],
      "stateMutability": "view"
    },
    {
      "type": "function",
      "name": "getRoleMemberCount",
      "inputs": [
        {
          "name": "role",
          "type": "bytes32",
          "internalType": "bytes32"
        }
      ],
      "outputs": [
        {
          "name": "",
          "type": "uint256",
          "internalType": "uint256"
        }
      ],
      "stateMutability": "view"
    },
    {
      "type": "function",
      "name": "getThreshold",
      "inputs": [],
      "outputs": [
        {
          "name": "num_",
          "type": "uint256",
          "internalType": "uint256"
        },
        {
          "name": "denom_",
          "type": "uint256",
          "internalType": "uint256"
        }
      ],
      "stateMutability": "view"
    },
    {
      "type": "function",
      "name": "getTrustedThreshold",
      "inputs": [],
      "outputs": [
        {
          "name": "trustedNum_",
          "type": "uint256",
          "internalType": "uint256"
        },
        {
          "name": "trustedDenom_",
          "type": "uint256",
          "internalType": "uint256"
        }
      ],
      "stateMutability": "view"
    },
    {
      "type": "function",
      "name": "getWithdrawalSignatures",
      "inputs": [
        {
          "name": "withdrawalId",
          "type": "uint256",
          "internalType": "uint256"
        },
        {
          "name": "operators",
          "type": "address[]",
          "internalType": "address[]"
        }
      ],
      "outputs": [
        {
          "name": "_signatures",
          "type": "bytes[]",
          "internalType": "bytes[]"
        }
      ],
      "stateMutability": "view"
    },
    {
      "type": "function",
      "name": "grantRole",
      "inputs": [
        {
          "name": "role",
          "type": "bytes32",
          "internalType": "bytes32"
        },
        {
          "name": "account",
          "type": "address",
          "internalType": "address"
        }
      ],
      "outputs": [],
      "stateMutability": "nonpayable"
    },
    {
      "type": "function",
      "name": "hasRole",
      "inputs": [
        {
          "name": "role",
          "type": "bytes32",
          "internalType": "bytes32"
        },
        {
          "name": "account",
          "type": "address",
          "internalType": "address"
        }
      ],
      "outputs": [
        {
          "name": "",
          "type": "bool",
          "internalType": "bool"
        }
      ],
      "stateMutability": "view"
    },
    {
      "type": "function",
      "name": "initialize",
      "inputs": [
        {
          "name": "_roleSetter",
          "type": "address",
          "internalType": "address"
        },
        {
          "name": "_numerator",
          "type": "uint256",
          "internalType": "uint256"
        },
        {
          "name": "_denominator",
          "type": "uint256",
          "internalType": "uint256"
        },
        {
          "name": "_trustedNumerator",
          "type": "uint256",
          "internalType": "uint256"
        },
        {
          "name": "_trustedDenominator",
          "type": "uint256",
          "internalType": "uint256"
        },
        {
          "name": "",
          "type": "address[]",
          "internalType": "address[]"
        },
        {
          "name": "_packedAddresses",
          "type": "address[][2]",
          "internalType": "address[][2]"
        },
        {
          "name": "_packedNumbers",
          "type": "uint256[][2]",
          "internalType": "uint256[][2]"
        },
        {
          "name": "_standards",
          "type": "uint8[]",
          "internalType": "enum TokenStandard[]"
        }
      ],
      "outputs": [],
      "stateMutability": "nonpayable"
    },
    {
      "type": "function",
      "name": "initializeV2",
      "inputs": [],
      "outputs": [],
      "stateMutability": "nonpayable"
    },
    {
      "type": "function",
      "name": "initializeV3",
      "inputs": [
        {
          "name": "bridgeAdmin",
          "type": "address",
          "internalType": "address"
        }
      ],
      "outputs": [],
      "stateMutability": "nonpayable"
    },
    {
      "type": "function",
      "name": "mainchainWithdrew",
      "inputs": [
        {
          "name": "_withdrawalId",
          "type": "uint256",
          "internalType": "uint256"
        }
      ],
      "outputs": [
        {
          "name": "",
          "type": "bool",
          "internalType": "bool"
        }
      ],
      "stateMutability": "view"
    },
    {
      "type": "function",
      "name": "mainchainWithdrewVote",
      "inputs": [
        {
          "name": "",
          "type": "uint256",
          "internalType": "uint256"
        }
      ],
      "outputs": [
        {
          "name": "status",
          "type": "uint8",
          "internalType": "enum VoteStatusConsumer.VoteStatus"
        },
        {
          "name": "finalHash",
          "type": "bytes32",
          "internalType": "bytes32"
        },
        {
          "name": "expiredAt",
          "type": "uint256",
          "internalType": "uint256"
        },
        {
          "name": "createdAt",
          "type": "uint256",
          "internalType": "uint256"
        }
      ],
      "stateMutability": "view"
    },
    {
      "type": "function",
      "name": "mainchainWithdrewVoted",
      "inputs": [
        {
          "name": "_withdrawalId",
          "type": "uint256",
          "internalType": "uint256"
        },
        {
          "name": "_voter",
          "type": "address",
          "internalType": "address"
        }
      ],
      "outputs": [
        {
          "name": "",
          "type": "bool",
          "internalType": "bool"
        }
      ],
      "stateMutability": "view"
    },
    {
      "type": "function",
      "name": "mapTokens",
      "inputs": [
        {
          "name": "_roninTokens",
          "type": "address[]",
          "internalType": "address[]"
        },
        {
          "name": "_mainchainTokens",
          "type": "address[]",
          "internalType": "address[]"
        },
        {
          "name": "_chainIds",
          "type": "uint256[]",
          "internalType": "uint256[]"
        },
        {
          "name": "_standards",
          "type": "uint8[]",
          "internalType": "enum TokenStandard[]"
        }
      ],
      "outputs": [],
      "stateMutability": "nonpayable"
    },
    {
      "type": "function",
      "name": "minimumThreshold",
      "inputs": [
        {
          "name": "mainchainToken",
          "type": "address",
          "internalType": "address"
        }
      ],
      "outputs": [
        {
          "name": "",
          "type": "uint256",
          "internalType": "uint256"
        }
      ],
      "stateMutability": "view"
    },
    {
      "type": "function",
      "name": "minimumVoteWeight",
      "inputs": [],
      "outputs": [
        {
          "name": "",
          "type": "uint256",
          "internalType": "uint256"
        }
      ],
      "stateMutability": "view"
    },
    {
      "type": "function",
      "name": "nonce",
      "inputs": [],
      "outputs": [
        {
          "name": "",
          "type": "uint256",
          "internalType": "uint256"
        }
      ],
      "stateMutability": "view"
    },
    {
      "type": "function",
      "name": "onERC1155BatchReceived",
      "inputs": [
        {
          "name": "",
          "type": "address",
          "internalType": "address"
        },
        {
          "name": "",
          "type": "address",
          "internalType": "address"
        },
        {
          "name": "",
          "type": "uint256[]",
          "internalType": "uint256[]"
        },
        {
          "name": "",
          "type": "uint256[]",
          "internalType": "uint256[]"
        },
        {
          "name": "",
          "type": "bytes",
          "internalType": "bytes"
        }
      ],
      "outputs": [
        {
          "name": "",
          "type": "bytes4",
          "internalType": "bytes4"
        }
      ],
      "stateMutability": "nonpayable"
    },
    {
      "type": "function",
      "name": "onERC1155Received",
      "inputs": [
        {
          "name": "",
          "type": "address",
          "internalType": "address"
        },
        {
          "name": "",
          "type": "address",
          "internalType": "address"
        },
        {
          "name": "",
          "type": "uint256",
          "internalType": "uint256"
        },
        {
          "name": "",
          "type": "uint256",
          "internalType": "uint256"
        },
        {
          "name": "",
          "type": "bytes",
          "internalType": "bytes"
        }
      ],
      "outputs": [
        {
          "name": "",
          "type": "bytes4",
          "internalType": "bytes4"
        }
      ],
      "stateMutability": "nonpayable"
    },
    {
      "type": "function",
      "name": "pause",
      "inputs": [],
      "outputs": [],
      "stateMutability": "nonpayable"
    },
    {
      "type": "function",
      "name": "paused",
      "inputs": [],
      "outputs": [
        {
          "name": "",
          "type": "bool",
          "internalType": "bool"
        }
      ],
      "stateMutability": "view"
    },
    {
      "type": "function",
      "name": "renounceRole",
      "inputs": [
        {
          "name": "role",
          "type": "bytes32",
          "internalType": "bytes32"
        },
        {
          "name": "account",
          "type": "address",
          "internalType": "address"
        }
      ],
      "outputs": [],
      "stateMutability": "nonpayable"
    },
    {
      "type": "function",
      "name": "requestWithdrawalFor",
      "inputs": [
        {
          "name": "_request",
          "type": "tuple",
          "internalType": "struct Transfer.Request",
          "components": [
            {
              "name": "recipientAddr",
              "type": "address",
              "internalType": "address"
            },
            {
              "name": "tokenAddr",
              "type": "address",
              "internalType": "address"
            },
            {
              "name": "info",
              "type": "tuple",
              "internalType": "struct TokenInfo",
              "components": [
                {
                  "name": "erc",
                  "type": "uint8",
                  "internalType": "enum TokenStandard"
                },
                {
                  "name": "id",
                  "type": "uint256",
                  "internalType": "uint256"
                },
                {
                  "name": "quantity",
                  "type": "uint256",
                  "internalType": "uint256"
                }
              ]
            }
          ]
        },
        {
          "name": "_chainId",
          "type": "uint256",
          "internalType": "uint256"
        }
      ],
      "outputs": [],
      "stateMutability": "nonpayable"
    },
    {
      "type": "function",
      "name": "requestWithdrawalSignatures",
      "inputs": [
        {
          "name": "_withdrawalId",
          "type": "uint256",
          "internalType": "uint256"
        }
      ],
      "outputs": [],
      "stateMutability": "nonpayable"
    },
    {
      "type": "function",
      "name": "revokeRole",
      "inputs": [
        {
          "name": "role",
          "type": "bytes32",
          "internalType": "bytes32"
        },
        {
          "name": "account",
          "type": "address",
          "internalType": "address"
        }
      ],
      "outputs": [],
      "stateMutability": "nonpayable"
    },
    {
      "type": "function",
      "name": "setContract",
      "inputs": [
        {
          "name": "contractType",
          "type": "uint8",
          "internalType": "enum ContractType"
        },
        {
          "name": "addr",
          "type": "address",
          "internalType": "address"
        }
      ],
      "outputs": [],
      "stateMutability": "nonpayable"
    },
    {
      "type": "function",
      "name": "setEmergencyPauser",
      "inputs": [
        {
          "name": "_addr",
          "type": "address",
          "internalType": "address"
        }
      ],
      "outputs": [],
      "stateMutability": "nonpayable"
    },
    {
      "type": "function",
      "name": "setMinimumThresholds",
      "inputs": [
        {
          "name": "_tokens",
          "type": "address[]",
          "internalType": "address[]"
        },
        {
          "name": "_thresholds",
          "type": "uint256[]",
          "internalType": "uint256[]"
        }
      ],
      "outputs": [],
      "stateMutability": "nonpayable"
    },
    {
      "type": "function",
      "name": "setThreshold",
      "inputs": [
        {
          "name": "_numerator",
          "type": "uint256",
          "internalType": "uint256"
        },
        {
          "name": "_denominator",
          "type": "uint256",
          "internalType": "uint256"
        }
      ],
      "outputs": [],
      "stateMutability": "nonpayable"
    },
    {
      "type": "function",
      "name": "setTrustedThreshold",
      "inputs": [
        {
          "name": "_trustedNumerator",
          "type": "uint256",
          "internalType": "uint256"
        },
        {
          "name": "_trustedDenominator",
          "type": "uint256",
          "internalType": "uint256"
        }
      ],
      "outputs": [
        {
          "name": "",
          "type": "uint256",
          "internalType": "uint256"
        },
        {
          "name": "",
          "type": "uint256",
          "internalType": "uint256"
        }
      ],
      "stateMutability": "nonpayable"
    },
    {
      "type": "function",
      "name": "supportsInterface",
      "inputs": [
        {
          "name": "interfaceId",
          "type": "bytes4",
          "internalType": "bytes4"
        }
      ],
      "outputs": [
        {
          "name": "",
          "type": "bool",
          "internalType": "bool"
        }
      ],
      "stateMutability": "view"
    },
    {
      "type": "function",
      "name": "tryBulkAcknowledgeMainchainWithdrew",
      "inputs": [
        {
          "name": "_withdrawalIds",
          "type": "uint256[]",
          "internalType": "uint256[]"
        }
      ],
      "outputs": [
        {
          "name": "_executedReceipts",
          "type": "bool[]",
          "internalType": "bool[]"
        }
      ],
      "stateMutability": "nonpayable"
    },
    {
      "type": "function",
      "name": "tryBulkDepositFor",
      "inputs": [
        {
          "name": "receipts",
          "type": "tuple[]",
          "internalType": "struct Transfer.Receipt[]",
          "components": [
            {
              "name": "id",
              "type": "uint256",
              "internalType": "uint256"
            },
            {
              "name": "kind",
              "type": "uint8",
              "internalType": "enum Transfer.Kind"
            },
            {
              "name": "mainchain",
              "type": "tuple",
              "internalType": "struct TokenOwner",
              "components": [
                {
                  "name": "addr",
                  "type": "address",
                  "internalType": "address"
                },
                {
                  "name": "tokenAddr",
                  "type": "address",
                  "internalType": "address"
                },
                {
                  "name": "chainId",
                  "type": "uint256",
                  "internalType": "uint256"
                }
              ]
            },
            {
              "name": "ronin",
              "type": "tuple",
              "internalType": "struct TokenOwner",
              "components": [
                {
                  "name": "addr",
                  "type": "address",
                  "internalType": "address"
                },
                {
                  "name": "tokenAddr",
                  "type": "address",
                  "internalType": "address"
                },
                {
                  "name": "chainId",
                  "type": "uint256",
                  "internalType": "uint256"
                }
              ]
            },
            {
              "name": "info",
              "type": "tuple",
              "internalType": "struct TokenInfo",
              "components": [
                {
                  "name": "erc",
                  "type": "uint8",
                  "internalType": "enum TokenStandard"
                },
                {
                  "name": "id",
                  "type": "uint256",
                  "internalType": "uint256"
                },
                {
                  "name": "quantity",
                  "type": "uint256",
                  "internalType": "uint256"
                }
              ]
            }
          ]
        }
      ],
      "outputs": [
        {
          "name": "_executedReceipts",
          "type": "bool[]",
          "internalType": "bool[]"
        }
      ],
      "stateMutability": "nonpayable"
    },
    {
      "type": "function",
      "name": "unpause",
      "inputs": [],
      "outputs": [],
      "stateMutability": "nonpayable"
    },
    {
      "type": "function",
      "name": "withdrawal",
      "inputs": [
        {
          "name": "",
          "type": "uint256",
          "internalType": "uint256"
        }
      ],
      "outputs": [
        {
          "name": "id",
          "type": "uint256",
          "internalType": "uint256"
        },
        {
          "name": "kind",
          "type": "uint8",
          "internalType": "enum Transfer.Kind"
        },
        {
          "name": "mainchain",
          "type": "tuple",
          "internalType": "struct TokenOwner",
          "components": [
            {
              "name": "addr",
              "type": "address",
              "internalType": "address"
            },
            {
              "name": "tokenAddr",
              "type": "address",
              "internalType": "address"
            },
            {
              "name": "chainId",
              "type": "uint256",
              "internalType": "uint256"
            }
          ]
        },
        {
          "name": "ronin",
          "type": "tuple",
          "internalType": "struct TokenOwner",
          "components": [
            {
              "name": "addr",
              "type": "address",
              "internalType": "address"
            },
            {
              "name": "tokenAddr",
              "type": "address",
              "internalType": "address"
            },
            {
              "name": "chainId",
              "type": "uint256",
              "internalType": "uint256"
            }
          ]
        },
        {
          "name": "info",
          "type": "tuple",
          "internalType": "struct TokenInfo",
          "components": [
            {
              "name": "erc",
              "type": "uint8",
              "internalType": "enum TokenStandard"
            },
            {
              "name": "id",
              "type": "uint256",
              "internalType": "uint256"
            },
            {
              "name": "quantity",
              "type": "uint256",
              "internalType": "uint256"
            }
          ]
        }
      ],
      "stateMutability": "view"
    },
    {
      "type": "function",
      "name": "withdrawalCount",
      "inputs": [],
      "outputs": [
        {
          "name": "",
          "type": "uint256",
          "internalType": "uint256"
        }
      ],
      "stateMutability": "view"
    },
    {
      "type": "function",
      "name": "withdrawalStatVote",
      "inputs": [
        {
          "name": "",
          "type": "uint256",
          "internalType": "uint256"
        }
      ],
      "outputs": [
        {
          "name": "status",
          "type": "uint8",
          "internalType": "enum VoteStatusConsumer.VoteStatus"
        },
        {
          "name": "finalHash",
          "type": "bytes32",
          "internalType": "bytes32"
        },
        {
          "name": "expiredAt",
          "type": "uint256",
          "internalType": "uint256"
        },
        {
          "name": "createdAt",
          "type": "uint256",
          "internalType": "uint256"
        }
      ],
      "stateMutability": "view"
    },
    {
      "type": "event",
      "name": "ContractUpdated",
      "inputs": [
        {
          "name": "contractType",
          "type": "uint8",
          "indexed": true,
          "internalType": "enum ContractType"
        },
        {
          "name": "addr",
          "type": "address",
          "indexed": true,
          "internalType": "address"
        }
      ],
      "anonymous": false
    },
    {
      "type": "event",
      "name": "DepositVoted",
      "inputs": [
        {
          "name": "bridgeOperator",
          "type": "address",
          "indexed": true,
          "internalType": "address"
        },
        {
          "name": "id",
          "type": "uint256",
          "indexed": true,
          "internalType": "uint256"
        },
        {
          "name": "chainId",
          "type": "uint256",
          "indexed": true,
          "internalType": "uint256"
        },
        {
          "name": "receiptHash",
          "type": "bytes32",
          "indexed": false,
          "internalType": "bytes32"
        }
      ],
      "anonymous": false
    },
    {
      "type": "event",
      "name": "Deposited",
      "inputs": [
        {
          "name": "receiptHash",
          "type": "bytes32",
          "indexed": false,
          "internalType": "bytes32"
        },
        {
          "name": "receipt",
          "type": "tuple",
          "indexed": false,
          "internalType": "struct Transfer.Receipt",
          "components": [
            {
              "name": "id",
              "type": "uint256",
              "internalType": "uint256"
            },
            {
              "name": "kind",
              "type": "uint8",
              "internalType": "enum Transfer.Kind"
            },
            {
              "name": "mainchain",
              "type": "tuple",
              "internalType": "struct TokenOwner",
              "components": [
                {
                  "name": "addr",
                  "type": "address",
                  "internalType": "address"
                },
                {
                  "name": "tokenAddr",
                  "type": "address",
                  "internalType": "address"
                },
                {
                  "name": "chainId",
                  "type": "uint256",
                  "internalType": "uint256"
                }
              ]
            },
            {
              "name": "ronin",
              "type": "tuple",
              "internalType": "struct TokenOwner",
              "components": [
                {
                  "name": "addr",
                  "type": "address",
                  "internalType": "address"
                },
                {
                  "name": "tokenAddr",
                  "type": "address",
                  "internalType": "address"
                },
                {
                  "name": "chainId",
                  "type": "uint256",
                  "internalType": "uint256"
                }
              ]
            },
            {
              "name": "info",
              "type": "tuple",
              "internalType": "struct TokenInfo",
              "components": [
                {
                  "name": "erc",
                  "type": "uint8",
                  "internalType": "enum TokenStandard"
                },
                {
                  "name": "id",
                  "type": "uint256",
                  "internalType": "uint256"
                },
                {
                  "name": "quantity",
                  "type": "uint256",
                  "internalType": "uint256"
                }
              ]
            }
          ]
        }
      ],
      "anonymous": false
    },
    {
      "type": "event",
      "name": "Initialized",
      "inputs": [
        {
          "name": "version",
          "type": "uint8",
          "indexed": false,
          "internalType": "uint8"
        }
      ],
      "anonymous": false
    },
    {
      "type": "event",
      "name": "MainchainWithdrew",
      "inputs": [
        {
          "name": "receiptHash",
          "type": "bytes32",
          "indexed": false,
          "internalType": "bytes32"
        },
        {
          "name": "receipt",
          "type": "tuple",
          "indexed": false,
          "internalType": "struct Transfer.Receipt",
          "components": [
            {
              "name": "id",
              "type": "uint256",
              "internalType": "uint256"
            },
            {
              "name": "kind",
              "type": "uint8",
              "internalType": "enum Transfer.Kind"
            },
            {
              "name": "mainchain",
              "type": "tuple",
              "internalType": "struct TokenOwner",
              "components": [
                {
                  "name": "addr",
                  "type": "address",
                  "internalType": "address"
                },
                {
                  "name": "tokenAddr",
                  "type": "address",
                  "internalType": "address"
                },
                {
                  "name": "chainId",
                  "type": "uint256",
                  "internalType": "uint256"
                }
              ]
            },
            {
              "name": "ronin",
              "type": "tuple",
              "internalType": "struct TokenOwner",
              "components": [
                {
                  "name": "addr",
                  "type": "address",
                  "internalType": "address"
                },
                {
                  "name": "tokenAddr",
                  "type": "address",
                  "internalType": "address"
                },
                {
                  "name": "chainId",
                  "type": "uint256",
                  "internalType": "uint256"
                }
              ]
            },
            {
              "name": "info",
              "type": "tuple",
              "internalType": "struct TokenInfo",
              "components": [
                {
                  "name": "erc",
                  "type": "uint8",
                  "internalType": "enum TokenStandard"
                },
                {
                  "name": "id",
                  "type": "uint256",
                  "internalType": "uint256"
                },
                {
                  "name": "quantity",
                  "type": "uint256",
                  "internalType": "uint256"
                }
              ]
            }
          ]
        }
      ],
      "anonymous": false
    },
    {
      "type": "event",
      "name": "MinimumThresholdsUpdated",
      "inputs": [
        {
          "name": "tokens",
          "type": "address[]",
          "indexed": false,
          "internalType": "address[]"
        },
        {
          "name": "threshold",
          "type": "uint256[]",
          "indexed": false,
          "internalType": "uint256[]"
        }
      ],
      "anonymous": false
    },
    {
      "type": "event",
      "name": "Paused",
      "inputs": [
        {
          "name": "account",
          "type": "address",
          "indexed": false,
          "internalType": "address"
        }
      ],
      "anonymous": false
    },
    {
      "type": "event",
      "name": "RoleAdminChanged",
      "inputs": [
        {
          "name": "role",
          "type": "bytes32",
          "indexed": true,
          "internalType": "bytes32"
        },
        {
          "name": "previousAdminRole",
          "type": "bytes32",
          "indexed": true,
          "internalType": "bytes32"
        },
        {
          "name": "newAdminRole",
          "type": "bytes32",
          "indexed": true,
          "internalType": "bytes32"
        }
      ],
      "anonymous": false
    },
    {
      "type": "event",
      "name": "RoleGranted",
      "inputs": [
        {
          "name": "role",
          "type": "bytes32",
          "indexed": true,
          "internalType": "bytes32"
        },
        {
          "name": "account",
          "type": "address",
          "indexed": true,
          "internalType": "address"
        },
        {
          "name": "sender",
          "type": "address",
          "indexed": true,
          "internalType": "address"
        }
      ],
      "anonymous": false
    },
    {
      "type": "event",
      "name": "RoleRevoked",
      "inputs": [
        {
          "name": "role",
          "type": "bytes32",
          "indexed": true,
          "internalType": "bytes32"
        },
        {
          "name": "account",
          "type": "address",
          "indexed": true,
          "internalType": "address"
        },
        {
          "name": "sender",
          "type": "address",
          "indexed": true,
          "internalType": "address"
        }
      ],
      "anonymous": false
    },
    {
      "type": "event",
      "name": "ThresholdUpdated",
      "inputs": [
        {
          "name": "nonce",
          "type": "uint256",
          "indexed": true,
          "internalType": "uint256"
        },
        {
          "name": "numerator",
          "type": "uint256",
          "indexed": true,
          "internalType": "uint256"
        },
        {
          "name": "denominator",
          "type": "uint256",
          "indexed": true,
          "internalType": "uint256"
        },
        {
          "name": "previousNumerator",
          "type": "uint256",
          "indexed": false,
          "internalType": "uint256"
        },
        {
          "name": "previousDenominator",
          "type": "uint256",
          "indexed": false,
          "internalType": "uint256"
        }
      ],
      "anonymous": false
    },
    {
      "type": "event",
      "name": "TokenMapped",
      "inputs": [
        {
          "name": "roninTokens",
          "type": "address[]",
          "indexed": false,
          "internalType": "address[]"
        },
        {
          "name": "mainchainTokens",
          "type": "address[]",
          "indexed": false,
          "internalType": "address[]"
        },
        {
          "name": "chainIds",
          "type": "uint256[]",
          "indexed": false,
          "internalType": "uint256[]"
        },
        {
          "name": "standards",
          "type": "uint8[]",
          "indexed": false,
          "internalType": "enum TokenStandard[]"
        }
      ],
      "anonymous": false
    },
    {
      "type": "event",
      "name": "TrustedThresholdUpdated",
      "inputs": [
        {
          "name": "nonce",
          "type": "uint256",
          "indexed": true,
          "internalType": "uint256"
        },
        {
          "name": "numerator",
          "type": "uint256",
          "indexed": true,
          "internalType": "uint256"
        },
        {
          "name": "denominator",
          "type": "uint256",
          "indexed": true,
          "internalType": "uint256"
        },
        {
          "name": "previousNumerator",
          "type": "uint256",
          "indexed": false,
          "internalType": "uint256"
        },
        {
          "name": "previousDenominator",
          "type": "uint256",
          "indexed": false,
          "internalType": "uint256"
        }
      ],
      "anonymous": false
    },
    {
      "type": "event",
      "name": "Unpaused",
      "inputs": [
        {
          "name": "account",
          "type": "address",
          "indexed": false,
          "internalType": "address"
        }
      ],
      "anonymous": false
    },
    {
      "type": "event",
      "name": "WithdrawalRequested",
      "inputs": [
        {
          "name": "receiptHash",
          "type": "bytes32",
          "indexed": false,
          "internalType": "bytes32"
        },
        {
          "name": "",
          "type": "tuple",
          "indexed": false,
          "internalType": "struct Transfer.Receipt",
          "components": [
            {
              "name": "id",
              "type": "uint256",
              "internalType": "uint256"
            },
            {
              "name": "kind",
              "type": "uint8",
              "internalType": "enum Transfer.Kind"
            },
            {
              "name": "mainchain",
              "type": "tuple",
              "internalType": "struct TokenOwner",
              "components": [
                {
                  "name": "addr",
                  "type": "address",
                  "internalType": "address"
                },
                {
                  "name": "tokenAddr",
                  "type": "address",
                  "internalType": "address"
                },
                {
                  "name": "chainId",
                  "type": "uint256",
                  "internalType": "uint256"
                }
              ]
            },
            {
              "name": "ronin",
              "type": "tuple",
              "internalType": "struct TokenOwner",
              "components": [
                {
                  "name": "addr",
                  "type": "address",
                  "internalType": "address"
                },
                {
                  "name": "tokenAddr",
                  "type": "address",
                  "internalType": "address"
                },
                {
                  "name": "chainId",
                  "type": "uint256",
                  "internalType": "uint256"
                }
              ]
            },
            {
              "name": "info",
              "type": "tuple",
              "internalType": "struct TokenInfo",
              "components": [
                {
                  "name": "erc",
                  "type": "uint8",
                  "internalType": "enum TokenStandard"
                },
                {
                  "name": "id",
                  "type": "uint256",
                  "internalType": "uint256"
                },
                {
                  "name": "quantity",
                  "type": "uint256",
                  "internalType": "uint256"
                }
              ]
            }
          ]
        }
      ],
      "anonymous": false
    },
    {
      "type": "event",
      "name": "WithdrawalSignaturesRequested",
      "inputs": [
        {
          "name": "receiptHash",
          "type": "bytes32",
          "indexed": false,
          "internalType": "bytes32"
        },
        {
          "name": "",
          "type": "tuple",
          "indexed": false,
          "internalType": "struct Transfer.Receipt",
          "components": [
            {
              "name": "id",
              "type": "uint256",
              "internalType": "uint256"
            },
            {
              "name": "kind",
              "type": "uint8",
              "internalType": "enum Transfer.Kind"
            },
            {
              "name": "mainchain",
              "type": "tuple",
              "internalType": "struct TokenOwner",
              "components": [
                {
                  "name": "addr",
                  "type": "address",
                  "internalType": "address"
                },
                {
                  "name": "tokenAddr",
                  "type": "address",
                  "internalType": "address"
                },
                {
                  "name": "chainId",
                  "type": "uint256",
                  "internalType": "uint256"
                }
              ]
            },
            {
              "name": "ronin",
              "type": "tuple",
              "internalType": "struct TokenOwner",
              "components": [
                {
                  "name": "addr",
                  "type": "address",
                  "internalType": "address"
                },
                {
                  "name": "tokenAddr",
                  "type": "address",
                  "internalType": "address"
                },
                {
                  "name": "chainId",
                  "type": "uint256",
                  "internalType": "uint256"
                }
              ]
            },
            {
              "name": "info",
              "type": "tuple",
              "internalType": "struct TokenInfo",
              "components": [
                {
                  "name": "erc",
                  "type": "uint8",
                  "internalType": "enum TokenStandard"
                },
                {
                  "name": "id",
                  "type": "uint256",
                  "internalType": "uint256"
                },
                {
                  "name": "quantity",
                  "type": "uint256",
                  "internalType": "uint256"
                }
              ]
            }
          ]
        }
      ],
      "anonymous": false
    },
    {
      "type": "error",
      "name": "ErrAlreadyVoted",
      "inputs": [
        {
          "name": "voter",
          "type": "address",
          "internalType": "address"
        }
      ]
    },
    {
      "type": "error",
      "name": "ErrContractTypeNotFound",
      "inputs": [
        {
          "name": "contractType",
          "type": "uint8",
          "internalType": "enum ContractType"
        }
      ]
    },
    {
      "type": "error",
      "name": "ErrERC1155MintingFailed",
      "inputs": []
    },
    {
      "type": "error",
      "name": "ErrERC20MintingFailed",
      "inputs": []
    },
    {
      "type": "error",
      "name": "ErrERC721MintingFailed",
      "inputs": []
    },
    {
      "type": "error",
      "name": "ErrEmptyArray",
      "inputs": []
    },
    {
      "type": "error",
      "name": "ErrInvalidChainId",
      "inputs": [
        {
          "name": "msgSig",
          "type": "bytes4",
          "internalType": "bytes4"
        },
        {
          "name": "actual",
          "type": "uint256",
          "internalType": "uint256"
        },
        {
          "name": "expected",
          "type": "uint256",
          "internalType": "uint256"
        }
      ]
    },
    {
      "type": "error",
      "name": "ErrInvalidInfo",
      "inputs": []
    },
    {
      "type": "error",
      "name": "ErrInvalidReceipt",
      "inputs": []
    },
    {
      "type": "error",
      "name": "ErrInvalidReceiptKind",
      "inputs": []
    },
    {
      "type": "error",
      "name": "ErrInvalidRequest",
      "inputs": []
    },
    {
      "type": "error",
      "name": "ErrInvalidThreshold",
      "inputs": [
        {
          "name": "msgSig",
          "type": "bytes4",
          "internalType": "bytes4"
        }
      ]
    },
    {
      "type": "error",
      "name": "ErrInvalidTokenStandard",
      "inputs": []
    },
    {
      "type": "error",
      "name": "ErrInvalidTrustedThreshold",
      "inputs": []
    },
    {
      "type": "error",
      "name": "ErrLengthMismatch",
      "inputs": [
        {
          "name": "msgSig",
          "type": "bytes4",
          "internalType": "bytes4"
        }
      ]
    },
    {
      "type": "error",
      "name": "ErrQueryForTooSmallQuantity",
      "inputs": []
    },
    {
      "type": "error",
      "name": "ErrTokenCouldNotTransfer",
      "inputs": [
        {
          "name": "tokenInfo",
          "type": "tuple",
          "internalType": "struct TokenInfo",
          "components": [
            {
              "name": "erc",
              "type": "uint8",
              "internalType": "enum TokenStandard"
            },
            {
              "name": "id",
              "type": "uint256",
              "internalType": "uint256"
            },
            {
              "name": "quantity",
              "type": "uint256",
              "internalType": "uint256"
            }
          ]
        },
        {
          "name": "to",
          "type": "address",
          "internalType": "address"
        },
        {
          "name": "token",
          "type": "address",
          "internalType": "address"
        }
      ]
    },
    {
      "type": "error",
      "name": "ErrTokenCouldNotTransferFrom",
      "inputs": [
        {
          "name": "tokenInfo",
          "type": "tuple",
          "internalType": "struct TokenInfo",
          "components": [
            {
              "name": "erc",
              "type": "uint8",
              "internalType": "enum TokenStandard"
            },
            {
              "name": "id",
              "type": "uint256",
              "internalType": "uint256"
            },
            {
              "name": "quantity",
              "type": "uint256",
              "internalType": "uint256"
            }
          ]
        },
        {
          "name": "from",
          "type": "address",
          "internalType": "address"
        },
        {
          "name": "to",
          "type": "address",
          "internalType": "address"
        },
        {
          "name": "token",
          "type": "address",
          "internalType": "address"
        }
      ]
    },
    {
      "type": "error",
      "name": "ErrUnauthorized",
      "inputs": [
        {
          "name": "msgSig",
          "type": "bytes4",
          "internalType": "bytes4"
        },
        {
          "name": "expectedRole",
          "type": "uint8",
          "internalType": "enum RoleAccess"
        }
      ]
    },
    {
      "type": "error",
      "name": "ErrUnsupportedStandard",
      "inputs": []
    },
    {
      "type": "error",
      "name": "ErrUnsupportedToken",
      "inputs": []
    },
    {
      "type": "error",
      "name": "ErrWithdrawalsMigrated",
      "inputs": []
    },
    {
      "type": "error",
      "name": "ErrWithdrawnOnMainchainAlready",
      "inputs": []
    },
    {
      "type": "error",
      "name": "ErrZeroCodeContract",
      "inputs": [
        {
          "name": "addr",
          "type": "address",
          "internalType": "address"
        }
      ]
    }
  ],
  "address": "0xdA48f437Eb827CB997a7D09487D53bE72F2C57a8",
  "args": "0x",
  "blockNumber": 26515571,
  "bytecode": "0x60806040523480156200001157600080fd5b506000805460ff19169055620000266200002c565b620000ee565b603754610100900460ff1615620000995760405162461bcd60e51b815260206004820152602760248201527f496e697469616c697a61626c653a20636f6e747261637420697320696e697469604482015266616c697a696e6760c81b606482015260840160405180910390fd5b60375460ff9081161015620000ec576037805460ff191660ff9081179091556040519081527f7f26b83ff96e1f2b6a682f133852f6798a09c465da95921460cefb38474024989060200160405180910390a15b565b6150b880620000fe6000396000f3fe6080604052600436106102975760003560e01c80638456cb591161015a578063ca15c873116100c1578063ecc836491161007a578063ecc836491461089f578063f0ce418e146108cc578063f23a6e6114610912578063f668214a1461093e578063fa3896591461095e578063fc6574bc1461097e576102a6565b8063ca15c873146107e7578063d547741f14610807578063dafae40814610827578063dbd2ef6c14610847578063de981f1b14610867578063e75235b814610887576102a6565b8063affed0e011610113578063affed0e0146106e5578063b9afa177146106fb578063b9c362091461071b578063bc197c811461073b578063bc7f038614610774578063c28f7894146107a1576102a6565b80638456cb591461063b578063865e6fd3146106505780639010d07c1461067057806391d14854146106905780639584a592146106b0578063a217fddf146106d0576102a6565b80633f4ba83a116101fe5780635d6a9a90116101b75780635d6a9a901461057257806364363f781461059f57806371706cbe146105bf57806375535f86146105d55780637de5dedd146105f5578063835fc6ca1461060a576102a6565b80633f4ba83a1461048f57806347b56b2c146104a45780634d92c4f0146104c45780635a7dd06a146105255780635c975abb146105455780635cd8a76b1461055d576102a6565b8063248a9ca311610250578063248a9ca3146103b15780632f2ff15d146103ef5780633101cfcb1461040f57806336568abe1461042f5780633e4574ec1461044f5780633e70838b1461046f576102a6565b806301ffc9a7146102ae578063065b3adf146102e35780630b1ff17f1461031b578063109679ef1461033b57806317892f961461035b57806317fa2ea114610384576102a6565b366102a6576102a46109d0565b005b6102a46109d0565b3480156102ba57600080fd5b506102ce6102c9366004613c2d565b6109e9565b60405190151581526020015b60405180910390f35b3480156102ef57600080fd5b50600554610303906001600160a01b031681565b6040516001600160a01b0390911681526020016102da565b34801561032757600080fd5b506102a4610336366004613c57565b610a09565b34801561034757600080fd5b506102a4610356366004613c88565b610a20565b34801561036757600080fd5b506078546079545b604080519283526020830191909152016102da565b34801561039057600080fd5b506103a461039f366004613ce5565b610a53565b6040516102da9190613d26565b3480156103bd57600080fd5b506103e16103cc366004613d60565b6000908152606b602052604090206001015490565b6040519081526020016102da565b3480156103fb57600080fd5b506102a461040a366004613d99565b610d90565b34801561041b57600080fd5b506102a461042a366004613dc9565b610dba565b34801561043b57600080fd5b506102a461044a366004613d99565b610e66565b34801561045b57600080fd5b506102ce61046a366004613d99565b610ee0565b34801561047b57600080fd5b506102a461048a366004613dc9565b610f10565b34801561049b57600080fd5b506102a4610f3a565b3480156104b057600080fd5b506102a46104bf366004613d60565b610f4c565b3480156104d057600080fd5b506105156104df366004613de6565b606f602090815260009283526040808420909152908252902080546001820154600383015460049093015460ff90921692909184565b6040516102da9493929190613e1e565b34801561053157600080fd5b506102a4610540366004613e4e565b611117565b34801561055157600080fd5b5060005460ff166102ce565b34801561056957600080fd5b506102a461117e565b34801561057e57600080fd5b5061059261058d366004613ec8565b611280565b6040516102da9190613f04565b3480156105ab57600080fd5b506102a46105ba366004613f30565b611324565b3480156105cb57600080fd5b506103e1606e5481565b3480156105e157600080fd5b5061036f6105f0366004613de6565b611360565b34801561060157600080fd5b506103e1611381565b34801561061657600080fd5b5061062a610625366004613d60565b611398565b6040516102da959493929190613ff8565b34801561064757600080fd5b506102a461146a565b34801561065c57600080fd5b506102a461066b36600461404e565b61147a565b34801561067c57600080fd5b5061030361068b366004613de6565b611495565b34801561069c57600080fd5b506102ce6106ab366004613d99565b6114ad565b3480156106bc57600080fd5b506102a46106cb36600461408b565b6114d8565b3480156106dc57600080fd5b506103e1600081565b3480156106f157600080fd5b506103e160045481565b34801561070757600080fd5b506103a4610716366004614184565b611625565b34801561072757600080fd5b506102a4610736366004613de6565b611743565b34801561074757600080fd5b50610767610756366004614368565b63bc197c8160e01b95945050505050565b6040516102da9190614415565b34801561078057600080fd5b506103e161078f366004613dc9565b60386020526000908152604090205481565b3480156107ad57600080fd5b506105156107bc366004613d60565b607660205260009081526040902080546001820154600383015460049093015460ff90921692909184565b3480156107f357600080fd5b506103e1610802366004613d60565b611755565b34801561081357600080fd5b506102a4610822366004613d99565b61176c565b34801561083357600080fd5b506102ce610842366004613d60565b611791565b34801561085357600080fd5b506102a461086236600461442a565b6117bd565b34801561087357600080fd5b506103036108823660046144ed565b61180f565b34801561089357600080fd5b5060015460025461036f565b3480156108ab57600080fd5b506108bf6108ba366004614508565b61188a565b6040516102da91906145a3565b3480156108d857600080fd5b506105156108e7366004613d60565b607060205260009081526040902080546001820154600383015460049093015460ff90921692909184565b34801561091e57600080fd5b5061076761092d366004614607565b63f23a6e6160e01b95945050505050565b34801561094a57600080fd5b506102ce610959366004613d60565b6119f1565b34801561096a57600080fd5b506102a4610979366004613f30565b611a1f565b34801561098a57600080fd5b506102ce61099936600461466f565b6000928352606f602090815260408085209385529281528284206001600160a01b0392909216845260029091019052902054151590565b60405163129c2ce160e31b815260040160405180910390fd5b60006109f482611c1a565b80610a035750610a0382611c3f565b92915050565b610a11611c64565b610a1c823383611caa565b5050565b610a28611c64565b610a30611d79565b610a50610a4236839003830183614746565b33610a4b611381565b611e1a565b50565b6060610a5d611d79565b336000610a68611381565b9050600084806001600160401b03811115610a8557610a856141f9565b604051908082528060200260200182016040528015610aae578160200160208202803683370190505b5094506000610abd600361180f565b905060005b82811015610d8457888882818110610adc57610adc6147d7565b905060200201359350816001600160a01b031663c7c4fea9600286896040518463ffffffff1660e01b8152600401610b16939291906147ed565b600060405180830381600087803b158015610b3057600080fd5b505af1158015610b44573d6000803e3d6000fd5b50505050610b51846119f1565b15610b7b576001878281518110610b6a57610b6a6147d7565b911515602092830291909101909101525b600084815260706020908152604080832060718352818420825160a081019093528054835260018082015492959491929184019160ff1690811115610bc257610bc2613e08565b6001811115610bd357610bd3613e08565b815260408051606080820183526002858101546001600160a01b039081168452600387015481166020858101919091526004880154858701528087019490945284518084018652600588015482168152600688015490911693810193909352600786015483850152838501929092528251808201909352600885018054919094019391839160ff1690811115610c6b57610c6b613e08565b6002811115610c7c57610c7c613e08565b81526001820154602082015260029091015460409091015290525090506000610ca482612121565b90506000610cb4848b8b856121eb565b90506001816004811115610cca57610cca613e08565b03610d7557835460ff19166002908117855560405163114fc47560e11b81526001600160a01b0388169163229f88ea91610d0991908c90600401614817565b600060405180830381600087803b158015610d2357600080fd5b505af1158015610d37573d6000803e3d6000fd5b505050507f62520d049932cdee872e9b3c59c0f6073637147e5e9bc8b050b062430eaf5c9f8284604051610d6c92919061482e565b60405180910390a15b50505050806001019050610ac2565b50505050505092915050565b6000828152606b6020526040902060010154610dab8161221e565b610db58383612228565b505050565b603754600390610100900460ff16158015610ddc575060375460ff8083169116105b610e015760405162461bcd60e51b8152600401610df89061488d565b60405180910390fd5b6037805461ffff191660ff831617610100179055610e20600b8361224a565b6037805461ff001916905560405160ff821681527f7f26b83ff96e1f2b6a682f133852f6798a09c465da95921460cefb3847402498906020015b60405180910390a15050565b6001600160a01b0381163314610ed65760405162461bcd60e51b815260206004820152602f60248201527f416363657373436f6e74726f6c3a2063616e206f6e6c792072656e6f756e636560448201526e103937b632b9903337b91039b2b63360891b6064820152608401610df8565b610a1c82826122ee565b60008281526070602090815260408083206001600160a01b038516845260020190915281205415155b9392505050565b610f18612310565b600580546001600160a01b0319166001600160a01b0392909216919091179055565b610f4261236a565b610f4a6123d9565b565b610f54611c64565b610f5d816119f1565b15610f7b576040516327ddf84960e11b815260040160405180910390fd5b6000818152607160209081526040808320815160a0810190925280548252600180820154929391929184019160ff1690811115610fba57610fba613e08565b6001811115610fcb57610fcb613e08565b815260408051606080820183526002858101546001600160a01b039081168452600387015481166020858101919091526004880154858701528087019490945284518084018652600588015482168152600688015490911693810193909352600786015483850152838501929092528251808201909352600885018054919094019391839160ff169081111561106357611063613e08565b600281111561107457611074613e08565b8152600182015460208201526002909101546040918201529152606083015101519192505046146110de576060810151604090810151905163092048d160e11b81526001600160e01b03196000351660048201526024810191909152466044820152606401610df8565b7f04e8cbd836dea43a2dc7eb19de345cca3a8e6978a2ef5225d924775500f67c7c61110882612121565b82604051610e5a92919061482e565b61111f611c64565b816000819003611142576040516316ee9d3b60e11b815260040160405180910390fd5b60005b818110156111775761116f858583818110611162576111626147d7565b905060a002013385611caa565b600101611145565b5050505050565b603754600290610100900460ff161580156111a0575060375460ff8083169116105b6111bc5760405162461bcd60e51b8152600401610df89061488d565b6037805461ffff191660ff8316176101001790556074546111e8906008906001600160a01b031661224a565b607554611200906003906001600160a01b031661224a565b60775461121890600a906001600160a01b031661224a565b607480546001600160a01b031990811690915560758054821690556077805490911690556037805461ff001916905560405160ff821681527f7f26b83ff96e1f2b6a682f133852f6798a09c465da95921460cefb38474024989060200160405180910390a150565b604080518082018252600080825260208083018290526001600160a01b038616825260738152838220858352905282902082518084019093528054919291829060ff1660028111156112d4576112d4613e08565b60028111156112e5576112e5613e08565b815290546001600160a01b0361010090910481166020928301529082015191925016610a0357604051631b79f53b60e21b815260040160405180910390fd5b61132c612310565b600083900361134e576040516316ee9d3b60e11b815260040160405180910390fd5b61135a8484848461242b565b50505050565b60008061136b612310565b611375848461250e565b915091505b9250929050565b600061139361138e612598565b612605565b905090565b607160209081526000918252604091829020805460018201548451606080820187526002808601546001600160a01b03908116845260038701548116848901526004870154848a015288518084018a526005880154821681526006880154909116978101979097526007860154878901528751918201909752600885018054949760ff94851697939693959394929391928492169081111561143c5761143c613e08565b600281111561144d5761144d613e08565b815260200160018201548152602001600282015481525050905085565b61147261236a565b610f4a61263b565b611482612310565b61148b81612678565b610a1c828261224a565b6000828152606c60205260408120610f0990836126ae565b6000918252606b602090815260408084206001600160a01b0393909316845291905290205460ff1690565b603754610100900460ff16158080156114f85750603754600160ff909116105b806115125750303b158015611512575060375460ff166001145b61152e5760405162461bcd60e51b8152600401610df89061488d565b6037805460ff191660011790558015611551576037805461ff0019166101001790555b61155c60008d6126ba565b6115668b8b6126c4565b611570898961250e565b506000905061157f86806148db565b905011156115d1576115b261159486806148db565b6115a160208901896148db565b6115ab89806148db565b8989612754565b6115d16115bf86806148db565b6115cc60208801886148db565b61242b565b8015611617576037805461ff0019169055604051600181527f7f26b83ff96e1f2b6a682f133852f6798a09c465da95921460cefb38474024989060200160405180910390a15b505050505050505050505050565b606061162f611c64565b611637611d79565b81806001600160401b03811115611650576116506141f9565b604051908082528060200260200182016040528015611679578160200160208202803683370190505b5091506000611686611381565b9050611690613bc0565b60005b83811015611739578686828181106116ad576116ad6147d7565b905061016002018036038101906116c49190614746565b915060026040808401518101516000908152606f6020908152828220865183529052205460ff1660048111156116fc576116fc613e08565b03611726576001858281518110611715576117156147d7565b911515602092830291909101909101525b611731823385611e1a565b600101611693565b5050505092915050565b61174b612310565b610a1c82826126c4565b6000818152606c60205260408120610a0390612970565b6000828152606b60205260409020600101546117878161221e565b610db583836122ee565b600061179b612598565b6001546117a8919061493a565b6002546117b5908461493a565b101592915050565b6117c5612310565b60008790036117f5576000356001600160e01b0319166040516306b5667560e21b8152600401610df89190614415565b6118058888888888888888612754565b5050505050505050565b60007fdea3103d22025c269050bea94c0c84688877f12fa22b7e6d2d5d78a9a49aa1cb600083600f81111561184657611846613e08565b60ff1681526020810191909152604001600020546001600160a01b0316905080611885578160405163409140df60e11b8152600401610df89190614951565b919050565b6060816001600160401b038111156118a4576118a46141f9565b6040519080825280602002602001820160405280156118d757816020015b60608152602001906001900390816118c25790505b50905060005b828110156119e957600085815260726020526040812090858584818110611906576119066147d7565b905060200201602081019061191b9190613dc9565b6001600160a01b03166001600160a01b0316815260200190815260200160002080546119469061496b565b80601f01602080910402602001604051908101604052809291908181526020018280546119729061496b565b80156119bf5780601f10611994576101008083540402835291602001916119bf565b820191906000526020600020905b8154815290600101906020018083116119a257829003601f168201915b50505050508282815181106119d6576119d66147d7565b60209081029190910101526001016118dd565b509392505050565b6000600260008381526070602052604090205460ff166004811115611a1857611a18613e08565b1492915050565b611a27611c64565b611a2f611d79565b33838015801590611a3f57508083145b611a6a576000356001600160e01b0319166040516306b5667560e21b8152600401610df89190614415565b6000611a74611381565b9050600080611a83600361180f565b905060005b84811015611c0e57898982818110611aa257611aa26147d7565b905060200201359250878782818110611abd57611abd6147d7565b9050602002810190611acf919061499f565b60008581526072602090815260408083206001600160a01b038c168452909152902091611afd919083614a35565b5060405163c7c4fea960e01b81526001600160a01b0383169063c7c4fea990611b2f9060019087908b906004016147ed565b600060405180830381600087803b158015611b4957600080fd5b505af1158015611b5d573d6000803e3d6000fd5b50505060008481526076602052604081209150611b7c828988886121eb565b90506001816004811115611b9257611b92613e08565b03611c0457815460ff1916600217825560405163114fc47560e11b81526001600160a01b0385169063229f88ea90611bd1906001908990600401614817565b600060405180830381600087803b158015611beb57600080fd5b505af1158015611bff573d6000803e3d6000fd5b505050505b5050600101611a88565b50505050505050505050565b60006001600160e01b03198216635a05180f60e01b1480610a035750610a038261297a565b60006001600160e01b03198216630271189760e51b1480610a035750610a0382611c1a565b60005460ff1615610f4a5760405162461bcd60e51b815260206004820152601060248201526f14185d5cd8589b194e881c185d5cd95960821b6044820152606401610df8565b611cc4611cbf36859003850160408601614af4565b6129af565b611ccd836129f3565b6000611ce8611ce26040860160208701613dc9565b83611280565b80519091506002811115611cfe57611cfe613e08565b611d0e6060860160408701614b10565b6002811115611d1f57611d1f613e08565b14611d3c5760405162035e2b60ea1b815260040160405180910390fd5b611d6983611d506040870160208801613dc9565b611d6236889003880160408901614af4565b9190612a71565b6111778483858460200151612bfc565b611d83600b61180f565b604051635a02d57960e11b81523360048201526001600160a01b03919091169063b405aaf290602401602060405180830381865afa158015611dc9573d6000803e3d6000fd5b505050506040513d601f19601f82011682018060405250810190611ded9190614b2b565b610f4a576000356001600160e01b0319166006604051620f948f60ea1b8152600401610df8929190614b4d565b82516080840151611e2a906129af565b600084602001516001811115611e4257611e42613e08565b14611e605760405163182f3d8760e11b815260040160405180910390fd5b4684606001516040015114611eae576060840151604090810151905163092048d160e11b81526001600160e01b03196000351660048201526024810191909152466044820152606401610df8565b6000611eca856060015160200151866040015160400151611280565b6080860151519091506002811115611ee457611ee4613e08565b81516002811115611ef757611ef7613e08565b148015611f2157508460400151602001516001600160a01b031681602001516001600160a01b0316145b611f3e5760405163f4b8742f60e01b815260040160405180910390fd5b6040808601518101516000908152606f6020908152828220858352905290812090611f6887612121565b90506000611f78838888856121eb565b905087604001516040015185886001600160a01b03167f48c4262ed68beb92fe5d7d48d70772e49cd50c317937dea60a99f15f794b645985604051611fbf91815260200190565b60405180910390a46000611fd3600361180f565b90506001826004811115611fe957611fe9613e08565b036120b357835460ff191660021784556060890151805160209091015160808b01516120189290916000612d8e565b885160405163114fc47560e11b81526001600160a01b0383169163229f88ea9161204791600091600401614817565b600060405180830381600087803b15801561206157600080fd5b505af1158015612075573d6000803e3d6000fd5b505050507f8d20d8121a34dded9035ff5b43e901c142824f7a22126392992c353c37890524838a6040516120aa92919061482e565b60405180910390a15b885160405163c7c4fea960e01b81526001600160a01b0383169163c7c4fea9916120e4916000918d906004016147ed565b600060405180830381600087803b1580156120fe57600080fd5b505af1158015612112573d6000803e3d6000fd5b50505050505050505050505050565b6000806121318360400151612fa7565b905060006121428460600151612fa7565b905060006121968560800151604080517f1e2b74b2a792d5c0f0b6e59b037fa9d43d84fbb759337f0112fcc15ca414fc8d815282516020808301919091528301518183015291015160608201526080902090565b604080517fb9d1fe7c9deeec5dc90a2f47ff1684239519f2545b2228d3d91fb27df3189eea815287516020808301919091529097015190870152606086019390935250608084015260a08301525060c0902090565b60006121f8858584612fef565b600061220486846130a5565b9050612212868583866131a9565b9150505b949350505050565b610a5081336131f5565b6122328282613259565b6000828152606c60205260409020610db590826132df565b807fdea3103d22025c269050bea94c0c84688877f12fa22b7e6d2d5d78a9a49aa1cb600084600f81111561228057612280613e08565b60ff168152602081019190915260400160002080546001600160a01b0319166001600160a01b03928316179055811682600f8111156122c1576122c1613e08565b6040517f865d1c228a8ea13709cfe61f346f7ff67f1bbd4a18ff31ad3e7147350d317c5990600090a35050565b6122f882826132f4565b6000828152606c60205260409020610db5908261335b565b7fb53127684a568b3173ae13b9f8a6016e243e63b6e8ee1178d6a717850b5d6103546001600160a01b03163314610f4a576000356001600160e01b0319166001604051620f948f60ea1b8152600401610df8929190614b4d565b7fb53127684a568b3173ae13b9f8a6016e243e63b6e8ee1178d6a717850b5d6103546001600160a01b03163314806123ac57506005546001600160a01b031633145b610f4a576000356001600160e01b0319166001604051620f948f60ea1b8152600401610df8929190614b4d565b6123e1613370565b6000805460ff191690557f5db9ee0a495bf2e6ff9c91a7834c1ba4fdd244a5e8aa4e537bd38aeae4b073aa335b6040516001600160a01b03909116815260200160405180910390a1565b828114612459576000356001600160e01b0319166040516306b5667560e21b8152600401610df89190614415565b60005b838110156124ca57828282818110612476576124766147d7565b9050602002013560386000878785818110612493576124936147d7565b90506020020160208101906124a89190613dc9565b6001600160a01b0316815260208101919091526040016000205560010161245c565b507f6f52f53a938df83439fa4c6055c7df0a6906d621aa6dfa4708187037fdfc41da848484846040516125009493929190614bf6565b60405180910390a150505050565b600080828411156125325760405163964a4d2760e01b815260040160405180910390fd5b505060018054600254607885905560798490556004805493840190556040805183815260208101839052929391928592879290917feac82d4d949d2d4f77f96aa68ab6b1bb750da73f14e55d41a1b93f387471ecba910160405180910390a49250929050565b60006125a4600b61180f565b6001600160a01b03166306aba0e16040518163ffffffff1660e01b8152600401602060405180830381865afa1580156125e1573d6000803e3d6000fd5b505050506040513d601f19601f820116820180604052508101906113939190614c28565b600060025460016002548460015461261d919061493a565b6126279190614c41565b6126319190614c54565b610a039190614c67565b612643611c64565b6000805460ff191660011790557f62e78cea01bee320cd4e420270b5ea74000d11b0c9f74754ebdbfc544b05a25861240e3390565b806001600160a01b03163b600003610a5057604051630bfc64a360e21b81526001600160a01b0382166004820152602401610df8565b6000610f0983836133b9565b610a1c8282612228565b808211156126f3576000356001600160e01b0319166040516387f6f09560e01b8152600401610df89190614415565b6001805460028054858455908490556004805493840190556040805183815260208101839052929391928592879290917f976f8a9c5bdf8248dec172376d6e2b80a8e3df2f0328e381c6db8e1cf138c0f8910160405180910390a450505050565b868514801561276257508683145b61278d576000356001600160e01b0319166040516306b5667560e21b8152600401610df89190614415565b60005b87811015612920578686828181106127aa576127aa6147d7565b90506020020160208101906127bf9190613dc9565b607360008b8b858181106127d5576127d56147d7565b90506020020160208101906127ea9190613dc9565b6001600160a01b03166001600160a01b03168152602001908152602001600020600087878581811061281e5761281e6147d7565b90506020020135815260200190815260200160002060000160016101000a8154816001600160a01b0302191690836001600160a01b0316021790555082828281811061286c5761286c6147d7565b90506020020160208101906128819190614b10565b607360008b8b85818110612897576128976147d7565b90506020020160208101906128ac9190613dc9565b6001600160a01b03166001600160a01b0316815260200190815260200160002060008787858181106128e0576128e06147d7565b60209081029290920135835250810191909152604001600020805460ff1916600183600281111561291357612913613e08565b0217905550600101612790565b507f2544bff60c6d5b84946e06804af9f84e150bbee85238dbdee79efca4e0adf401888888888888888860405161295e989796959493929190614c89565b60405180910390a15050505050505050565b6000610a03825490565b60006001600160e01b03198216637965db0b60e01b1480610a0357506301ffc9a760e01b6001600160e01b0319831614610a03565b6129b8816133e3565b806129c757506129c78161341a565b806129d657506129d681613442565b610a505760405163034992a760e51b815260040160405180910390fd5b6000612a056060830160408401614b10565b6002811115612a1657612a16613e08565b148015612a53575060386000612a326040840160208501613dc9565b6001600160a01b031681526020810191909152604001600020546080820135105b15610a5057604051636eff4a8560e11b815260040160405180910390fd5b600060608185516002811115612a8957612a89613e08565b03612b645760408581015181516001600160a01b03878116602483015230604483015260648083019390935283518083039093018352608490910183526020820180516001600160e01b03166323b872dd60e01b179052915191851691612af09190614d18565b6000604051808303816000865af19150503d8060008114612b2d576040519150601f19603f3d011682016040523d82523d6000602084013e612b32565b606091505b509092509050818015612b5d575080511580612b5d575080806020019051810190612b5d9190614b2b565b9150612bd6565b600185516002811115612b7957612b79613e08565b03612b8e57612b5d838530886020015161346b565b600285516002811115612ba357612ba3613e08565b03612bbd57612b5d83853088602001518960400151613519565b6040516361e411a760e11b815260040160405180910390fd5b816111775784843085604051639d2e4c6760e01b8152600401610df89493929190614d34565b606e805460009182612c0d83614d6a565b9091555090506000612c3484838588612c2b368c90038c018c614d83565b939291906135cd565b60008381526071602090815260409091208251815590820151600180830180549495508594909160ff19909116908381811115612c7357612c73613e08565b02179055506040828101518051600280850180546001600160a01b039384166001600160a01b03199182161790915560208085015160038801805491861691841691909117905593850151600487015560608701518051600588018054918616918416919091179055938401516006870180549190941691161790915591015160078301556080830151805160088401805492939092839160ff19909116906001908490811115612d2657612d26613e08565b0217905550602082015181600101556040820151816002015550509050507ff313c253a5be72c29d0deb2c8768a9543744ac03d6b3cafd50cc976f1c2632fc612d6e82612121565b82604051612d7d92919061482e565b60405180910390a150949350505050565b806001600160a01b0316826001600160a01b031603612e3b5760408085015190516001600160a01b0385169180156108fc02916000818181858888f19350505050612e3657806001600160a01b031663d0e30db085604001516040518263ffffffff1660e01b81526004016000604051808303818588803b158015612e1257600080fd5b505af1158015612e26573d6000803e3d6000fd5b5050505050612e36848484613639565b61135a565b600084516002811115612e5057612e50613e08565b03612f16576040516370a0823160e01b81523060048201526000906001600160a01b038416906370a0823190602401602060405180830381865afa158015612e9c573d6000803e3d6000fd5b505050506040513d601f19601f82011682018060405250810190612ec09190614c28565b90508460400151811015612f0557612ee88330838860400151612ee39190614c54565b6136b8565b612f0557604051632f739fff60e11b815260040160405180910390fd5b612f10858585613639565b5061135a565b600184516002811115612f2b57612f2b613e08565b03612f5c57612f3f8284866020015161375d565b612e365760405163c8e3a09f60e01b815260040160405180910390fd5b600284516002811115612f7157612f71613e08565b03612bbd57612f8a828486602001518760400151613784565b612e36576040516334b471a760e21b815260040160405180910390fd5b604080517f353bdd8d69b9e3185b3972e08b03845c0c14a21a390215302776a7a34b0e8764815282516020808301919091528301518183015291015160608201526080902090565b60008360030154118015613007575042836003015411155b1561301857825460ff191660041783555b6001600160a01b03821660009081526002840160205260409020541561305c5760405163025fd59560e41b81526001600160a01b0383166004820152602401610df8565b6001600160a01b039091166000818152600284016020908152604082209390935560059093018054600181018255908452919092200180546001600160a01b0319169091179055565b60008060006130b4600b61180f565b6001600160a01b031663c441c4a86040518163ffffffff1660e01b8152600401600060405180830381865afa1580156130f1573d6000803e3d6000fd5b505050506040513d6000823e601f3d908101601f191682016040526131199190810190614e3e565b81519194509250905060005b818110156117395785876002016000868481518110613146576131466147d7565b60200260200101516001600160a01b03166001600160a01b0316815260200190815260200160002054036131a157828181518110613186576131866147d7565b60200260200101516bffffffffffffffffffffffff16850194505b600101613125565b60008383101580156131d057506000855460ff1660048111156131ce576131ce613e08565b145b156131e857845460ff19166001908117865585018290555b5050915460ff1692915050565b6131ff82826114ad565b610a1c57613217816001600160a01b031660146137ad565b6132228360206137ad565b604051602001613233929190614f36565b60408051601f198184030181529082905262461bcd60e51b8252610df891600401614fab565b61326382826114ad565b610a1c576000828152606b602090815260408083206001600160a01b03851684529091529020805460ff1916600117905561329b3390565b6001600160a01b0316816001600160a01b0316837f2f8788117e7eff1d82e926ec794901d17c78024a50270940304540a733656f0d60405160405180910390a45050565b6000610f09836001600160a01b038416613948565b6132fe82826114ad565b15610a1c576000828152606b602090815260408083206001600160a01b0385168085529252808320805460ff1916905551339285917ff6391f5c32d9c69d2a47ea670b442974b53935d1edc7fd64eb21e047a839171b9190a45050565b6000610f09836001600160a01b038416613997565b60005460ff16610f4a5760405162461bcd60e51b815260206004820152601460248201527314185d5cd8589b194e881b9bdd081c185d5cd95960621b6044820152606401610df8565b60008260000182815481106133d0576133d06147d7565b9060005260206000200154905092915050565b600080825160028111156133f9576133f9613e08565b14801561340a575060008260400151115b8015610a03575050602001511590565b600060018251600281111561343157613431613e08565b148015610a03575050604001511590565b600060028251600281111561345957613459613e08565b148015610a0357505060400151151590565b604080516001600160a01b0385811660248301528481166044830152606480830185905283518084039091018152608490920183526020820180516001600160e01b03166323b872dd60e01b17905291516000928716916134cb91614d18565b6000604051808303816000865af19150503d8060008114613508576040519150601f19603f3d011682016040523d82523d6000602084013e61350d565b606091505b50909695505050505050565b604080516000808252602082019092526001600160a01b0387169061354990879087908790879060448101614fbe565b60408051601f198184030181529181526020820180516001600160e01b0316637921219560e11b1790525161357e9190614d18565b6000604051808303816000865af19150503d80600081146135bb576040519150601f19603f3d011682016040523d82523d6000602084013e6135c0565b606091505b5090979650505050505050565b6135d5613bc0565b92835260016020808501919091526060840180516001600160a01b0396871690528682015181519087169083015251466040918201528651818601805191881690915280519490961693909101929092529251810192909252910151608082015290565b6000808451600281111561364f5761364f613e08565b0361366a5761366382848660400151613a8a565b9050613694565b60018451600281111561367f5761367f613e08565b03612bbd57613663823085876020015161346b565b8061135a578383836040516341bd7d9160e11b8152600401610df893929190614ff8565b604080516001600160a01b038481166024830152604480830185905283518084039091018152606490920183526020820180516001600160e01b03166340c10f1960e01b179052915160009286169161371091614d18565b6000604051808303816000865af19150503d806000811461374d576040519150601f19603f3d011682016040523d82523d6000602084013e613752565b606091505b509095945050505050565b600061376b8430858561346b565b905080610f095761377d8484846136b8565b9050610f09565b60006137938530868686613519565b905080612216576137a685858585613b5d565b9050612216565b606060006137bc83600261493a565b6137c7906002614c41565b6001600160401b038111156137de576137de6141f9565b6040519080825280601f01601f191660200182016040528015613808576020820181803683370190505b509050600360fc1b81600081518110613823576138236147d7565b60200101906001600160f81b031916908160001a905350600f60fb1b81600181518110613852576138526147d7565b60200101906001600160f81b031916908160001a905350600061387684600261493a565b613881906001614c41565b90505b60018111156138f9576f181899199a1a9b1b9c1cb0b131b232b360811b85600f16601081106138b5576138b56147d7565b1a60f81b8282815181106138cb576138cb6147d7565b60200101906001600160f81b031916908160001a90535060049490941c936138f281615028565b9050613884565b508315610f095760405162461bcd60e51b815260206004820181905260248201527f537472696e67733a20686578206c656e67746820696e73756666696369656e746044820152606401610df8565b600081815260018301602052604081205461398f57508154600181810184556000848152602080822090930184905584548482528286019093526040902091909155610a03565b506000610a03565b60008181526001830160205260408120548015613a805760006139bb600183614c54565b85549091506000906139cf90600190614c54565b9050818114613a345760008660000182815481106139ef576139ef6147d7565b9060005260206000200154905080876000018481548110613a1257613a126147d7565b6000918252602080832090910192909255918252600188019052604090208390555b8554869080613a4557613a4561503f565b600190038181906000526020600020016000905590558560010160008681526020019081526020016000206000905560019350505050610a03565b6000915050610a03565b604080516001600160a01b038481166024830152604480830185905283518084039091018152606490920183526020820180516001600160e01b031663a9059cbb60e01b179052915160009260609290871691613ae79190614d18565b6000604051808303816000865af19150503d8060008114613b24576040519150601f19603f3d011682016040523d82523d6000602084013e613b29565b606091505b509092509050818015613b54575080511580613b54575080806020019051810190613b549190614b2b565b95945050505050565b604080516000808252602082019092526001600160a01b03861690613b8b9086908690869060448101615055565b60408051601f198184030181529181526020820180516001600160e01b031663731133e960e01b179052516134cb9190614d18565b6040805160a08101825260008082526020808301829052835160608082018652838252818301849052818601849052848601919091528451808201865283815280830184905280860184905281850152845190810185528281529081018290529283015290608082015290565b600060208284031215613c3f57600080fd5b81356001600160e01b031981168114610f0957600080fd5b60008082840360c0811215613c6b57600080fd5b60a0811215613c7957600080fd5b50919360a08501359350915050565b60006101608284031215613c9b57600080fd5b50919050565b60008083601f840112613cb357600080fd5b5081356001600160401b03811115613cca57600080fd5b6020830191508360208260051b850101111561137a57600080fd5b60008060208385031215613cf857600080fd5b82356001600160401b03811115613d0e57600080fd5b613d1a85828601613ca1565b90969095509350505050565b6020808252825182820181905260009190848201906040850190845b8181101561350d578351151583529284019291840191600101613d42565b600060208284031215613d7257600080fd5b5035919050565b6001600160a01b0381168114610a5057600080fd5b803561188581613d79565b60008060408385031215613dac57600080fd5b823591506020830135613dbe81613d79565b809150509250929050565b600060208284031215613ddb57600080fd5b8135610f0981613d79565b60008060408385031215613df957600080fd5b50508035926020909101359150565b634e487b7160e01b600052602160045260246000fd5b6080810160058610613e3257613e32613e08565b9481526020810193909352604083019190915260609091015290565b600080600060408486031215613e6357600080fd5b83356001600160401b0380821115613e7a57600080fd5b818601915086601f830112613e8e57600080fd5b813581811115613e9d57600080fd5b87602060a083028501011115613eb257600080fd5b6020928301989097509590910135949350505050565b60008060408385031215613edb57600080fd5b8235613ee681613d79565b946020939093013593505050565b60038110610a5057610a50613e08565b81516040820190613f1481613ef4565b82526020928301516001600160a01b0316929091019190915290565b60008060008060408587031215613f4657600080fd5b84356001600160401b0380821115613f5d57600080fd5b613f6988838901613ca1565b90965094506020870135915080821115613f8257600080fd5b50613f8f87828801613ca1565b95989497509550505050565b60028110613fab57613fab613e08565b9052565b80516001600160a01b03908116835260208083015190911690830152604090810151910152565b8051613fe181613ef4565b825260208181015190830152604090810151910152565b858152610160810161400d6020830187613f9b565b61401a6040830186613faf565b61402760a0830185613faf565b614035610100830184613fd6565b9695505050505050565b80356010811061188557600080fd5b6000806040838503121561406157600080fd5b61406a8361403f565b91506020830135613dbe81613d79565b8060408101831015610a0357600080fd5b60008060008060008060008060008060006101208c8e0312156140ad57600080fd5b6140b68c613d8e565b9a5060208c0135995060408c0135985060608c0135975060808c013596506001600160401b038060a08e013511156140ed57600080fd5b6140fd8e60a08f01358f01613ca1565b909750955060c08d013581101561411357600080fd5b6141238e60c08f01358f0161407a565b94508060e08e0135111561413657600080fd5b6141468e60e08f01358f0161407a565b9350806101008e0135111561415a57600080fd5b5061416c8d6101008e01358e01613ca1565b81935080925050509295989b509295989b9093969950565b6000806020838503121561419757600080fd5b82356001600160401b03808211156141ae57600080fd5b818501915085601f8301126141c257600080fd5b8135818111156141d157600080fd5b866020610160830285010111156141e757600080fd5b60209290920196919550909350505050565b634e487b7160e01b600052604160045260246000fd5b604051606081016001600160401b0381118282101715614231576142316141f9565b60405290565b604051601f8201601f191681016001600160401b038111828210171561425f5761425f6141f9565b604052919050565b60006001600160401b03821115614280576142806141f9565b5060051b60200190565b600082601f83011261429b57600080fd5b813560206142b06142ab83614267565b614237565b8083825260208201915060208460051b8701019350868411156142d257600080fd5b602086015b848110156142ee57803583529183019183016142d7565b509695505050505050565b600082601f83011261430a57600080fd5b81356001600160401b03811115614323576143236141f9565b614336601f8201601f1916602001614237565b81815284602083860101111561434b57600080fd5b816020850160208301376000918101602001919091529392505050565b600080600080600060a0868803121561438057600080fd5b853561438b81613d79565b9450602086013561439b81613d79565b935060408601356001600160401b03808211156143b757600080fd5b6143c389838a0161428a565b945060608801359150808211156143d957600080fd5b6143e589838a0161428a565b935060808801359150808211156143fb57600080fd5b50614408888289016142f9565b9150509295509295909350565b6001600160e01b031991909116815260200190565b6000806000806000806000806080898b03121561444657600080fd5b88356001600160401b038082111561445d57600080fd5b6144698c838d01613ca1565b909a50985060208b013591508082111561448257600080fd5b61448e8c838d01613ca1565b909850965060408b01359150808211156144a757600080fd5b6144b38c838d01613ca1565b909650945060608b01359150808211156144cc57600080fd5b506144d98b828c01613ca1565b999c989b5096995094979396929594505050565b6000602082840312156144ff57600080fd5b610f098261403f565b60008060006040848603121561451d57600080fd5b8335925060208401356001600160401b0381111561453a57600080fd5b61454686828701613ca1565b9497909650939450505050565b60005b8381101561456e578181015183820152602001614556565b50506000910152565b6000815180845261458f816020860160208601614553565b601f01601f19169290920160200192915050565b600060208083016020845280855180835260408601915060408160051b87010192506020870160005b828110156145fa57603f198886030184526145e8858351614577565b945092850192908501906001016145cc565b5092979650505050505050565b600080600080600060a0868803121561461f57600080fd5b853561462a81613d79565b9450602086013561463a81613d79565b9350604086013592506060860135915060808601356001600160401b0381111561466357600080fd5b614408888289016142f9565b60008060006060848603121561468457600080fd5b8335925060208401359150604084013561469d81613d79565b809150509250925092565b6000606082840312156146ba57600080fd5b6146c261420f565b905081356146cf81613d79565b815260208201356146df81613d79565b806020830152506040820135604082015292915050565b80356003811061188557600080fd5b60006060828403121561471757600080fd5b61471f61420f565b905061472a826146f6565b8152602082013560208201526040820135604082015292915050565b6000610160828403121561475957600080fd5b60405160a081018181106001600160401b038211171561477b5761477b6141f9565b6040528235815260208301356002811061479457600080fd5b60208201526147a684604085016146a8565b60408201526147b88460a085016146a8565b60608201526147cb846101008501614705565b60808201529392505050565b634e487b7160e01b600052603260045260246000fd5b606081016147fa85613ef4565b93815260208101929092526001600160a01b031660409091015290565b6040810161482484613ef4565b9281526020015290565b6000610180820190508382528251602083015260208301516148536040840182613f9b565b5060408301516148666060840182613faf565b50606083015161487960c0840182613faf565b5060808301516119e9610120840182613fd6565b6020808252602e908201527f496e697469616c697a61626c653a20636f6e747261637420697320616c72656160408201526d191e481a5b9a5d1a585b1a5e995960921b606082015260800190565b6000808335601e198436030181126148f257600080fd5b8301803591506001600160401b0382111561490c57600080fd5b6020019150600581901b360382131561137a57600080fd5b634e487b7160e01b600052601160045260246000fd5b8082028115828204841417610a0357610a03614924565b602081016010831061496557614965613e08565b91905290565b600181811c9082168061497f57607f821691505b602082108103613c9b57634e487b7160e01b600052602260045260246000fd5b6000808335601e198436030181126149b657600080fd5b8301803591506001600160401b038211156149d057600080fd5b60200191503681900382131561137a57600080fd5b601f821115610db5576000816000526020600020601f850160051c81016020861015614a0e5750805b601f850160051c820191505b81811015614a2d57828155600101614a1a565b505050505050565b6001600160401b03831115614a4c57614a4c6141f9565b614a6083614a5a835461496b565b836149e5565b6000601f841160018114614a945760008515614a7c5750838201355b600019600387901b1c1916600186901b178355611177565b600083815260209020601f19861690835b82811015614ac55786850135825560209485019460019092019101614aa5565b5086821015614ae25760001960f88860031b161c19848701351681555b505060018560011b0183555050505050565b600060608284031215614b0657600080fd5b610f098383614705565b600060208284031215614b2257600080fd5b610f09826146f6565b600060208284031215614b3d57600080fd5b81518015158114610f0957600080fd5b6001600160e01b03198316815260408101600b8310614b6e57614b6e613e08565b8260208301529392505050565b8183526000602080850194508260005b85811015614bb9578135614b9e81613d79565b6001600160a01b031687529582019590820190600101614b8b565b509495945050505050565b81835260006001600160fb1b03831115614bdd57600080fd5b8260051b80836020870137939093016020019392505050565b604081526000614c0a604083018688614b7b565b8281036020840152614c1d818587614bc4565b979650505050505050565b600060208284031215614c3a57600080fd5b5051919050565b80820180821115610a0357610a03614924565b81810381811115610a0357610a03614924565b600082614c8457634e487b7160e01b600052601260045260246000fd5b500490565b608081526000614c9d608083018a8c614b7b565b60208382036020850152614cb2828a8c614b7b565b91508382036040850152614cc782888a614bc4565b848103606086015285815286925060200160005b86811015614d0757614cec846146f6565b614cf581613ef4565b82529282019290820190600101614cdb565b509c9b505050505050505050505050565b60008251614d2a818460208701614553565b9190910192915050565b60c08101614d428287613fd6565b6001600160a01b0394851660608301529284166080820152921660a090920191909152919050565b600060018201614d7c57614d7c614924565b5060010190565b600060a08284031215614d9557600080fd5b614d9d61420f565b8235614da881613d79565b81526020830135614db881613d79565b6020820152614dca8460408501614705565b60408201529392505050565b600082601f830112614de757600080fd5b81516020614df76142ab83614267565b8083825260208201915060208460051b870101935086841115614e1957600080fd5b602086015b848110156142ee578051614e3181613d79565b8352918301918301614e1e565b600080600060608486031215614e5357600080fd5b83516001600160401b0380821115614e6a57600080fd5b614e7687838801614dd6565b9450602091508186015181811115614e8d57600080fd5b614e9988828901614dd6565b945050604086015181811115614eae57600080fd5b86019050601f81018713614ec157600080fd5b8051614ecf6142ab82614267565b81815260059190911b82018301908381019089831115614eee57600080fd5b928401925b82841015614f275783516bffffffffffffffffffffffff81168114614f185760008081fd5b82529284019290840190614ef3565b80955050505050509250925092565b7f416363657373436f6e74726f6c3a206163636f756e7420000000000000000000815260008351614f6e816017850160208801614553565b7001034b99036b4b9b9b4b733903937b6329607d1b6017918401918201528351614f9f816028840160208801614553565b01602801949350505050565b602081526000610f096020830184614577565b6001600160a01b03868116825285166020820152604081018490526060810183905260a060808201819052600090614c1d90830184614577565b60a081016150068286613fd6565b6001600160a01b03938416606083015291909216608090920191909152919050565b60008161503757615037614924565b506000190190565b634e487b7160e01b600052603160045260246000fd5b60018060a01b0385168152836020820152826040820152608060608201526000614035608083018461457756fea2646970667358221220f2c96cbb22626006ee11ff90975b91b23886e548ed7a61504409d1948b356f0f64736f6c63430008170033",
  "chainId": 2021,
  "contractAbsolutePath": "RoninGatewayV3.sol",
  "deployer": "0x968D0Cd7343f711216817E617d3f92a23dC91c07",
  "devdoc": {
    "version": 1,
    "kind": "dev",
    "methods": {
      "bulkRequestWithdrawalFor((address,address,(uint8,uint256,uint256))[],uint256)": {
        "details": "Bulk requests withdrawals. Emits the `WithdrawalRequested` events."
      },
      "bulkSubmitWithdrawalSignatures(uint256[],bytes[])": {
        "details": "Submits withdrawal signatures. Requirements: - The method caller is a validator."
      },
      "checkThreshold(uint256)": {
        "details": "Checks whether the `_voteWeight` passes the threshold."
      },
      "depositFor((uint256,uint8,(address,address,uint256),(address,address,uint256),(uint8,uint256,uint256)))": {
        "details": "Deposits based on the receipt. Requirements: - The method caller is a validator. Emits the `Deposited` once the assets are released."
      },
      "depositVoted(uint256,uint256,address)": {
        "details": "Returns whether the deposit is casted by the voter."
      },
      "getContract(uint8)": {
        "details": "Returns the address of a contract with a specific role. Throws an error if no contract is set for the specified role.",
        "params": {
          "contractType": "The role of the contract to retrieve."
        },
        "returns": {
          "contract_": "The address of the contract with the specified role."
        }
      },
      "getMainchainToken(address,uint256)": {
        "details": "Returns mainchain token address. Reverts for unsupported token."
      },
      "getRoleAdmin(bytes32)": {
        "details": "Returns the admin role that controls `role`. See {grantRole} and {revokeRole}. To change a role's admin, use {_setRoleAdmin}."
      },
      "getRoleMember(bytes32,uint256)": {
        "details": "Returns one of the accounts that have `role`. `index` must be a value between 0 and {getRoleMemberCount}, non-inclusive. Role bearers are not sorted in any particular way, and their ordering may change at any point. WARNING: When using {getRoleMember} and {getRoleMemberCount}, make sure you perform all queries on the same block. See the following https://forum.openzeppelin.com/t/iterating-over-elements-on-enumerableset-in-openzeppelin-contracts/2296[forum post] for more information."
      },
      "getRoleMemberCount(bytes32)": {
        "details": "Returns the number of accounts that have `role`. Can be used together with {getRoleMember} to enumerate all bearers of a role."
      },
      "getThreshold()": {
        "details": "Returns the threshold."
      },
      "getTrustedThreshold()": {
        "details": "Returns the threshold about trusted org."
      },
      "getWithdrawalSignatures(uint256,address[])": {
        "details": "Returns withdrawal signatures."
      },
      "grantRole(bytes32,address)": {
        "details": "Grants `role` to `account`. If `account` had not been already granted `role`, emits a {RoleGranted} event. Requirements: - the caller must have ``role``'s admin role. May emit a {RoleGranted} event."
      },
      "hasRole(bytes32,address)": {
        "details": "Returns `true` if `account` has been granted `role`."
      },
      "initialize(address,uint256,uint256,uint256,uint256,address[],address[][2],uint256[][2],uint8[])": {
        "details": "Initializes contract storage."
      },
      "mainchainWithdrew(uint256)": {
        "details": "Returns whether the withdrawal is done on mainchain."
      },
      "mainchainWithdrewVoted(uint256,address)": {
        "details": "Returns whether the mainchain withdrew is casted by the voter."
      },
      "mapTokens(address[],address[],uint256[],uint8[])": {
        "details": "Maps Ronin tokens to mainchain networks. Requirement: - The method caller is admin. - The arrays have the same length and its length larger than 0. Emits the `TokenMapped` event."
      },
      "minimumVoteWeight()": {
        "details": "Returns the minimum vote weight to pass the threshold."
      },
      "pause()": {
        "details": "Triggers paused state."
      },
      "paused()": {
        "details": "Returns true if the contract is paused, and false otherwise."
      },
      "renounceRole(bytes32,address)": {
        "details": "Revokes `role` from the calling account. Roles are often managed via {grantRole} and {revokeRole}: this function's purpose is to provide a mechanism for accounts to lose their privileges if they are compromised (such as when a trusted device is misplaced). If the calling account had been revoked `role`, emits a {RoleRevoked} event. Requirements: - the caller must be `account`. May emit a {RoleRevoked} event."
      },
      "requestWithdrawalFor((address,address,(uint8,uint256,uint256)),uint256)": {
        "details": "Locks the assets and request withdrawal. Emits the `WithdrawalRequested` event."
      },
      "requestWithdrawalSignatures(uint256)": {
        "details": "Requests withdrawal signatures for a specific withdrawal. Emits the `WithdrawalSignaturesRequested` event."
      },
      "revokeRole(bytes32,address)": {
        "details": "Revokes `role` from `account`. If `account` had been granted `role`, emits a {RoleRevoked} event. Requirements: - the caller must have ``role``'s admin role. May emit a {RoleRevoked} event."
      },
      "setContract(uint8,address)": {
        "details": "Sets the address of a contract with a specific role. Emits the event {ContractUpdated}.",
        "params": {
          "addr": "The address of the contract to set.",
          "contractType": "The role of the contract to set."
        }
      },
      "setEmergencyPauser(address)": {
        "details": "Grant emergency pauser role for `_addr`."
      },
      "setMinimumThresholds(address[],uint256[])": {
        "details": "Sets the minimum thresholds to withdraw. Requirements: - The method caller is admin. - The arrays have the same length and its length larger than 0. Emits the `MinimumThresholdsUpdated` event."
      },
      "setThreshold(uint256,uint256)": {
        "details": "Sets the threshold. Requirements: - The method caller is admin. Emits the `ThresholdUpdated` event."
      },
      "tryBulkAcknowledgeMainchainWithdrew(uint256[])": {
        "details": "Marks the withdrawals are done on mainchain and returns the boolean array indicating whether the withdrawal vote is already done before. Requirements: - The method caller is a validator. Emits the `MainchainWithdrew` once the valid call passes the quorum threshold."
      },
      "tryBulkDepositFor((uint256,uint8,(address,address,uint256),(address,address,uint256),(uint8,uint256,uint256))[])": {
        "details": "Tries bulk deposits based on the receipts and returns the boolean array indicating whether the deposit vote is already done before. Reverts if the deposit is invalid or is voted by the validator again. Requirements: - The method caller is a validator. Emits the `Deposited` once the assets are released."
      },
      "unpause()": {
        "details": "Triggers unpaused state."
      }
    },
    "events": {
      "ContractUpdated(uint8,address)": {
        "details": "Emitted when a contract is updated."
      },
      "DepositVoted(address,uint256,uint256,bytes32)": {
        "details": "Emitted when a deposit is voted"
      },
      "Deposited(bytes32,(uint256,uint8,(address,address,uint256),(address,address,uint256),(uint8,uint256,uint256)))": {
        "details": "Emitted when the assets are depositted"
      },
      "Initialized(uint8)": {
        "details": "Triggered when the contract has been initialized or reinitialized."
      },
      "MainchainWithdrew(bytes32,(uint256,uint8,(address,address,uint256),(address,address,uint256),(uint8,uint256,uint256)))": {
        "details": "Emitted when the assets are withdrawn on mainchain"
      },
      "MinimumThresholdsUpdated(address[],uint256[])": {
        "details": "Emitted when the minimum thresholds are updated"
      },
      "Paused(address)": {
        "details": "Emitted when the pause is triggered by `account`."
      },
      "RoleAdminChanged(bytes32,bytes32,bytes32)": {
        "details": "Emitted when `newAdminRole` is set as ``role``'s admin role, replacing `previousAdminRole` `DEFAULT_ADMIN_ROLE` is the starting admin for all roles, despite {RoleAdminChanged} not being emitted signaling this. _Available since v3.1._"
      },
      "RoleGranted(bytes32,address,address)": {
        "details": "Emitted when `account` is granted `role`. `sender` is the account that originated the contract call, an admin role bearer except when using {AccessControl-_setupRole}."
      },
      "RoleRevoked(bytes32,address,address)": {
        "details": "Emitted when `account` is revoked `role`. `sender` is the account that originated the contract call:   - if using `revokeRole`, it is the admin role bearer   - if using `renounceRole`, it is the role bearer (i.e. `account`)"
      },
      "ThresholdUpdated(uint256,uint256,uint256,uint256,uint256)": {
        "details": "Emitted when the threshold is updated"
      },
      "TokenMapped(address[],address[],uint256[],uint8[])": {
        "details": "Emitted when the tokens are mapped"
      },
      "TrustedThresholdUpdated(uint256,uint256,uint256,uint256,uint256)": {
        "details": "Emitted when the threshold is updated"
      },
      "Unpaused(address)": {
        "details": "Emitted when the pause is lifted by `account`."
      },
      "WithdrawalRequested(bytes32,(uint256,uint8,(address,address,uint256),(address,address,uint256),(uint8,uint256,uint256)))": {
        "details": "Emitted when the withdrawal is requested"
      },
      "WithdrawalSignaturesRequested(bytes32,(uint256,uint8,(address,address,uint256),(address,address,uint256),(uint8,uint256,uint256)))": {
        "details": "Emitted when the withdrawal signatures is requested"
      }
    },
    "errors": {
      "ErrAlreadyVoted(address)": [
        {
          "details": "Error indicating that a voter has already voted.",
          "params": {
            "voter": "The address of the voter who has already voted."
          }
        }
      ],
      "ErrContractTypeNotFound(uint8)": [
        {
          "details": "Error of invalid role."
        }
      ],
      "ErrERC1155MintingFailed()": [
        {
          "details": "Error indicating that the mint of ERC1155 tokens has failed."
        }
      ],
      "ErrERC20MintingFailed()": [
        {
          "details": "Error indicating that the minting of ERC20 tokens has failed."
        }
      ],
      "ErrERC721MintingFailed()": [
        {
          "details": "Error indicating that the minting of ERC721 tokens has failed."
        }
      ],
      "ErrEmptyArray()": [
        {
          "details": "Error indicating that an array is empty when it should contain elements."
        }
      ],
      "ErrInvalidChainId(bytes4,uint256,uint256)": [
        {
          "details": "Error indicating that the chain ID is invalid.",
          "params": {
            "actual": "Current chain ID that executing function.",
            "expected": "Expected chain ID required for the tx to success.",
            "msgSig": "The function signature (bytes4) of the operation that encountered an invalid chain ID."
          }
        }
      ],
      "ErrInvalidInfo()": [
        {
          "details": "Error indicating that the provided information is invalid."
        }
      ],
      "ErrInvalidReceipt()": [
        {
          "details": "Error indicating that a receipt is invalid."
        }
      ],
      "ErrInvalidReceiptKind()": [
        {
          "details": "Error indicating that a receipt kind is invalid."
        }
      ],
      "ErrInvalidRequest()": [
        {
          "details": "Error indicating that a request is invalid."
        }
      ],
      "ErrInvalidThreshold(bytes4)": [
        {
          "details": "Error indicating that the provided threshold is invalid for a specific function signature.",
          "params": {
            "msgSig": "The function signature (bytes4) that the invalid threshold applies to."
          }
        }
      ],
      "ErrInvalidTokenStandard()": [
        {
          "details": "Error indicating that a token standard is invalid."
        }
      ],
      "ErrInvalidTrustedThreshold()": [
        {
          "details": "Error thrown when an invalid trusted threshold is specified."
        }
      ],
      "ErrLengthMismatch(bytes4)": [
        {
          "details": "Error indicating a mismatch in the length of input parameters or arrays for a specific function.",
          "params": {
            "msgSig": "The function signature (bytes4) that has a length mismatch."
          }
        }
      ],
      "ErrQueryForTooSmallQuantity()": [
        {
          "details": "Throwed when the ERC20 withdrawal quantity is less than the minimum threshold."
        }
      ],
      "ErrTokenCouldNotTransfer((uint8,uint256,uint256),address,address)": [
        {
          "details": "Error indicating that the `transfer` has failed.",
          "params": {
            "to": "Receiver of the token value.",
            "token": "Address of the token.",
            "tokenInfo": "Info of the token including ERC standard, id or quantity."
          }
        }
      ],
      "ErrTokenCouldNotTransferFrom((uint8,uint256,uint256),address,address,address)": [
        {
          "details": "Error indicating that the `handleAssetIn` has failed.",
          "params": {
            "from": "Owner of the token value.",
            "to": "Receiver of the token value.",
            "token": "Address of the token.",
            "tokenInfo": "Info of the token including ERC standard, id or quantity."
          }
        }
      ],
      "ErrUnauthorized(bytes4,uint8)": [
        {
          "details": "Error indicating that the caller is unauthorized to perform a specific function.",
          "params": {
            "expectedRole": "The role required to perform the function.",
            "msgSig": "The function signature (bytes4) that the caller is unauthorized to perform."
          }
        }
      ],
      "ErrUnsupportedStandard()": [
        {
          "details": "Error indicating that an unsupported standard is encountered."
        }
      ],
      "ErrUnsupportedToken()": [
        {
          "details": "Error indicating that a token is not supported."
        }
      ],
      "ErrWithdrawalsMigrated()": [
        {
          "details": "Error thrown when attempting to withdraw funds that have already been migrated."
        }
      ],
      "ErrWithdrawnOnMainchainAlready()": [
        {
          "details": "Error thrown when attempting to withdraw funds that have already been withdrawn on the mainchain."
        }
      ],
      "ErrZeroCodeContract(address)": [
        {
          "details": "Error of set to non-contract."
        }
      ]
    }
  },
  "isFoundry": true,
  "nonce": 192812,
  "numDeployments": 1,
  "storageLayout": {
    "storage": [
      {
        "astId": 58352,
        "contract": "src/ronin/gateway/RoninGatewayV3.sol:RoninGatewayV3",
        "label": "_paused",
        "offset": 0,
        "slot": "0",
        "type": "t_bool"
      },
      {
        "astId": 103484,
        "contract": "src/ronin/gateway/RoninGatewayV3.sol:RoninGatewayV3",
        "label": "_num",
        "offset": 0,
        "slot": "1",
        "type": "t_uint256"
      },
      {
        "astId": 103486,
        "contract": "src/ronin/gateway/RoninGatewayV3.sol:RoninGatewayV3",
        "label": "_denom",
        "offset": 0,
        "slot": "2",
        "type": "t_uint256"
      },
      {
        "astId": 103488,
        "contract": "src/ronin/gateway/RoninGatewayV3.sol:RoninGatewayV3",
        "label": "______deprecated",
        "offset": 0,
        "slot": "3",
        "type": "t_address"
      },
      {
        "astId": 103490,
        "contract": "src/ronin/gateway/RoninGatewayV3.sol:RoninGatewayV3",
        "label": "nonce",
        "offset": 0,
        "slot": "4",
        "type": "t_uint256"
      },
      {
        "astId": 103492,
        "contract": "src/ronin/gateway/RoninGatewayV3.sol:RoninGatewayV3",
        "label": "emergencyPauser",
        "offset": 0,
        "slot": "5",
        "type": "t_address"
      },
      {
        "astId": 103497,
        "contract": "src/ronin/gateway/RoninGatewayV3.sol:RoninGatewayV3",
        "label": "______gap",
        "offset": 0,
        "slot": "6",
        "type": "t_array(t_uint256)49_storage"
      },
      {
        "astId": 58190,
        "contract": "src/ronin/gateway/RoninGatewayV3.sol:RoninGatewayV3",
        "label": "_initialized",
        "offset": 0,
        "slot": "55",
        "type": "t_uint8"
      },
      {
        "astId": 58193,
        "contract": "src/ronin/gateway/RoninGatewayV3.sol:RoninGatewayV3",
        "label": "_initializing",
        "offset": 1,
        "slot": "55",
        "type": "t_bool"
      },
      {
        "astId": 103711,
        "contract": "src/ronin/gateway/RoninGatewayV3.sol:RoninGatewayV3",
        "label": "minimumThreshold",
        "offset": 0,
        "slot": "56",
        "type": "t_mapping(t_address,t_uint256)"
      },
      {
        "astId": 103716,
        "contract": "src/ronin/gateway/RoninGatewayV3.sol:RoninGatewayV3",
        "label": "______gap",
        "offset": 0,
        "slot": "57",
        "type": "t_array(t_uint256)50_storage"
      },
      {
        "astId": 56841,
        "contract": "src/ronin/gateway/RoninGatewayV3.sol:RoninGatewayV3",
        "label": "_roles",
        "offset": 0,
        "slot": "107",
        "type": "t_mapping(t_bytes32,t_struct(RoleData)56836_storage)"
      },
      {
        "astId": 57155,
        "contract": "src/ronin/gateway/RoninGatewayV3.sol:RoninGatewayV3",
        "label": "_roleMembers",
        "offset": 0,
        "slot": "108",
        "type": "t_mapping(t_bytes32,t_struct(AddressSet)63339_storage)"
      },
      {
        "astId": 121409,
        "contract": "src/ronin/gateway/RoninGatewayV3.sol:RoninGatewayV3",
        "label": "___deprecated4",
        "offset": 0,
        "slot": "109",
        "type": "t_bool"
      },
      {
        "astId": 121412,
        "contract": "src/ronin/gateway/RoninGatewayV3.sol:RoninGatewayV3",
        "label": "withdrawalCount",
        "offset": 0,
        "slot": "110",
        "type": "t_uint256"
      },
      {
        "astId": 121420,
        "contract": "src/ronin/gateway/RoninGatewayV3.sol:RoninGatewayV3",
        "label": "depositVote",
        "offset": 0,
        "slot": "111",
        "type": "t_mapping(t_uint256,t_mapping(t_uint256,t_struct(Vote)111952_storage))"
      },
      {
        "astId": 121426,
        "contract": "src/ronin/gateway/RoninGatewayV3.sol:RoninGatewayV3",
        "label": "mainchainWithdrewVote",
        "offset": 0,
        "slot": "112",
        "type": "t_mapping(t_uint256,t_struct(Vote)111952_storage)"
      },
      {
        "astId": 121432,
        "contract": "src/ronin/gateway/RoninGatewayV3.sol:RoninGatewayV3",
        "label": "withdrawal",
        "offset": 0,
        "slot": "113",
        "type": "t_mapping(t_uint256,t_struct(Receipt)114148_storage)"
      },
      {
        "astId": 121439,
        "contract": "src/ronin/gateway/RoninGatewayV3.sol:RoninGatewayV3",
        "label": "_withdrawalSig",
        "offset": 0,
        "slot": "114",
        "type": "t_mapping(t_uint256,t_mapping(t_address,t_bytes_storage))"
      },
      {
        "astId": 121447,
        "contract": "src/ronin/gateway/RoninGatewayV3.sol:RoninGatewayV3",
        "label": "_mainchainToken",
        "offset": 0,
        "slot": "115",
        "type": "t_mapping(t_address,t_mapping(t_uint256,t_struct(MappedToken)110667_storage))"
      },
      {
        "astId": 121450,
        "contract": "src/ronin/gateway/RoninGatewayV3.sol:RoninGatewayV3",
        "label": "____deprecated0",
        "offset": 0,
        "slot": "116",
        "type": "t_address"
      },
      {
        "astId": 121453,
        "contract": "src/ronin/gateway/RoninGatewayV3.sol:RoninGatewayV3",
        "label": "____deprecated1",
        "offset": 0,
        "slot": "117",
        "type": "t_address"
      },
      {
        "astId": 121459,
        "contract": "src/ronin/gateway/RoninGatewayV3.sol:RoninGatewayV3",
        "label": "withdrawalStatVote",
        "offset": 0,
        "slot": "118",
        "type": "t_mapping(t_uint256,t_struct(Vote)111952_storage)"
      },
      {
        "astId": 121462,
        "contract": "src/ronin/gateway/RoninGatewayV3.sol:RoninGatewayV3",
        "label": "____deprecated2",
        "offset": 0,
        "slot": "119",
        "type": "t_address"
      },
      {
        "astId": 121464,
        "contract": "src/ronin/gateway/RoninGatewayV3.sol:RoninGatewayV3",
        "label": "_trustedNum",
        "offset": 0,
        "slot": "120",
        "type": "t_uint256"
      },
      {
        "astId": 121466,
        "contract": "src/ronin/gateway/RoninGatewayV3.sol:RoninGatewayV3",
        "label": "_trustedDenom",
        "offset": 0,
        "slot": "121",
        "type": "t_uint256"
      }
    ],
    "types": {
      "t_address": {
        "encoding": "inplace",
        "label": "address",
        "numberOfBytes": "20"
      },
      "t_array(t_address)dyn_storage": {
        "encoding": "dynamic_array",
        "label": "address[]",
        "numberOfBytes": "32",
        "base": "t_address"
      },
      "t_array(t_bytes32)dyn_storage": {
        "encoding": "dynamic_array",
        "label": "bytes32[]",
        "numberOfBytes": "32",
        "base": "t_bytes32"
      },
      "t_array(t_uint256)49_storage": {
        "encoding": "inplace",
        "label": "uint256[49]",
        "numberOfBytes": "1568",
        "base": "t_uint256"
      },
      "t_array(t_uint256)50_storage": {
        "encoding": "inplace",
        "label": "uint256[50]",
        "numberOfBytes": "1600",
        "base": "t_uint256"
      },
      "t_bool": {
        "encoding": "inplace",
        "label": "bool",
        "numberOfBytes": "1"
      },
      "t_bytes32": {
        "encoding": "inplace",
        "label": "bytes32",
        "numberOfBytes": "32"
      },
      "t_bytes_storage": {
        "encoding": "bytes",
        "label": "bytes",
        "numberOfBytes": "32"
      },
      "t_enum(Kind)113945": {
        "encoding": "inplace",
        "label": "enum Transfer.Kind",
        "numberOfBytes": "1"
      },
      "t_enum(TokenStandard)112271": {
        "encoding": "inplace",
        "label": "enum TokenStandard",
        "numberOfBytes": "1"
      },
      "t_enum(VoteStatus)110686": {
        "encoding": "inplace",
        "label": "enum VoteStatusConsumer.VoteStatus",
        "numberOfBytes": "1"
      },
      "t_mapping(t_address,t_bool)": {
        "encoding": "mapping",
        "key": "t_address",
        "label": "mapping(address => bool)",
        "numberOfBytes": "32",
        "value": "t_bool"
      },
      "t_mapping(t_address,t_bytes32)": {
        "encoding": "mapping",
        "key": "t_address",
        "label": "mapping(address => bytes32)",
        "numberOfBytes": "32",
        "value": "t_bytes32"
      },
      "t_mapping(t_address,t_bytes_storage)": {
        "encoding": "mapping",
        "key": "t_address",
        "label": "mapping(address => bytes)",
        "numberOfBytes": "32",
        "value": "t_bytes_storage"
      },
      "t_mapping(t_address,t_mapping(t_uint256,t_struct(MappedToken)110667_storage))": {
        "encoding": "mapping",
        "key": "t_address",
        "label": "mapping(address => mapping(uint256 => struct MappedTokenConsumer.MappedToken))",
        "numberOfBytes": "32",
        "value": "t_mapping(t_uint256,t_struct(MappedToken)110667_storage)"
      },
      "t_mapping(t_address,t_uint256)": {
        "encoding": "mapping",
        "key": "t_address",
        "label": "mapping(address => uint256)",
        "numberOfBytes": "32",
        "value": "t_uint256"
      },
      "t_mapping(t_bytes32,t_struct(AddressSet)63339_storage)": {
        "encoding": "mapping",
        "key": "t_bytes32",
        "label": "mapping(bytes32 => struct EnumerableSet.AddressSet)",
        "numberOfBytes": "32",
        "value": "t_struct(AddressSet)63339_storage"
      },
      "t_mapping(t_bytes32,t_struct(RoleData)56836_storage)": {
        "encoding": "mapping",
        "key": "t_bytes32",
        "label": "mapping(bytes32 => struct AccessControl.RoleData)",
        "numberOfBytes": "32",
        "value": "t_struct(RoleData)56836_storage"
      },
      "t_mapping(t_bytes32,t_uint256)": {
        "encoding": "mapping",
        "key": "t_bytes32",
        "label": "mapping(bytes32 => uint256)",
        "numberOfBytes": "32",
        "value": "t_uint256"
      },
      "t_mapping(t_uint256,t_mapping(t_address,t_bytes_storage))": {
        "encoding": "mapping",
        "key": "t_uint256",
        "label": "mapping(uint256 => mapping(address => bytes))",
        "numberOfBytes": "32",
        "value": "t_mapping(t_address,t_bytes_storage)"
      },
      "t_mapping(t_uint256,t_mapping(t_uint256,t_struct(Vote)111952_storage))": {
        "encoding": "mapping",
        "key": "t_uint256",
        "label": "mapping(uint256 => mapping(uint256 => struct IsolatedGovernance.Vote))",
        "numberOfBytes": "32",
        "value": "t_mapping(t_uint256,t_struct(Vote)111952_storage)"
      },
      "t_mapping(t_uint256,t_struct(MappedToken)110667_storage)": {
        "encoding": "mapping",
        "key": "t_uint256",
        "label": "mapping(uint256 => struct MappedTokenConsumer.MappedToken)",
        "numberOfBytes": "32",
        "value": "t_struct(MappedToken)110667_storage"
      },
      "t_mapping(t_uint256,t_struct(Receipt)114148_storage)": {
        "encoding": "mapping",
        "key": "t_uint256",
        "label": "mapping(uint256 => struct Transfer.Receipt)",
        "numberOfBytes": "32",
        "value": "t_struct(Receipt)114148_storage"
      },
      "t_mapping(t_uint256,t_struct(Vote)111952_storage)": {
        "encoding": "mapping",
        "key": "t_uint256",
        "label": "mapping(uint256 => struct IsolatedGovernance.Vote)",
        "numberOfBytes": "32",
        "value": "t_struct(Vote)111952_storage"
      },
      "t_struct(AddressSet)63339_storage": {
        "encoding": "inplace",
        "label": "struct EnumerableSet.AddressSet",
        "numberOfBytes": "64",
        "members": [
          {
            "astId": 63338,
            "contract": "src/ronin/gateway/RoninGatewayV3.sol:RoninGatewayV3",
            "label": "_inner",
            "offset": 0,
            "slot": "0",
            "type": "t_struct(Set)63038_storage"
          }
        ]
      },
      "t_struct(MappedToken)110667_storage": {
        "encoding": "inplace",
        "label": "struct MappedTokenConsumer.MappedToken",
        "numberOfBytes": "32",
        "members": [
          {
            "astId": 110664,
            "contract": "src/ronin/gateway/RoninGatewayV3.sol:RoninGatewayV3",
            "label": "erc",
            "offset": 0,
            "slot": "0",
            "type": "t_enum(TokenStandard)112271"
          },
          {
            "astId": 110666,
            "contract": "src/ronin/gateway/RoninGatewayV3.sol:RoninGatewayV3",
            "label": "tokenAddr",
            "offset": 1,
            "slot": "0",
            "type": "t_address"
          }
        ]
      },
      "t_struct(Receipt)114148_storage": {
        "encoding": "inplace",
        "label": "struct Transfer.Receipt",
        "numberOfBytes": "352",
        "members": [
          {
            "astId": 114135,
            "contract": "src/ronin/gateway/RoninGatewayV3.sol:RoninGatewayV3",
            "label": "id",
            "offset": 0,
            "slot": "0",
            "type": "t_uint256"
          },
          {
            "astId": 114138,
            "contract": "src/ronin/gateway/RoninGatewayV3.sol:RoninGatewayV3",
            "label": "kind",
            "offset": 0,
            "slot": "1",
            "type": "t_enum(Kind)113945"
          },
          {
            "astId": 114141,
            "contract": "src/ronin/gateway/RoninGatewayV3.sol:RoninGatewayV3",
            "label": "mainchain",
            "offset": 0,
            "slot": "2",
            "type": "t_struct(TokenOwner)113435_storage"
          },
          {
            "astId": 114144,
            "contract": "src/ronin/gateway/RoninGatewayV3.sol:RoninGatewayV3",
            "label": "ronin",
            "offset": 0,
            "slot": "5",
            "type": "t_struct(TokenOwner)113435_storage"
          },
          {
            "astId": 114147,
            "contract": "src/ronin/gateway/RoninGatewayV3.sol:RoninGatewayV3",
            "label": "info",
            "offset": 0,
            "slot": "8",
            "type": "t_struct(TokenInfo)112279_storage"
          }
        ]
      },
      "t_struct(RoleData)56836_storage": {
        "encoding": "inplace",
        "label": "struct AccessControl.RoleData",
        "numberOfBytes": "64",
        "members": [
          {
            "astId": 56833,
            "contract": "src/ronin/gateway/RoninGatewayV3.sol:RoninGatewayV3",
            "label": "members",
            "offset": 0,
            "slot": "0",
            "type": "t_mapping(t_address,t_bool)"
          },
          {
            "astId": 56835,
            "contract": "src/ronin/gateway/RoninGatewayV3.sol:RoninGatewayV3",
            "label": "adminRole",
            "offset": 0,
            "slot": "1",
            "type": "t_bytes32"
          }
        ]
      },
      "t_struct(Set)63038_storage": {
        "encoding": "inplace",
        "label": "struct EnumerableSet.Set",
        "numberOfBytes": "64",
        "members": [
          {
            "astId": 63033,
            "contract": "src/ronin/gateway/RoninGatewayV3.sol:RoninGatewayV3",
            "label": "_values",
            "offset": 0,
            "slot": "0",
            "type": "t_array(t_bytes32)dyn_storage"
          },
          {
            "astId": 63037,
            "contract": "src/ronin/gateway/RoninGatewayV3.sol:RoninGatewayV3",
            "label": "_indexes",
            "offset": 0,
            "slot": "1",
            "type": "t_mapping(t_bytes32,t_uint256)"
          }
        ]
      },
      "t_struct(TokenInfo)112279_storage": {
        "encoding": "inplace",
        "label": "struct TokenInfo",
        "numberOfBytes": "96",
        "members": [
          {
            "astId": 112274,
            "contract": "src/ronin/gateway/RoninGatewayV3.sol:RoninGatewayV3",
            "label": "erc",
            "offset": 0,
            "slot": "0",
            "type": "t_enum(TokenStandard)112271"
          },
          {
            "astId": 112276,
            "contract": "src/ronin/gateway/RoninGatewayV3.sol:RoninGatewayV3",
            "label": "id",
            "offset": 0,
            "slot": "1",
            "type": "t_uint256"
          },
          {
            "astId": 112278,
            "contract": "src/ronin/gateway/RoninGatewayV3.sol:RoninGatewayV3",
            "label": "quantity",
            "offset": 0,
            "slot": "2",
            "type": "t_uint256"
          }
        ]
      },
      "t_struct(TokenOwner)113435_storage": {
        "encoding": "inplace",
        "label": "struct TokenOwner",
        "numberOfBytes": "96",
        "members": [
          {
            "astId": 113430,
            "contract": "src/ronin/gateway/RoninGatewayV3.sol:RoninGatewayV3",
            "label": "addr",
            "offset": 0,
            "slot": "0",
            "type": "t_address"
          },
          {
            "astId": 113432,
            "contract": "src/ronin/gateway/RoninGatewayV3.sol:RoninGatewayV3",
            "label": "tokenAddr",
            "offset": 0,
            "slot": "1",
            "type": "t_address"
          },
          {
            "astId": 113434,
            "contract": "src/ronin/gateway/RoninGatewayV3.sol:RoninGatewayV3",
            "label": "chainId",
            "offset": 0,
            "slot": "2",
            "type": "t_uint256"
          }
        ]
      },
      "t_struct(Vote)111952_storage": {
        "encoding": "inplace",
        "label": "struct IsolatedGovernance.Vote",
        "numberOfBytes": "192",
        "members": [
          {
            "astId": 111934,
            "contract": "src/ronin/gateway/RoninGatewayV3.sol:RoninGatewayV3",
            "label": "status",
            "offset": 0,
            "slot": "0",
            "type": "t_enum(VoteStatus)110686"
          },
          {
            "astId": 111936,
            "contract": "src/ronin/gateway/RoninGatewayV3.sol:RoninGatewayV3",
            "label": "finalHash",
            "offset": 0,
            "slot": "1",
            "type": "t_bytes32"
          },
          {
            "astId": 111941,
            "contract": "src/ronin/gateway/RoninGatewayV3.sol:RoninGatewayV3",
            "label": "voteHashOf",
            "offset": 0,
            "slot": "2",
            "type": "t_mapping(t_address,t_bytes32)"
          },
          {
            "astId": 111944,
            "contract": "src/ronin/gateway/RoninGatewayV3.sol:RoninGatewayV3",
            "label": "expiredAt",
            "offset": 0,
            "slot": "3",
            "type": "t_uint256"
          },
          {
            "astId": 111947,
            "contract": "src/ronin/gateway/RoninGatewayV3.sol:RoninGatewayV3",
            "label": "createdAt",
            "offset": 0,
            "slot": "4",
            "type": "t_uint256"
          },
          {
            "astId": 111951,
            "contract": "src/ronin/gateway/RoninGatewayV3.sol:RoninGatewayV3",
            "label": "voters",
            "offset": 0,
            "slot": "5",
            "type": "t_array(t_address)dyn_storage"
          }
        ]
      },
      "t_uint256": {
        "encoding": "inplace",
        "label": "uint256",
        "numberOfBytes": "32"
      },
      "t_uint8": {
        "encoding": "inplace",
        "label": "uint8",
        "numberOfBytes": "1"
      }
    }
  },
  "timestamp": 1713251844,
  "userdoc": {
    "version": 1,
    "kind": "user",
    "methods": {
      "depositFor((uint256,uint8,(address,address,uint256),(address,address,uint256),(uint8,uint256,uint256)))": {
        "notice": "The assets will be transferred whenever the valid call passes the quorum threshold."
      },
      "tryBulkAcknowledgeMainchainWithdrew(uint256[])": {
        "notice": "Not reverting to avoid unnecessary failed transactions because the validators can send transactions at the same time."
      },
      "tryBulkDepositFor((uint256,uint8,(address,address,uint256),(address,address,uint256),(uint8,uint256,uint256))[])": {
        "notice": "The assets will be transferred whenever the valid call for the receipt passes the quorum threshold. Not reverting to avoid unnecessary failed transactions because the validators can send transactions at the same time."
      }
    }
  }
}