{
  "abi": [
    {
      "type": "function",
      "name": "DOMAIN_SEPARATOR",
      "inputs": [],
      "outputs": [
        {
          "name": "",
          "type": "bytes32",
          "internalType": "bytes32"
        }
      ],
      "stateMutability": "view"
    },
    {
      "type": "function",
      "name": "addBridgeOperators",
      "inputs": [
        {
          "name": "voteWeights",
          "type": "uint96[]",
          "internalType": "uint96[]"
        },
        {
          "name": "governors",
          "type": "address[]",
          "internalType": "address[]"
        },
        {
          "name": "bridgeOperators",
          "type": "address[]",
          "internalType": "address[]"
        }
      ],
      "outputs": [],
      "stateMutability": "nonpayable"
    },
    {
      "type": "function",
      "name": "castGlobalProposalBySignatures",
      "inputs": [
        {
          "name": "globalProposal",
          "type": "tuple",
          "internalType": "struct GlobalProposal.GlobalProposalDetail",
          "components": [
            {
              "name": "nonce",
              "type": "uint256",
              "internalType": "uint256"
            },
            {
              "name": "expiryTimestamp",
              "type": "uint256",
              "internalType": "uint256"
            },
            {
              "name": "executor",
              "type": "address",
              "internalType": "address"
            },
            {
              "name": "targetOptions",
              "type": "uint8[]",
              "internalType": "enum GlobalProposal.TargetOption[]"
            },
            {
              "name": "values",
              "type": "uint256[]",
              "internalType": "uint256[]"
            },
            {
              "name": "calldatas",
              "type": "bytes[]",
              "internalType": "bytes[]"
            },
            {
              "name": "gasAmounts",
              "type": "uint256[]",
              "internalType": "uint256[]"
            }
          ]
        },
        {
          "name": "supports_",
          "type": "uint8[]",
          "internalType": "enum Ballot.VoteType[]"
        },
        {
          "name": "signatures",
          "type": "tuple[]",
          "internalType": "struct SignatureConsumer.Signature[]",
          "components": [
            {
              "name": "v",
              "type": "uint8",
              "internalType": "uint8"
            },
            {
              "name": "r",
              "type": "bytes32",
              "internalType": "bytes32"
            },
            {
              "name": "s",
              "type": "bytes32",
              "internalType": "bytes32"
            }
          ]
        }
      ],
      "outputs": [],
      "stateMutability": "nonpayable"
    },
    {
      "type": "function",
      "name": "castProposalBySignatures",
      "inputs": [
        {
          "name": "proposal",
          "type": "tuple",
          "internalType": "struct Proposal.ProposalDetail",
          "components": [
            {
              "name": "nonce",
              "type": "uint256",
              "internalType": "uint256"
            },
            {
              "name": "chainId",
              "type": "uint256",
              "internalType": "uint256"
            },
            {
              "name": "expiryTimestamp",
              "type": "uint256",
              "internalType": "uint256"
            },
            {
              "name": "executor",
              "type": "address",
              "internalType": "address"
            },
            {
              "name": "targets",
              "type": "address[]",
              "internalType": "address[]"
            },
            {
              "name": "values",
              "type": "uint256[]",
              "internalType": "uint256[]"
            },
            {
              "name": "calldatas",
              "type": "bytes[]",
              "internalType": "bytes[]"
            },
            {
              "name": "gasAmounts",
              "type": "uint256[]",
              "internalType": "uint256[]"
            }
          ]
        },
        {
          "name": "supports_",
          "type": "uint8[]",
          "internalType": "enum Ballot.VoteType[]"
        },
        {
          "name": "signatures",
          "type": "tuple[]",
          "internalType": "struct SignatureConsumer.Signature[]",
          "components": [
            {
              "name": "v",
              "type": "uint8",
              "internalType": "uint8"
            },
            {
              "name": "r",
              "type": "bytes32",
              "internalType": "bytes32"
            },
            {
              "name": "s",
              "type": "bytes32",
              "internalType": "bytes32"
            }
          ]
        }
      ],
      "outputs": [],
      "stateMutability": "nonpayable"
    },
    {
      "type": "function",
      "name": "castProposalVoteForCurrentNetwork",
      "inputs": [
        {
          "name": "proposal",
          "type": "tuple",
          "internalType": "struct Proposal.ProposalDetail",
          "components": [
            {
              "name": "nonce",
              "type": "uint256",
              "internalType": "uint256"
            },
            {
              "name": "chainId",
              "type": "uint256",
              "internalType": "uint256"
            },
            {
              "name": "expiryTimestamp",
              "type": "uint256",
              "internalType": "uint256"
            },
            {
              "name": "executor",
              "type": "address",
              "internalType": "address"
            },
            {
              "name": "targets",
              "type": "address[]",
              "internalType": "address[]"
            },
            {
              "name": "values",
              "type": "uint256[]",
              "internalType": "uint256[]"
            },
            {
              "name": "calldatas",
              "type": "bytes[]",
              "internalType": "bytes[]"
            },
            {
              "name": "gasAmounts",
              "type": "uint256[]",
              "internalType": "uint256[]"
            }
          ]
        },
        {
          "name": "support",
          "type": "uint8",
          "internalType": "enum Ballot.VoteType"
        }
      ],
      "outputs": [],
      "stateMutability": "nonpayable"
    },
    {
      "type": "function",
      "name": "checkThreshold",
      "inputs": [
        {
          "name": "voteWeight",
          "type": "uint256",
          "internalType": "uint256"
        }
      ],
      "outputs": [
        {
          "name": "",
          "type": "bool",
          "internalType": "bool"
        }
      ],
      "stateMutability": "view"
    },
    {
      "type": "function",
      "name": "deleteExpired",
      "inputs": [
        {
          "name": "_chainId",
          "type": "uint256",
          "internalType": "uint256"
        },
        {
          "name": "_round",
          "type": "uint256",
          "internalType": "uint256"
        }
      ],
      "outputs": [],
      "stateMutability": "nonpayable"
    },
    {
      "type": "function",
      "name": "execute",
      "inputs": [
        {
          "name": "proposal",
          "type": "tuple",
          "internalType": "struct Proposal.ProposalDetail",
          "components": [
            {
              "name": "nonce",
              "type": "uint256",
              "internalType": "uint256"
            },
            {
              "name": "chainId",
              "type": "uint256",
              "internalType": "uint256"
            },
            {
              "name": "expiryTimestamp",
              "type": "uint256",
              "internalType": "uint256"
            },
            {
              "name": "executor",
              "type": "address",
              "internalType": "address"
            },
            {
              "name": "targets",
              "type": "address[]",
              "internalType": "address[]"
            },
            {
              "name": "values",
              "type": "uint256[]",
              "internalType": "uint256[]"
            },
            {
              "name": "calldatas",
              "type": "bytes[]",
              "internalType": "bytes[]"
            },
            {
              "name": "gasAmounts",
              "type": "uint256[]",
              "internalType": "uint256[]"
            }
          ]
        }
      ],
      "outputs": [],
      "stateMutability": "nonpayable"
    },
    {
      "type": "function",
      "name": "executeGlobal",
      "inputs": [
        {
          "name": "globalProposal",
          "type": "tuple",
          "internalType": "struct GlobalProposal.GlobalProposalDetail",
          "components": [
            {
              "name": "nonce",
              "type": "uint256",
              "internalType": "uint256"
            },
            {
              "name": "expiryTimestamp",
              "type": "uint256",
              "internalType": "uint256"
            },
            {
              "name": "executor",
              "type": "address",
              "internalType": "address"
            },
            {
              "name": "targetOptions",
              "type": "uint8[]",
              "internalType": "enum GlobalProposal.TargetOption[]"
            },
            {
              "name": "values",
              "type": "uint256[]",
              "internalType": "uint256[]"
            },
            {
              "name": "calldatas",
              "type": "bytes[]",
              "internalType": "bytes[]"
            },
            {
              "name": "gasAmounts",
              "type": "uint256[]",
              "internalType": "uint256[]"
            }
          ]
        }
      ],
      "outputs": [],
      "stateMutability": "nonpayable"
    },
    {
      "type": "function",
      "name": "getBridgeOperatorWeight",
      "inputs": [
        {
          "name": "bridgeOperator",
          "type": "address",
          "internalType": "address"
        }
      ],
      "outputs": [
        {
          "name": "weight",
          "type": "uint96",
          "internalType": "uint96"
        }
      ],
      "stateMutability": "view"
    },
    {
      "type": "function",
      "name": "getBridgeOperators",
      "inputs": [],
      "outputs": [
        {
          "name": "",
          "type": "address[]",
          "internalType": "address[]"
        }
      ],
      "stateMutability": "view"
    },
    {
      "type": "function",
      "name": "getCallbackRegisters",
      "inputs": [],
      "outputs": [
        {
          "name": "registers",
          "type": "address[]",
          "internalType": "address[]"
        }
      ],
      "stateMutability": "view"
    },
    {
      "type": "function",
      "name": "getContract",
      "inputs": [
        {
          "name": "contractType",
          "type": "uint8",
          "internalType": "enum ContractType"
        }
      ],
      "outputs": [
        {
          "name": "contract_",
          "type": "address",
          "internalType": "address"
        }
      ],
      "stateMutability": "view"
    },
    {
      "type": "function",
      "name": "getFullBridgeOperatorInfos",
      "inputs": [],
      "outputs": [
        {
          "name": "governors",
          "type": "address[]",
          "internalType": "address[]"
        },
        {
          "name": "bridgeOperators",
          "type": "address[]",
          "internalType": "address[]"
        },
        {
          "name": "weights",
          "type": "uint96[]",
          "internalType": "uint96[]"
        }
      ],
      "stateMutability": "view"
    },
    {
      "type": "function",
      "name": "getGlobalProposalSignatures",
      "inputs": [
        {
          "name": "round_",
          "type": "uint256",
          "internalType": "uint256"
        }
      ],
      "outputs": [
        {
          "name": "voters",
          "type": "address[]",
          "internalType": "address[]"
        },
        {
          "name": "supports_",
          "type": "uint8[]",
          "internalType": "enum Ballot.VoteType[]"
        },
        {
          "name": "signatures",
          "type": "tuple[]",
          "internalType": "struct SignatureConsumer.Signature[]",
          "components": [
            {
              "name": "v",
              "type": "uint8",
              "internalType": "uint8"
            },
            {
              "name": "r",
              "type": "bytes32",
              "internalType": "bytes32"
            },
            {
              "name": "s",
              "type": "bytes32",
              "internalType": "bytes32"
            }
          ]
        }
      ],
      "stateMutability": "view"
    },
    {
      "type": "function",
      "name": "getGovernorOf",
      "inputs": [
        {
          "name": "operator",
          "type": "address",
          "internalType": "address"
        }
      ],
      "outputs": [
        {
          "name": "governor",
          "type": "address",
          "internalType": "address"
        }
      ],
      "stateMutability": "view"
    },
    {
      "type": "function",
      "name": "getGovernorWeight",
      "inputs": [
        {
          "name": "governor",
          "type": "address",
          "internalType": "address"
        }
      ],
      "outputs": [
        {
          "name": "weight",
          "type": "uint96",
          "internalType": "uint96"
        }
      ],
      "stateMutability": "view"
    },
    {
      "type": "function",
      "name": "getGovernorWeights",
      "inputs": [
        {
          "name": "governors",
          "type": "address[]",
          "internalType": "address[]"
        }
      ],
      "outputs": [
        {
          "name": "weights",
          "type": "uint96[]",
          "internalType": "uint96[]"
        }
      ],
      "stateMutability": "view"
    },
    {
      "type": "function",
      "name": "getGovernors",
      "inputs": [],
      "outputs": [
        {
          "name": "",
          "type": "address[]",
          "internalType": "address[]"
        }
      ],
      "stateMutability": "view"
    },
    {
      "type": "function",
      "name": "getOperatorOf",
      "inputs": [
        {
          "name": "governor",
          "type": "address",
          "internalType": "address"
        }
      ],
      "outputs": [
        {
          "name": "operator",
          "type": "address",
          "internalType": "address"
        }
      ],
      "stateMutability": "view"
    },
    {
      "type": "function",
      "name": "getProposalExpiryDuration",
      "inputs": [],
      "outputs": [
        {
          "name": "",
          "type": "uint256",
          "internalType": "uint256"
        }
      ],
      "stateMutability": "view"
    },
    {
      "type": "function",
      "name": "getProposalSignatures",
      "inputs": [
        {
          "name": "_chainId",
          "type": "uint256",
          "internalType": "uint256"
        },
        {
          "name": "_round",
          "type": "uint256",
          "internalType": "uint256"
        }
      ],
      "outputs": [
        {
          "name": "_voters",
          "type": "address[]",
          "internalType": "address[]"
        },
        {
          "name": "_supports",
          "type": "uint8[]",
          "internalType": "enum Ballot.VoteType[]"
        },
        {
          "name": "_signatures",
          "type": "tuple[]",
          "internalType": "struct SignatureConsumer.Signature[]",
          "components": [
            {
              "name": "v",
              "type": "uint8",
              "internalType": "uint8"
            },
            {
              "name": "r",
              "type": "bytes32",
              "internalType": "bytes32"
            },
            {
              "name": "s",
              "type": "bytes32",
              "internalType": "bytes32"
            }
          ]
        }
      ],
      "stateMutability": "view"
    },
    {
      "type": "function",
      "name": "getThreshold",
      "inputs": [],
      "outputs": [
        {
          "name": "num",
          "type": "uint256",
          "internalType": "uint256"
        },
        {
          "name": "denom",
          "type": "uint256",
          "internalType": "uint256"
        }
      ],
      "stateMutability": "view"
    },
    {
      "type": "function",
      "name": "getTotalWeight",
      "inputs": [],
      "outputs": [
        {
          "name": "",
          "type": "uint256",
          "internalType": "uint256"
        }
      ],
      "stateMutability": "view"
    },
    {
      "type": "function",
      "name": "globalProposalVoted",
      "inputs": [
        {
          "name": "round_",
          "type": "uint256",
          "internalType": "uint256"
        },
        {
          "name": "voter",
          "type": "address",
          "internalType": "address"
        }
      ],
      "outputs": [
        {
          "name": "",
          "type": "bool",
          "internalType": "bool"
        }
      ],
      "stateMutability": "view"
    },
    {
      "type": "function",
      "name": "isBridgeOperator",
      "inputs": [
        {
          "name": "addr",
          "type": "address",
          "internalType": "address"
        }
      ],
      "outputs": [
        {
          "name": "",
          "type": "bool",
          "internalType": "bool"
        }
      ],
      "stateMutability": "view"
    },
    {
      "type": "function",
      "name": "minimumVoteWeight",
      "inputs": [],
      "outputs": [
        {
          "name": "",
          "type": "uint256",
          "internalType": "uint256"
        }
      ],
      "stateMutability": "view"
    },
    {
      "type": "function",
      "name": "proposalVoted",
      "inputs": [
        {
          "name": "_chainId",
          "type": "uint256",
          "internalType": "uint256"
        },
        {
          "name": "_round",
          "type": "uint256",
          "internalType": "uint256"
        },
        {
          "name": "_voter",
          "type": "address",
          "internalType": "address"
        }
      ],
      "outputs": [
        {
          "name": "",
          "type": "bool",
          "internalType": "bool"
        }
      ],
      "stateMutability": "view"
    },
    {
      "type": "function",
      "name": "propose",
      "inputs": [
        {
          "name": "chainId",
          "type": "uint256",
          "internalType": "uint256"
        },
        {
          "name": "expiryTimestamp",
          "type": "uint256",
          "internalType": "uint256"
        },
        {
          "name": "executor",
          "type": "address",
          "internalType": "address"
        },
        {
          "name": "targets",
          "type": "address[]",
          "internalType": "address[]"
        },
        {
          "name": "values",
          "type": "uint256[]",
          "internalType": "uint256[]"
        },
        {
          "name": "calldatas",
          "type": "bytes[]",
          "internalType": "bytes[]"
        },
        {
          "name": "gasAmounts",
          "type": "uint256[]",
          "internalType": "uint256[]"
        }
      ],
      "outputs": [],
      "stateMutability": "nonpayable"
    },
    {
      "type": "function",
      "name": "proposeGlobal",
      "inputs": [
        {
          "name": "expiryTimestamp",
          "type": "uint256",
          "internalType": "uint256"
        },
        {
          "name": "executor",
          "type": "address",
          "internalType": "address"
        },
        {
          "name": "targetOptions",
          "type": "uint8[]",
          "internalType": "enum GlobalProposal.TargetOption[]"
        },
        {
          "name": "values",
          "type": "uint256[]",
          "internalType": "uint256[]"
        },
        {
          "name": "calldatas",
          "type": "bytes[]",
          "internalType": "bytes[]"
        },
        {
          "name": "gasAmounts",
          "type": "uint256[]",
          "internalType": "uint256[]"
        }
      ],
      "outputs": [],
      "stateMutability": "nonpayable"
    },
    {
      "type": "function",
      "name": "proposeGlobalProposalStructAndCastVotes",
      "inputs": [
        {
          "name": "globalProposal",
          "type": "tuple",
          "internalType": "struct GlobalProposal.GlobalProposalDetail",
          "components": [
            {
              "name": "nonce",
              "type": "uint256",
              "internalType": "uint256"
            },
            {
              "name": "expiryTimestamp",
              "type": "uint256",
              "internalType": "uint256"
            },
            {
              "name": "executor",
              "type": "address",
              "internalType": "address"
            },
            {
              "name": "targetOptions",
              "type": "uint8[]",
              "internalType": "enum GlobalProposal.TargetOption[]"
            },
            {
              "name": "values",
              "type": "uint256[]",
              "internalType": "uint256[]"
            },
            {
              "name": "calldatas",
              "type": "bytes[]",
              "internalType": "bytes[]"
            },
            {
              "name": "gasAmounts",
              "type": "uint256[]",
              "internalType": "uint256[]"
            }
          ]
        },
        {
          "name": "supports_",
          "type": "uint8[]",
          "internalType": "enum Ballot.VoteType[]"
        },
        {
          "name": "signatures",
          "type": "tuple[]",
          "internalType": "struct SignatureConsumer.Signature[]",
          "components": [
            {
              "name": "v",
              "type": "uint8",
              "internalType": "uint8"
            },
            {
              "name": "r",
              "type": "bytes32",
              "internalType": "bytes32"
            },
            {
              "name": "s",
              "type": "bytes32",
              "internalType": "bytes32"
            }
          ]
        }
      ],
      "outputs": [],
      "stateMutability": "nonpayable"
    },
    {
      "type": "function",
      "name": "proposeProposalForCurrentNetwork",
      "inputs": [
        {
          "name": "expiryTimestamp",
          "type": "uint256",
          "internalType": "uint256"
        },
        {
          "name": "executor",
          "type": "address",
          "internalType": "address"
        },
        {
          "name": "targets",
          "type": "address[]",
          "internalType": "address[]"
        },
        {
          "name": "values",
          "type": "uint256[]",
          "internalType": "uint256[]"
        },
        {
          "name": "calldatas",
          "type": "bytes[]",
          "internalType": "bytes[]"
        },
        {
          "name": "gasAmounts",
          "type": "uint256[]",
          "internalType": "uint256[]"
        },
        {
          "name": "support",
          "type": "uint8",
          "internalType": "enum Ballot.VoteType"
        }
      ],
      "outputs": [],
      "stateMutability": "nonpayable"
    },
    {
      "type": "function",
      "name": "proposeProposalStructAndCastVotes",
      "inputs": [
        {
          "name": "_proposal",
          "type": "tuple",
          "internalType": "struct Proposal.ProposalDetail",
          "components": [
            {
              "name": "nonce",
              "type": "uint256",
              "internalType": "uint256"
            },
            {
              "name": "chainId",
              "type": "uint256",
              "internalType": "uint256"
            },
            {
              "name": "expiryTimestamp",
              "type": "uint256",
              "internalType": "uint256"
            },
            {
              "name": "executor",
              "type": "address",
              "internalType": "address"
            },
            {
              "name": "targets",
              "type": "address[]",
              "internalType": "address[]"
            },
            {
              "name": "values",
              "type": "uint256[]",
              "internalType": "uint256[]"
            },
            {
              "name": "calldatas",
              "type": "bytes[]",
              "internalType": "bytes[]"
            },
            {
              "name": "gasAmounts",
              "type": "uint256[]",
              "internalType": "uint256[]"
            }
          ]
        },
        {
          "name": "_supports",
          "type": "uint8[]",
          "internalType": "enum Ballot.VoteType[]"
        },
        {
          "name": "_signatures",
          "type": "tuple[]",
          "internalType": "struct SignatureConsumer.Signature[]",
          "components": [
            {
              "name": "v",
              "type": "uint8",
              "internalType": "uint8"
            },
            {
              "name": "r",
              "type": "bytes32",
              "internalType": "bytes32"
            },
            {
              "name": "s",
              "type": "bytes32",
              "internalType": "bytes32"
            }
          ]
        }
      ],
      "outputs": [],
      "stateMutability": "nonpayable"
    },
    {
      "type": "function",
      "name": "registerCallbacks",
      "inputs": [
        {
          "name": "registers",
          "type": "address[]",
          "internalType": "address[]"
        }
      ],
      "outputs": [],
      "stateMutability": "nonpayable"
    },
    {
      "type": "function",
      "name": "removeBridgeOperators",
      "inputs": [
        {
          "name": "bridgeOperators",
          "type": "address[]",
          "internalType": "address[]"
        }
      ],
      "outputs": [],
      "stateMutability": "nonpayable"
    },
    {
      "type": "function",
      "name": "resolveTargets",
      "inputs": [
        {
          "name": "targetOptions",
          "type": "uint8[]",
          "internalType": "enum GlobalProposal.TargetOption[]"
        }
      ],
      "outputs": [
        {
          "name": "targets",
          "type": "address[]",
          "internalType": "address[]"
        }
      ],
      "stateMutability": "view"
    },
    {
      "type": "function",
      "name": "round",
      "inputs": [
        {
          "name": "",
          "type": "uint256",
          "internalType": "uint256"
        }
      ],
      "outputs": [
        {
          "name": "",
          "type": "uint256",
          "internalType": "uint256"
        }
      ],
      "stateMutability": "view"
    },
    {
      "type": "function",
      "name": "setContract",
      "inputs": [
        {
          "name": "contractType",
          "type": "uint8",
          "internalType": "enum ContractType"
        },
        {
          "name": "addr",
          "type": "address",
          "internalType": "address"
        }
      ],
      "outputs": [],
      "stateMutability": "nonpayable"
    },
    {
      "type": "function",
      "name": "setMinRequiredGovernor",
      "inputs": [
        {
          "name": "min",
          "type": "uint256",
          "internalType": "uint256"
        }
      ],
      "outputs": [],
      "stateMutability": "nonpayable"
    },
    {
      "type": "function",
      "name": "setThreshold",
      "inputs": [
        {
          "name": "num",
          "type": "uint256",
          "internalType": "uint256"
        },
        {
          "name": "denom",
          "type": "uint256",
          "internalType": "uint256"
        }
      ],
      "outputs": [],
      "stateMutability": "nonpayable"
    },
    {
      "type": "function",
      "name": "sumGovernorsWeight",
      "inputs": [
        {
          "name": "governors",
          "type": "address[]",
          "internalType": "address[]"
        }
      ],
      "outputs": [
        {
          "name": "sum",
          "type": "uint256",
          "internalType": "uint256"
        }
      ],
      "stateMutability": "view"
    },
    {
      "type": "function",
      "name": "totalBridgeOperator",
      "inputs": [],
      "outputs": [
        {
          "name": "",
          "type": "uint256",
          "internalType": "uint256"
        }
      ],
      "stateMutability": "view"
    },
    {
      "type": "function",
      "name": "unregisterCallbacks",
      "inputs": [
        {
          "name": "registers",
          "type": "address[]",
          "internalType": "address[]"
        }
      ],
      "outputs": [],
      "stateMutability": "nonpayable"
    },
    {
      "type": "function",
      "name": "updateManyTargetOption",
      "inputs": [
        {
          "name": "targetOptions",
          "type": "uint8[]",
          "internalType": "enum GlobalProposal.TargetOption[]"
        },
        {
          "name": "targets",
          "type": "address[]",
          "internalType": "address[]"
        }
      ],
      "outputs": [],
      "stateMutability": "nonpayable"
    },
    {
      "type": "function",
      "name": "vote",
      "inputs": [
        {
          "name": "",
          "type": "uint256",
          "internalType": "uint256"
        },
        {
          "name": "",
          "type": "uint256",
          "internalType": "uint256"
        }
      ],
      "outputs": [
        {
          "name": "status",
          "type": "uint8",
          "internalType": "enum VoteStatusConsumer.VoteStatus"
        },
        {
          "name": "hash",
          "type": "bytes32",
          "internalType": "bytes32"
        },
        {
          "name": "againstVoteWeight",
          "type": "uint256",
          "internalType": "uint256"
        },
        {
          "name": "forVoteWeight",
          "type": "uint256",
          "internalType": "uint256"
        },
        {
          "name": "expiryTimestamp",
          "type": "uint256",
          "internalType": "uint256"
        }
      ],
      "stateMutability": "view"
    },
    {
      "type": "event",
      "name": "BridgeOperatorAddingFailed",
      "inputs": [
        {
          "name": "operator",
          "type": "address",
          "indexed": true,
          "internalType": "address"
        }
      ],
      "anonymous": false
    },
    {
      "type": "event",
      "name": "BridgeOperatorRemovingFailed",
      "inputs": [
        {
          "name": "operator",
          "type": "address",
          "indexed": true,
          "internalType": "address"
        }
      ],
      "anonymous": false
    },
    {
      "type": "event",
      "name": "BridgeOperatorUpdated",
      "inputs": [
        {
          "name": "governor",
          "type": "address",
          "indexed": true,
          "internalType": "address"
        },
        {
          "name": "fromBridgeOperator",
          "type": "address",
          "indexed": true,
          "internalType": "address"
        },
        {
          "name": "toBridgeOperator",
          "type": "address",
          "indexed": true,
          "internalType": "address"
        }
      ],
      "anonymous": false
    },
    {
      "type": "event",
      "name": "BridgeOperatorsAdded",
      "inputs": [
        {
          "name": "statuses",
          "type": "bool[]",
          "indexed": false,
          "internalType": "bool[]"
        },
        {
          "name": "voteWeights",
          "type": "uint96[]",
          "indexed": false,
          "internalType": "uint96[]"
        },
        {
          "name": "governors",
          "type": "address[]",
          "indexed": false,
          "internalType": "address[]"
        },
        {
          "name": "bridgeOperators",
          "type": "address[]",
          "indexed": false,
          "internalType": "address[]"
        }
      ],
      "anonymous": false
    },
    {
      "type": "event",
      "name": "BridgeOperatorsRemoved",
      "inputs": [
        {
          "name": "statuses",
          "type": "bool[]",
          "indexed": false,
          "internalType": "bool[]"
        },
        {
          "name": "bridgeOperators",
          "type": "address[]",
          "indexed": false,
          "internalType": "address[]"
        }
      ],
      "anonymous": false
    },
    {
      "type": "event",
      "name": "CallbackRegistered",
      "inputs": [
        {
          "name": "",
          "type": "address",
          "indexed": false,
          "internalType": "address"
        },
        {
          "name": "",
          "type": "bool",
          "indexed": false,
          "internalType": "bool"
        }
      ],
      "anonymous": false
    },
    {
      "type": "event",
      "name": "ContractUpdated",
      "inputs": [
        {
          "name": "contractType",
          "type": "uint8",
          "indexed": true,
          "internalType": "enum ContractType"
        },
        {
          "name": "addr",
          "type": "address",
          "indexed": true,
          "internalType": "address"
        }
      ],
      "anonymous": false
    },
    {
      "type": "event",
      "name": "GlobalProposalCreated",
      "inputs": [
        {
          "name": "round",
          "type": "uint256",
          "indexed": true,
          "internalType": "uint256"
        },
        {
          "name": "proposalHash",
          "type": "bytes32",
          "indexed": true,
          "internalType": "bytes32"
        },
        {
          "name": "proposal",
          "type": "tuple",
          "indexed": false,
          "internalType": "struct Proposal.ProposalDetail",
          "components": [
            {
              "name": "nonce",
              "type": "uint256",
              "internalType": "uint256"
            },
            {
              "name": "chainId",
              "type": "uint256",
              "internalType": "uint256"
            },
            {
              "name": "expiryTimestamp",
              "type": "uint256",
              "internalType": "uint256"
            },
            {
              "name": "executor",
              "type": "address",
              "internalType": "address"
            },
            {
              "name": "targets",
              "type": "address[]",
              "internalType": "address[]"
            },
            {
              "name": "values",
              "type": "uint256[]",
              "internalType": "uint256[]"
            },
            {
              "name": "calldatas",
              "type": "bytes[]",
              "internalType": "bytes[]"
            },
            {
              "name": "gasAmounts",
              "type": "uint256[]",
              "internalType": "uint256[]"
            }
          ]
        },
        {
          "name": "globalProposalHash",
          "type": "bytes32",
          "indexed": false,
          "internalType": "bytes32"
        },
        {
          "name": "globalProposal",
          "type": "tuple",
          "indexed": false,
          "internalType": "struct GlobalProposal.GlobalProposalDetail",
          "components": [
            {
              "name": "nonce",
              "type": "uint256",
              "internalType": "uint256"
            },
            {
              "name": "expiryTimestamp",
              "type": "uint256",
              "internalType": "uint256"
            },
            {
              "name": "executor",
              "type": "address",
              "internalType": "address"
            },
            {
              "name": "targetOptions",
              "type": "uint8[]",
              "internalType": "enum GlobalProposal.TargetOption[]"
            },
            {
              "name": "values",
              "type": "uint256[]",
              "internalType": "uint256[]"
            },
            {
              "name": "calldatas",
              "type": "bytes[]",
              "internalType": "bytes[]"
            },
            {
              "name": "gasAmounts",
              "type": "uint256[]",
              "internalType": "uint256[]"
            }
          ]
        },
        {
          "name": "creator",
          "type": "address",
          "indexed": false,
          "internalType": "address"
        }
      ],
      "anonymous": false
    },
    {
      "type": "event",
      "name": "Initialized",
      "inputs": [
        {
          "name": "version",
          "type": "uint8",
          "indexed": false,
          "internalType": "uint8"
        }
      ],
      "anonymous": false
    },
    {
      "type": "event",
      "name": "MinRequiredGovernorUpdated",
      "inputs": [
        {
          "name": "min",
          "type": "uint256",
          "indexed": false,
          "internalType": "uint256"
        }
      ],
      "anonymous": false
    },
    {
      "type": "event",
      "name": "Notified",
      "inputs": [
        {
          "name": "callData",
          "type": "bytes",
          "indexed": false,
          "internalType": "bytes"
        },
        {
          "name": "registers",
          "type": "address[]",
          "indexed": false,
          "internalType": "address[]"
        },
        {
          "name": "statuses",
          "type": "bool[]",
          "indexed": false,
          "internalType": "bool[]"
        },
        {
          "name": "returnDatas",
          "type": "bytes[]",
          "indexed": false,
          "internalType": "bytes[]"
        }
      ],
      "anonymous": false
    },
    {
      "type": "event",
      "name": "ProposalApproved",
      "inputs": [
        {
          "name": "proposalHash",
          "type": "bytes32",
          "indexed": true,
          "internalType": "bytes32"
        }
      ],
      "anonymous": false
    },
    {
      "type": "event",
      "name": "ProposalCreated",
      "inputs": [
        {
          "name": "chainId",
          "type": "uint256",
          "indexed": true,
          "internalType": "uint256"
        },
        {
          "name": "round",
          "type": "uint256",
          "indexed": true,
          "internalType": "uint256"
        },
        {
          "name": "proposalHash",
          "type": "bytes32",
          "indexed": true,
          "internalType": "bytes32"
        },
        {
          "name": "proposal",
          "type": "tuple",
          "indexed": false,
          "internalType": "struct Proposal.ProposalDetail",
          "components": [
            {
              "name": "nonce",
              "type": "uint256",
              "internalType": "uint256"
            },
            {
              "name": "chainId",
              "type": "uint256",
              "internalType": "uint256"
            },
            {
              "name": "expiryTimestamp",
              "type": "uint256",
              "internalType": "uint256"
            },
            {
              "name": "executor",
              "type": "address",
              "internalType": "address"
            },
            {
              "name": "targets",
              "type": "address[]",
              "internalType": "address[]"
            },
            {
              "name": "values",
              "type": "uint256[]",
              "internalType": "uint256[]"
            },
            {
              "name": "calldatas",
              "type": "bytes[]",
              "internalType": "bytes[]"
            },
            {
              "name": "gasAmounts",
              "type": "uint256[]",
              "internalType": "uint256[]"
            }
          ]
        },
        {
          "name": "creator",
          "type": "address",
          "indexed": false,
          "internalType": "address"
        }
      ],
      "anonymous": false
    },
    {
      "type": "event",
      "name": "ProposalExecuted",
      "inputs": [
        {
          "name": "proposalHash",
          "type": "bytes32",
          "indexed": true,
          "internalType": "bytes32"
        },
        {
          "name": "successCalls",
          "type": "bool[]",
          "indexed": false,
          "internalType": "bool[]"
        },
        {
          "name": "returnDatas",
          "type": "bytes[]",
          "indexed": false,
          "internalType": "bytes[]"
        }
      ],
      "anonymous": false
    },
    {
      "type": "event",
      "name": "ProposalExpired",
      "inputs": [
        {
          "name": "proposalHash",
          "type": "bytes32",
          "indexed": true,
          "internalType": "bytes32"
        }
      ],
      "anonymous": false
    },
    {
      "type": "event",
      "name": "ProposalExpiryDurationChanged",
      "inputs": [
        {
          "name": "duration",
          "type": "uint256",
          "indexed": true,
          "internalType": "uint256"
        }
      ],
      "anonymous": false
    },
    {
      "type": "event",
      "name": "ProposalRejected",
      "inputs": [
        {
          "name": "proposalHash",
          "type": "bytes32",
          "indexed": true,
          "internalType": "bytes32"
        }
      ],
      "anonymous": false
    },
    {
      "type": "event",
      "name": "ProposalVoted",
      "inputs": [
        {
          "name": "proposalHash",
          "type": "bytes32",
          "indexed": true,
          "internalType": "bytes32"
        },
        {
          "name": "voter",
          "type": "address",
          "indexed": true,
          "internalType": "address"
        },
        {
          "name": "support",
          "type": "uint8",
          "indexed": false,
          "internalType": "enum Ballot.VoteType"
        },
        {
          "name": "weight",
          "type": "uint256",
          "indexed": false,
          "internalType": "uint256"
        }
      ],
      "anonymous": false
    },
    {
      "type": "event",
      "name": "TargetOptionUpdated",
      "inputs": [
        {
          "name": "targetOption",
          "type": "uint8",
          "indexed": true,
          "internalType": "enum GlobalProposal.TargetOption"
        },
        {
          "name": "addr",
          "type": "address",
          "indexed": true,
          "internalType": "address"
        }
      ],
      "anonymous": false
    },
    {
      "type": "event",
      "name": "ThresholdUpdated",
      "inputs": [
        {
          "name": "nonce",
          "type": "uint256",
          "indexed": true,
          "internalType": "uint256"
        },
        {
          "name": "numerator",
          "type": "uint256",
          "indexed": true,
          "internalType": "uint256"
        },
        {
          "name": "denominator",
          "type": "uint256",
          "indexed": true,
          "internalType": "uint256"
        },
        {
          "name": "previousNumerator",
          "type": "uint256",
          "indexed": false,
          "internalType": "uint256"
        },
        {
          "name": "previousDenominator",
          "type": "uint256",
          "indexed": false,
          "internalType": "uint256"
        }
      ],
      "anonymous": false
    },
    {
      "type": "error",
      "name": "ErrAlreadyVoted",
      "inputs": [
        {
          "name": "voter",
          "type": "address",
          "internalType": "address"
        }
      ]
    },
    {
      "type": "error",
      "name": "ErrBelowMinRequiredGovernors",
      "inputs": []
    },
    {
      "type": "error",
      "name": "ErrContractTypeNotFound",
      "inputs": [
        {
          "name": "contractType",
          "type": "uint8",
          "internalType": "enum ContractType"
        }
      ]
    },
    {
      "type": "error",
      "name": "ErrCurrentProposalIsNotCompleted",
      "inputs": []
    },
    {
      "type": "error",
      "name": "ErrDuplicated",
      "inputs": [
        {
          "name": "msgSig",
          "type": "bytes4",
          "internalType": "bytes4"
        }
      ]
    },
    {
      "type": "error",
      "name": "ErrExistOneInternalCallFailed",
      "inputs": [
        {
          "name": "sender",
          "type": "address",
          "internalType": "address"
        },
        {
          "name": "msgSig",
          "type": "bytes4",
          "internalType": "bytes4"
        },
        {
          "name": "callData",
          "type": "bytes",
          "internalType": "bytes"
        }
      ]
    },
    {
      "type": "error",
      "name": "ErrGovernorNotFound",
      "inputs": [
        {
          "name": "governor",
          "type": "address",
          "internalType": "address"
        }
      ]
    },
    {
      "type": "error",
      "name": "ErrGovernorNotMatch",
      "inputs": [
        {
          "name": "required",
          "type": "address",
          "internalType": "address"
        },
        {
          "name": "sender",
          "type": "address",
          "internalType": "address"
        }
      ]
    },
    {
      "type": "error",
      "name": "ErrInsufficientGas",
      "inputs": [
        {
          "name": "proposalHash",
          "type": "bytes32",
          "internalType": "bytes32"
        }
      ]
    },
    {
      "type": "error",
      "name": "ErrInvalidArguments",
      "inputs": [
        {
          "name": "msgSig",
          "type": "bytes4",
          "internalType": "bytes4"
        }
      ]
    },
    {
      "type": "error",
      "name": "ErrInvalidChainId",
      "inputs": [
        {
          "name": "msgSig",
          "type": "bytes4",
          "internalType": "bytes4"
        },
        {
          "name": "actual",
          "type": "uint256",
          "internalType": "uint256"
        },
        {
          "name": "expected",
          "type": "uint256",
          "internalType": "uint256"
        }
      ]
    },
    {
      "type": "error",
      "name": "ErrInvalidExecutor",
      "inputs": []
    },
    {
      "type": "error",
      "name": "ErrInvalidExpiryTimestamp",
      "inputs": []
    },
    {
      "type": "error",
      "name": "ErrInvalidInput",
      "inputs": []
    },
    {
      "type": "error",
      "name": "ErrInvalidOrder",
      "inputs": [
        {
          "name": "msgSig",
          "type": "bytes4",
          "internalType": "bytes4"
        }
      ]
    },
    {
      "type": "error",
      "name": "ErrInvalidProposal",
      "inputs": [
        {
          "name": "actual",
          "type": "bytes32",
          "internalType": "bytes32"
        },
        {
          "name": "expected",
          "type": "bytes32",
          "internalType": "bytes32"
        }
      ]
    },
    {
      "type": "error",
      "name": "ErrInvalidProposalNonce",
      "inputs": [
        {
          "name": "msgSig",
          "type": "bytes4",
          "internalType": "bytes4"
        }
      ]
    },
    {
      "type": "error",
      "name": "ErrInvalidSignatures",
      "inputs": [
        {
          "name": "msgSig",
          "type": "bytes4",
          "internalType": "bytes4"
        }
      ]
    },
    {
      "type": "error",
      "name": "ErrInvalidThreshold",
      "inputs": [
        {
          "name": "msgSig",
          "type": "bytes4",
          "internalType": "bytes4"
        }
      ]
    },
    {
      "type": "error",
      "name": "ErrInvalidVoteWeight",
      "inputs": [
        {
          "name": "msgSig",
          "type": "bytes4",
          "internalType": "bytes4"
        }
      ]
    },
    {
      "type": "error",
      "name": "ErrLengthMismatch",
      "inputs": [
        {
          "name": "msgSig",
          "type": "bytes4",
          "internalType": "bytes4"
        }
      ]
    },
    {
      "type": "error",
      "name": "ErrLooseProposalInternallyRevert",
      "inputs": [
        {
          "name": "callIndex",
          "type": "uint256",
          "internalType": "uint256"
        },
        {
          "name": "revertMsg",
          "type": "bytes",
          "internalType": "bytes"
        }
      ]
    },
    {
      "type": "error",
      "name": "ErrOnlySelfCall",
      "inputs": [
        {
          "name": "msgSig",
          "type": "bytes4",
          "internalType": "bytes4"
        }
      ]
    },
    {
      "type": "error",
      "name": "ErrOperatorNotFound",
      "inputs": [
        {
          "name": "operator",
          "type": "address",
          "internalType": "address"
        }
      ]
    },
    {
      "type": "error",
      "name": "ErrProposalNotApproved",
      "inputs": []
    },
    {
      "type": "error",
      "name": "ErrQueryForEmptyVote",
      "inputs": []
    },
    {
      "type": "error",
      "name": "ErrUnauthorized",
      "inputs": [
        {
          "name": "msgSig",
          "type": "bytes4",
          "internalType": "bytes4"
        },
        {
          "name": "expectedRole",
          "type": "uint8",
          "internalType": "enum RoleAccess"
        }
      ]
    },
    {
      "type": "error",
      "name": "ErrUnsupportedInterface",
      "inputs": [
        {
          "name": "interfaceId",
          "type": "bytes4",
          "internalType": "bytes4"
        },
        {
          "name": "addr",
          "type": "address",
          "internalType": "address"
        }
      ]
    },
    {
      "type": "error",
      "name": "ErrUnsupportedVoteType",
      "inputs": [
        {
          "name": "msgSig",
          "type": "bytes4",
          "internalType": "bytes4"
        }
      ]
    },
    {
      "type": "error",
      "name": "ErrVoteIsFinalized",
      "inputs": []
    },
    {
      "type": "error",
      "name": "ErrZeroAddress",
      "inputs": [
        {
          "name": "msgSig",
          "type": "bytes4",
          "internalType": "bytes4"
        }
      ]
    },
    {
      "type": "error",
      "name": "ErrZeroCodeContract",
      "inputs": [
        {
          "name": "addr",
          "type": "address",
          "internalType": "address"
        }
      ]
    }
  ],
  "address": "0x64D21e91c2Cb367D2972E0bC377CFEa4e55F3685",
  "args": "0x",
  "blockNumber": 26511796,
  "bytecode": "0x60806040523480156200001157600080fd5b506200001c62000022565b620000e4565b600054610100900460ff16156200008f5760405162461bcd60e51b815260206004820152602760248201527f496e697469616c697a61626c653a20636f6e747261637420697320696e697469604482015266616c697a696e6760c81b606482015260840160405180910390fd5b60005460ff9081161015620000e2576000805460ff191660ff9081179091556040519081527f7f26b83ff96e1f2b6a682f133852f6798a09c465da95921460cefb38474024989060200160405180910390a15b565b615f2b80620000f46000396000f3fe608060405234801561001057600080fd5b506004361061020f5760003560e01c806301a5f43f1461021457806306aba0e1146102295780630a44fa43146102445780630f7c31891461025757806315702f051461026c5780631c905e391461027f5780631f425338146102a15780632c5e6520146102b45780632d6d7d73146102d757806334d5f37b146102ea57806335da81211461030a5780633644e5151461031d5780636a61b16c146103265780637de5dedd146103395780637f7fe05814610341578063800eaab314610361578063828fc1a114610374578063865e6fd31461038757806386ccbf121461039a578063901979d5146103ad57806390264e59146103d85780639570abab146103eb57806397d6ae16146103fe5780639a7d3382146104115780639b19dbfd14610424578063a54f8a091461042c578063a64a83801461043f578063aee1767f14610452578063b384abef14610465578063b405aaf2146104c0578063b5d6e110146104d3578063b9c36209146104e6578063bc4e068f146104f9578063bc96180b1461050c578063bc9e0a5514610514578063c441c4a814610527578063cc7e6b3b1461053e578063d0a50db01461055e578063d78392f814610566578063dafae40814610579578063dd1f89141461058c578063de981f1b1461059f578063e75235b8146105b2578063e9c03498146105c8578063f80b5352146105db575b600080fd5b61022761022236600461497a565b6105e3565b005b610231610692565b6040519081526020015b60405180910390f35b610231610252366004614a13565b6106a1565b61025f610726565b60405161023b9190614aa6565b61022761027a366004614ad0565b610738565b61029261028d366004614bbe565b610842565b60405161023b93929190614c0a565b6102276102af366004614a13565b61085e565b6102c76102c2366004614cbd565b6108fd565b604051901515815260200161023b565b61025f6102e5366004614a13565b61090a565b6102316102f8366004614cf2565b60026020526000908152604090205481565b610227610318366004614a13565b610951565b61023160015481565b610227610334366004614d1e565b610999565b6102316109ae565b61035461034f366004614d52565b610a04565b60405161023b9190614d6d565b61022761036f366004614f18565b610a80565b6102c7610382366004614f7b565b610ab8565b610227610395366004614fb6565b610ac6565b6102276103a8366004615024565b610ae1565b6103c06103bb366004614d52565b610aee565b6040516001600160601b03909116815260200161023b565b6102276103e63660046150ca565b610b24565b6102276103f9366004615105565b610b43565b61022761040c366004615024565b610bda565b61022761041f366004614bbe565b610bf1565b61025f610c3e565b61022761043a3660046151f4565b610ca9565b61022761044d366004614cf2565b610cc5565b610354610460366004614d52565b610cd6565b6104af610473366004614bbe565b600360208181526000938452604080852090915291835291208054600182015460028301549383015460069093015460ff909216939092909185565b60405161023b959493929190615238565b6102c76104ce366004614d52565b610ce8565b6102276104e13660046150ca565b610d20565b6102276104f4366004614bbe565b610d2d565b610292610507366004614cf2565b610d3f565b600454610231565b61022761052236600461526d565b610d5c565b61052f610dbb565b60405161023b939291906152db565b61055161054c366004614a13565b610e95565b60405161023b9190615314565b610231610ed3565b6103c0610574366004614d52565b610ee6565b6102c7610587366004614cf2565b610ef1565b61022761059a366004615327565b610f2d565b6103546105ad366004615419565b61103a565b6105ba61109c565b60405161023b929190615434565b6102276105d6366004614a13565b6110be565b61025f611107565b6105eb61116a565b61068986868080602002602001604051908101604052809392919081815260200183836020028082843760009201919091525050604080516020808a02828101820190935289825290935089925088918291850190849080828437600092019190915250506040805160208089028281018201909352888252909350889250879182918501908490808284376000920191909152506111c692505050565b50505050505050565b600061069c611528565b905090565b60008282808060200260200160405190810160405280939291908181526020018383602002808284376000920191909152506106e2925083915061153b9050565b61071e84848080602002602001604051908101604052809392919081815260200183836020028082843760009201919091525061157092505050565b949350505050565b606061069c6107336115f5565b611619565b6107413361162d565b6108346040518061010001604052806107598e61166f565b81526020018d81526020018c81526020018b6001600160a01b031681526020018a8a808060200260200160405190810160405280939291908181526020018383602002808284376000920191909152505050908252506040805160208a810282810182019093528a82529283019290918b918b9182918501908490808284376000920191909152505050908252506020016107f4868861550d565b815260200184848080602002602001604051908101604052809392919081815260200183836020028082843760009201919091525050509152503361171f565b505050505050505050505050565b6060806060610851858561181e565b9250925092509250925092565b61086661116a565b8181808060200260200160405190810160405280939291908181526020018383602002808284376000920191909152506108a5925083915061153b9050565b60006108af6115f5565b905060005b838110156108f6576108ed8585838181106108d1576108d161551a565b90506020020160208101906108e69190614d52565b8390611bf5565b506001016108b4565b5050505050565b600061071e848484611c0a565b606061094883838080602002602001604051908101604052809392919081815260200183836020028082843760009201829052509250611c2d915050565b90505b92915050565b61095961116a565b610995828280806020026020016040519081016040528093929190818152602001838360200280828437600092019190915250611d8092505050565b5050565b6109ab6109a5826155af565b33611e33565b50565b6000806109b9611eff565b90506000806109c661109c565b91509150806001828560040154856109de91906156ab565b6109e891906156c2565b6109f291906156d5565b6109fc91906156e8565b935050505090565b6000806000610a1a610a14611eff565b85611f23565b9150915081610a47578360405163141e2e1f60e11b8152600401610a3e9190614d6d565b60405180910390fd5b610a4f611eff565b6001018181548110610a6357610a6361551a565b6000918252602090912001546001600160a01b0316949350505050565b333014610aae576000356001600160e01b0319166040516307337e1960e41b8152600401610a3e919061570a565b6109958282611f88565b600061094860008484611c0a565b610ace61116a565b610ad781612031565b610995828261205e565b6108f685858585856120e9565b600080610af9611eff565b6001600160a01b0390931660009081526003909301602052505060409020546001600160601b031690565b610b2d3361162d565b610b3b858585858533612182565b505050505050565b610b4c3361162d565b610bce8a89898c8a8a80806020026020016040519081016040528093929190818152602001838360200280828437600092019190915250610b9392508b91508c905061550d565b8888808060200260200160405190810160405280939291908181526020018383602002808284376000920191909152503392506121c1915050565b50505050505050505050565b610be33361162d565b6108f685858585853361231b565b600082815260036020908152604080832084845290915281206001810154909103610c2f5760405163713b099760e11b815260040160405180910390fd5b610c388161233a565b50505050565b6060610c48611eff565b600101805480602002602001604051908101604052809291908181526020018280548015610c9f57602002820191906000526020600020905b81546001600160a01b03168152600190910190602001808311610c81575b5050505050905090565b610cb23361162d565b61099533610cbf846155af565b8361254f565b610ccd61116a565b6109ab8161264f565b6000610ce1826126bc565b5092915050565b600080610cf3611eff565b6001600160a01b0390931660009081526003909301602052505060409020546001600160601b0316151590565b6108f68585858585612733565b610d3561116a565b61099582826127e9565b6060806060610d4f60008561181e565b9250925092509193909250565b6109ab6109a5610dac610d72606085018561571f565b8080602002602001604051908101604052809392919081815260200183836020028082843760009201919091525060019250611c2d915050565b610db584615768565b9061289b565b60608060606000610dca611eff565b805460408051602080840282018101909252828152929350839190830182828015610e1e57602002820191906000526020600020905b81546001600160a01b03168152600190910190602001808311610e00575b5050505050935080600101805480602002602001604051908101604052809291908181526020018280548015610e7d57602002820191906000526020600020905b81546001600160a01b03168152600190910190602001808311610e5f575b50505050509250610e8d846129a1565b915050909192565b60606109488383808060200260200160405190810160405280939291908181526020018383602002808284376000920191909152506129a192505050565b6000610edd611eff565b60010154919050565b600061094b82612a86565b600080610efc612abb565b9050610f06611528565b8160010154610f1591906156ab565b6002820154610f2490856156ab565b10159392505050565b610f363361162d565b6000604051806101000160405280610f4d4661166f565b81526020014681526020018d81526020018c6001600160a01b031681526020018b8b808060200260200160405190810160405280939291908181526020018383602002808284376000920191909152505050908252506040805160208b810282810182019093528b82529283019290918c918c918291850190849080828437600092019190915250505090825250602001610fe8878961550d565b81526020018585808060200260200160405190810160405280939291908181526020018383602002808284376000920191909152505050915250905061102e813361171f565b5061083433828461254f565b6000611044612adf565b600083600f81111561105857611058614be0565b60ff1681526020810191909152604001600020546001600160a01b0316905080611097578160405163409140df60e11b8152600401610a3e9190615843565b919050565b60008060006110a9612abb565b90508060010154816002015492509250509091565b6110c661116a565b611102828280806020026020016040519081016040528093929190818152602001838360200280828437600092019190915250612b0392505050565b505050565b6060611111611eff565b805460408051602080840282018101909252828152929190830182828015610c9f576020028201919060005260206000209081546001600160a01b03168152600190910190602001808311610c81575050505050905090565b7fb53127684a568b3173ae13b9f8a6016e243e63b6e8ee1178d6a717850b5d6103546001600160a01b031633146111c4576000356001600160e01b0319166001604051620f948f60ea1b8152600401610a3e92919061585d565b565b60606111d28383612ee9565b6111db8161153b565b60006111e5611eff565b8451875191925090811480156111fb5750855181145b611226576000356001600160e01b0319166040516306b5667560e21b8152600401610a3e919061570a565b806001600160401b0381111561123e5761123e614d81565b604051908082528060200260200182016040528015611267578160200160208202803683370190505b50935080600003611279575050611520565b60008060008060005b8581101561148c578a818151811061129c5761129c61551a565b602002602001015194508981815181106112b8576112b861551a565b602002602001015193508b81815181106112d4576112d461551a565b602002602001015192506112e785612ff3565b6112f084612ff3565b826001600160601b0316600003611328576000356001600160e01b031916604051637f11b8a360e11b8152600401610a3e919061570a565b6001600160a01b03808616600081815260038a01602090815260408083205494891683528083205460028d0190925280832054938352909120546001600160601b03938416939182169261138092908116911661588b565b61138a919061588b565b611394919061588b565b6001600160601b03166000148982815181106113b2576113b261551a565b6020026020010190151590811515815250508881815181106113d6576113d661551a565b602002602001015115611484578654600181810189556000898152602080822090930180546001600160a01b03808b166001600160a01b0319928316811790935591835260028c018552604080842080546001600160601b038b166001600160601b03199182168117909255868f018054978801815586528786209096018054948c1694909316841790925591835260038c01909452902080549091168217905561148190836156c2565b91505b600101611282565b50808660040160008282546114a191906156c2565b90915550506040516114dc906347c28ec560e11b906114c8908c908f908d906020016158de565b604051602081830303815290604052613028565b7f897810999654e525e272b5909785c4d0ceaee1bbf9c87d9091a37558b0423b78888c8c8c6040516115119493929190615917565b60405180910390a15050505050505b509392505050565b6000611532611eff565b60040154905090565b61154481613055565b156109ab576000356001600160e01b031916604051630d697db160e11b8152600401610a3e919061570a565b60008161157c8161153b565b6000611586611eff565b905060005b84518110156115ed578160020160008683815181106115ac576115ac61551a565b6020908102919091018101516001600160a01b03168252810191909152604001600020546115e3906001600160601b0316856156c2565b935060010161158b565b505050919050565b7f5da136eb38f8d8e354915fc8a767c0dc81d49de5fb65d5477122a82ddd97624090565b60606000611626836130f4565b9392505050565b61163681612a86565b6001600160601b03166000036109ab576000356001600160e01b0319166003604051620f948f60ea1b8152600401610a3e92919061585d565b6000818152600260205260408120549081900361169e5750600090815260026020526040902060019081905590565b60008281526003602090815260408083208484529091528120906116c18261233a565b905080611718576000825460ff1660048111156116e0576116e0614be0565b036116fe5760405163757a436360e01b815260040160405180910390fd5b600084815260026020526040902080546001019081905592505b5050919050565b602082015160009080820361175a576000356001600160e01b03191660004660405163092048d160e11b8152600401610a3e93929190615964565b600454611768908590613150565b6000611773856131f1565b905061177e8261166f565b600083815260036020908152604080832084845290915290819020908701519194506117ab91839061333b565b845183146117da576000356001600160e01b03191660405163d4cec26960e01b8152600401610a3e919061570a565b8083837fd1221ffb98610024a29755d7db3c71692310f43a7cfcce7ee488a8c7e9e0bfa4888860405161180e929190615aff565b60405180910390a4505092915050565b6000828152600360209081526040808320848452909152812060048101546005820154606093849384939092909161185682846156c2565b9050806001600160401b0381111561187057611870614d81565b604051908082528060200260200182016040528015611899578160200160208202803683370190505b509550806001600160401b038111156118b4576118b4614d81565b6040519080825280602002602001820160405280156118ed57816020015b6118da614896565b8152602001906001900390816118d25790505b509450806001600160401b0381111561190857611908614d81565b604051908082528060200260200182016040528015611931578160200160208202803683370190505b50965060005b83811015611a865760008782815181106119535761195361551a565b6020026020010190600181111561196c5761196c614be0565b9081600181111561197f5761197f614be0565b90525060008a81526003602090815260408083208c8452909152812060048701805460079092019291849081106119b8576119b861551a565b60009182526020808320909101546001600160a01b0316835282810193909352604091820190208151606081018352815460ff16815260018201549381019390935260020154908201528651879083908110611a1657611a1661551a565b6020026020010181905250846004018181548110611a3657611a3661551a565b9060005260206000200160009054906101000a90046001600160a01b0316888281518110611a6657611a6661551a565b6001600160a01b0390921660209283029190910190910152600101611937565b5060005b82811015611be957600187611a9f86846156c2565b81518110611aaf57611aaf61551a565b60200260200101906001811115611ac857611ac8614be0565b90816001811115611adb57611adb614be0565b90525060008a81526003602090815260408083208c845290915281206005870180546007909201929184908110611b1457611b1461551a565b60009182526020808320909101546001600160a01b0316835282810193909352604091820190208151606081018352815460ff168152600182015493810193909352600201549082015286611b6986846156c2565b81518110611b7957611b7961551a565b6020026020010181905250846005018181548110611b9957611b9961551a565b6000918252602090912001546001600160a01b031688611bb986846156c2565b81518110611bc957611bc961551a565b6001600160a01b0390921660209283029190910190910152600101611a8a565b50505050509250925092565b6000610948836001600160a01b03841661334b565b6000838152600360209081526040808320858452909152812061071e908361343e565b606082516001600160401b03811115611c4857611c48614d81565b604051908082528060200260200182016040528015611c71578160200160208202803683370190505b50905060005b8351811015610ce15760056000858381518110611c9657611c9661551a565b60200260200101516005811115611caf57611caf614be0565b6005811115611cc057611cc0614be0565b815260200190815260200160002060009054906101000a90046001600160a01b0316828281518110611cf457611cf461551a565b60200260200101906001600160a01b031690816001600160a01b031681525050828015611d4c575060006001600160a01b0316828281518110611d3957611d3961551a565b60200260200101516001600160a01b0316145b15611d78576000356001600160e01b03191660405163053265f160e01b8152600401610a3e919061570a565b600101611c77565b80611d8a8161153b565b6000611d946115f5565b905060008060005b8551811015610b3b57858181518110611db757611db761551a565b60200260200101519250611dca83612031565b611ddb836312c0151560e21b613460565b611de584846135f3565b604080516001600160a01b038616815282151560208201529193507fb85c58eeff9fe423669ae0841666f4c8499e8731b8275eb462e4fa1720ec420e910160405180910390a1600101611d9c565b6000611e3e836131f1565b602080850151600090815260038252604080822087518352909252206001810154919250908214611e89576001810154604051632bee7fdb60e21b8152610a3e918491600401615434565b6001815460ff166004811115611ea157611ea1614be0565b14611ebf57604051632c2f3bdf60e01b815260040160405180910390fd5b83606001516001600160a01b0316836001600160a01b031614611ef55760405163e61090ab60e01b815260040160405180910390fd5b610c388185613608565b7fc648703095712c0419b6431ae642c061f0a105ac2d7c3d9604061ef4ebc3830090565b60008060005b8454811015611f7657848181548110611f4457611f4461551a565b6000918252602090912001546001600160a01b0390811690851603611f6e57600192509050611f81565b600101611f29565b506000600019915091505b9250929050565b60005b825181101561110257306001600160a01b0316828281518110611fb057611fb061551a565b60200260200101516001600160a01b031603611fed576000356001600160e01b03191660405163053265f160e01b8152600401610a3e919061570a565b6120298382815181106120025761200261551a565b602002602001015183838151811061201c5761201c61551a565b6020026020010151613675565b600101611f8b565b806001600160a01b03163b6000036109ab5780604051630bfc64a360e21b8152600401610a3e9190614d6d565b80612067612adf565b600084600f81111561207b5761207b614be0565b60ff168152602081019190915260400160002080546001600160a01b0319166001600160a01b03928316179055811682600f8111156120bc576120bc614be0565b6040517f865d1c228a8ea13709cfe61f346f7ff67f1bbd4a18ff31ad3e7147350d317c5990600090a35050565b60006120fc6120f7876155af565b6131f1565b60208088013560009081526003825260408082208a3583529092522060010154909150811461216157602080870135600090815260038252604080822089358352909252819020600101549051632bee7fdb60e21b8152610a3e918391600401615434565b610b3b61216d876155af565b8686868661217d6120f78d6155af565b613708565b61218a6148b6565b61219c61219688615768565b836139d1565b90506121b7818787878761217d6121b28e615768565b613abe565b9695505050505050565b60006121cd600061166f565b905060006040518060e001604052808381526020018b8152602001886001600160a01b031681526020018a8a80806020026020016040519081016040528093929190818152602001838360200280828437600092018290525093855250505060208083018a905260408084018a9052606090930188905282518c820281810183019094528c8152939450909261228d92612286928e918e9182919085019084908082843760009201919091525060019250611c2d915050565b839061289b565b90506122a46004548261315090919063ffffffff16565b60006122af826131f1565b6000858152600080516020615ed6833981519152602052604090209091506122d890828e61333b565b8084600080516020615eb6833981519152846122f387613abe565b878a6040516123059493929190615b6a565b60405180910390a3505050505050505050505050565b61232d612327876155af565b8261171f565b50610b3b61216d876155af565b600080825460ff16600481111561235357612353614be0565b148015612364575042826006015411155b905080156110975760018201546040517f58f98006a7f2f253f8ae8f8b7cec9008ca05359633561cd7c22f3005682d4a5590600090a260005b6004830154811015612450578260080160008460040183815481106123c4576123c461551a565b60009182526020808320909101546001600160a01b031683528201929092526040018120805460ff19169055600484018054600786019291908490811061240d5761240d61551a565b60009182526020808320909101546001600160a01b031683528201929092526040018120805460ff1916815560018181018390556002909101919091550161239d565b5060005b60058301548110156125075782600801600084600501838154811061247b5761247b61551a565b60009182526020808320909101546001600160a01b031683528201929092526040018120805460ff1916905560058401805460078601929190849081106124c4576124c461551a565b60009182526020808320909101546001600160a01b031683528201929092526040018120805460ff19168155600181810183905560029091019190915501612454565b50815460ff191682556000600183018190556002830181905560038301819055612535906004840190614904565b612543600583016000614904565b60006006830155919050565b4682602001511461258857602082015160405163092048d160e11b8152610a3e916001600160e01b031960003516914690600401615964565b6000612593836131f1565b602080850151600090815260038252604080822087518352909252206001015490915081146125f857602080840151600090815260038252604080822086518352909252819020600101549051632bee7fdb60e21b8152610a3e918391600401615434565b6000612602613bfd565b905060008161260f613c07565b61261991906156d5565b6126249060016156c2565b905061262e614896565b612645868685858b866126408e613c11565b613c2b565b5050505050505050565b6003811015612671576040516305f4dee960e31b815260040160405180910390fd5b600061267b611eff565b600581018390556040518381529091507f22d5bb5059ffe2949a098666fc198587200c8118483074120d3ca7050c7753f19060200160405180910390a15050565b6000806000806126d66126cd611eff565b60010186611f23565b91509150816126fa57846040516326527e1760e01b8152600401610a3e9190614d6d565b612702611eff565b8054829081106127145761271461551a565b6000918252602090912001546001600160a01b03169590945092505050565b6000612751612748610d72606089018961571f565b610db588615768565b9050600061275e826131f1565b60008080526003602090815284518252600080516020615ed68339815191529052604090206001015490915081146127d55760008080526003602090815283518252600080516020615ed68339815191529052604090819020600101549051632bee7fdb60e21b8152610a3e918391600401615434565b610689828787878761217d6121b28e615768565b808211806127f8575060018111155b15612824576000356001600160e01b0319166040516387f6f09560e01b8152600401610a3e919061570a565b600061282e612abb565b600181018054600283018054928790558590558254929350918490869085600061285783615c23565b919050557f976f8a9c5bdf8248dec172376d6e2b80a8e3df2f0328e381c6db8e1cf138c0f8858560405161288c929190615434565b60405180910390a45050505050565b6128a36148b6565b8251815260006020808301919091528301516040808301919091528301516001600160a01b0316606080830191909152830151516001600160401b038111156128ee576128ee614d81565b604051908082528060200260200182016040528015612917578160200160208202803683370190505b5060808083019190915283015160a08083019190915283015160c08083019190915283015160e082015260005b836060015151811015610ce1578281815181106129635761296361551a565b6020026020010151826080015182815181106129815761298161551a565b6001600160a01b0390921660209283029190910190910152600101612944565b606060006129ad611eff565b905082516001600160401b038111156129c8576129c8614d81565b6040519080825280602002602001820160405280156129f1578160200160208202803683370190505b50915060005b835181101561171857816002016000858381518110612a1857612a1861551a565b60200260200101516001600160a01b03166001600160a01b0316815260200190815260200160002060009054906101000a90046001600160601b0316838281518110612a6657612a6661551a565b6001600160601b03909216602092830291909101909101526001016129f7565b6000612a90611eff565b6001600160a01b0390921660009081526002929092016020525060409020546001600160601b031690565b7ff3019750f3837257cd40d215c9cc111e92586d2855a1e7e25d959613ed013f0090565b7fdea3103d22025c269050bea94c0c84688877f12fa22b7e6d2d5d78a9a49aa1cb90565b606081612b0f8161153b565b6000612b19611eff565b8451909150806001600160401b03811115612b3657612b36614d81565b604051908082528060200260200182016040528015612b5f578160200160208202803683370190505b50935080600003612b71575050612ee3565b60058201548254612b839083906156d5565b1015612ba25760405163b2e765cb60e01b815260040160405180910390fd5b60008060008060005b85811015612e6957898181518110612bc557612bc561551a565b60200260200101519350612bd8846126bc565b9095509150612be685612ff3565b612bef84612ff3565b6001600160a01b03851660009081526002880160205260409020546001600160601b031615801590612c4357506001600160a01b03841660009081526003880160205260409020546001600160601b031615155b898281518110612c5557612c5561551a565b602002602001019015159081151581525050888181518110612c7957612c7961551a565b602002602001015115612e61576001600160a01b038516600090815260028801602052604081205488546001600160601b039091169190612cbc906001906156d5565b9050886000018181548110612cd357612cd361551a565b60009182526020909120015489546001600160a01b03909116908a9086908110612cff57612cff61551a565b600091825260209091200180546001600160a01b0319166001600160a01b03929092169190911790558854899080612d3957612d39615c3c565b60008281526020808220830160001990810180546001600160a01b03191690559092019092556001600160a01b038916825260028b0190526040902080546001600160601b031916905560018901805482908110612d9957612d9961551a565b60009182526020909120015460018a0180546001600160a01b039092169186908110612dc757612dc761551a565b9060005260206000200160006101000a8154816001600160a01b0302191690836001600160a01b0316021790555088600101805480612e0857612e08615c3c565b60008281526020808220830160001990810180546001600160a01b03191690559092019092556001600160a01b038816825260038b0190526040902080546001600160601b0319169055612e5c82866156c2565b945050505b600101612bab565b5081866004016000828254612e7e91906156d5565b9091555050604051612ea390636242a4ef60e11b906114c8908c908c90602001615c52565b7fdf3dcd7987202f64648f3acdbf12401e3a2bb23e77e19f99826b5475cbb86369888a604051612ed4929190615c77565b60405180910390a15050505050505b50919050565b81518151606091908082016001600160401b03811115612f0b57612f0b614d81565b604051908082528060200260200182016040528015612f34578160200160208202803683370190505b50925060005b82811015612f8e57858181518110612f5457612f5461551a565b6020026020010151848281518110612f6e57612f6e61551a565b6001600160a01b0390921660209283029190910190910152600101612f3a565b60005b82811015612fe957858181518110612fab57612fab61551a565b6020026020010151858381518110612fc557612fc561551a565b6001600160a01b039092166020928302919091019091015260019182019101612f91565b5050505092915050565b6001600160a01b0381166109ab576000356001600160e01b03191660405163104c66df60e31b8152600401610a3e919061570a565b6130328282613f6b565b610995573382826040516319b5fdcb60e31b8152600401610a3e93929190615c9c565b6000815160000361306857506000919050565b60005b60018351038110156130eb57600181015b83518110156130e2578381815181106130975761309761551a565b60200260200101516001600160a01b03168483815181106130ba576130ba61551a565b60200260200101516001600160a01b0316036130da575060019392505050565b60010161307c565b5060010161306b565b50600092915050565b60608160000180548060200260200160405190810160405280929190818152602001828054801561314457602002820191906000526020600020905b815481526020019060010190808311613130575b50505050509050919050565b600082608001515111801561316e57508160a0015151826080015151145b801561318357508160c0015151826080015151145b801561319857508160e0015151826080015151145b6131c3576000356001600160e01b0319166040516306b5667560e21b8152600401610a3e919061570a565b6131cd81426156c2565b826040015111156109955760405163ad89be9d60e01b815260040160405180910390fd5b60a0810151608082015160c083015151600092919083906001600160401b0381111561321f5761321f614d81565b604051908082528060200260200182016040528015613248578160200160208202803683370190505b5060e086015190915060005b82518110156132a7578660c0015181815181106132735761327361551a565b6020026020010151805190602001208382815181106132945761329461551a565b6020908102919091010152600101613254565b50604080517f1b59eeec7c321899dc1e7a5b3d876c9a445dffc6d2f96ba842d7489908fdee1281528751602080830191909152808901518284015291880151606080830191909152909701516080880152835181029381019390932060a0870152835183029383019390932060c0860152805182029082012060e08501528151810291012061010083015250610120902090565b6001830191909155600690910155565b6000818152600183016020526040812054801561343457600061336f6001836156d5565b8554909150600090613383906001906156d5565b90508181146133e85760008660000182815481106133a3576133a361551a565b90600052602060002001549050808760000184815481106133c6576133c661551a565b6000918252602080832090910192909255918252600188019052604090208390555b85548690806133f9576133f9615c3c565b60019003818190600052602060002001600090559055856001016000868152602001908152602001600020600090556001935050505061094b565b600091505061094b565b6001600160a01b03166000908152600891909101602052604090205460ff1690565b600081604051602401613473919061570a565b60408051601f198184030181529181526020820180516001600160e01b03166301ffc9a760e01b1790525190915060009081906001600160a01b038616906134bc908590615cd0565b600060405180830381855afa9150503d80600081146134f7576040519150601f19603f3d011682016040523d82523d6000602084013e6134fc565b606091505b5091509150816135be57846001600160a01b0316836040516024016135219190615cec565b60408051601f198184030181529181526020820180516001600160e01b03166325da93a560e11b179052516135569190615cd0565b600060405180830381855afa9150503d8060008114613591576040519150601f19603f3d011682016040523d82523d6000602084013e613596565b606091505b509092509050816135be57838560405163069d427960e11b8152600401610a3e929190615cff565b808060200190518101906135d29190615d22565b6108f657838560405163069d427960e11b8152600401610a3e929190615cff565b6000610948836001600160a01b038416614291565b613611816142e0565b1561099557815460ff1916600217825560008061362d836142fa565b9150915083600101547fe134987599ae266ec90edeff1b26125b287dbb57b10822649432d1bb26537fba8383604051613667929190615d44565b60405180910390a250505050565b806005600084600581111561368c5761368c614be0565b600581111561369d5761369d614be0565b8152602081019190915260400160002080546001600160a01b0319166001600160a01b0392831617905581168260058111156136db576136db614be0565b6040517f356c8c57e9e84b99b1cb58b13c985b2c979f78cbdf4d0fa70fe2a98bb09a099d90600090a35050565b831580159061371657508382145b613741576000356001600160e01b0319166040516306b5667560e21b8152600401610a3e919061570a565b600061379a61374f60015490565b61375a8460006145a1565b60405161190160f01b6020820152602281018390526042810182905260009060620160405160208183030381529060405280519060200120905092915050565b905060006137b56137aa60015490565b61375a8560016145a1565b905060006137c1613bfd565b90506000816137ce613c07565b6137d891906156d5565b6137e39060016156c2565b90506000805b87811015610834573660008a8a848181106138065761380661551a565b606002919091019250600090508d8d858181106138255761382561551a565b905060200201602081019061383a9190615d69565b600181111561384b5761384b614be0565b0361387757613870886138616020850185615d95565b846020013585604001356145da565b90506138ee565b60018d8d8581811061388b5761388b61551a565b90506020020160208101906138a09190615d69565b60018111156138b1576138b1614be0565b036138c757613870876138616020850185615d95565b6000356001600160e01b031916604051630612418f60e11b8152600401610a3e919061570a565b806001600160a01b0316846001600160a01b03161061392e576000356001600160e01b031916604051635d3dcd3160e01b8152600401610a3e919061570a565b809350600061393c82613c11565b90508060000361396d576000356001600160e01b03191660405163726b3acb60e01b8152600401610a3e919061570a565b6139b08f8f8f878181106139835761398361551a565b90506020020160208101906139989190615d69565b8989866139aa368a90038a018a615db0565b87613c2b565b156139c357505050505050505050610b3b565b8360010193505050506137e9565b6139d96148b6565b6139f26139eb84606001516001611c2d565b849061289b565b9050613a096004548261315090919063ffffffff16565b6000613a14826131f1565b90506000613a22600061166f565b6000818152600080516020615ed68339815191526020908152604090912090870151919250613a5291849061333b565b82518114613a81576000356001600160e01b03191660405163d4cec26960e01b8152600401610a3e919061570a565b8181600080516020615eb683398151915285613a9c89613abe565b8989604051613aae9493929190615b6a565b60405180910390a3505092915050565b6080810151606082015160a083015151600092919083906001600160401b03811115613aec57613aec614d81565b604051908082528060200260200182016040528015613b15578160200160208202803683370190505b5060c086015190915060005b8251811015613b74578660a001518181518110613b4057613b4061551a565b602002602001015180519060200120838281518110613b6157613b6161551a565b6020908102919091010152600101613b21565b50604080517fde480f0c53a3651c08fbab1dffbc45fe574f31188827fe52cb9035da9fe57e4a8152875160208083019190915280890151828401529790910151606082015283518702938701939093206080840152835186029386019390932060a0830152805185029085012060c082015281518402919093012060e083015250610100902090565b600061069c6109ae565b600061069c610692565b6000613c1c82612a86565b6001600160601b031692915050565b60208088015188516000828152600384526040808220838352909452928320613c538161233a565b15613c645760019350505050613f60565b6020808c01516000908152600290915260409020548214613ca6576000356001600160e01b03191660405163d4cec26960e01b8152600401610a3e919061570a565b6000815460ff166004811115613cbe57613cbe614be0565b14613cdc576040516322de95ff60e21b815260040160405180910390fd5b613ce6818861343e565b15613d06578660405163025fd59560e41b8152600401610a3e9190614d6d565b6001600160a01b03871660009081526008820160209081526040909120805460ff19166001179055860151151580613d415750604086015115155b80613d4f5750855160ff1615155b15613d96576001600160a01b03871660009081526007820160209081526040918290208851815460ff191660ff909116178155908801516001820155908701516002909101555b866001600160a01b031681600101547f1203f9e81c814a35f5f4cc24087b2a24c6fb7986a9f1406b68a9484882c93a238c88604051613dd6929190615e10565b60405180910390a3600080808c6001811115613df457613df4614be0565b03613e49576004830180546001810182556000918252602082200180546001600160a01b0319166001600160a01b038c16179055600384018054899290613e3c9084906156c2565b9250508190559150613eae565b60018c6001811115613e5d57613e5d614be0565b036138c7576005830180546001810182556000918252602082200180546001600160a01b0319166001600160a01b038c16179055600284018054899290613ea59084906156c2565b92505081905590505b8a8210613f1457825460ff19166001908117845580840154604051919750907f5c819725ea53655a3b898f3df59b66489761935454e9212ca1e5ebd759953d0b90600090a260608d01516001600160a01b0316613f0f57613f0f838e613608565b613f5a565b898110613f5a57825460ff19166003178355600180840154604051919750907f55295d4ce992922fa2e5ffbf3a3dcdb367de0a15e125ace083456017fd22060f90600090a25b50505050505b979650505050505050565b60016000613f7a6107336115f5565b80519091506000819003613f8f57505061094b565b6000816001600160401b03811115613fa957613fa9614d81565b604051908082528060200260200182016040528015613fd2578160200160208202803683370190505b5090506000826001600160401b03811115613fef57613fef614d81565b60405190808252806020026020018201604052801561402257816020015b606081526020019060019003908161400d5790505b5090506000878760405160200161403a929190615e1e565b604051602081830303815290604052905060008160405160240161405e9190615cec565b60408051601f198184030181529190526020810180516001600160e01b03166325da93a560e11b179052905060005b85811015614247578681815181106140a7576140a761551a565b60200260200101516001600160a01b0316836040516140c69190615cd0565b6000604051808303816000865af19150503d8060008114614103576040519150601f19603f3d011682016040523d82523d6000602084013e614108565b606091505b5086838151811061411b5761411b61551a565b602002602001018684815181106141345761413461551a565b602002602001018290528215151515815250505084818151811061415a5761415a61551a565b602002602001015161423f578681815181106141785761417861551a565b60200260200101516001600160a01b0316826040516141979190615cd0565b6000604051808303816000865af19150503d80600081146141d4576040519150601f19603f3d011682016040523d82523d6000602084013e6141d9565b606091505b508683815181106141ec576141ec61551a565b602002602001018684815181106142055761420561551a565b602002602001018290528215151515815250505087801561423c57508481815181106142335761423361551a565b60200260200101515b97505b60010161408d565b507fc0b07a27e66788f39cc91405f012f34066b16f31b4bda9438c52f2dae0cc5b638287868660405161427d9493929190615e4f565b60405180910390a150505050505092915050565b60008181526001830160205260408120546142d85750815460018181018455600084815260208082209093018490558454848252828601909352604090209190915561094b565b50600061094b565b600081602001516000148061094b57505060200151461490565b606080614306836142e0565b61433857602083015160405163092048d160e11b8152610a3e916001600160e01b031960003516914690600401615964565b8260800151516001600160401b0381111561435557614355614d81565b60405190808252806020026020018201604052801561437e578160200160208202803683370190505b5091508260800151516001600160401b0381111561439e5761439e614d81565b6040519080825280602002602001820160405280156143d157816020015b60608152602001906001900390816143bc5790505b50905060005b83608001515181101561459b578360e0015181815181106143fa576143fa61551a565b60200260200101515a1161442d57614411846131f1565b6040516307aec4ab60e21b8152600401610a3e91815260200190565b836080015181815181106144435761444361551a565b60200260200101516001600160a01b03168460a00151828151811061446a5761446a61551a565b60200260200101518560e0015183815181106144885761448861551a565b6020026020010151908660c0015184815181106144a7576144a761551a565b60200260200101516040516144bc9190615cd0565b600060405180830381858888f193505050503d80600081146144fa576040519150601f19603f3d011682016040523d82523d6000602084013e6144ff565b606091505b508483815181106145125761451261551a565b6020026020010184848151811061452b5761452b61551a565b60200260200101829052821515151581525050508281815181106145515761455161551a565b602002602001015161459357808282815181106145705761457061551a565b60200260200101516040516376df417560e11b8152600401610a3e929190615e9c565b6001016143d7565b50915091565b604080517fd900570327c4c0df8dd6bdd522b7da7e39145dd049d2fd4602276adcd511e3c2815260208101939093528201526060902090565b60008060006145eb87878787614602565b915091506145f8816146e5565b5095945050505050565b6000806fa2a8918ca85bafe22016d0b997e4df60600160ff1b0383111561462f57506000905060036146dc565b8460ff16601b1415801561464757508460ff16601c14155b1561465857506000905060046146dc565b6040805160008082526020820180845289905260ff881692820192909252606081018690526080810185905260019060a0016020604051602081039080840390855afa1580156146ac573d6000803e3d6000fd5b5050604051601f1901519150506001600160a01b0381166146d5576000600192509250506146dc565b9150600090505b94509492505050565b60008160048111156146f9576146f9614be0565b036147015750565b600181600481111561471557614715614be0565b0361475d5760405162461bcd60e51b815260206004820152601860248201527745434453413a20696e76616c6964207369676e617475726560401b6044820152606401610a3e565b600281600481111561477157614771614be0565b036147be5760405162461bcd60e51b815260206004820152601f60248201527f45434453413a20696e76616c6964207369676e6174757265206c656e677468006044820152606401610a3e565b60038160048111156147d2576147d2614be0565b0361482a5760405162461bcd60e51b815260206004820152602260248201527f45434453413a20696e76616c6964207369676e6174757265202773272076616c604482015261756560f01b6064820152608401610a3e565b600481600481111561483e5761483e614be0565b036109ab5760405162461bcd60e51b815260206004820152602260248201527f45434453413a20696e76616c6964207369676e6174757265202776272076616c604482015261756560f01b6064820152608401610a3e565b604080516060810182526000808252602082018190529181019190915290565b60405180610100016040528060008152602001600081526020016000815260200160006001600160a01b03168152602001606081526020016060815260200160608152602001606081525090565b50805460008255906000526020600020908101906109ab91905b80821115614932576000815560010161491e565b5090565b60008083601f84011261494857600080fd5b5081356001600160401b0381111561495f57600080fd5b6020830191508360208260051b8501011115611f8157600080fd5b6000806000806000806060878903121561499357600080fd5b86356001600160401b03808211156149aa57600080fd5b6149b68a838b01614936565b909850965060208901359150808211156149cf57600080fd5b6149db8a838b01614936565b909650945060408901359150808211156149f457600080fd5b50614a0189828a01614936565b979a9699509497509295939492505050565b60008060208385031215614a2657600080fd5b82356001600160401b03811115614a3c57600080fd5b614a4885828601614936565b90969095509350505050565b6001600160a01b03169052565b60008151808452602080850194506020840160005b83811015614a9b5781516001600160a01b031687529582019590820190600101614a76565b509495945050505050565b6020815260006109486020830184614a61565b80356001600160a01b038116811461109757600080fd5b600080600080600080600080600080600060e08c8e031215614af157600080fd5b8b359a5060208c01359950614b0860408d01614ab9565b98506001600160401b0360608d0135811015614b2357600080fd5b614b338e60608f01358f01614936565b909950975060808d0135811015614b4957600080fd5b614b598e60808f01358f01614936565b909750955060a08d0135811015614b6f57600080fd5b614b7f8e60a08f01358f01614936565b909550935060c08d0135811015614b9557600080fd5b50614ba68d60c08e01358e01614936565b81935080925050509295989b509295989b9093969950565b60008060408385031215614bd157600080fd5b50508035926020909101359150565b634e487b7160e01b600052602160045260246000fd5b60028110614c0657614c06614be0565b9052565b60006060808352614c1e6060840187614a61565b83810360208581019190915286518083528782019282019060005b81811015614c5c57614c4c838651614bf6565b9383019391830191600101614c39565b50506040925085810360408701528087518083528383019150838901925060005b81811015614cad578351805160ff1684528581015186850152860151868401529284019291860191600101614c7d565b50909a9950505050505050505050565b600080600060608486031215614cd257600080fd5b8335925060208401359150614ce960408501614ab9565b90509250925092565b600060208284031215614d0457600080fd5b5035919050565b60006101008284031215612ee357600080fd5b600060208284031215614d3057600080fd5b81356001600160401b03811115614d4657600080fd5b61071e84828501614d0b565b600060208284031215614d6457600080fd5b61094882614ab9565b6001600160a01b0391909116815260200190565b634e487b7160e01b600052604160045260246000fd5b60405161010081016001600160401b0381118282101715614dba57614dba614d81565b60405290565b60405160e081016001600160401b0381118282101715614dba57614dba614d81565b604051601f8201601f191681016001600160401b0381118282101715614e0a57614e0a614d81565b604052919050565b60006001600160401b03821115614e2b57614e2b614d81565b5060051b60200190565b600082601f830112614e4657600080fd5b81356020614e5b614e5683614e12565b614de2565b8083825260208201915060208460051b870101935086841115614e7d57600080fd5b602086015b84811015614ea757803560068110614e9a5760008081fd5b8352918301918301614e82565b509695505050505050565b600082601f830112614ec357600080fd5b81356020614ed3614e5683614e12565b8083825260208201915060208460051b870101935086841115614ef557600080fd5b602086015b84811015614ea757614f0b81614ab9565b8352918301918301614efa565b60008060408385031215614f2b57600080fd5b82356001600160401b0380821115614f4257600080fd5b614f4e86838701614e35565b93506020850135915080821115614f6457600080fd5b50614f7185828601614eb2565b9150509250929050565b60008060408385031215614f8e57600080fd5b82359150614f9e60208401614ab9565b90509250929050565b80356010811061109757600080fd5b60008060408385031215614fc957600080fd5b614fd283614fa7565b9150614f9e60208401614ab9565b60008083601f840112614ff257600080fd5b5081356001600160401b0381111561500957600080fd5b602083019150836020606083028501011115611f8157600080fd5b60008060008060006060868803121561503c57600080fd5b85356001600160401b038082111561505357600080fd5b61505f89838a01614d0b565b9650602088013591508082111561507557600080fd5b61508189838a01614936565b9096509450604088013591508082111561509a57600080fd5b506150a788828901614fe0565b969995985093965092949392505050565b600060e08284031215612ee357600080fd5b6000806000806000606086880312156150e257600080fd5b85356001600160401b03808211156150f957600080fd5b61505f89838a016150b8565b60008060008060008060008060008060c08b8d03121561512457600080fd5b8a35995061513460208c01614ab9565b985060408b01356001600160401b038082111561515057600080fd5b61515c8e838f01614936565b909a50985060608d013591508082111561517557600080fd5b6151818e838f01614936565b909850965060808d013591508082111561519a57600080fd5b6151a68e838f01614936565b909650945060a08d01359150808211156151bf57600080fd5b506151cc8d828e01614936565b915080935050809150509295989b9194979a5092959850565b80356002811061109757600080fd5b6000806040838503121561520757600080fd5b82356001600160401b0381111561521d57600080fd5b61522985828601614d0b565b925050614f9e602084016151e5565b60a081016005871061524c5761524c614be0565b95815260208101949094526040840192909252606083015260809091015290565b60006020828403121561527f57600080fd5b81356001600160401b0381111561529557600080fd5b61071e848285016150b8565b60008151808452602080850194506020840160005b83811015614a9b5781516001600160601b0316875295820195908201906001016152b6565b6060815260006152ee6060830186614a61565b82810360208401526153008186614a61565b905082810360408401526121b781856152a1565b60208152600061094860208301846152a1565b600080600080600080600080600080600060e08c8e03121561534857600080fd5b8b359a5061535860208d01614ab9565b99506001600160401b0360408d013581101561537357600080fd5b6153838e60408f01358f01614936565b909a50985060608d013581101561539957600080fd5b6153a98e60608f01358f01614936565b909850965060808d01358110156153bf57600080fd5b6153cf8e60808f01358f01614936565b909650945060a08d01358110156153e557600080fd5b506153f68d60a08e01358e01614936565b909350915061540760c08d016151e5565b90509295989b509295989b9093969950565b60006020828403121561542b57600080fd5b61094882614fa7565b918252602082015260400190565b6000615450614e5684614e12565b8381529050602080820190600585901b84018681111561546f57600080fd5b845b818110156155025780356001600160401b03808211156154915760008081fd5b8188019150601f8a818401126154a75760008081fd5b8235828111156154b9576154b9614d81565b6154ca818301601f19168801614de2565b92508083528b878286010111156154e357600091508182fd5b8087850188850137600090830187015250855250928201928201615471565b505050509392505050565b6000610948368484615442565b634e487b7160e01b600052603260045260246000fd5b600082601f83011261554157600080fd5b81356020615551614e5683614e12565b8083825260208201915060208460051b87010193508684111561557357600080fd5b602086015b84811015614ea75780358352918301918301615578565b600082601f8301126155a057600080fd5b61094883833560208501615442565b600061010082360312156155c257600080fd5b6155ca614d97565b8235815260208301356020820152604083013560408201526155ee60608401614ab9565b606082015260808301356001600160401b038082111561560d57600080fd5b61561936838701614eb2565b608084015260a085013591508082111561563257600080fd5b61563e36838701615530565b60a084015260c085013591508082111561565757600080fd5b6156633683870161558f565b60c084015260e085013591508082111561567c57600080fd5b5061568936828601615530565b60e08301525092915050565b634e487b7160e01b600052601160045260246000fd5b808202811582820484141761094b5761094b615695565b8082018082111561094b5761094b615695565b8181038181111561094b5761094b615695565b60008261570557634e487b7160e01b600052601260045260246000fd5b500490565b6001600160e01b031991909116815260200190565b6000808335601e1984360301811261573657600080fd5b8301803591506001600160401b0382111561575057600080fd5b6020019150600581901b3603821315611f8157600080fd5b600060e0823603121561577a57600080fd5b615782614dc0565b823581526020830135602082015261579c60408401614ab9565b604082015260608301356001600160401b03808211156157bb57600080fd5b6157c736838701614e35565b606084015260808501359150808211156157e057600080fd5b6157ec36838701615530565b608084015260a085013591508082111561580557600080fd5b6158113683870161558f565b60a084015260c085013591508082111561582a57600080fd5b5061583736828601615530565b60c08301525092915050565b602081016010831061585757615857614be0565b91905290565b6001600160e01b03198316815260408101600b831061587e5761587e614be0565b8260208301529392505050565b6001600160601b03818116838216019080821115610ce157610ce1615695565b60008151808452602080850194506020840160005b83811015614a9b5781511515875295820195908201906001016158c0565b6060815260006158f16060830186614a61565b828103602084015261590381866152a1565b905082810360408401526121b781856158ab565b60808152600061592a60808301876158ab565b828103602084015261593c81876152a1565b905082810360408401526159508186614a61565b90508281036060840152613f608185614a61565b6001600160e01b03199390931683526020830191909152604082015260600190565b60008151808452602080850194506020840160005b83811015614a9b5781518752958201959082019060010161599b565b60005b838110156159d25781810151838201526020016159ba565b50506000910152565b600081518084526159f38160208601602086016159b7565b601f01601f19169290920160200192915050565b60008282518085526020808601955060208260051b8401016020860160005b84811015615a5457601f19868403018952615a428383516159db565b98840198925090830190600101615a26565b5090979650505050505050565b60006101008251845260208301516020850152604083015160408501526060830151615a906060860182614a54565b506080830151816080860152615aa882860182614a61565b91505060a083015184820360a0860152615ac28282615986565b91505060c083015184820360c0860152615adc8282615a07565b91505060e083015184820360e0860152615af68282615986565b95945050505050565b604081526000615b126040830185615a61565b905060018060a01b03831660208301529392505050565b60008151808452602080850194506020840160005b83811015614a9b57815160068110615b5857615b58614be0565b87529582019590820190600101615b3e565b608081526000615b7d6080830187615a61565b8560208401528281036040840152845181526020850151602082015260018060a01b036040860151166040820152606085015160e06060830152615bc460e0830182615b29565b905060808601518282036080840152615bdd8282615986565b91505060a086015182820360a0840152615bf78282615a07565b91505060c086015182820360c0840152615c118282615986565b9350505050615af66060830184614a54565b600060018201615c3557615c35615695565b5060010190565b634e487b7160e01b600052603160045260246000fd5b604081526000615c656040830185614a61565b8281036020840152615af681856158ab565b604081526000615c8a60408301856158ab565b8281036020840152615af68185614a61565b6001600160a01b03841681526001600160e01b031983166020820152606060408201819052600090615af6908301846159db565b60008251615ce28184602087016159b7565b9190910192915050565b60208152600061094860208301846159db565b6001600160e01b03199290921682526001600160a01b0316602082015260400190565b600060208284031215615d3457600080fd5b8151801515811461162657600080fd5b604081526000615d5760408301856158ab565b8281036020840152615af68185615a07565b600060208284031215615d7b57600080fd5b610948826151e5565b803560ff8116811461109757600080fd5b600060208284031215615da757600080fd5b61094882615d84565b600060608284031215615dc257600080fd5b604051606081016001600160401b0381118282101715615de457615de4614d81565b604052615df083615d84565b815260208301356020820152604083013560408201528091505092915050565b6040810161587e8285614bf6565b6001600160e01b0319831681528151600090615e418160048501602087016159b7565b919091016004019392505050565b608081526000615e6260808301876159db565b8281036020840152615e748187614a61565b90508281036040840152615e8881866158ab565b90508281036060840152613f608185615a07565b82815260406020820152600061071e60408301846159db56fee5af2d3fb7bcab8f865476bc675bf1bbb8b5a749c827ee1cd215dc9c2b8f92d73617319a054d772f909f7c479a2cebe5066e836a939412e32403c99029b92effa2646970667358221220fbc7cf0cc42a480ef3d40d76fe731fb7fad911d9e6f97db06cb768d5fde5e16d64736f6c63430008170033",
  "chainId": 2021,
  "contractAbsolutePath": "RoninBridgeManager.sol",
  "deployer": "0x968D0Cd7343f711216817E617d3f92a23dC91c07",
  "devdoc": {
    "version": 1,
    "kind": "dev",
    "methods": {
      "addBridgeOperators(uint96[],address[],address[])": {
        "details": "Adds multiple bridge operators.",
        "params": {
          "bridgeOperators": "An array of addresses representing the bridge operators to add.",
          "governors": "An array of addresses of hot/cold wallets for bridge operator to update their node address."
        }
      },
      "castGlobalProposalBySignatures((uint256,uint256,address,uint8[],uint256[],bytes[],uint256[]),uint8[],(uint8,bytes32,bytes32)[])": {
        "details": "See `GovernanceProposal-_castGlobalProposalBySignatures`."
      },
      "castProposalBySignatures((uint256,uint256,uint256,address,address[],uint256[],bytes[],uint256[]),uint8[],(uint8,bytes32,bytes32)[])": {
        "details": "See `GovernanceProposal-_castProposalBySignatures`."
      },
      "castProposalVoteForCurrentNetwork((uint256,uint256,uint256,address,address[],uint256[],bytes[],uint256[]),uint8)": {
        "details": "Casts vote for a proposal on the current network. Requirements: - The method caller is governor."
      },
      "checkThreshold(uint256)": {
        "details": "Checks whether the `_voteWeight` passes the threshold."
      },
      "deleteExpired(uint256,uint256)": {
        "details": "Deletes the expired proposal by its chainId and nonce, without creating a new proposal. Requirements: - The proposal is already created."
      },
      "execute((uint256,uint256,uint256,address,address[],uint256[],bytes[],uint256[]))": {
        "details": "See {CoreGovernance-_executeWithCaller}."
      },
      "executeGlobal((uint256,uint256,address,uint8[],uint256[],bytes[],uint256[]))": {
        "details": "See {GlobalCoreGovernance-_executeWithCaller}."
      },
      "getBridgeOperatorWeight(address)": {
        "details": "External function to retrieve the vote weight of a specific bridge operator.",
        "params": {
          "bridgeOperator": "The address of the bridge operator to get the vote weight for."
        },
        "returns": {
          "weight": "The vote weight of the specified bridge operator."
        }
      },
      "getBridgeOperators()": {
        "details": "Returns an array of all bridge operators.",
        "returns": {
          "_0": "An array containing the addresses of all bridge operators."
        }
      },
      "getCallbackRegisters()": {
        "details": "Retrieves the addresses of registered callbacks.",
        "returns": {
          "registers": "An array containing the addresses of registered callbacks."
        }
      },
      "getContract(uint8)": {
        "details": "Returns the address of a contract with a specific role. Throws an error if no contract is set for the specified role.",
        "params": {
          "contractType": "The role of the contract to retrieve."
        },
        "returns": {
          "contract_": "The address of the contract with the specified role."
        }
      },
      "getFullBridgeOperatorInfos()": {
        "details": "Retrieves the full information of all registered bridge operators. This external function allows external callers to obtain the full information of all the registered bridge operators. The returned arrays include the addresses of governors, bridge operators, and their corresponding vote weights.",
        "returns": {
          "bridgeOperators": "An array of addresses representing the registered bridge operators.",
          "governors": "An array of addresses representing the governors of each bridge operator.",
          "weights": "An array of uint256 values representing the vote weights of each bridge operator. Note: The length of each array will be the same, and the order of elements corresponds to the same bridge operator. Example Usage: ``` (address[] memory governors, address[] memory bridgeOperators, uint256[] memory weights) = getFullBridgeOperatorInfos(); for (uint256 i = 0; i < bridgeOperators.length; i++) {     // Access individual information for each bridge operator.     address governor = governors[i];     address bridgeOperator = bridgeOperators[i];     uint256 weight = weights[i];     // ... (Process or use the information as required) ... } ```"
        }
      },
      "getGlobalProposalSignatures(uint256)": {
        "details": "See {CommonGovernanceProposal-_getProposalSignatures}"
      },
      "getGovernorOf(address)": {
        "details": "Returns the corresponding `governor` of a `operator`."
      },
      "getGovernorWeight(address)": {
        "details": "External function to retrieve the vote weight of a specific governor.",
        "params": {
          "governor": "The address of the governor to get the vote weight for."
        },
        "returns": {
          "weight": "voteWeight The vote weight of the specified governor."
        }
      },
      "getGovernorWeights(address[])": {
        "details": "Returns the weights of a list of governor addresses."
      },
      "getGovernors()": {
        "details": "Returns an array of all governors.",
        "returns": {
          "_0": "An array containing the addresses of all governors."
        }
      },
      "getOperatorOf(address)": {
        "details": "Returns the corresponding `operator` of a `governor`."
      },
      "getProposalExpiryDuration()": {
        "details": "Returns the expiry duration for a new proposal."
      },
      "getProposalSignatures(uint256,uint256)": {
        "details": "See {CommonGovernanceProposal-_getProposalSignatures}"
      },
      "getThreshold()": {
        "details": "Returns the threshold."
      },
      "getTotalWeight()": {
        "details": "Returns total weights."
      },
      "globalProposalVoted(uint256,address)": {
        "details": "See {CommonGovernanceProposal-_proposalVoted}"
      },
      "isBridgeOperator(address)": {
        "details": "Checks if the given address is a bridge operator.",
        "params": {
          "addr": "The address to check."
        },
        "returns": {
          "_0": "A boolean indicating whether the address is a bridge operator."
        }
      },
      "minimumVoteWeight()": {
        "details": "Returns the minimum vote weight to pass the threshold."
      },
      "proposalVoted(uint256,uint256,address)": {
        "details": "See {CommonGovernanceProposal-_proposalVoted}"
      },
      "propose(uint256,uint256,address,address[],uint256[],bytes[],uint256[])": {
        "details": "See `CoreGovernance-_proposeProposal`. Requirements: - The method caller is governor."
      },
      "proposeGlobal(uint256,address,uint8[],uint256[],bytes[],uint256[])": {
        "details": "See `CoreGovernance-_proposeGlobal`. Requirements: - The method caller is governor."
      },
      "proposeGlobalProposalStructAndCastVotes((uint256,uint256,address,uint8[],uint256[],bytes[],uint256[]),uint8[],(uint8,bytes32,bytes32)[])": {
        "details": "See `GovernanceProposal-_proposeGlobalProposalStructAndCastVotes`. Requirements: - The method caller is governor."
      },
      "proposeProposalForCurrentNetwork(uint256,address,address[],uint256[],bytes[],uint256[],uint8)": {
        "details": "Proposes and casts vote for a proposal on the current network. Requirements: - The method caller is governor. - The proposal is for the current network."
      },
      "proposeProposalStructAndCastVotes((uint256,uint256,uint256,address,address[],uint256[],bytes[],uint256[]),uint8[],(uint8,bytes32,bytes32)[])": {
        "details": "See `GovernanceProposal-_proposeProposalStructAndCastVotes`. Requirements: - The method caller is governor. - The proposal is for the current network."
      },
      "registerCallbacks(address[])": {
        "details": "Registers multiple callbacks with the bridge.",
        "params": {
          "registers": "The array of callback addresses to register."
        }
      },
      "removeBridgeOperators(address[])": {
        "details": "Removes multiple bridge operators.",
        "params": {
          "bridgeOperators": "An array of addresses representing the bridge operators to remove."
        }
      },
      "resolveTargets(uint8[])": {
        "details": "Returns corresponding address of target options. Return address(0) on non-existent target."
      },
      "setContract(uint8,address)": {
        "details": "Sets the address of a contract with a specific role. Emits the event {ContractUpdated}.",
        "params": {
          "addr": "The address of the contract to set.",
          "contractType": "The role of the contract to set."
        }
      },
      "setMinRequiredGovernor(uint256)": {
        "details": "Self-call to update the minimum required governor.",
        "params": {
          "min": "The minimum number, this must not less than 3."
        }
      },
      "setThreshold(uint256,uint256)": {
        "details": "Sets the threshold. Requirements: - The method caller is admin. Emits the `ThresholdUpdated` event."
      },
      "sumGovernorsWeight(address[])": {
        "details": "Returns total weights of the governor list."
      },
      "totalBridgeOperator()": {
        "details": "Returns the total number of bridge operators.",
        "returns": {
          "_0": "The total number of bridge operators."
        }
      },
      "unregisterCallbacks(address[])": {
        "details": "Unregisters multiple callbacks from the bridge.",
        "params": {
          "registers": "The array of callback addresses to unregister."
        }
      },
      "updateManyTargetOption(uint8[],address[])": {
        "details": "Updates list of `targetOptions` to `targets`. Requirement: - Only allow self-call through proposal."
      }
    },
    "events": {
      "BridgeOperatorAddingFailed(address)": {
        "details": "Emitted when a bridge operator is failed to add."
      },
      "BridgeOperatorRemovingFailed(address)": {
        "details": "Emitted when a bridge operator is failed to remove."
      },
      "BridgeOperatorUpdated(address,address,address)": {
        "details": "Emitted when a bridge operator is updated."
      },
      "BridgeOperatorsAdded(bool[],uint96[],address[],address[])": {
        "details": "Emitted when new bridge operators are added."
      },
      "BridgeOperatorsRemoved(bool[],address[])": {
        "details": "Emitted when bridge operators are removed."
      },
      "ContractUpdated(uint8,address)": {
        "details": "Emitted when a contract is updated."
      },
      "GlobalProposalCreated(uint256,bytes32,(uint256,uint256,uint256,address,address[],uint256[],bytes[],uint256[]),bytes32,(uint256,uint256,address,uint8[],uint256[],bytes[],uint256[]),address)": {
        "details": "Emitted when a proposal is created"
      },
      "Initialized(uint8)": {
        "details": "Triggered when the contract has been initialized or reinitialized."
      },
      "MinRequiredGovernorUpdated(uint256)": {
        "details": "Emitted when the minimum number of required governors is updated."
      },
      "Notified(bytes,address[],bool[],bytes[])": {
        "details": "Emitted when the contract notifies multiple registers with statuses and return data."
      },
      "ProposalApproved(bytes32)": {
        "details": "Emitted when the proposal is approved"
      },
      "ProposalCreated(uint256,uint256,bytes32,(uint256,uint256,uint256,address,address[],uint256[],bytes[],uint256[]),address)": {
        "details": "Emitted when a proposal is created"
      },
      "ProposalExecuted(bytes32,bool[],bytes[])": {
        "details": "Emitted when the proposal is executed"
      },
      "ProposalExpired(bytes32)": {
        "details": "Emitted when the vote is expired"
      },
      "ProposalExpiryDurationChanged(uint256)": {
        "details": "Emitted when the proposal expiry duration is changed."
      },
      "ProposalRejected(bytes32)": {
        "details": "Emitted when the vote is reject"
      },
      "ProposalVoted(bytes32,address,uint8,uint256)": {
        "details": "Emitted when the proposal is voted"
      },
      "TargetOptionUpdated(uint8,address)": {
        "details": "Emitted when the target options are updated"
      },
      "ThresholdUpdated(uint256,uint256,uint256,uint256,uint256)": {
        "details": "Emitted when the threshold is updated"
      }
    },
    "errors": {
      "ErrAlreadyVoted(address)": [
        {
          "details": "Error indicating that a voter has already voted.",
          "params": {
            "voter": "The address of the voter who has already voted."
          }
        }
      ],
      "ErrContractTypeNotFound(uint8)": [
        {
          "details": "Error of invalid role."
        }
      ],
      "ErrCurrentProposalIsNotCompleted()": [
        {
          "details": "Error thrown when the current proposal is not completed."
        }
      ],
      "ErrDuplicated(bytes4)": [
        {
          "details": "Error thrown when a duplicated element is detected in an array.",
          "params": {
            "msgSig": "The function signature that invoke the error."
          }
        }
      ],
      "ErrInsufficientGas(bytes32)": [
        {
          "details": "Error thrown when there is insufficient gas to execute a function."
        }
      ],
      "ErrInvalidArguments(bytes4)": [
        {
          "details": "Error indicating that arguments are invalid."
        }
      ],
      "ErrInvalidChainId(bytes4,uint256,uint256)": [
        {
          "details": "Error indicating that the chain ID is invalid.",
          "params": {
            "actual": "Current chain ID that executing function.",
            "expected": "Expected chain ID required for the tx to success.",
            "msgSig": "The function signature (bytes4) of the operation that encountered an invalid chain ID."
          }
        }
      ],
      "ErrInvalidExecutor()": [
        {
          "details": "Error of the caller is not the specified executor."
        }
      ],
      "ErrInvalidExpiryTimestamp()": [
        {
          "details": "Error thrown when an invalid expiry timestamp is provided."
        }
      ],
      "ErrInvalidOrder(bytes4)": [
        {
          "details": "Error indicating that an order is invalid.",
          "params": {
            "msgSig": "The function signature (bytes4) of the operation that encountered an invalid order."
          }
        }
      ],
      "ErrInvalidProposal(bytes32,bytes32)": [
        {
          "details": "Error thrown when an invalid proposal is encountered.",
          "params": {
            "actual": "The actual value of the proposal.",
            "expected": "The expected value of the proposal."
          }
        }
      ],
      "ErrInvalidProposalNonce(bytes4)": [
        {
          "details": "Error indicating that the proposal nonce is invalid.",
          "params": {
            "msgSig": "The function signature (bytes4) of the operation that encountered an invalid proposal nonce."
          }
        }
      ],
      "ErrInvalidSignatures(bytes4)": [
        {
          "details": "Error indicating that a signature is invalid for a specific function signature.",
          "params": {
            "msgSig": "The function signature (bytes4) that encountered an invalid signature."
          }
        }
      ],
      "ErrInvalidThreshold(bytes4)": [
        {
          "details": "Error indicating that the provided threshold is invalid for a specific function signature.",
          "params": {
            "msgSig": "The function signature (bytes4) that the invalid threshold applies to."
          }
        }
      ],
      "ErrInvalidVoteWeight(bytes4)": [
        {
          "details": "Error indicating that a vote weight is invalid for a specific function signature.",
          "params": {
            "msgSig": "The function signature (bytes4) that encountered an invalid vote weight."
          }
        }
      ],
      "ErrLengthMismatch(bytes4)": [
        {
          "details": "Error indicating a mismatch in the length of input parameters or arrays for a specific function.",
          "params": {
            "msgSig": "The function signature (bytes4) that has a length mismatch."
          }
        }
      ],
      "ErrLooseProposalInternallyRevert(uint256,bytes)": [
        {
          "details": "Error thrown when the proposal reverts when execute the internal call no. `callIndex` with revert message is `revertMsg`."
        }
      ],
      "ErrOnlySelfCall(bytes4)": [
        {
          "details": "Error indicating that a function can only be called by the contract itself.",
          "params": {
            "msgSig": "The function signature (bytes4) that can only be called by the contract itself."
          }
        }
      ],
      "ErrProposalNotApproved()": [
        {
          "details": "Error of proposal is not approved for executing."
        }
      ],
      "ErrQueryForEmptyVote()": [
        {
          "details": "Error thrown when querying for an empty vote."
        }
      ],
      "ErrUnauthorized(bytes4,uint8)": [
        {
          "details": "Error indicating that the caller is unauthorized to perform a specific function.",
          "params": {
            "expectedRole": "The role required to perform the function.",
            "msgSig": "The function signature (bytes4) that the caller is unauthorized to perform."
          }
        }
      ],
      "ErrUnsupportedInterface(bytes4,address)": [
        {
          "details": "The error indicating an unsupported interface.",
          "params": {
            "addr": "The address where the unsupported interface was encountered.",
            "interfaceId": "The bytes4 interface identifier that is not supported."
          }
        }
      ],
      "ErrUnsupportedVoteType(bytes4)": [
        {
          "details": "Error indicating that a vote type is not supported.",
          "params": {
            "msgSig": "The function signature (bytes4) of the operation that encountered an unsupported vote type."
          }
        }
      ],
      "ErrVoteIsFinalized()": [
        {
          "details": "Error thrown when attempting to interact with a finalized vote."
        }
      ],
      "ErrZeroAddress(bytes4)": [
        {
          "details": "Error indicating that given address is null when it should not."
        }
      ],
      "ErrZeroCodeContract(address)": [
        {
          "details": "Error of set to non-contract."
        }
      ]
    }
  },
  "isFoundry": true,
  "nonce": 192804,
  "numDeployments": 1,
  "storageLayout": {
    "storage": [
      {
        "astId": 58190,
        "contract": "src/ronin/gateway/RoninBridgeManager.sol:RoninBridgeManager",
        "label": "_initialized",
        "offset": 0,
        "slot": "0",
        "type": "t_uint8"
      },
      {
        "astId": 58193,
        "contract": "src/ronin/gateway/RoninBridgeManager.sol:RoninBridgeManager",
        "label": "_initializing",
        "offset": 1,
        "slot": "0",
        "type": "t_bool"
      },
      {
        "astId": 105550,
        "contract": "src/ronin/gateway/RoninBridgeManager.sol:RoninBridgeManager",
        "label": "DOMAIN_SEPARATOR",
        "offset": 0,
        "slot": "1",
        "type": "t_bytes32"
      },
      {
        "astId": 107599,
        "contract": "src/ronin/gateway/RoninBridgeManager.sol:RoninBridgeManager",
        "label": "round",
        "offset": 0,
        "slot": "2",
        "type": "t_mapping(t_uint256,t_uint256)"
      },
      {
        "astId": 107607,
        "contract": "src/ronin/gateway/RoninBridgeManager.sol:RoninBridgeManager",
        "label": "vote",
        "offset": 0,
        "slot": "3",
        "type": "t_mapping(t_uint256,t_mapping(t_uint256,t_struct(ProposalVote)107537_storage))"
      },
      {
        "astId": 107609,
        "contract": "src/ronin/gateway/RoninBridgeManager.sol:RoninBridgeManager",
        "label": "_proposalExpiryDuration",
        "offset": 0,
        "slot": "4",
        "type": "t_uint256"
      },
      {
        "astId": 108331,
        "contract": "src/ronin/gateway/RoninBridgeManager.sol:RoninBridgeManager",
        "label": "_targetOptionsMap",
        "offset": 0,
        "slot": "5",
        "type": "t_mapping(t_enum(TargetOption)112395,t_address)"
      }
    ],
    "types": {
      "t_address": {
        "encoding": "inplace",
        "label": "address",
        "numberOfBytes": "20"
      },
      "t_array(t_address)dyn_storage": {
        "encoding": "dynamic_array",
        "label": "address[]",
        "numberOfBytes": "32",
        "base": "t_address"
      },
      "t_bool": {
        "encoding": "inplace",
        "label": "bool",
        "numberOfBytes": "1"
      },
      "t_bytes32": {
        "encoding": "inplace",
        "label": "bytes32",
        "numberOfBytes": "32"
      },
      "t_enum(TargetOption)112395": {
        "encoding": "inplace",
        "label": "enum GlobalProposal.TargetOption",
        "numberOfBytes": "1"
      },
      "t_enum(VoteStatus)111339": {
        "encoding": "inplace",
        "label": "enum VoteStatusConsumer.VoteStatus",
        "numberOfBytes": "1"
      },
      "t_mapping(t_address,t_bool)": {
        "encoding": "mapping",
        "key": "t_address",
        "label": "mapping(address => bool)",
        "numberOfBytes": "32",
        "value": "t_bool"
      },
      "t_mapping(t_address,t_struct(Signature)111330_storage)": {
        "encoding": "mapping",
        "key": "t_address",
        "label": "mapping(address => struct SignatureConsumer.Signature)",
        "numberOfBytes": "32",
        "value": "t_struct(Signature)111330_storage"
      },
      "t_mapping(t_enum(TargetOption)112395,t_address)": {
        "encoding": "mapping",
        "key": "t_enum(TargetOption)112395",
        "label": "mapping(enum GlobalProposal.TargetOption => address)",
        "numberOfBytes": "32",
        "value": "t_address"
      },
      "t_mapping(t_uint256,t_mapping(t_uint256,t_struct(ProposalVote)107537_storage))": {
        "encoding": "mapping",
        "key": "t_uint256",
        "label": "mapping(uint256 => mapping(uint256 => struct CoreGovernance.ProposalVote))",
        "numberOfBytes": "32",
        "value": "t_mapping(t_uint256,t_struct(ProposalVote)107537_storage)"
      },
      "t_mapping(t_uint256,t_struct(ProposalVote)107537_storage)": {
        "encoding": "mapping",
        "key": "t_uint256",
        "label": "mapping(uint256 => struct CoreGovernance.ProposalVote)",
        "numberOfBytes": "32",
        "value": "t_struct(ProposalVote)107537_storage"
      },
      "t_mapping(t_uint256,t_uint256)": {
        "encoding": "mapping",
        "key": "t_uint256",
        "label": "mapping(uint256 => uint256)",
        "numberOfBytes": "32",
        "value": "t_uint256"
      },
      "t_struct(ProposalVote)107537_storage": {
        "encoding": "inplace",
        "label": "struct CoreGovernance.ProposalVote",
        "numberOfBytes": "288",
        "members": [
          {
            "astId": 107513,
            "contract": "src/ronin/gateway/RoninBridgeManager.sol:RoninBridgeManager",
            "label": "status",
            "offset": 0,
            "slot": "0",
            "type": "t_enum(VoteStatus)111339"
          },
          {
            "astId": 107515,
            "contract": "src/ronin/gateway/RoninBridgeManager.sol:RoninBridgeManager",
            "label": "hash",
            "offset": 0,
            "slot": "1",
            "type": "t_bytes32"
          },
          {
            "astId": 107517,
            "contract": "src/ronin/gateway/RoninBridgeManager.sol:RoninBridgeManager",
            "label": "againstVoteWeight",
            "offset": 0,
            "slot": "2",
            "type": "t_uint256"
          },
          {
            "astId": 107519,
            "contract": "src/ronin/gateway/RoninBridgeManager.sol:RoninBridgeManager",
            "label": "forVoteWeight",
            "offset": 0,
            "slot": "3",
            "type": "t_uint256"
          },
          {
            "astId": 107522,
            "contract": "src/ronin/gateway/RoninBridgeManager.sol:RoninBridgeManager",
            "label": "forVoteds",
            "offset": 0,
            "slot": "4",
            "type": "t_array(t_address)dyn_storage"
          },
          {
            "astId": 107525,
            "contract": "src/ronin/gateway/RoninBridgeManager.sol:RoninBridgeManager",
            "label": "againstVoteds",
            "offset": 0,
            "slot": "5",
            "type": "t_array(t_address)dyn_storage"
          },
          {
            "astId": 107527,
            "contract": "src/ronin/gateway/RoninBridgeManager.sol:RoninBridgeManager",
            "label": "expiryTimestamp",
            "offset": 0,
            "slot": "6",
            "type": "t_uint256"
          },
          {
            "astId": 107532,
            "contract": "src/ronin/gateway/RoninBridgeManager.sol:RoninBridgeManager",
            "label": "sig",
            "offset": 0,
            "slot": "7",
            "type": "t_mapping(t_address,t_struct(Signature)111330_storage)"
          },
          {
            "astId": 107536,
            "contract": "src/ronin/gateway/RoninBridgeManager.sol:RoninBridgeManager",
            "label": "voted",
            "offset": 0,
            "slot": "8",
            "type": "t_mapping(t_address,t_bool)"
          }
        ]
      },
      "t_struct(Signature)111330_storage": {
        "encoding": "inplace",
        "label": "struct SignatureConsumer.Signature",
        "numberOfBytes": "96",
        "members": [
          {
            "astId": 111325,
            "contract": "src/ronin/gateway/RoninBridgeManager.sol:RoninBridgeManager",
            "label": "v",
            "offset": 0,
            "slot": "0",
            "type": "t_uint8"
          },
          {
            "astId": 111327,
            "contract": "src/ronin/gateway/RoninBridgeManager.sol:RoninBridgeManager",
            "label": "r",
            "offset": 0,
            "slot": "1",
            "type": "t_bytes32"
          },
          {
            "astId": 111329,
            "contract": "src/ronin/gateway/RoninBridgeManager.sol:RoninBridgeManager",
            "label": "s",
            "offset": 0,
            "slot": "2",
            "type": "t_bytes32"
          }
        ]
      },
      "t_uint256": {
        "encoding": "inplace",
        "label": "uint256",
        "numberOfBytes": "32"
      },
      "t_uint8": {
        "encoding": "inplace",
        "label": "uint8",
        "numberOfBytes": "1"
      }
    }
  },
  "timestamp": 1713240519,
  "userdoc": {
    "version": 1,
    "kind": "user",
    "methods": {
      "round(uint256)": {
        "notice": "chain id = 0 for global proposal"
      }
    },
    "errors": {
      "ErrBelowMinRequiredGovernors()": [
        {
          "notice": "Error indicating that the governors list will go below minimum number of required governor."
        }
      ],
      "ErrGovernorNotFound(address)": [
        {
          "notice": "Error indicating that cannot find the querying governor"
        }
      ],
      "ErrGovernorNotMatch(address,address)": [
        {
          "notice": "Error indicating that the msg.sender is not match the required governor"
        }
      ],
      "ErrInvalidInput()": [
        {
          "notice": "Common invalid input error"
        }
      ],
      "ErrOperatorNotFound(address)": [
        {
          "notice": "Error indicating that cannot find the querying operator"
        }
      ]
    }
  }
}