{
  "abi": [
    {
      "type": "function",
      "name": "DOMAIN_SEPARATOR",
      "inputs": [],
      "outputs": [
        {
          "name": "",
          "type": "bytes32",
          "internalType": "bytes32"
        }
      ],
      "stateMutability": "view"
    },
    {
      "type": "function",
      "name": "addBridgeOperators",
      "inputs": [
        {
          "name": "voteWeights",
          "type": "uint96[]",
          "internalType": "uint96[]"
        },
        {
          "name": "governors",
          "type": "address[]",
          "internalType": "address[]"
        },
        {
          "name": "bridgeOperators",
          "type": "address[]",
          "internalType": "address[]"
        }
      ],
      "outputs": [],
      "stateMutability": "nonpayable"
    },
    {
      "type": "function",
      "name": "checkThreshold",
      "inputs": [
        {
          "name": "voteWeight",
          "type": "uint256",
          "internalType": "uint256"
        }
      ],
      "outputs": [
        {
          "name": "",
          "type": "bool",
          "internalType": "bool"
        }
      ],
      "stateMutability": "view"
    },
    {
      "type": "function",
      "name": "getBridgeOperatorWeight",
      "inputs": [
        {
          "name": "bridgeOperator",
          "type": "address",
          "internalType": "address"
        }
      ],
      "outputs": [
        {
          "name": "weight",
          "type": "uint96",
          "internalType": "uint96"
        }
      ],
      "stateMutability": "view"
    },
    {
      "type": "function",
      "name": "getBridgeOperators",
      "inputs": [],
      "outputs": [
        {
          "name": "",
          "type": "address[]",
          "internalType": "address[]"
        }
      ],
      "stateMutability": "view"
    },
    {
      "type": "function",
      "name": "getCallbackRegisters",
      "inputs": [],
      "outputs": [
        {
          "name": "registers",
          "type": "address[]",
          "internalType": "address[]"
        }
      ],
      "stateMutability": "view"
    },
    {
      "type": "function",
      "name": "getContract",
      "inputs": [
        {
          "name": "contractType",
          "type": "uint8",
          "internalType": "enum ContractType"
        }
      ],
      "outputs": [
        {
          "name": "contract_",
          "type": "address",
          "internalType": "address"
        }
      ],
      "stateMutability": "view"
    },
    {
      "type": "function",
      "name": "getFullBridgeOperatorInfos",
      "inputs": [],
      "outputs": [
        {
          "name": "governors",
          "type": "address[]",
          "internalType": "address[]"
        },
        {
          "name": "bridgeOperators",
          "type": "address[]",
          "internalType": "address[]"
        },
        {
          "name": "weights",
          "type": "uint96[]",
          "internalType": "uint96[]"
        }
      ],
      "stateMutability": "view"
    },
    {
      "type": "function",
      "name": "getGlobalProposalSignatures",
      "inputs": [
        {
          "name": "round_",
          "type": "uint256",
          "internalType": "uint256"
        }
      ],
      "outputs": [
        {
          "name": "voters",
          "type": "address[]",
          "internalType": "address[]"
        },
        {
          "name": "supports_",
          "type": "uint8[]",
          "internalType": "enum Ballot.VoteType[]"
        },
        {
          "name": "signatures",
          "type": "tuple[]",
          "internalType": "struct SignatureConsumer.Signature[]",
          "components": [
            {
              "name": "v",
              "type": "uint8",
              "internalType": "uint8"
            },
            {
              "name": "r",
              "type": "bytes32",
              "internalType": "bytes32"
            },
            {
              "name": "s",
              "type": "bytes32",
              "internalType": "bytes32"
            }
          ]
        }
      ],
      "stateMutability": "view"
    },
    {
      "type": "function",
      "name": "getGovernorOf",
      "inputs": [
        {
          "name": "operator",
          "type": "address",
          "internalType": "address"
        }
      ],
      "outputs": [
        {
          "name": "governor",
          "type": "address",
          "internalType": "address"
        }
      ],
      "stateMutability": "view"
    },
    {
      "type": "function",
      "name": "getGovernorWeight",
      "inputs": [
        {
          "name": "governor",
          "type": "address",
          "internalType": "address"
        }
      ],
      "outputs": [
        {
          "name": "weight",
          "type": "uint96",
          "internalType": "uint96"
        }
      ],
      "stateMutability": "view"
    },
    {
      "type": "function",
      "name": "getGovernorWeights",
      "inputs": [
        {
          "name": "governors",
          "type": "address[]",
          "internalType": "address[]"
        }
      ],
      "outputs": [
        {
          "name": "weights",
          "type": "uint96[]",
          "internalType": "uint96[]"
        }
      ],
      "stateMutability": "view"
    },
    {
      "type": "function",
      "name": "getGovernors",
      "inputs": [],
      "outputs": [
        {
          "name": "",
          "type": "address[]",
          "internalType": "address[]"
        }
      ],
      "stateMutability": "view"
    },
    {
      "type": "function",
      "name": "getOperatorOf",
      "inputs": [
        {
          "name": "governor",
          "type": "address",
          "internalType": "address"
        }
      ],
      "outputs": [
        {
          "name": "operator",
          "type": "address",
          "internalType": "address"
        }
      ],
      "stateMutability": "view"
    },
    {
      "type": "function",
      "name": "getProposalSignatures",
      "inputs": [
        {
          "name": "_chainId",
          "type": "uint256",
          "internalType": "uint256"
        },
        {
          "name": "_round",
          "type": "uint256",
          "internalType": "uint256"
        }
      ],
      "outputs": [
        {
          "name": "_voters",
          "type": "address[]",
          "internalType": "address[]"
        },
        {
          "name": "_supports",
          "type": "uint8[]",
          "internalType": "enum Ballot.VoteType[]"
        },
        {
          "name": "_signatures",
          "type": "tuple[]",
          "internalType": "struct SignatureConsumer.Signature[]",
          "components": [
            {
              "name": "v",
              "type": "uint8",
              "internalType": "uint8"
            },
            {
              "name": "r",
              "type": "bytes32",
              "internalType": "bytes32"
            },
            {
              "name": "s",
              "type": "bytes32",
              "internalType": "bytes32"
            }
          ]
        }
      ],
      "stateMutability": "view"
    },
    {
      "type": "function",
      "name": "getThreshold",
      "inputs": [],
      "outputs": [
        {
          "name": "num",
          "type": "uint256",
          "internalType": "uint256"
        },
        {
          "name": "denom",
          "type": "uint256",
          "internalType": "uint256"
        }
      ],
      "stateMutability": "view"
    },
    {
      "type": "function",
      "name": "getTotalWeight",
      "inputs": [],
      "outputs": [
        {
          "name": "",
          "type": "uint256",
          "internalType": "uint256"
        }
      ],
      "stateMutability": "view"
    },
    {
      "type": "function",
      "name": "globalProposalVoted",
      "inputs": [
        {
          "name": "round_",
          "type": "uint256",
          "internalType": "uint256"
        },
        {
          "name": "voter",
          "type": "address",
          "internalType": "address"
        }
      ],
      "outputs": [
        {
          "name": "",
          "type": "bool",
          "internalType": "bool"
        }
      ],
      "stateMutability": "view"
    },
    {
      "type": "function",
      "name": "initialize",
      "inputs": [
        {
          "name": "num",
          "type": "uint256",
          "internalType": "uint256"
        },
        {
          "name": "denom",
          "type": "uint256",
          "internalType": "uint256"
        },
        {
          "name": "roninChainId",
          "type": "uint256",
          "internalType": "uint256"
        },
        {
          "name": "expiryDuration",
          "type": "uint256",
          "internalType": "uint256"
        },
        {
          "name": "bridgeContract",
          "type": "address",
          "internalType": "address"
        },
        {
          "name": "callbackRegisters",
          "type": "address[]",
          "internalType": "address[]"
        },
        {
          "name": "bridgeOperators",
          "type": "address[]",
          "internalType": "address[]"
        },
        {
          "name": "governors",
          "type": "address[]",
          "internalType": "address[]"
        },
        {
          "name": "voteWeights",
          "type": "uint96[]",
          "internalType": "uint96[]"
        },
        {
          "name": "targetOptions",
          "type": "uint8[]",
          "internalType": "enum GlobalProposal.TargetOption[]"
        },
        {
          "name": "targets",
          "type": "address[]",
          "internalType": "address[]"
        }
      ],
      "outputs": [],
      "stateMutability": "nonpayable"
    },
    {
      "type": "function",
      "name": "isBridgeOperator",
      "inputs": [
        {
          "name": "addr",
          "type": "address",
          "internalType": "address"
        }
      ],
      "outputs": [
        {
          "name": "",
          "type": "bool",
          "internalType": "bool"
        }
      ],
      "stateMutability": "view"
    },
    {
      "type": "function",
      "name": "minimumVoteWeight",
      "inputs": [],
      "outputs": [
        {
          "name": "",
          "type": "uint256",
          "internalType": "uint256"
        }
      ],
      "stateMutability": "view"
    },
    {
      "type": "function",
      "name": "proposalVoted",
      "inputs": [
        {
          "name": "_chainId",
          "type": "uint256",
          "internalType": "uint256"
        },
        {
          "name": "_round",
          "type": "uint256",
          "internalType": "uint256"
        },
        {
          "name": "_voter",
          "type": "address",
          "internalType": "address"
        }
      ],
      "outputs": [
        {
          "name": "",
          "type": "bool",
          "internalType": "bool"
        }
      ],
      "stateMutability": "view"
    },
    {
      "type": "function",
      "name": "registerCallbacks",
      "inputs": [
        {
          "name": "registers",
          "type": "address[]",
          "internalType": "address[]"
        }
      ],
      "outputs": [],
      "stateMutability": "nonpayable"
    },
    {
      "type": "function",
      "name": "removeBridgeOperators",
      "inputs": [
        {
          "name": "bridgeOperators",
          "type": "address[]",
          "internalType": "address[]"
        }
      ],
      "outputs": [],
      "stateMutability": "nonpayable"
    },
    {
      "type": "function",
      "name": "resolveTargets",
      "inputs": [
        {
          "name": "targetOptions",
          "type": "uint8[]",
          "internalType": "enum GlobalProposal.TargetOption[]"
        }
      ],
      "outputs": [
        {
          "name": "targets",
          "type": "address[]",
          "internalType": "address[]"
        }
      ],
      "stateMutability": "view"
    },
    {
      "type": "function",
      "name": "round",
      "inputs": [
        {
          "name": "",
          "type": "uint256",
          "internalType": "uint256"
        }
      ],
      "outputs": [
        {
          "name": "",
          "type": "uint256",
          "internalType": "uint256"
        }
      ],
      "stateMutability": "view"
    },
    {
      "type": "function",
      "name": "setContract",
      "inputs": [
        {
          "name": "contractType",
          "type": "uint8",
          "internalType": "enum ContractType"
        },
        {
          "name": "addr",
          "type": "address",
          "internalType": "address"
        }
      ],
      "outputs": [],
      "stateMutability": "nonpayable"
    },
    {
      "type": "function",
      "name": "setMinRequiredGovernor",
      "inputs": [
        {
          "name": "min",
          "type": "uint256",
          "internalType": "uint256"
        }
      ],
      "outputs": [],
      "stateMutability": "nonpayable"
    },
    {
      "type": "function",
      "name": "setThreshold",
      "inputs": [
        {
          "name": "num",
          "type": "uint256",
          "internalType": "uint256"
        },
        {
          "name": "denom",
          "type": "uint256",
          "internalType": "uint256"
        }
      ],
      "outputs": [],
      "stateMutability": "nonpayable"
    },
    {
      "type": "function",
      "name": "sumGovernorsWeight",
      "inputs": [
        {
          "name": "governors",
          "type": "address[]",
          "internalType": "address[]"
        }
      ],
      "outputs": [
        {
          "name": "sum",
          "type": "uint256",
          "internalType": "uint256"
        }
      ],
      "stateMutability": "view"
    },
    {
      "type": "function",
      "name": "totalBridgeOperator",
      "inputs": [],
      "outputs": [
        {
          "name": "",
          "type": "uint256",
          "internalType": "uint256"
        }
      ],
      "stateMutability": "view"
    },
    {
      "type": "function",
      "name": "unregisterCallbacks",
      "inputs": [
        {
          "name": "registers",
          "type": "address[]",
          "internalType": "address[]"
        }
      ],
      "outputs": [],
      "stateMutability": "nonpayable"
    },
    {
      "type": "function",
      "name": "updateManyTargetOption",
      "inputs": [
        {
          "name": "targetOptions",
          "type": "uint8[]",
          "internalType": "enum GlobalProposal.TargetOption[]"
        },
        {
          "name": "targets",
          "type": "address[]",
          "internalType": "address[]"
        }
      ],
      "outputs": [],
      "stateMutability": "nonpayable"
    },
    {
      "type": "function",
      "name": "vote",
      "inputs": [
        {
          "name": "",
          "type": "uint256",
          "internalType": "uint256"
        },
        {
          "name": "",
          "type": "uint256",
          "internalType": "uint256"
        }
      ],
      "outputs": [
        {
          "name": "status",
          "type": "uint8",
          "internalType": "enum VoteStatusConsumer.VoteStatus"
        },
        {
          "name": "hash",
          "type": "bytes32",
          "internalType": "bytes32"
        },
        {
          "name": "againstVoteWeight",
          "type": "uint256",
          "internalType": "uint256"
        },
        {
          "name": "forVoteWeight",
          "type": "uint256",
          "internalType": "uint256"
        },
        {
          "name": "expiryTimestamp",
          "type": "uint256",
          "internalType": "uint256"
        }
      ],
      "stateMutability": "view"
    },
    {
      "type": "event",
      "name": "BridgeOperatorAddingFailed",
      "inputs": [
        {
          "name": "operator",
          "type": "address",
          "indexed": true,
          "internalType": "address"
        }
      ],
      "anonymous": false
    },
    {
      "type": "event",
      "name": "BridgeOperatorRemovingFailed",
      "inputs": [
        {
          "name": "operator",
          "type": "address",
          "indexed": true,
          "internalType": "address"
        }
      ],
      "anonymous": false
    },
    {
      "type": "event",
      "name": "BridgeOperatorUpdated",
      "inputs": [
        {
          "name": "governor",
          "type": "address",
          "indexed": true,
          "internalType": "address"
        },
        {
          "name": "fromBridgeOperator",
          "type": "address",
          "indexed": true,
          "internalType": "address"
        },
        {
          "name": "toBridgeOperator",
          "type": "address",
          "indexed": true,
          "internalType": "address"
        }
      ],
      "anonymous": false
    },
    {
      "type": "event",
      "name": "BridgeOperatorsAdded",
      "inputs": [
        {
          "name": "statuses",
          "type": "bool[]",
          "indexed": false,
          "internalType": "bool[]"
        },
        {
          "name": "voteWeights",
          "type": "uint96[]",
          "indexed": false,
          "internalType": "uint96[]"
        },
        {
          "name": "governors",
          "type": "address[]",
          "indexed": false,
          "internalType": "address[]"
        },
        {
          "name": "bridgeOperators",
          "type": "address[]",
          "indexed": false,
          "internalType": "address[]"
        }
      ],
      "anonymous": false
    },
    {
      "type": "event",
      "name": "BridgeOperatorsRemoved",
      "inputs": [
        {
          "name": "statuses",
          "type": "bool[]",
          "indexed": false,
          "internalType": "bool[]"
        },
        {
          "name": "bridgeOperators",
          "type": "address[]",
          "indexed": false,
          "internalType": "address[]"
        }
      ],
      "anonymous": false
    },
    {
      "type": "event",
      "name": "CallbackRegistered",
      "inputs": [
        {
          "name": "",
          "type": "address",
          "indexed": false,
          "internalType": "address"
        },
        {
          "name": "",
          "type": "bool",
          "indexed": false,
          "internalType": "bool"
        }
      ],
      "anonymous": false
    },
    {
      "type": "event",
      "name": "ContractUpdated",
      "inputs": [
        {
          "name": "contractType",
          "type": "uint8",
          "indexed": true,
          "internalType": "enum ContractType"
        },
        {
          "name": "addr",
          "type": "address",
          "indexed": true,
          "internalType": "address"
        }
      ],
      "anonymous": false
    },
    {
      "type": "event",
      "name": "GlobalProposalCreated",
      "inputs": [
        {
          "name": "round",
          "type": "uint256",
          "indexed": true,
          "internalType": "uint256"
        },
        {
          "name": "proposalHash",
          "type": "bytes32",
          "indexed": true,
          "internalType": "bytes32"
        },
        {
          "name": "proposal",
          "type": "tuple",
          "indexed": false,
          "internalType": "struct Proposal.ProposalDetail",
          "components": [
            {
              "name": "nonce",
              "type": "uint256",
              "internalType": "uint256"
            },
            {
              "name": "chainId",
              "type": "uint256",
              "internalType": "uint256"
            },
            {
              "name": "expiryTimestamp",
              "type": "uint256",
              "internalType": "uint256"
            },
            {
              "name": "executor",
              "type": "address",
              "internalType": "address"
            },
            {
              "name": "targets",
              "type": "address[]",
              "internalType": "address[]"
            },
            {
              "name": "values",
              "type": "uint256[]",
              "internalType": "uint256[]"
            },
            {
              "name": "calldatas",
              "type": "bytes[]",
              "internalType": "bytes[]"
            },
            {
              "name": "gasAmounts",
              "type": "uint256[]",
              "internalType": "uint256[]"
            }
          ]
        },
        {
          "name": "globalProposalHash",
          "type": "bytes32",
          "indexed": false,
          "internalType": "bytes32"
        },
        {
          "name": "globalProposal",
          "type": "tuple",
          "indexed": false,
          "internalType": "struct GlobalProposal.GlobalProposalDetail",
          "components": [
            {
              "name": "nonce",
              "type": "uint256",
              "internalType": "uint256"
            },
            {
              "name": "expiryTimestamp",
              "type": "uint256",
              "internalType": "uint256"
            },
            {
              "name": "executor",
              "type": "address",
              "internalType": "address"
            },
            {
              "name": "targetOptions",
              "type": "uint8[]",
              "internalType": "enum GlobalProposal.TargetOption[]"
            },
            {
              "name": "values",
              "type": "uint256[]",
              "internalType": "uint256[]"
            },
            {
              "name": "calldatas",
              "type": "bytes[]",
              "internalType": "bytes[]"
            },
            {
              "name": "gasAmounts",
              "type": "uint256[]",
              "internalType": "uint256[]"
            }
          ]
        },
        {
          "name": "creator",
          "type": "address",
          "indexed": false,
          "internalType": "address"
        }
      ],
      "anonymous": false
    },
    {
      "type": "event",
      "name": "Initialized",
      "inputs": [
        {
          "name": "version",
          "type": "uint8",
          "indexed": false,
          "internalType": "uint8"
        }
      ],
      "anonymous": false
    },
    {
      "type": "event",
      "name": "MinRequiredGovernorUpdated",
      "inputs": [
        {
          "name": "min",
          "type": "uint256",
          "indexed": false,
          "internalType": "uint256"
        }
      ],
      "anonymous": false
    },
    {
      "type": "event",
      "name": "Notified",
      "inputs": [
        {
          "name": "callData",
          "type": "bytes",
          "indexed": false,
          "internalType": "bytes"
        },
        {
          "name": "registers",
          "type": "address[]",
          "indexed": false,
          "internalType": "address[]"
        },
        {
          "name": "statuses",
          "type": "bool[]",
          "indexed": false,
          "internalType": "bool[]"
        },
        {
          "name": "returnDatas",
          "type": "bytes[]",
          "indexed": false,
          "internalType": "bytes[]"
        }
      ],
      "anonymous": false
    },
    {
      "type": "event",
      "name": "ProposalApproved",
      "inputs": [
        {
          "name": "proposalHash",
          "type": "bytes32",
          "indexed": true,
          "internalType": "bytes32"
        }
      ],
      "anonymous": false
    },
    {
      "type": "event",
      "name": "ProposalCreated",
      "inputs": [
        {
          "name": "chainId",
          "type": "uint256",
          "indexed": true,
          "internalType": "uint256"
        },
        {
          "name": "round",
          "type": "uint256",
          "indexed": true,
          "internalType": "uint256"
        },
        {
          "name": "proposalHash",
          "type": "bytes32",
          "indexed": true,
          "internalType": "bytes32"
        },
        {
          "name": "proposal",
          "type": "tuple",
          "indexed": false,
          "internalType": "struct Proposal.ProposalDetail",
          "components": [
            {
              "name": "nonce",
              "type": "uint256",
              "internalType": "uint256"
            },
            {
              "name": "chainId",
              "type": "uint256",
              "internalType": "uint256"
            },
            {
              "name": "expiryTimestamp",
              "type": "uint256",
              "internalType": "uint256"
            },
            {
              "name": "executor",
              "type": "address",
              "internalType": "address"
            },
            {
              "name": "targets",
              "type": "address[]",
              "internalType": "address[]"
            },
            {
              "name": "values",
              "type": "uint256[]",
              "internalType": "uint256[]"
            },
            {
              "name": "calldatas",
              "type": "bytes[]",
              "internalType": "bytes[]"
            },
            {
              "name": "gasAmounts",
              "type": "uint256[]",
              "internalType": "uint256[]"
            }
          ]
        },
        {
          "name": "creator",
          "type": "address",
          "indexed": false,
          "internalType": "address"
        }
      ],
      "anonymous": false
    },
    {
      "type": "event",
      "name": "ProposalExecuted",
      "inputs": [
        {
          "name": "proposalHash",
          "type": "bytes32",
          "indexed": true,
          "internalType": "bytes32"
        },
        {
          "name": "successCalls",
          "type": "bool[]",
          "indexed": false,
          "internalType": "bool[]"
        },
        {
          "name": "returnDatas",
          "type": "bytes[]",
          "indexed": false,
          "internalType": "bytes[]"
        }
      ],
      "anonymous": false
    },
    {
      "type": "event",
      "name": "ProposalExpired",
      "inputs": [
        {
          "name": "proposalHash",
          "type": "bytes32",
          "indexed": true,
          "internalType": "bytes32"
        }
      ],
      "anonymous": false
    },
    {
      "type": "event",
      "name": "ProposalExpiryDurationChanged",
      "inputs": [
        {
          "name": "duration",
          "type": "uint256",
          "indexed": true,
          "internalType": "uint256"
        }
      ],
      "anonymous": false
    },
    {
      "type": "event",
      "name": "ProposalRejected",
      "inputs": [
        {
          "name": "proposalHash",
          "type": "bytes32",
          "indexed": true,
          "internalType": "bytes32"
        }
      ],
      "anonymous": false
    },
    {
      "type": "event",
      "name": "ProposalVoted",
      "inputs": [
        {
          "name": "proposalHash",
          "type": "bytes32",
          "indexed": true,
          "internalType": "bytes32"
        },
        {
          "name": "voter",
          "type": "address",
          "indexed": true,
          "internalType": "address"
        },
        {
          "name": "support",
          "type": "uint8",
          "indexed": false,
          "internalType": "enum Ballot.VoteType"
        },
        {
          "name": "weight",
          "type": "uint256",
          "indexed": false,
          "internalType": "uint256"
        }
      ],
      "anonymous": false
    },
    {
      "type": "event",
      "name": "TargetOptionUpdated",
      "inputs": [
        {
          "name": "targetOption",
          "type": "uint8",
          "indexed": true,
          "internalType": "enum GlobalProposal.TargetOption"
        },
        {
          "name": "addr",
          "type": "address",
          "indexed": true,
          "internalType": "address"
        }
      ],
      "anonymous": false
    },
    {
      "type": "event",
      "name": "ThresholdUpdated",
      "inputs": [
        {
          "name": "nonce",
          "type": "uint256",
          "indexed": true,
          "internalType": "uint256"
        },
        {
          "name": "numerator",
          "type": "uint256",
          "indexed": true,
          "internalType": "uint256"
        },
        {
          "name": "denominator",
          "type": "uint256",
          "indexed": true,
          "internalType": "uint256"
        },
        {
          "name": "previousNumerator",
          "type": "uint256",
          "indexed": false,
          "internalType": "uint256"
        },
        {
          "name": "previousDenominator",
          "type": "uint256",
          "indexed": false,
          "internalType": "uint256"
        }
      ],
      "anonymous": false
    },
    {
      "type": "error",
      "name": "ErrBelowMinRequiredGovernors",
      "inputs": []
    },
    {
      "type": "error",
      "name": "ErrContractTypeNotFound",
      "inputs": [
        {
          "name": "contractType",
          "type": "uint8",
          "internalType": "enum ContractType"
        }
      ]
    },
    {
      "type": "error",
      "name": "ErrCurrentProposalIsNotCompleted",
      "inputs": []
    },
    {
      "type": "error",
      "name": "ErrDuplicated",
      "inputs": [
        {
          "name": "msgSig",
          "type": "bytes4",
          "internalType": "bytes4"
        }
      ]
    },
    {
      "type": "error",
      "name": "ErrExistOneInternalCallFailed",
      "inputs": [
        {
          "name": "sender",
          "type": "address",
          "internalType": "address"
        },
        {
          "name": "msgSig",
          "type": "bytes4",
          "internalType": "bytes4"
        },
        {
          "name": "callData",
          "type": "bytes",
          "internalType": "bytes"
        }
      ]
    },
    {
      "type": "error",
      "name": "ErrGovernorNotFound",
      "inputs": [
        {
          "name": "governor",
          "type": "address",
          "internalType": "address"
        }
      ]
    },
    {
      "type": "error",
      "name": "ErrGovernorNotMatch",
      "inputs": [
        {
          "name": "required",
          "type": "address",
          "internalType": "address"
        },
        {
          "name": "sender",
          "type": "address",
          "internalType": "address"
        }
      ]
    },
    {
      "type": "error",
      "name": "ErrInvalidArguments",
      "inputs": [
        {
          "name": "msgSig",
          "type": "bytes4",
          "internalType": "bytes4"
        }
      ]
    },
    {
      "type": "error",
      "name": "ErrInvalidInput",
      "inputs": []
    },
    {
      "type": "error",
      "name": "ErrInvalidThreshold",
      "inputs": [
        {
          "name": "msgSig",
          "type": "bytes4",
          "internalType": "bytes4"
        }
      ]
    },
    {
      "type": "error",
      "name": "ErrInvalidVoteWeight",
      "inputs": [
        {
          "name": "msgSig",
          "type": "bytes4",
          "internalType": "bytes4"
        }
      ]
    },
    {
      "type": "error",
      "name": "ErrLengthMismatch",
      "inputs": [
        {
          "name": "msgSig",
          "type": "bytes4",
          "internalType": "bytes4"
        }
      ]
    },
    {
      "type": "error",
      "name": "ErrOnlySelfCall",
      "inputs": [
        {
          "name": "msgSig",
          "type": "bytes4",
          "internalType": "bytes4"
        }
      ]
    },
    {
      "type": "error",
      "name": "ErrOperatorNotFound",
      "inputs": [
        {
          "name": "operator",
          "type": "address",
          "internalType": "address"
        }
      ]
    },
    {
      "type": "error",
      "name": "ErrUnauthorized",
      "inputs": [
        {
          "name": "msgSig",
          "type": "bytes4",
          "internalType": "bytes4"
        },
        {
          "name": "expectedRole",
          "type": "uint8",
          "internalType": "enum RoleAccess"
        }
      ]
    },
    {
      "type": "error",
      "name": "ErrUnsupportedInterface",
      "inputs": [
        {
          "name": "interfaceId",
          "type": "bytes4",
          "internalType": "bytes4"
        },
        {
          "name": "addr",
          "type": "address",
          "internalType": "address"
        }
      ]
    },
    {
      "type": "error",
      "name": "ErrVoteIsFinalized",
      "inputs": []
    },
    {
      "type": "error",
      "name": "ErrZeroAddress",
      "inputs": [
        {
          "name": "msgSig",
          "type": "bytes4",
          "internalType": "bytes4"
        }
      ]
    },
    {
      "type": "error",
      "name": "ErrZeroCodeContract",
      "inputs": [
        {
          "name": "addr",
          "type": "address",
          "internalType": "address"
        }
      ]
    }
  ],
  "address": "0xD05A72c0A593983Aa8336C997736e2172E745fF1",
  "args": "0x",
  "blockNumber": 26511796,
  "bytecode": "0x60806040523480156200001157600080fd5b506200001c62000022565b620000e4565b600054610100900460ff16156200008f5760405162461bcd60e51b815260206004820152602760248201527f496e697469616c697a61626c653a20636f6e747261637420697320696e697469604482015266616c697a696e6760c81b606482015260840160405180910390fd5b60005460ff9081161015620000e2576000805460ff191660ff9081179091556040519081527f7f26b83ff96e1f2b6a682f133852f6798a09c465da95921460cefb38474024989060200160405180910390a15b565b61398280620000f46000396000f3fe608060405234801561001057600080fd5b50600436106101965760003560e01c806301a5f43f1461019b57806306aba0e1146101b05780630a44fa43146101cb5780630f7c3189146101de5780631c905e39146101f35780631f425338146102155780632c5e6520146102285780632d6d7d731461024b57806334d5f37b1461025e57806335da81211461027e5780633644e515146102915780637d4c1d781461029a5780637de5dedd146102ad5780637f7fe058146102b5578063800eaab3146102d5578063828fc1a1146102e8578063865e6fd3146102fb578063901979d51461030e5780639b19dbfd14610339578063a64a838014610341578063aee1767f14610354578063b384abef14610367578063b405aaf2146103c2578063b9c36209146103d5578063bc4e068f146103e8578063c441c4a8146103fb578063cc7e6b3b14610412578063d0a50db014610432578063d78392f81461043a578063dafae4081461044d578063de981f1b14610460578063e75235b814610473578063e9c0349814610490578063f80b5352146104a3575b600080fd5b6101ae6101a9366004612d91565b6104ab565b005b6101b861055a565b6040519081526020015b60405180910390f35b6101b86101d9366004612e2a565b610569565b6101e66105ee565b6040516101c29190612eb0565b610206610201366004612ec3565b610600565b6040516101c293929190612efb565b6101ae610223366004612e2a565b61061c565b61023b610236366004612fce565b6106bb565b60405190151581526020016101c2565b6101e6610259366004612e2a565b6106c8565b6101b861026c366004613003565b60026020526000908152604090205481565b6101ae61028c366004612e2a565b61070f565b6101b860015481565b6101ae6102a83660046131dd565b610757565b6101b8610893565b6102c86102c3366004613317565b6108e9565b6040516101c29190613332565b6101ae6102e3366004613346565b61095c565b61023b6102f63660046133a9565b610994565b6101ae6103093660046133e4565b6109a2565b61032161031c366004613317565b6109bd565b6040516001600160601b0390911681526020016101c2565b6101e66109f3565b6101ae61034f366004613003565b610a5e565b6102c8610362366004613317565b610a72565b6103b1610375366004612ec3565b600360208181526000938452604080852090915291835291208054600182015460028301549383015460069093015460ff909216939092909185565b6040516101c295949392919061340e565b61023b6103d0366004613317565b610a84565b6101ae6103e3366004612ec3565b610abc565b6102066103f6366004613003565b610ace565b610403610aeb565b6040516101c29392919061347d565b610425610420366004612e2a565b610bc5565b6040516101c291906134c0565b6101b8610c03565b610321610448366004613317565b610c16565b61023b61045b366004613003565b610c21565b6102c861046e3660046134d3565b610c5d565b61047b610cbf565b604080519283526020830191909152016101c2565b6101ae61049e366004612e2a565b610ce1565b6101e6610d2a565b6104b3610d8d565b61055186868080602002602001604051908101604052809392919081815260200183836020028082843760009201919091525050604080516020808a0282810182019093528982529093508992508891829185019084908082843760009201919091525050604080516020808902828101820190935288825290935088925087918291850190849080828437600092019190915250610de992505050565b50505050505050565b600061056461114b565b905090565b60008282808060200260200160405190810160405280939291908181526020018383602002808284376000920191909152506105aa925083915061115e9050565b6105e684848080602002602001604051908101604052809392919081815260200183836020028082843760009201919091525061119392505050565b949350505050565b60606105646105fb611218565b61123c565b606080606061060f8585611250565b9250925092509250925092565b610624610d8d565b818180806020026020016040519081016040528093929190818152602001838360200280828437600092019190915250610663925083915061115e9050565b600061066d611218565b905060005b838110156106b4576106ab85858381811061068f5761068f6134ee565b90506020020160208101906106a49190613317565b8390611639565b50600101610672565b5050505050565b60006105e684848461164e565b606061070683838080602002602001604051908101604052809392919081815260200183836020028082843760009201829052509250611684915050565b90505b92915050565b610717610d8d565b6107538282808060200260200160405190810160405280939291908181526020018383602002808284376000920191909152506117d792505050565b5050565b600054610100900460ff16158080156107775750600054600160ff909116105b806107915750303b158015610791575060005460ff166001145b6107f95760405162461bcd60e51b815260206004820152602e60248201527f496e697469616c697a61626c653a20636f6e747261637420697320616c72656160448201526d191e481a5b9a5d1a585b1a5e995960921b60648201526084015b60405180910390fd5b6000805460ff19166001179055801561081c576000805461ff0019166101001790555b61082589611892565b61082f83836118c2565b61083f8c8c8c8b8b8b8b8b6118f3565b8015610885576000805461ff0019169055604051600181527f7f26b83ff96e1f2b6a682f133852f6798a09c465da95921460cefb38474024989060200160405180910390a15b505050505050505050505050565b60008061089e611944565b90506000806108ab610cbf565b91509150806001828560040154856108c3919061351a565b6108cd9190613531565b6108d79190613544565b6108e19190613557565b935050505090565b60008060006108ff6108f9611944565b85611968565b9150915081610923578360405163141e2e1f60e11b81526004016107f09190613332565b61092b611944565b600101818154811061093f5761093f6134ee565b6000918252602090912001546001600160a01b0316949350505050565b33301461098a576000356001600160e01b0319166040516307337e1960e41b81526004016107f09190613579565b61075382826119cd565b60006107066000848461164e565b6109aa610d8d565b6109b381611a76565b6107538282611aa3565b6000806109c8611944565b6001600160a01b0390931660009081526003909301602052505060409020546001600160601b031690565b60606109fd611944565b600101805480602002602001604051908101604052809291908181526020018280548015610a5457602002820191906000526020600020905b81546001600160a01b03168152600190910190602001808311610a36575b5050505050905090565b610a66610d8d565b610a6f81611b2e565b50565b6000610a7d82611b9b565b5092915050565b600080610a8f611944565b6001600160a01b0390931660009081526003909301602052505060409020546001600160601b0316151590565b610ac4610d8d565b6107538282611c12565b6060806060610ade600085611250565b9250925092509193909250565b60608060606000610afa611944565b805460408051602080840282018101909252828152929350839190830182828015610b4e57602002820191906000526020600020905b81546001600160a01b03168152600190910190602001808311610b30575b5050505050935080600101805480602002602001604051908101604052809291908181526020018280548015610bad57602002820191906000526020600020905b81546001600160a01b03168152600190910190602001808311610b8f575b50505050509250610bbd84611cc4565b915050909192565b6060610706838380806020026020016040519081016040528093929190818152602001838360200280828437600092019190915250611cc492505050565b6000610c0d611944565b60010154919050565b600061070982611db0565b600080610c2c611de5565b9050610c3661114b565b8160010154610c45919061351a565b6002820154610c54908561351a565b10159392505050565b6000610c67611e09565b600083600f811115610c7b57610c7b612ee5565b60ff1681526020810191909152604001600020546001600160a01b0316905080610cba578160405163409140df60e11b81526004016107f0919061358e565b919050565b6000806000610ccc611de5565b90508060010154816002015492509250509091565b610ce9610d8d565b610d25828280806020026020016040519081016040528093929190818152602001838360200280828437600092019190915250611e2d92505050565b505050565b6060610d34611944565b805460408051602080840282018101909252828152929190830182828015610a54576020028201919060005260206000209081546001600160a01b03168152600190910190602001808311610a36575050505050905090565b7fb53127684a568b3173ae13b9f8a6016e243e63b6e8ee1178d6a717850b5d6103546001600160a01b03163314610de7576000356001600160e01b0319166001604051620f948f60ea1b81526004016107f09291906135a8565b565b6060610df58383612213565b610dfe8161115e565b6000610e08611944565b845187519192509081148015610e1e5750855181145b610e49576000356001600160e01b0319166040516306b5667560e21b81526004016107f09190613579565b806001600160401b03811115610e6157610e6161301c565b604051908082528060200260200182016040528015610e8a578160200160208202803683370190505b50935080600003610e9c575050611143565b60008060008060005b858110156110af578a8181518110610ebf57610ebf6134ee565b60200260200101519450898181518110610edb57610edb6134ee565b602002602001015193508b8181518110610ef757610ef76134ee565b60200260200101519250610f0a8561231d565b610f138461231d565b826001600160601b0316600003610f4b576000356001600160e01b031916604051637f11b8a360e11b81526004016107f09190613579565b6001600160a01b03808616600081815260038a01602090815260408083205494891683528083205460028d0190925280832054938352909120546001600160601b039384169391821692610fa39290811691166135d6565b610fad91906135d6565b610fb791906135d6565b6001600160601b0316600014898281518110610fd557610fd56134ee565b602002602001019015159081151581525050888181518110610ff957610ff96134ee565b6020026020010151156110a7578654600181810189556000898152602080822090930180546001600160a01b03808b166001600160a01b0319928316811790935591835260028c018552604080842080546001600160601b038b166001600160601b03199182168117909255868f018054978801815586528786209096018054948c1694909316841790925591835260038c0190945290208054909116821790556110a49083613531565b91505b600101610ea5565b50808660040160008282546110c49190613531565b90915550506040516110ff906347c28ec560e11b906110eb908c908f908d90602001613629565b604051602081830303815290604052612352565b7f897810999654e525e272b5909785c4d0ceaee1bbf9c87d9091a37558b0423b78888c8c8c6040516111349493929190613662565b60405180910390a15050505050505b509392505050565b6000611155611944565b60040154905090565b6111678161237f565b15610a6f576000356001600160e01b031916604051630d697db160e11b81526004016107f09190613579565b60008161119f8161115e565b60006111a9611944565b905060005b8451811015611210578160020160008683815181106111cf576111cf6134ee565b6020908102919091018101516001600160a01b0316825281019190915260400160002054611206906001600160601b031685613531565b93506001016111ae565b505050919050565b7f5da136eb38f8d8e354915fc8a767c0dc81d49de5fb65d5477122a82ddd97624090565b606060006112498361241e565b9392505050565b600082815260036020908152604080832084845290915281206004810154600582015460609384938493909290916112888284613531565b9050806001600160401b038111156112a2576112a261301c565b6040519080825280602002602001820160405280156112cb578160200160208202803683370190505b509550806001600160401b038111156112e6576112e661301c565b60405190808252806020026020018201604052801561133157816020015b60408051606081018252600080825260208083018290529282015282526000199092019101816113045790505b509450806001600160401b0381111561134c5761134c61301c565b604051908082528060200260200182016040528015611375578160200160208202803683370190505b50965060005b838110156114ca576000878281518110611397576113976134ee565b602002602001019060018111156113b0576113b0612ee5565b908160018111156113c3576113c3612ee5565b90525060008a81526003602090815260408083208c8452909152812060048701805460079092019291849081106113fc576113fc6134ee565b60009182526020808320909101546001600160a01b0316835282810193909352604091820190208151606081018352815460ff1681526001820154938101939093526002015490820152865187908390811061145a5761145a6134ee565b602002602001018190525084600401818154811061147a5761147a6134ee565b9060005260206000200160009054906101000a90046001600160a01b03168882815181106114aa576114aa6134ee565b6001600160a01b039092166020928302919091019091015260010161137b565b5060005b8281101561162d576001876114e38684613531565b815181106114f3576114f36134ee565b6020026020010190600181111561150c5761150c612ee5565b9081600181111561151f5761151f612ee5565b90525060008a81526003602090815260408083208c845290915281206005870180546007909201929184908110611558576115586134ee565b60009182526020808320909101546001600160a01b0316835282810193909352604091820190208151606081018352815460ff1681526001820154938101939093526002015490820152866115ad8684613531565b815181106115bd576115bd6134ee565b60200260200101819052508460050181815481106115dd576115dd6134ee565b6000918252602090912001546001600160a01b0316886115fd8684613531565b8151811061160d5761160d6134ee565b6001600160a01b03909216602092830291909101909101526001016114ce565b50505050509250925092565b6000610706836001600160a01b03841661247a565b600083815260036020908152604080832085845282528083206001600160a01b038516845260080190915281205460ff166105e6565b606082516001600160401b0381111561169f5761169f61301c565b6040519080825280602002602001820160405280156116c8578160200160208202803683370190505b50905060005b8351811015610a7d57600560008583815181106116ed576116ed6134ee565b6020026020010151600581111561170657611706612ee5565b600581111561171757611717612ee5565b815260200190815260200160002060009054906101000a90046001600160a01b031682828151811061174b5761174b6134ee565b60200260200101906001600160a01b031690816001600160a01b0316815250508280156117a3575060006001600160a01b0316828281518110611790576117906134ee565b60200260200101516001600160a01b0316145b156117cf576000356001600160e01b03191660405163053265f160e01b81526004016107f09190613579565b6001016116ce565b806117e18161115e565b60006117eb611218565b905060008060005b855181101561188a5785818151811061180e5761180e6134ee565b6020026020010151925061182183611a76565b611832836312c0151560e21b61256d565b61183c8484612700565b604080516001600160a01b038616815282151560208201529193507fb85c58eeff9fe423669ae0841666f4c8499e8731b8275eb462e4fa1720ec420e910160405180910390a16001016117f3565b505050505050565b600054610100900460ff166118b95760405162461bcd60e51b81526004016107f0906136ba565b610a6f81612715565b600054610100900460ff166118e95760405162461bcd60e51b81526004016107f0906136ba565b6107538282612745565b600054610100900460ff1661191a5760405162461bcd60e51b81526004016107f0906136ba565b6119248888612777565b61192d846127b8565b61193a86868585856127e8565b5050505050505050565b7fc648703095712c0419b6431ae642c061f0a105ac2d7c3d9604061ef4ebc3830090565b60008060005b84548110156119bb57848181548110611989576119896134ee565b6000918252602090912001546001600160a01b03908116908516036119b3576001925090506119c6565b60010161196e565b506000600019915091505b9250929050565b60005b8251811015610d2557306001600160a01b03168282815181106119f5576119f56134ee565b60200260200101516001600160a01b031603611a32576000356001600160e01b03191660405163053265f160e01b81526004016107f09190613579565b611a6e838281518110611a4757611a476134ee565b6020026020010151838381518110611a6157611a616134ee565b6020026020010151612912565b6001016119d0565b806001600160a01b03163b600003610a6f5780604051630bfc64a360e21b81526004016107f09190613332565b80611aac611e09565b600084600f811115611ac057611ac0612ee5565b60ff168152602081019190915260400160002080546001600160a01b0319166001600160a01b03928316179055811682600f811115611b0157611b01612ee5565b6040517f865d1c228a8ea13709cfe61f346f7ff67f1bbd4a18ff31ad3e7147350d317c5990600090a35050565b6003811015611b50576040516305f4dee960e31b815260040160405180910390fd5b6000611b5a611944565b600581018390556040518381529091507f22d5bb5059ffe2949a098666fc198587200c8118483074120d3ca7050c7753f19060200160405180910390a15050565b600080600080611bb5611bac611944565b60010186611968565b9150915081611bd957846040516326527e1760e01b81526004016107f09190613332565b611be1611944565b805482908110611bf357611bf36134ee565b6000918252602090912001546001600160a01b03169590945092505050565b80821180611c21575060018111155b15611c4d576000356001600160e01b0319166040516387f6f09560e01b81526004016107f09190613579565b6000611c57611de5565b6001810180546002830180549287905585905582549293509184908690856000611c8083613705565b9091555060408051868152602081018690527f976f8a9c5bdf8248dec172376d6e2b80a8e3df2f0328e381c6db8e1cf138c0f8910160405180910390a45050505050565b60606000611cd0611944565b905082516001600160401b03811115611ceb57611ceb61301c565b604051908082528060200260200182016040528015611d14578160200160208202803683370190505b50915060005b8351811015611da957816002016000858381518110611d3b57611d3b6134ee565b60200260200101516001600160a01b03166001600160a01b0316815260200190815260200160002060009054906101000a90046001600160601b0316838281518110611d8957611d896134ee565b6001600160601b0390921660209283029190910190910152600101611d1a565b5050919050565b6000611dba611944565b6001600160a01b0390921660009081526002929092016020525060409020546001600160601b031690565b7ff3019750f3837257cd40d215c9cc111e92586d2855a1e7e25d959613ed013f0090565b7fdea3103d22025c269050bea94c0c84688877f12fa22b7e6d2d5d78a9a49aa1cb90565b606081611e398161115e565b6000611e43611944565b8451909150806001600160401b03811115611e6057611e6061301c565b604051908082528060200260200182016040528015611e89578160200160208202803683370190505b50935080600003611e9b57505061220d565b60058201548254611ead908390613544565b1015611ecc5760405163b2e765cb60e01b815260040160405180910390fd5b60008060008060005b8581101561219357898181518110611eef57611eef6134ee565b60200260200101519350611f0284611b9b565b9095509150611f108561231d565b611f198461231d565b6001600160a01b03851660009081526002880160205260409020546001600160601b031615801590611f6d57506001600160a01b03841660009081526003880160205260409020546001600160601b031615155b898281518110611f7f57611f7f6134ee565b602002602001019015159081151581525050888181518110611fa357611fa36134ee565b60200260200101511561218b576001600160a01b038516600090815260028801602052604081205488546001600160601b039091169190611fe690600190613544565b9050886000018181548110611ffd57611ffd6134ee565b60009182526020909120015489546001600160a01b03909116908a9086908110612029576120296134ee565b600091825260209091200180546001600160a01b0319166001600160a01b039290921691909117905588548990806120635761206361371e565b60008281526020808220830160001990810180546001600160a01b03191690559092019092556001600160a01b038916825260028b0190526040902080546001600160601b0319169055600189018054829081106120c3576120c36134ee565b60009182526020909120015460018a0180546001600160a01b0390921691869081106120f1576120f16134ee565b9060005260206000200160006101000a8154816001600160a01b0302191690836001600160a01b03160217905550886001018054806121325761213261371e565b60008281526020808220830160001990810180546001600160a01b03191690559092019092556001600160a01b038816825260038b0190526040902080546001600160601b03191690556121868286613531565b945050505b600101611ed5565b50818660040160008282546121a89190613544565b90915550506040516121cd90636242a4ef60e11b906110eb908c908c90602001613734565b7fdf3dcd7987202f64648f3acdbf12401e3a2bb23e77e19f99826b5475cbb86369888a6040516121fe929190613762565b60405180910390a15050505050505b50919050565b81518151606091908082016001600160401b038111156122355761223561301c565b60405190808252806020026020018201604052801561225e578160200160208202803683370190505b50925060005b828110156122b85785818151811061227e5761227e6134ee565b6020026020010151848281518110612298576122986134ee565b6001600160a01b0390921660209283029190910190910152600101612264565b60005b82811015612313578581815181106122d5576122d56134ee565b60200260200101518583815181106122ef576122ef6134ee565b6001600160a01b0390921660209283029190910190910152600191820191016122bb565b5050505092915050565b6001600160a01b038116610a6f576000356001600160e01b03191660405163104c66df60e31b81526004016107f09190613579565b61235c82826129a5565b610753573382826040516319b5fdcb60e31b81526004016107f0939291906137d7565b6000815160000361239257506000919050565b60005b600183510381101561241557600181015b835181101561240c578381815181106123c1576123c16134ee565b60200260200101516001600160a01b03168483815181106123e4576123e46134ee565b60200260200101516001600160a01b031603612404575060019392505050565b6001016123a6565b50600101612395565b50600092915050565b60608160000180548060200260200160405190810160405280929190818152602001828054801561246e57602002820191906000526020600020905b81548152602001906001019080831161245a575b50505050509050919050565b6000818152600183016020526040812054801561256357600061249e600183613544565b85549091506000906124b290600190613544565b90508181146125175760008660000182815481106124d2576124d26134ee565b90600052602060002001549050808760000184815481106124f5576124f56134ee565b6000918252602080832090910192909255918252600188019052604090208390555b85548690806125285761252861371e565b600190038181906000526020600020016000905590558560010160008681526020019081526020016000206000905560019350505050610709565b6000915050610709565b6000816040516024016125809190613579565b60408051601f198184030181529181526020820180516001600160e01b03166301ffc9a760e01b1790525190915060009081906001600160a01b038616906125c990859061380b565b600060405180830381855afa9150503d8060008114612604576040519150601f19603f3d011682016040523d82523d6000602084013e612609565b606091505b5091509150816126cb57846001600160a01b03168360405160240161262e9190613827565b60408051601f198184030181529181526020820180516001600160e01b03166325da93a560e11b17905251612663919061380b565b600060405180830381855afa9150503d806000811461269e576040519150601f19603f3d011682016040523d82523d6000602084013e6126a3565b606091505b509092509050816126cb57838560405163069d427960e11b81526004016107f092919061383a565b808060200190518101906126df919061385d565b6106b457838560405163069d427960e11b81526004016107f092919061383a565b6000610706836001600160a01b038416612ccb565b600054610100900460ff1661273c5760405162461bcd60e51b81526004016107f0906136ba565b610a6f81612d1a565b600054610100900460ff1661276c5760405162461bcd60e51b81526004016107f0906136ba565b61098a600030612912565b600054610100900460ff1661279e5760405162461bcd60e51b81526004016107f0906136ba565b60006127a8611de5565b600181559050610d258383611c12565b600054610100900460ff166127df5760405162461bcd60e51b81526004016107f0906136ba565b610a6f816117d7565b600054610100900460ff1661280f5760405162461bcd60e51b81526004016107f0906136ba565b61281a600285611aa3565b604080516020808201839052600e60608301526d212924a223a2afa6a0a720a3a2a960911b6080808401919091528284018990528351808403909101815260a0830184528051908201207f599a80fcaa47b95e2323ab4d34d34e0cc9feda4b843edafcc30c7bdf60ea15bf60c08401527fe4d2346818310a10fac5a6d073d3dce255578caf4aa81ddcbcc7c2b98405eef060e08401527f2a80e1ef1d7842f27f2e6be0972bb708b9a135c38860dbe73c27c3486c34f4de61010084015261012080840191909152835180840390910181526101409092019092528051910120600155612907818385610de9565b506106b46003611b2e565b806005600084600581111561292957612929612ee5565b600581111561293a5761293a612ee5565b8152602081019190915260400160002080546001600160a01b0319166001600160a01b03928316179055811682600581111561297857612978612ee5565b6040517f356c8c57e9e84b99b1cb58b13c985b2c979f78cbdf4d0fa70fe2a98bb09a099d90600090a35050565b600160006129b46105fb611218565b805190915060008190036129c9575050610709565b6000816001600160401b038111156129e3576129e361301c565b604051908082528060200260200182016040528015612a0c578160200160208202803683370190505b5090506000826001600160401b03811115612a2957612a2961301c565b604051908082528060200260200182016040528015612a5c57816020015b6060815260200190600190039081612a475790505b50905060008787604051602001612a7492919061387f565b6040516020818303038152906040529050600081604051602401612a989190613827565b60408051601f198184030181529190526020810180516001600160e01b03166325da93a560e11b179052905060005b85811015612c8157868181518110612ae157612ae16134ee565b60200260200101516001600160a01b031683604051612b00919061380b565b6000604051808303816000865af19150503d8060008114612b3d576040519150601f19603f3d011682016040523d82523d6000602084013e612b42565b606091505b50868381518110612b5557612b556134ee565b60200260200101868481518110612b6e57612b6e6134ee565b6020026020010182905282151515158152505050848181518110612b9457612b946134ee565b6020026020010151612c7957868181518110612bb257612bb26134ee565b60200260200101516001600160a01b031682604051612bd1919061380b565b6000604051808303816000865af19150503d8060008114612c0e576040519150601f19603f3d011682016040523d82523d6000602084013e612c13565b606091505b50868381518110612c2657612c266134ee565b60200260200101868481518110612c3f57612c3f6134ee565b6020026020010182905282151515158152505050878015612c765750848181518110612c6d57612c6d6134ee565b60200260200101515b97505b600101612ac7565b507fc0b07a27e66788f39cc91405f012f34066b16f31b4bda9438c52f2dae0cc5b6382878686604051612cb794939291906138b0565b60405180910390a150505050505092915050565b6000818152600183016020526040812054612d1257508154600181810184556000848152602080822090930184905584548482528286019093526040902091909155610709565b506000610709565b600481905560405181907fe5cd1c123a8cf63fa1b7229678db61fe8ae99dbbd27889370b6667c8cae97da190600090a250565b60008083601f840112612d5f57600080fd5b5081356001600160401b03811115612d7657600080fd5b6020830191508360208260051b85010111156119c657600080fd5b60008060008060008060608789031215612daa57600080fd5b86356001600160401b0380821115612dc157600080fd5b612dcd8a838b01612d4d565b90985096506020890135915080821115612de657600080fd5b612df28a838b01612d4d565b90965094506040890135915080821115612e0b57600080fd5b50612e1889828a01612d4d565b979a9699509497509295939492505050565b60008060208385031215612e3d57600080fd5b82356001600160401b03811115612e5357600080fd5b612e5f85828601612d4d565b90969095509350505050565b60008151808452602080850194506020840160005b83811015612ea55781516001600160a01b031687529582019590820190600101612e80565b509495945050505050565b6020815260006107066020830184612e6b565b60008060408385031215612ed657600080fd5b50508035926020909101359150565b634e487b7160e01b600052602160045260246000fd5b60006060808352612f0f6060840187612e6b565b83810360208581019190915286518083528782019282019060005b81811015612f5657845160028110612f4457612f44612ee5565b83529383019391830191600101612f2a565b50506040925085810360408701528087518083528383019150838901925060005b81811015612fa7578351805160ff1684528581015186850152860151868401529284019291860191600101612f77565b50909a9950505050505050505050565b80356001600160a01b0381168114610cba57600080fd5b600080600060608486031215612fe357600080fd5b8335925060208401359150612ffa60408501612fb7565b90509250925092565b60006020828403121561301557600080fd5b5035919050565b634e487b7160e01b600052604160045260246000fd5b604051601f8201601f191681016001600160401b038111828210171561305a5761305a61301c565b604052919050565b60006001600160401b0382111561307b5761307b61301c565b5060051b60200190565b600082601f83011261309657600080fd5b813560206130ab6130a683613062565b613032565b8083825260208201915060208460051b8701019350868411156130cd57600080fd5b602086015b848110156130f0576130e381612fb7565b83529183019183016130d2565b509695505050505050565b600082601f83011261310c57600080fd5b8135602061311c6130a683613062565b8083825260208201915060208460051b87010193508684111561313e57600080fd5b602086015b848110156130f05780356001600160601b03811681146131635760008081fd5b8352918301918301613143565b600082601f83011261318157600080fd5b813560206131916130a683613062565b8083825260208201915060208460051b8701019350868411156131b357600080fd5b602086015b848110156130f0578035600681106131d05760008081fd5b83529183019183016131b8565b60008060008060008060008060008060006101608c8e0312156131ff57600080fd5b8b359a5060208c0135995060408c0135985060608c0135975061322460808d01612fb7565b96506001600160401b0360a08d013581101561323f57600080fd5b61324f8e60a08f01358f01613085565b96508060c08e0135111561326257600080fd5b6132728e60c08f01358f01613085565b95508060e08e0135111561328557600080fd5b6132958e60e08f01358f01613085565b9450806101008e013511156132a957600080fd5b6132ba8e6101008f01358f016130fb565b9350806101208e013511156132ce57600080fd5b6132df8e6101208f01358f01613170565b9250806101408e013511156132f357600080fd5b506133058d6101408e01358e01613085565b90509295989b509295989b9093969950565b60006020828403121561332957600080fd5b61070682612fb7565b6001600160a01b0391909116815260200190565b6000806040838503121561335957600080fd5b82356001600160401b038082111561337057600080fd5b61337c86838701613170565b9350602085013591508082111561339257600080fd5b5061339f85828601613085565b9150509250929050565b600080604083850312156133bc57600080fd5b823591506133cc60208401612fb7565b90509250929050565b803560108110610cba57600080fd5b600080604083850312156133f757600080fd5b613400836133d5565b91506133cc60208401612fb7565b60a081016005871061342257613422612ee5565b95815260208101949094526040840192909252606083015260809091015290565b60008151808452602080850194506020840160005b83811015612ea55781516001600160601b031687529582019590820190600101613458565b6060815260006134906060830186612e6b565b82810360208401526134a28186612e6b565b905082810360408401526134b68185613443565b9695505050505050565b6020815260006107066020830184613443565b6000602082840312156134e557600080fd5b610706826133d5565b634e487b7160e01b600052603260045260246000fd5b634e487b7160e01b600052601160045260246000fd5b808202811582820484141761070957610709613504565b8082018082111561070957610709613504565b8181038181111561070957610709613504565b60008261357457634e487b7160e01b600052601260045260246000fd5b500490565b6001600160e01b031991909116815260200190565b60208101601083106135a2576135a2612ee5565b91905290565b6001600160e01b03198316815260408101600b83106135c9576135c9612ee5565b8260208301529392505050565b6001600160601b03818116838216019080821115610a7d57610a7d613504565b60008151808452602080850194506020840160005b83811015612ea557815115158752958201959082019060010161360b565b60608152600061363c6060830186612e6b565b828103602084015261364e8186613443565b905082810360408401526134b681856135f6565b60808152600061367560808301876135f6565b82810360208401526136878187613443565b9050828103604084015261369b8186612e6b565b905082810360608401526136af8185612e6b565b979650505050505050565b6020808252602b908201527f496e697469616c697a61626c653a20636f6e7472616374206973206e6f74206960408201526a6e697469616c697a696e6760a81b606082015260800190565b60006001820161371757613717613504565b5060010190565b634e487b7160e01b600052603160045260246000fd5b6040815260006137476040830185612e6b565b828103602084015261375981856135f6565b95945050505050565b60408152600061377560408301856135f6565b82810360208401526137598185612e6b565b60005b838110156137a257818101518382015260200161378a565b50506000910152565b600081518084526137c3816020860160208601613787565b601f01601f19169290920160200192915050565b6001600160a01b03841681526001600160e01b031983166020820152606060408201819052600090613759908301846137ab565b6000825161381d818460208701613787565b9190910192915050565b60208152600061070660208301846137ab565b6001600160e01b03199290921682526001600160a01b0316602082015260400190565b60006020828403121561386f57600080fd5b8151801515811461124957600080fd5b6001600160e01b03198316815281516000906138a2816004850160208701613787565b919091016004019392505050565b6080815260006138c360808301876137ab565b6020838203818501526138d68288612e6b565b915083820360408501526138ea82876135f6565b915083820360608501528185518084528284019150828160051b85010183880160005b8381101561393b57601f198784030185526139298383516137ab565b9486019492509085019060010161390d565b50909b9a505050505050505050505056fea2646970667358221220d83003b43962afe3120b34eb387ecaaf4912a01d9c682ac0fb953cf65d90b77c64736f6c63430008170033",
  "chainId": 2021,
  "contractAbsolutePath": "RoninBridgeManagerConstructor.sol",
  "deployer": "0x968D0Cd7343f711216817E617d3f92a23dC91c07",
  "devdoc": {
    "version": 1,
    "kind": "dev",
    "methods": {
      "addBridgeOperators(uint96[],address[],address[])": {
        "details": "Adds multiple bridge operators.",
        "params": {
          "bridgeOperators": "An array of addresses representing the bridge operators to add.",
          "governors": "An array of addresses of hot/cold wallets for bridge operator to update their node address."
        }
      },
      "checkThreshold(uint256)": {
        "details": "Checks whether the `_voteWeight` passes the threshold."
      },
      "getBridgeOperatorWeight(address)": {
        "details": "External function to retrieve the vote weight of a specific bridge operator.",
        "params": {
          "bridgeOperator": "The address of the bridge operator to get the vote weight for."
        },
        "returns": {
          "weight": "The vote weight of the specified bridge operator."
        }
      },
      "getBridgeOperators()": {
        "details": "Returns an array of all bridge operators.",
        "returns": {
          "_0": "An array containing the addresses of all bridge operators."
        }
      },
      "getCallbackRegisters()": {
        "details": "Retrieves the addresses of registered callbacks.",
        "returns": {
          "registers": "An array containing the addresses of registered callbacks."
        }
      },
      "getContract(uint8)": {
        "details": "Returns the address of a contract with a specific role. Throws an error if no contract is set for the specified role.",
        "params": {
          "contractType": "The role of the contract to retrieve."
        },
        "returns": {
          "contract_": "The address of the contract with the specified role."
        }
      },
      "getFullBridgeOperatorInfos()": {
        "details": "Retrieves the full information of all registered bridge operators. This external function allows external callers to obtain the full information of all the registered bridge operators. The returned arrays include the addresses of governors, bridge operators, and their corresponding vote weights.",
        "returns": {
          "bridgeOperators": "An array of addresses representing the registered bridge operators.",
          "governors": "An array of addresses representing the governors of each bridge operator.",
          "weights": "An array of uint256 values representing the vote weights of each bridge operator. Note: The length of each array will be the same, and the order of elements corresponds to the same bridge operator. Example Usage: ``` (address[] memory governors, address[] memory bridgeOperators, uint256[] memory weights) = getFullBridgeOperatorInfos(); for (uint256 i = 0; i < bridgeOperators.length; i++) {     // Access individual information for each bridge operator.     address governor = governors[i];     address bridgeOperator = bridgeOperators[i];     uint256 weight = weights[i];     // ... (Process or use the information as required) ... } ```"
        }
      },
      "getGlobalProposalSignatures(uint256)": {
        "details": "See {CommonGovernanceProposal-_getProposalSignatures}"
      },
      "getGovernorOf(address)": {
        "details": "Returns the corresponding `governor` of a `operator`."
      },
      "getGovernorWeight(address)": {
        "details": "External function to retrieve the vote weight of a specific governor.",
        "params": {
          "governor": "The address of the governor to get the vote weight for."
        },
        "returns": {
          "weight": "voteWeight The vote weight of the specified governor."
        }
      },
      "getGovernorWeights(address[])": {
        "details": "Returns the weights of a list of governor addresses."
      },
      "getGovernors()": {
        "details": "Returns an array of all governors.",
        "returns": {
          "_0": "An array containing the addresses of all governors."
        }
      },
      "getOperatorOf(address)": {
        "details": "Returns the corresponding `operator` of a `governor`."
      },
      "getProposalSignatures(uint256,uint256)": {
        "details": "See {CommonGovernanceProposal-_getProposalSignatures}"
      },
      "getThreshold()": {
        "details": "Returns the threshold."
      },
      "getTotalWeight()": {
        "details": "Returns total weights."
      },
      "globalProposalVoted(uint256,address)": {
        "details": "See {CommonGovernanceProposal-_proposalVoted}"
      },
      "isBridgeOperator(address)": {
        "details": "Checks if the given address is a bridge operator.",
        "params": {
          "addr": "The address to check."
        },
        "returns": {
          "_0": "A boolean indicating whether the address is a bridge operator."
        }
      },
      "minimumVoteWeight()": {
        "details": "Returns the minimum vote weight to pass the threshold."
      },
      "proposalVoted(uint256,uint256,address)": {
        "details": "See {CommonGovernanceProposal-_proposalVoted}"
      },
      "registerCallbacks(address[])": {
        "details": "Registers multiple callbacks with the bridge.",
        "params": {
          "registers": "The array of callback addresses to register."
        }
      },
      "removeBridgeOperators(address[])": {
        "details": "Removes multiple bridge operators.",
        "params": {
          "bridgeOperators": "An array of addresses representing the bridge operators to remove."
        }
      },
      "resolveTargets(uint8[])": {
        "details": "Returns corresponding address of target options. Return address(0) on non-existent target."
      },
      "setContract(uint8,address)": {
        "details": "Sets the address of a contract with a specific role. Emits the event {ContractUpdated}.",
        "params": {
          "addr": "The address of the contract to set.",
          "contractType": "The role of the contract to set."
        }
      },
      "setMinRequiredGovernor(uint256)": {
        "details": "Self-call to update the minimum required governor.",
        "params": {
          "min": "The minimum number, this must not less than 3."
        }
      },
      "setThreshold(uint256,uint256)": {
        "details": "Sets the threshold. Requirements: - The method caller is admin. Emits the `ThresholdUpdated` event."
      },
      "sumGovernorsWeight(address[])": {
        "details": "Returns total weights of the governor list."
      },
      "totalBridgeOperator()": {
        "details": "Returns the total number of bridge operators.",
        "returns": {
          "_0": "The total number of bridge operators."
        }
      },
      "unregisterCallbacks(address[])": {
        "details": "Unregisters multiple callbacks from the bridge.",
        "params": {
          "registers": "The array of callback addresses to unregister."
        }
      },
      "updateManyTargetOption(uint8[],address[])": {
        "details": "Updates list of `targetOptions` to `targets`. Requirement: - Only allow self-call through proposal."
      }
    },
    "events": {
      "BridgeOperatorAddingFailed(address)": {
        "details": "Emitted when a bridge operator is failed to add."
      },
      "BridgeOperatorRemovingFailed(address)": {
        "details": "Emitted when a bridge operator is failed to remove."
      },
      "BridgeOperatorUpdated(address,address,address)": {
        "details": "Emitted when a bridge operator is updated."
      },
      "BridgeOperatorsAdded(bool[],uint96[],address[],address[])": {
        "details": "Emitted when new bridge operators are added."
      },
      "BridgeOperatorsRemoved(bool[],address[])": {
        "details": "Emitted when bridge operators are removed."
      },
      "ContractUpdated(uint8,address)": {
        "details": "Emitted when a contract is updated."
      },
      "GlobalProposalCreated(uint256,bytes32,(uint256,uint256,uint256,address,address[],uint256[],bytes[],uint256[]),bytes32,(uint256,uint256,address,uint8[],uint256[],bytes[],uint256[]),address)": {
        "details": "Emitted when a proposal is created"
      },
      "Initialized(uint8)": {
        "details": "Triggered when the contract has been initialized or reinitialized."
      },
      "MinRequiredGovernorUpdated(uint256)": {
        "details": "Emitted when the minimum number of required governors is updated."
      },
      "Notified(bytes,address[],bool[],bytes[])": {
        "details": "Emitted when the contract notifies multiple registers with statuses and return data."
      },
      "ProposalApproved(bytes32)": {
        "details": "Emitted when the proposal is approved"
      },
      "ProposalCreated(uint256,uint256,bytes32,(uint256,uint256,uint256,address,address[],uint256[],bytes[],uint256[]),address)": {
        "details": "Emitted when a proposal is created"
      },
      "ProposalExecuted(bytes32,bool[],bytes[])": {
        "details": "Emitted when the proposal is executed"
      },
      "ProposalExpired(bytes32)": {
        "details": "Emitted when the vote is expired"
      },
      "ProposalExpiryDurationChanged(uint256)": {
        "details": "Emitted when the proposal expiry duration is changed."
      },
      "ProposalRejected(bytes32)": {
        "details": "Emitted when the vote is reject"
      },
      "ProposalVoted(bytes32,address,uint8,uint256)": {
        "details": "Emitted when the proposal is voted"
      },
      "TargetOptionUpdated(uint8,address)": {
        "details": "Emitted when the target options are updated"
      },
      "ThresholdUpdated(uint256,uint256,uint256,uint256,uint256)": {
        "details": "Emitted when the threshold is updated"
      }
    },
    "errors": {
      "ErrContractTypeNotFound(uint8)": [
        {
          "details": "Error of invalid role."
        }
      ],
      "ErrCurrentProposalIsNotCompleted()": [
        {
          "details": "Error thrown when the current proposal is not completed."
        }
      ],
      "ErrDuplicated(bytes4)": [
        {
          "details": "Error thrown when a duplicated element is detected in an array.",
          "params": {
            "msgSig": "The function signature that invoke the error."
          }
        }
      ],
      "ErrInvalidArguments(bytes4)": [
        {
          "details": "Error indicating that arguments are invalid."
        }
      ],
      "ErrInvalidThreshold(bytes4)": [
        {
          "details": "Error indicating that the provided threshold is invalid for a specific function signature.",
          "params": {
            "msgSig": "The function signature (bytes4) that the invalid threshold applies to."
          }
        }
      ],
      "ErrInvalidVoteWeight(bytes4)": [
        {
          "details": "Error indicating that a vote weight is invalid for a specific function signature.",
          "params": {
            "msgSig": "The function signature (bytes4) that encountered an invalid vote weight."
          }
        }
      ],
      "ErrLengthMismatch(bytes4)": [
        {
          "details": "Error indicating a mismatch in the length of input parameters or arrays for a specific function.",
          "params": {
            "msgSig": "The function signature (bytes4) that has a length mismatch."
          }
        }
      ],
      "ErrOnlySelfCall(bytes4)": [
        {
          "details": "Error indicating that a function can only be called by the contract itself.",
          "params": {
            "msgSig": "The function signature (bytes4) that can only be called by the contract itself."
          }
        }
      ],
      "ErrUnauthorized(bytes4,uint8)": [
        {
          "details": "Error indicating that the caller is unauthorized to perform a specific function.",
          "params": {
            "expectedRole": "The role required to perform the function.",
            "msgSig": "The function signature (bytes4) that the caller is unauthorized to perform."
          }
        }
      ],
      "ErrUnsupportedInterface(bytes4,address)": [
        {
          "details": "The error indicating an unsupported interface.",
          "params": {
            "addr": "The address where the unsupported interface was encountered.",
            "interfaceId": "The bytes4 interface identifier that is not supported."
          }
        }
      ],
      "ErrVoteIsFinalized()": [
        {
          "details": "Error thrown when attempting to interact with a finalized vote."
        }
      ],
      "ErrZeroAddress(bytes4)": [
        {
          "details": "Error indicating that given address is null when it should not."
        }
      ],
      "ErrZeroCodeContract(address)": [
        {
          "details": "Error of set to non-contract."
        }
      ]
    }
  },
  "isFoundry": true,
  "nonce": 192802,
  "numDeployments": 1,
  "storageLayout": {
    "storage": [
      {
        "astId": 58190,
        "contract": "src/ronin/gateway/RoninBridgeManagerConstructor.sol:RoninBridgeManagerConstructor",
        "label": "_initialized",
        "offset": 0,
        "slot": "0",
        "type": "t_uint8"
      },
      {
        "astId": 58193,
        "contract": "src/ronin/gateway/RoninBridgeManagerConstructor.sol:RoninBridgeManagerConstructor",
        "label": "_initializing",
        "offset": 1,
        "slot": "0",
        "type": "t_bool"
      },
      {
        "astId": 105550,
        "contract": "src/ronin/gateway/RoninBridgeManagerConstructor.sol:RoninBridgeManagerConstructor",
        "label": "DOMAIN_SEPARATOR",
        "offset": 0,
        "slot": "1",
        "type": "t_bytes32"
      },
      {
        "astId": 107599,
        "contract": "src/ronin/gateway/RoninBridgeManagerConstructor.sol:RoninBridgeManagerConstructor",
        "label": "round",
        "offset": 0,
        "slot": "2",
        "type": "t_mapping(t_uint256,t_uint256)"
      },
      {
        "astId": 107607,
        "contract": "src/ronin/gateway/RoninBridgeManagerConstructor.sol:RoninBridgeManagerConstructor",
        "label": "vote",
        "offset": 0,
        "slot": "3",
        "type": "t_mapping(t_uint256,t_mapping(t_uint256,t_struct(ProposalVote)107537_storage))"
      },
      {
        "astId": 107609,
        "contract": "src/ronin/gateway/RoninBridgeManagerConstructor.sol:RoninBridgeManagerConstructor",
        "label": "_proposalExpiryDuration",
        "offset": 0,
        "slot": "4",
        "type": "t_uint256"
      },
      {
        "astId": 108331,
        "contract": "src/ronin/gateway/RoninBridgeManagerConstructor.sol:RoninBridgeManagerConstructor",
        "label": "_targetOptionsMap",
        "offset": 0,
        "slot": "5",
        "type": "t_mapping(t_enum(TargetOption)112395,t_address)"
      }
    ],
    "types": {
      "t_address": {
        "encoding": "inplace",
        "label": "address",
        "numberOfBytes": "20"
      },
      "t_array(t_address)dyn_storage": {
        "encoding": "dynamic_array",
        "label": "address[]",
        "numberOfBytes": "32",
        "base": "t_address"
      },
      "t_bool": {
        "encoding": "inplace",
        "label": "bool",
        "numberOfBytes": "1"
      },
      "t_bytes32": {
        "encoding": "inplace",
        "label": "bytes32",
        "numberOfBytes": "32"
      },
      "t_enum(TargetOption)112395": {
        "encoding": "inplace",
        "label": "enum GlobalProposal.TargetOption",
        "numberOfBytes": "1"
      },
      "t_enum(VoteStatus)111339": {
        "encoding": "inplace",
        "label": "enum VoteStatusConsumer.VoteStatus",
        "numberOfBytes": "1"
      },
      "t_mapping(t_address,t_bool)": {
        "encoding": "mapping",
        "key": "t_address",
        "label": "mapping(address => bool)",
        "numberOfBytes": "32",
        "value": "t_bool"
      },
      "t_mapping(t_address,t_struct(Signature)111330_storage)": {
        "encoding": "mapping",
        "key": "t_address",
        "label": "mapping(address => struct SignatureConsumer.Signature)",
        "numberOfBytes": "32",
        "value": "t_struct(Signature)111330_storage"
      },
      "t_mapping(t_enum(TargetOption)112395,t_address)": {
        "encoding": "mapping",
        "key": "t_enum(TargetOption)112395",
        "label": "mapping(enum GlobalProposal.TargetOption => address)",
        "numberOfBytes": "32",
        "value": "t_address"
      },
      "t_mapping(t_uint256,t_mapping(t_uint256,t_struct(ProposalVote)107537_storage))": {
        "encoding": "mapping",
        "key": "t_uint256",
        "label": "mapping(uint256 => mapping(uint256 => struct CoreGovernance.ProposalVote))",
        "numberOfBytes": "32",
        "value": "t_mapping(t_uint256,t_struct(ProposalVote)107537_storage)"
      },
      "t_mapping(t_uint256,t_struct(ProposalVote)107537_storage)": {
        "encoding": "mapping",
        "key": "t_uint256",
        "label": "mapping(uint256 => struct CoreGovernance.ProposalVote)",
        "numberOfBytes": "32",
        "value": "t_struct(ProposalVote)107537_storage"
      },
      "t_mapping(t_uint256,t_uint256)": {
        "encoding": "mapping",
        "key": "t_uint256",
        "label": "mapping(uint256 => uint256)",
        "numberOfBytes": "32",
        "value": "t_uint256"
      },
      "t_struct(ProposalVote)107537_storage": {
        "encoding": "inplace",
        "label": "struct CoreGovernance.ProposalVote",
        "numberOfBytes": "288",
        "members": [
          {
            "astId": 107513,
            "contract": "src/ronin/gateway/RoninBridgeManagerConstructor.sol:RoninBridgeManagerConstructor",
            "label": "status",
            "offset": 0,
            "slot": "0",
            "type": "t_enum(VoteStatus)111339"
          },
          {
            "astId": 107515,
            "contract": "src/ronin/gateway/RoninBridgeManagerConstructor.sol:RoninBridgeManagerConstructor",
            "label": "hash",
            "offset": 0,
            "slot": "1",
            "type": "t_bytes32"
          },
          {
            "astId": 107517,
            "contract": "src/ronin/gateway/RoninBridgeManagerConstructor.sol:RoninBridgeManagerConstructor",
            "label": "againstVoteWeight",
            "offset": 0,
            "slot": "2",
            "type": "t_uint256"
          },
          {
            "astId": 107519,
            "contract": "src/ronin/gateway/RoninBridgeManagerConstructor.sol:RoninBridgeManagerConstructor",
            "label": "forVoteWeight",
            "offset": 0,
            "slot": "3",
            "type": "t_uint256"
          },
          {
            "astId": 107522,
            "contract": "src/ronin/gateway/RoninBridgeManagerConstructor.sol:RoninBridgeManagerConstructor",
            "label": "forVoteds",
            "offset": 0,
            "slot": "4",
            "type": "t_array(t_address)dyn_storage"
          },
          {
            "astId": 107525,
            "contract": "src/ronin/gateway/RoninBridgeManagerConstructor.sol:RoninBridgeManagerConstructor",
            "label": "againstVoteds",
            "offset": 0,
            "slot": "5",
            "type": "t_array(t_address)dyn_storage"
          },
          {
            "astId": 107527,
            "contract": "src/ronin/gateway/RoninBridgeManagerConstructor.sol:RoninBridgeManagerConstructor",
            "label": "expiryTimestamp",
            "offset": 0,
            "slot": "6",
            "type": "t_uint256"
          },
          {
            "astId": 107532,
            "contract": "src/ronin/gateway/RoninBridgeManagerConstructor.sol:RoninBridgeManagerConstructor",
            "label": "sig",
            "offset": 0,
            "slot": "7",
            "type": "t_mapping(t_address,t_struct(Signature)111330_storage)"
          },
          {
            "astId": 107536,
            "contract": "src/ronin/gateway/RoninBridgeManagerConstructor.sol:RoninBridgeManagerConstructor",
            "label": "voted",
            "offset": 0,
            "slot": "8",
            "type": "t_mapping(t_address,t_bool)"
          }
        ]
      },
      "t_struct(Signature)111330_storage": {
        "encoding": "inplace",
        "label": "struct SignatureConsumer.Signature",
        "numberOfBytes": "96",
        "members": [
          {
            "astId": 111325,
            "contract": "src/ronin/gateway/RoninBridgeManagerConstructor.sol:RoninBridgeManagerConstructor",
            "label": "v",
            "offset": 0,
            "slot": "0",
            "type": "t_uint8"
          },
          {
            "astId": 111327,
            "contract": "src/ronin/gateway/RoninBridgeManagerConstructor.sol:RoninBridgeManagerConstructor",
            "label": "r",
            "offset": 0,
            "slot": "1",
            "type": "t_bytes32"
          },
          {
            "astId": 111329,
            "contract": "src/ronin/gateway/RoninBridgeManagerConstructor.sol:RoninBridgeManagerConstructor",
            "label": "s",
            "offset": 0,
            "slot": "2",
            "type": "t_bytes32"
          }
        ]
      },
      "t_uint256": {
        "encoding": "inplace",
        "label": "uint256",
        "numberOfBytes": "32"
      },
      "t_uint8": {
        "encoding": "inplace",
        "label": "uint8",
        "numberOfBytes": "1"
      }
    }
  },
  "timestamp": 1713240519,
  "userdoc": {
    "version": 1,
    "kind": "user",
    "methods": {
      "round(uint256)": {
        "notice": "chain id = 0 for global proposal"
      }
    },
    "errors": {
      "ErrBelowMinRequiredGovernors()": [
        {
          "notice": "Error indicating that the governors list will go below minimum number of required governor."
        }
      ],
      "ErrGovernorNotFound(address)": [
        {
          "notice": "Error indicating that cannot find the querying governor"
        }
      ],
      "ErrGovernorNotMatch(address,address)": [
        {
          "notice": "Error indicating that the msg.sender is not match the required governor"
        }
      ],
      "ErrInvalidInput()": [
        {
          "notice": "Common invalid input error"
        }
      ],
      "ErrOperatorNotFound(address)": [
        {
          "notice": "Error indicating that cannot find the querying operator"
        }
      ]
    }
  }
}